:040000000CEF00F011
:10000800FACF01F0FBCF02F0E9CF03F034ED0BF0AB
:10001800B4EF0EF02B6E2B50D8A4B7D0F7D0060E45
:10002800156E000E176E000E166E000E53EC08F0DB
:10003800EDD0050E156E000E176E000E166E000E32
:1000480053EC08F0E3D0040E156E000E176E000E88
:10005800166E000E53EC08F0D9D0030E156E000E84
:10006800176E000E166E000E53EC08F0CFD0060E79
:10007800156E000E176E000E166E010E53EC08F08A
:10008800C5D0050E156E000E176E000E166E010E09
:1000980053EC08F0BBD0040E156E000E176E000E60
:1000A800166E010E53EC08F0B1D0030E156E000E5B
:1000B800176E000E166E010E53EC08F0A7D0000E56
:1000C800156E000E176E000E166E000E53EC08F03B
:1000D8009DD0010E156E000E176E000E166E000EE6
:1000E80053EC08F093D0020E156E000E176E000E3A
:1000F800166E000E53EC08F089D0030E156E000E34
:10010800176E000E166E000E53EC08F07FD0000E2E
:10011800156E000E176E000E166E010E53EC08F0E9
:1001280075D0010E156E000E176E000E166E010EBC
:1001380053EC08F06BD0020E156E000E176E000E11
:10014800166E010E53EC08F061D0030E156E000E0A
:10015800176E000E166E010E53EC08F057D0DBEC4C
:100168000FF054D07FEC0FF051D092EC0FF04ED03E
:1001780059EC0FF04BD06CEC0FF048D0B80E1C6E59
:100188006F0E1B6E0BEC01F041D02B50010AD8B456
:1001980046D7030AD8B44DD7010AD8B454D7070AAA
:1001A800D8B45BD7010AD8B462D7030AD8B469D7E0
:1001B800010AD8B470D70F0AD8B477D7010AD8B4CF
:1001C8007ED7030AD8B485D7010AD8B48CD7070AD2
:1001D800D8B493D7010AD8B49AD7030AD8B4A1D708
:1001E800010AD8B4A8D71F0AD8B4AFD7010AD8B41F
:1001F800B6D7030AD8B4B6D7010AD8B4B9D7070A0C
:10020800D8B4B3D7010AD8B4B6D7B8D71200000EFD
:10021800246E1D0E236EB7D02A50250AD8B404D0F8
:100228002A50C8EC10F0AFD0000E226E10D023C0B8
:10023800D9FF24C0DAFFDF502A6E020E2326000EF3
:1002480024222A50C8EC10F09ED0228C1BD01BC050
:10025800F6FF1CC0F7FF1B4A1C2AF86A0800F5CFF6
:100268002AF02A50000AD8B49AD0630AD8B4DFD743
:10027800070AD8B407D00D0AD8B404D01C0AD8B4D9
:10028800E4D7DFD722BC1DD023C0D9FF24C0DAFFB2
:10029800DECF25F0DDCF26F0020E2326000E242225
:1002A8002650800AF36E800EF35C000ED8B4255CED
:1002B800D8B013D0030E2212256C261ED8B0262AD9
:1002C8000CD023C0D9FF24C0DAFFDECF25F0DDCF64
:1002D80026F0020E2326000E2422010E2A6E2A5032
:1002E800050AD8B419D02A50020DB70EF324F66EB9
:1002F800B50EF420F76EF86A000EF8220900F5CF63
:100308001FF00900F5CF20F01F50255C205026581B
:10031800D8A002D02A2AE3D722C01FF0030E1F1646
:10032800D8B403D02D0EC8EC10F02AC021F027D085
:100338002150020DB70EF324F66EB50EF420F76EB9
:10034800F86A000EF8220900F5CF11F00A00F5CF7F
:1003580012F025C00FF026C010F090EC0DF00FC081
:1003680016F010C017F0000E196E0A0E186EFFEC8A
:100378000DF01650300F2A6E2A50C8EC10F02106E6
:100388002128D8A4D5D71BC0F6FF1CC0F7FF1B4AED
:100398001C2AF86A0800F5CF2AF02A663DD7120011
:1003A80051C036F052C037F053C038F054C039F05D
:1003B800020EE3EC0BF02BC038F02CC039F0010E24
:1003C800E3EC0BF02BC036F02CC037F03750800A26
:1003D800306E3850365C3950800A3058D8B021D049
:1003E80036C030F037C031F0301E311E304A312A65
:1003F80038503024336E39503120346E3450800AEE
:10040800306E6A50335C6B50800A3058D8B02BD0AD
:1004180033C06AF034C06BF036C03DF037C03EF0F0
:1004280022D020EE38F0DECF30F0DDCF31F0301EB4
:10043800311E304A312A36503024336E375031203D
:10044800346E3450800A306E6A50335C6B50800AC8
:100458003058D8B008D033C06AF034C06BF038C018
:100468003DF039C03EF0010EE3EC0BF07750800A06
:10047800306E2B50765C2C50800A3058D8B051D052
:10048800010E356E23D03550020D3D0EF324D96E82
:10049800000EF420DA6EDECF30F0DDCF31F03150CF
:1004A800800A326E3D50305C3E50800A3258D8B0D7
:1004B8000CD03550020D3D0EF324D96E000EF420F9
:1004C800DA6EDECF3DF0DDCF3EF0352A030E35641F
:1004D800DAD7B70E1C6E8E0E1B6E5DC01DF05EC0A7
:1004E8001EF00BEC01F0EC0E3D245D6EFF0E3E207D
:1004F8005E6EB90E1C6E1F0E1B6E5DC01DF05EC0D9
:100508001EF00BEC01F01BEC10F01BEC10F00A0EC7
:10051800736EAA0E726E04001AEC0CF0000E676E71
:1005280002D03FEC0EF0000E12002B6E000E2C6E67
:1005380087D0BC0E1C6E740E1B6E0BEC01F0000E07
:100548007B6E0D0E1DD0BB0E1C6EAA0E1B6E0BEC27
:1005580001F0010E7B6E0E0E13D0BC0E1C6EAC0E9D
:100568001B6E0BEC01F0020E7B6E0F0E09D0BD0E58
:100578001C6EE30E1B6E0BEC01F0030E7B6E100E6F
:100588002C6E84D0BD0E1C6EB90E1B6E0BEC01F0E8
:100598002DD0050E2C6EBC0E1C6E6C0E1B6E0BEC5B
:1005A80001F032D0060E2C6EBB0E1C6EA00E1B6E18
:1005B8000BEC01F029D0070E2C6EBC0E1C6EA40E9D
:1005C8001B6E0BEC01F020D0080E2C6EBE0E1C6EBC
:1005D8006A0E1B6E0BEC01F017D0BF0E1C6E480E96
:1005E8001B6E0BEC01F0050E2C6E0ED07B50000A32
:1005F800D8B4CFD7010AD8B4D5D7030AD8B4DBD733
:10060800010AD8B4E1D7E9D7060E736E980E726E58
:100618003DD0B80E1C6ED90E1B6E0BEC01F036D017
:100628000F0E736ED20E726E20EC0EF02FD0BF0E2E
:100638001C6E750E1B6E0BEC01F03CEC0DF026D019
:100648002B503C0AD8B4E5D7020AD8B49BD77D0A08
:10065800D8B48DD7050AD8B46CD70B0AD8B473D7D9
:100668001E0AD8B47AD7060AD8B4DAD7360AD8B464
:100678007ED7050AD8B45DD70B0AD8B464D71E0A4A
:10068800D8B46BD7060AD8B4CBD7D1D72C50120020
:100698002B6E000E2C6E87D0BC0E1C6E580E1B6E77
:1006A8000BEC01F0000E7B6E050E1DD0BB0E1C6E10
:1006B8008C0E1B6E0BEC01F0010E7B6E060E13D038
:1006C800BC0E1C6E900E1B6E0BEC01F0020E7B6EC6
:1006D800070E09D0BD0E1C6EE30E1B6E0BEC01F06D
:1006E800030E7B6E080E2C6E84D0BD0E1C6ECE0ED3
:1006F8001B6E0BEC01F02DD00D0E2C6EBC0E1C6E7B
:100708006C0E1B6E0BEC01F032D00E0E2C6EBB0E75
:100718001C6EA00E1B6E0BEC01F029D00F0E2C6E78
:10072800BC0E1C6EA40E1B6E0BEC01F020D0100E3C
:100738002C6EBE0E1C6E6A0E1B6E0BEC01F017D0F1
:10074800BF0E1C6E480E1B6E0BEC01F00D0E2C6ECE
:100758000ED07B50000AD8B4CFD7010AD8B4D5D769
:10076800030AD8B4DBD7010AD8B4E1D7E9D7050E14
:10077800736E320E726E3DD0B80E1C6EB60E1B6EC6
:100788000BEC01F036D00F0E736ED20E726E20ECA9
:100798000EF02FD0BF0E1C6E750E1B6E0BEC01F009
:1007A8003CEC0DF026D02B503C0AD8B49ED7020A58
:1007B800D8B4E2D77D0AD8B48DD7050AD8B46CD797
:1007C8000B0AD8B473D71E0AD8B47AD7060AD8B495
:1007D800DAD7360AD8B47ED7050AD8B45DD70B0A5B
:1007E800D8B464D71E0AD8B46BD7060AD8B4CBD706
:1007F800D1D72C5012002B6E000E2C6E7FD0B90E64
:100808001C6ECA0E1B6E0BEC01F0000E7A6E090E00
:100818001DD0B80E1C6EFC0E1B6E0BEC01F0010E09
:100828007A6E0A0E13D0B90E1C6EEB0E1B6E0BEC13
:1008380001F0020E7A6E0B0E09D0BC0E1C6E3C0E37
:100848001B6E0BEC01F0030E7A6E0C0E2C6E7CD036
:10085800BE0E1C6E370E1B6E0BEC01F024D0010E81
:100868002C6EBC0E1C6E6C0E1B6E0BEC01F028D0AF
:10087800020E2C6EBB0E1C6EA00E1B6E0BEC01F054
:100888001FD0030E2C6EBC0E1C6EA40E1B6E0BEC40
:1008980001F016D0040E2C6EBE0E1C6E6A0E1B6E76
:1008A8000BEC01F00DD07A50000AD8B4D8D7010A61
:1008B800D8B4DED7030AD8B4E4D7010AD8B4EAD743
:1008C800090E736E540E726E3FD0B90E1C6E870EF1
:1008D8001B6E0BEC01F038D00F0E736ED20E726ED9
:1008E80020EC0EF031D0000E2C6EBF0E1C6EB90E2F
:1008F8001B6E0BEC01F03CEC0DF026D02B503C0AA3
:10090800D8B4E3D7020AD8B4A3D77D0AD8B495D708
:10091800050AD8B474D70B0AD8B47BD71E0AD8B442
:1009280082D7060AD8B4D8D7360AD8B486D7050AE3
:10093800D8B465D70B0AD8B46CD71E0AD8B473D705
:10094800060AD8B4C9D7CFD72C5012002B6E000E88
:100958002C6E7FD0BC0E1C6EFC0E1B6E0BEC01F0D7
:10096800000E7A6E010E1DD0BC0E1C6EC80E1B6EDA
:100978000BEC01F0010E7A6E020E13D0BD0E1C6E48
:10098800150E1B6E0BEC01F0020E7A6E030E09D0E9
:10099800BE0E1C6E5F0E1B6E0BEC01F0030E7A6E22
:1009A800040E2C6E7CD0BE0E1C6E4B0E1B6E0BEC18
:1009B80001F024D0090E2C6EBC0E1C6E6C0E1B6E42
:1009C8000BEC01F028D00A0E2C6EBB0E1C6EA00E8C
:1009D8001B6E0BEC01F01FD00B0E2C6EBC0E1C6EA8
:1009E800A40E1B6E0BEC01F016D00C0E2C6EBE0E76
:1009F8001C6E6A0E1B6E0BEC01F00DD07A50000ACB
:100A0800D8B4D8D7010AD8B4DED7030AD8B4E4D703
:100A1800010AD8B4EAD7070E736EFE0E726E3FD085
:100A2800B90E1C6E650E1B6E0BEC01F038D00F0E64
:100A3800736ED20E726E20EC0EF031D0000E2C6E5A
:100A4800BF0E1C6EB90E1B6E0BEC01F03CEC0DF0EA
:100A580026D02B503C0AD8B4A6D7020AD8B4E0D77F
:100A68007D0AD8B495D7050AD8B474D70B0AD8B478
:100A78007BD71E0AD8B482D7060AD8B4D8D7360A84
:100A8800D8B486D7050AD8B465D70B0AD8B46CD7BA
:100A98001E0AD8B473D7060AD8B4C9D7CFD72C50F2
:100AA80012002B6E000E2C6E7AD0BE0E1C6ED30E6A
:100AB8001B6E0BEC01F0170E1FD0BE0E1C6EE40E61
:100AC8001B6E0BEC01F0180E17D0BE0E1C6EF50E47
:100AD8001B6E0BEC01F0190E0FD0BF0E1C6E060E2C
:100AE8001B6E0BEC01F01A0E07D0BF0E1C6E170E12
:100AF8001B6E0BEC01F01B0E2C6E74D0B70E1C6E27
:100B08008E0E1B6E5DC01DF05EC01EF00BEC01F07A
:100B1800B80E1C6E4D0E1B6E0BEC01F0190E736EA9
:100B2800C60E726E5FD0B60E1C6EDE0E1B6E0BEC20
:100B380001F0000E2D6E19D02D50020D6A0EF3240F
:100B4800D96E000EF420DA6EE80EDE6E030EDD6E4E
:100B58002D50020D3D0EF324D96E000EF420DA6EEE
:100B6800000EDE6E000EDD6E2D2A030E2D64E4D716
:100B78001D0E736E9A0E726E010E676E33D0160ECE
:100B8800736EE60E726E000E2C6EACEC0BF02AD073
:100B9800BF0E1C6E910E1B6E0BEC01F023D02B5078
:100BA800310AD8B482D7030AD8B487D7010AD8B48F
:100BB8008CD7070AD8B491D7010AD8B496D7740A43
:100BC800D8B4B1D7150AD8B499D7010AD8B4D7D7A9
:100BD800340AD8B4A8D7150AD8B490D7010AD8B41B
:100BE800CED7D6D72C5012002B6E000E5D5C040EAB
:100BF8005E58D8B05ED02F0E2B6422D03A0E2B5CF4
:100C0800D8B01ED0BF0E1C6EF80E1B6E2BC01DF088
:100C18001E6A0BEC01F05DC00FF05EC010F0000E14
:100C2800126E0A0E116E46EC0FF02B500F26000EB6
:100C38001022D00E0F245D6EFF0E10205E6E5BD06A
:100C48005E505D10D8B416D0B90E1C6E1F0E1B6E08
:100C58005DC01DF05EC01EF00BEC01F01BEC10F047
:100C68001BEC10F00A0E736EAA0E726E04001AECDA
:100C78000CF041D0B60E1C6EAF0E1B6E0BEC01F0E3
:100C88001BEC10F01BEC10F0B70E1C6E8E0E1B6EDA
:100C98005DC01DF05EC01EF00BEC01F0B80E1C6EBE
:100CA8004D0E1B6E0BEC01F0010E5E6EFE0E5D6EBE
:100CB8001ED0B60E1C6E7D0E1B6E0BEC01F01BECED
:100CC80010F01BEC10F0010E5E6EFE0E5D6EB70E9E
:100CD8001C6E8E0E1B6E5DC01DF05EC01EF00BEC10
:100CE80001F0B80E1C6E4D0E1B6E0BEC01F0190EC8
:100CF800736EC60E726E000E120049C034F04AC000
:100D080035F04BC036F04CC037F0030EE3EC0BF077
:100D18002BC036F02CC037F0020EE3EC0BF02BC0E2
:100D280034F02CC035F03550800A306E3650345CC3
:100D38003750800A3058D8B021D034C030F035C090
:100D480031F0301E311E304A312A36503024326E8E
:100D580037503120336E3350800A306E6C50325C1D
:100D68006D50800A3058D8B02BD032C06CF033C0E8
:100D78006DF034C03FF035C040F022D020EE36F0A0
:100D8800DECF30F0DDCF31F0301E311E304A312A4F
:100D980034503024326E35503120336E3350800A4F
:100DA800306E6C50325C6D50800A3058D8B008D024
:100DB80032C06CF033C06DF036C03FF037C040F041
:100DC800020EE3EC0BF07750800A306E2B50765C05
:100DD8002C50800A3058D8B004D0030E736EA80E79
:100DE800726E3FEC0EF0000E12004DC034F04EC093
:100DF80035F04FC036F050C037F0040EE3EC0BF07E
:100E08002BC036F02CC037F0030EE3EC0BF02BC0F0
:100E180034F02CC035F03550800A306E3650345CD2
:100E28003750800A3058D8B021D034C030F035C09F
:100E380031F0301E311E304A312A36503024326E9D
:100E480037503120336E3350800A306E6E50325C2A
:100E58006F50800A3058D8B02BD032C06EF033C0F3
:100E68006FF034C041F035C042F022D020EE36F0A9
:100E7800DECF30F0DDCF31F0301E311E304A312A5E
:100E880034503024326E35503120336E3350800A5E
:100E9800306E6E50325C6F50800A3058D8B008D02F
:100EA80032C06EF033C06FF036C041F037C042F048
:100EB800030EE3EC0BF07750800A306E2B50765C13
:100EC8002C50800A3058D8B004D00D0E736E020E24
:100ED800726E3FEC0EF0000E120055C034F056C092
:100EE80035F057C036F058C037F0050EE3EC0BF07C
:100EF8002BC036F02CC037F0040EE3EC0BF02BC0FF
:100F080034F02CC035F03550800A306E3650345CE1
:100F18003750800A3058D8B021D034C030F035C0AE
:100F280031F0301E311E304A312A36503024326EAC
:100F380037503120336E3350800A306E7050325C37
:100F48007150800A3058D8B02BD032C070F033C0FE
:100F580071F034C043F035C044F022D020EE36F0B2
:100F6800DECF30F0DDCF31F0301E311E304A312A6D
:100F780034503024326E35503120336E3350800A6D
:100F8800306E7050325C7150800A3058D8B008D03A
:100F980032C070F033C071F036C043F037C044F04F
:100FA800040EE3EC0BF07750800A306E2B50765C21
:100FB8002C50800A3058D8B004D00D0E736EF20E43
:100FC800726E3FEC0EF0000E12002B6E000E2C6EAF
:100FD80044D0090E736E540E726E3CEC0DF0BF0EC9
:100FE8001C6E570E1B6E0BEC01F00CD0060E736EC8
:100FF800980E726E3CEC0DF0BF0E1C6E280E1B6E28
:101008000BEC01F0000E2C6E48D0110E2C6EBF0EAA
:101018001C6E830E1B6E0BEC01F03FD01E0E2C6E67
:10102800BB0E1C6E6E0E1B6E0BEC01F036D0160E4E
:10103800736EE60E726E000E2C6EACEC0BF02DD0BB
:10104800160E736EE60E726E000E2C6EBF0E1C6EC0
:10105800AD0E1B6E0BEC01F020D02B50420AD8B419
:10106800D4D7080AD8B4DAD7060AD8B4B2D71E0A31
:10107800D8B4BCD7070AD8B4DAD7370AD8B4C5D792
:10108800080AD8B4CBD7060AD8B4A3D71E0AD8B44E
:10109800ADD7070AD8B4CBD7D3D72C5012001A6EC5
:1010A800010E1B6E1550020DA90EF324F66EB50E37
:1010B800F420F76EF86A000EF8220900F5CF18F050
:1010C8000900F5CF19F0165018241C6E1750192076
:1010D8001D6E1D50800AF36E800EF35C000ED8B4AE
:1010E8001C5CD8B006D0000E1B6E1C6C1D1ED8B040
:1010F8001D2A1D50800A7D0F210ED8B41C5CD8A073
:1011080004D0030E1D6E200E1C6E1A6616D01CC06D
:101118000FF01DC010F05DEC0EF01B6602D082903F
:1011280001D0828082B002D0010E01D0000E186E6C
:10113800184684501818FD0B14D01CC00FF01DC0A1
:1011480010F07AEC0EF01B6602D0829A01D0828AE7
:1011580082BA02D0010E01D0000E186E8450181801
:10116800FE0B1818846E1200870EC9EC0FF0115090
:101178005D5C12505E58D8B002D0010E01D0000E4E
:10118800146E65501418FE0B1418656E8F0EC9EC9A
:101198000FF011505D5C12505E58D8B002D0010EAD
:1011A80001D0000E146E144665501418FD0B141867
:1011B800656E970EC9EC0FF011505D5C12505E58C9
:1011C800D8B002D0010E01D0000E146E1446144699
:1011D80065501418FB0B1418656E9F0EC9EC0FF0C0
:1011E80011505D5C12505E58D8B002D0010E01D08B
:1011F800000E146E14461446144665501418F70B66
:101208001418656EA70EC9EC0FF011505D5C1250F2
:101218005E58D8B002D0010E01D0000E146E143AF8
:1012280065501418EF0B1418656E1200D08EF29EDC
:10123800F29C32EC0FF0DAEC10F0000E106E100E8B
:101248000F6E3C0E51EC0CF0E6EC10F0000E836EC5
:1012580098EC10F00009D8B403D07AEC09F017D054
:10126800BBEC10F00009D8B403D0ECEC0FF00FD0B1
:101278008EEC10F00009D8B403D039EC10F007D088
:10128800FCAE03D02AEC10F002D047EC10F0B4EC1E
:1012980010F0E0EC10F0DDEC10F0D7EC10F063EC9F
:1012A80010F00C0E0F6E0A0E106EA70E85EC0CF0E7
:1012B800829A849082908492060E55EC10F0C70EA4
:1012C800ABEC10F0C70E97EC0EF0000E106E000E8F
:1012D8000F6E7AEC0EF0000E106E000E0F6E5DECC5
:1012E8000EF0020E5E6E000E5D6E1200000E2B6E8A
:1012F800000E2C6E000E2D6E000E2E6E000E2F6E40
:10130800000E306E000E316E000E326EE3EC10F0FF
:10131800BF0E1C6EED0E1B6E0BEC01F083908382EA
:101328008384838683882CD004003050750A300E5D
:10133800D8B42F1831103210D8A411D0000E2F6E47
:10134800000E306E000E316E000E326E010E2B262E
:10135800000E2C222D222E22839083820BD0305017
:101368003A0A980ED8B42F1831103210D8A402D0E7
:1013780083808392010E2F26000E302231223222E2
:101388000A0E2B5C000E2C58000E2D58000E2E58FD
:10139800D8B01200C9D72C6E39D0BB0E1C6E300ED7
:1013A8001B6E0BEC01F0870E0CEC10F040D0B70E62
:1013B8001C6EDD0E1B6E0BEC01F08F0E0CEC10F0AA
:1013C80036D0B80E1C6E930E1B6E0BEC01F0970E08
:1013D8000CEC10F02CD0B70E1C6E630E1B6E0BECD1
:1013E80001F09F0E0CEC10F022D0B90E1C6EA90E65
:1013F8001B6E0BEC01F0A70E0CEC10F018D0B80E19
:101408001C6E270E1B6E0BEC01F011D02C50170A26
:10141800D8B4C3D70F0AD8B4CAD7010AD8B4D1D719
:10142800030AD8B4D8D7010AD8B4DFD7E8D712004E
:10143800000E3C6E1AEC09F0BF0E1C6EFB0E1B6E04
:101448000BEC01F0ACEC0BF01A0E5C6E220E5B6E2E
:10145800B8EC08F0F5EC0AF00400E9EC10F000092B
:10146800D8A4FCEC0FF001D809D00500FA6E5B5047
:10147800FD6E5C50FE6EFF6AFA5012003C6E3C66D0
:1014880001D0E6D7160E3C5CD8B004D03C500EEC28
:1014980000F0DED71C0E3C5CD8B004D03C50CFEC3A
:1014A80009F0D6D7210E3C5CD8B004D03C5067EC8C
:1014B8000DF0CED7B60E1C6E050E1B6E0BEC01F0B0
:1014C800C7D7000E2D6EB9EC0DF02C6E32D0140E6D
:1014D80025D0150E23D0634A642ABA0E1C6E2D0E31
:1014E8001B6E63C01DF064C01EF00BEC01F09EAAD9
:1014F8002ED01BEC10F02E6E2E50750AD8B404D0E6
:101508002E50550AD8A405D0200E2D6E20EC0EF0D2
:101518001ED02E50310AD8A41AD01E0E2D6E17D008
:101528001D0E2D6EBD0E1C6E5F0E1B6E0BEC01F0BA
:101538000ED02C50000AD8B40AD0020AD8B4C7D7A3
:10154800060AD8B4C6D7010AD8B4C5D7E9D72D50EA
:101558001200000E2D6EDCEC0DF02C6E32D0120E47
:1015680025D0130E23D05F4A602ABA0E1C6E6F0E68
:101578001B6E5FC01DF060C01EF00BEC01F09EAA50
:101588002ED01BEC10F02E6E2E50750AD8B404D055
:101598002E50550AD8A405D0200E2D6E20EC0EF042
:1015A8001ED02E50320AD8A41AD01F0E2D6E17D076
:1015B8001D0E2D6EBD0E1C6E760E1B6E0BEC01F013
:1015C8000ED02C50000AD8B40AD0010AD8B4C7D714
:1015D800020AD8B4C6D7060AD8B4C5D7E9D72D5059
:1015E800120065B002D0010E01D0000E0F6E8350BC
:1015F8000F18FE0B0F18836E65B202D0010E01D0D2
:10160800000E0F6E0F4683500F18FD0B0F18836ED8
:1016180065B402D0010E01D0000E0F6E0F460F46C2
:1016280083500F18FB0B0F18836E65B602D0010E9E
:1016380001D0000E0F6E0F460F460F4683500F184D
:10164800F70B0F18836E65B802D0010E01D0000E9B
:101658000F6E0F3A83500F18EF0B0F18836E12009E
:101668000600EACF04F0E1CF05F0E2CF06F0D9CFCB
:1016780007F0DACF08F0F3CF09F0F4CF0AF0F6CF8D
:101688000BF0F7CF0CF0F8CF0DF0F5CF0EF0A194DA
:101698009268936894689568030E966E010E696E59
:1016A800A094D2980EC0F5FF0DC0F8FF0CC0F7FF4C
:1016B8000BC0F6FF0AC0F4FF09C0F3FF08C0DAFF49
:1016C80007C0D9FF06C0E2FF05C0E1FF04C0EAFF7A
:1016D80003C0E9FF02C0FBFF01C0FAFF11002B6E37
:1016E800000E2C6E1CD00F0E736ED20E726E20EC94
:1016F8000EF009D00A0E736EAA0E726E1AEC0CF078
:1017080002D0ACEC0BF0000E2C6E20D0160E736ECF
:10171800E60E726E000E2C6EACEC0BF017D02B5050
:101728003F0AD8B4EED7770AD8B4EBD7050AD8B4AD
:10173800DAD71E0AD8B4DED73B0AD8B4E2D7050AEE
:10174800D8B4D1D71E0AD8B4D5D7E0D72C501200B8
:10175800B70E1C6EB60E1B6E0BEC01F0BD0E1C6EA8
:10176800470E1B6E0BEC01F0BD0E1C6E8D0E1B6E32
:101778000BEC01F0BA0E1C6E0C0E1B6E0BEC01F09C
:10178800BA0E1C6EF00E1B6E0BEC01F0BE0E1C6E3A
:10179800730E1B6E0BEC01F0BF0E1C6E660E1B6EFB
:1017A8000BEC01F0BF0E1C6E380E1B6E0BEC01F03B
:1017B800B80E1C6E020E1B6E0BEC01F012002D6EA3
:1017C8001FD0870EC9EC0FF00FD08F0EC9EC0FF0A9
:1017D8000BD0970EC9EC0FF007D09F0EC9EC0FF095
:1017E80003D0A70EC9EC0FF011C02EF012C02FF0D5
:1017F80018D0BA0E1C6E900E1B6E0BEC01F011D0B7
:101808002D50010AD8B4DDD7030AD8B4DED7010AAF
:10181800D8B4DFD7070AD8B4E0D7010AD8B4E1D7DB
:10182800E8D72EC02BF02FC02CF01200BB0E1C6E78
:101838004F0E1B6E0BEC01F0BB0E1C6EC80E1B6E20
:101848000BEC01F0BB0E1C6EE50E1B6E0BEC01F0F1
:10185800BC0E1C6E020E1B6E0BEC01F0BC0E1C6E57
:101868001F0E1B6E0BEC01F0BB0E1C6E100E1B6ED8
:101878000BEC01F0B90E1C6E420E1B6E0BEC01F066
:10188800B70E1C6E370E1B6E0BEC01F0BD0E1C6EF6
:10189800A30E1B6E0BEC01F01200146E000EAC6E62
:1018A800000EAB6E14B0AC8814A202D0AC8CAB8C1A
:1018B80014B4AC8E14A602D0AB8801D0AB8A14B88D
:1018C800AC849E9814BAAB8614AC02D09D8A01D021
:1018D8009D9A9E9A14AE02D09D8801D09D980FC003
:1018E800AFFF10C011F011C012F0136A1250B06EA1
:1018F800AC8AAB8E949C948EACB8ACBE01D0948C60
:101908001200136E000EC26E000EC06ED8900F301B
:101918003C0BC26E0FC011F0113AF00E1116300ECA
:10192800111610500F0B1110C16E13C011F0D89082
:101938001136D8901136380E111613C012F0123A1B
:101948000F0E1216070E12161350800B12101110DC
:10195800C06E0FAE03D09E9C9D8CF28CC28012008C
:10196800000E0F6E000E106E000E116E000E126E3D
:1019780004001050750A300ED8B40F181110121048
:10198800D8A40BD0000E0F6E000E106E000E116E54
:10199800000E126E839083820BD010503A0A980E74
:1019A800D8B40F1811101210D8A402D083808392D3
:1019B800010E0F26000E102211221222D9D72B6EEB
:1019C8002F0E2B6418D03A0E2B5CD8B014D0BF0E53
:1019D8001C6EF80E1B6E2BC01DF01E6A0BEC01F07E
:1019E800D00E2B245D6E5E6AFF0E5E220B0E736EA8
:1019F800F00E726E10D0BC0E1C6EE30E1B6E0BEC5C
:101A080001F01BEC10F01BEC10F0B80E1C6E4B0E26
:101A18001B6E0BEC01F0000E1200000E3A6E000E69
:101A28003B6E6750D8B40CD001D820D00500FA6EB0
:101A38007250FD6E7350FE6EFF6AFA50000E12006F
:101A48009EAA03D01BEC10F03B6E3B50D8B40CD0D0
:101A580001D80BD00500FA6E7250FD6E7350FE6E01
:101A6800FF6AFA503B501200000E3A6E3A501200CC
:101A7800BE0E1C6E0D0E1B6E0BEC01F0BD0E1C6E27
:101A8800F80E1B6E0BEC01F0BE0E1C6EAE0E1B6E3C
:101A98000BEC01F0BA0E1C6ED00E1B6E0BEC01F0B5
:101AA800BA0E1C6EB00E1B6E0BEC01F0BF0E1C6E56
:101AB8009F0E1B6E0BEC01F0BD0E1C6EA30E1B6E71
:101AC8000BEC01F012002B6E2B501E0AD8A404D088
:101AD800150E5C6E5A0E17D02B501F0AD8A404D0CE
:101AE800140E5C6ECA0E0FD02B501D0AD8A404D059
:101AF8001A0E5C6E220E07D02B50200AD8A405D0EF
:101B0800210E5C6EA60E5B6E06D0B50E1C6EC10E65
:101B18001B6E0BEC01F01200000E146E000E136E1B
:101B280012501110D8B41CD0010E156E04D0D890E4
:101B380011361236152A12AEFAD7D8901336143643
:101B480011500F5C12501058D8A005D011500F5EDC
:101B58001250105A1380D89012321132152EEDD728
:101B680013C00FF014C010F01200000E2B6EFE0E02
:101B7800615CFF0E6258D8B003D0614A622A0AD06D
:101B8800000E626E000E616EBA0E1C6E4E0E1B6E5B
:101B98000BEC01F001D809D00500FA6E7850FD6E03
:101BA8007950FE6EFF6AFA5012002B6E2B5012000D
:101BB800000E2B6EFE0E595CFF0E5A58D8B003D09B
:101BC800594A5A2A0AD0000E5A6E000E596EBA0E99
:101BD8001C6E4E0E1B6E0BEC01F001D809D00500EF
:101BE800FA6E7450FD6E7550FE6EFF6AFA50120060
:101BF8002B6E2B50120019501810D8B418D0010EA3
:101C08001A6E04D0D890183619361A2A19AEFAD78F
:101C18001850165C19501758D8A004D01850165EE2
:101C28001950175AD890193218321A2EF1D716C0EF
:101C380016F017C017F01200BE0E1C6E220E1B6E97
:101C48000BEC01F0BE0E1C6E870E1B6E0BEC01F048
:101C5800BE0E1C6EC10E1B6E0BEC01F0B60E1C6E98
:101C6800440E1B6E0BEC01F0BD0E1C6E2E0E1B6E8F
:101C78000BEC01F012009EAA1BD01BEC10F02B6E8F
:101C88001BEC10F01BEC10F0BF0E1C6EF30E1B6E5D
:101C98002BC01DF01E6A0BEC01F0B70E1C6E0B0E6C
:101CA8001B6E0BEC01F004001AEC0CF0000E676ED2
:101CB80012000FC011F010C012F0060ED8901136A5
:101CC8001236E82EFBD711C013F012C014F014C05E
:101CD800BBFF13C011F0D8901132D8901132300EDA
:101CE8001116BA50CF0B1110BA6E12000FC011F0B6
:101CF80010C012F0060ED89011361236E82EFBD717
:101D080011C013F012C014F014C0BEFF13C011F0BC
:101D1800D8901132D8901132300E1116BD50CF0B19
:101D28001110BD6E1200106E0C0EBA6E050EF66E16
:101D3800000EF76E300EF86E0800F5CF0FF00FA00A
:101D480002D0116802D0000E116E1150D8B402D022
:101D5800949201D09396CA9410C0CBFFCA84120003
:101D680000EE3DF02D0EEE6AE806FDE1440EF66E3B
:101D7800210EF76E000EF86E00EE6AF010EE12F00B
:101D88000900F5CFEEFFE550E150FAE100011CEF44
:101D98000AF0050EE3EC0BF07750800A306E2B50FA
:101DA800765C2C50800A3058D8B004D00E0E736E72
:101DB800E20E726E3FEC0EF0000E1200000E0F6E77
:101DC800E80E615C030E6258D8A00AD0000E626E5D
:101DD800000E616E1F0E796E4A0E786E040E0F6E3D
:101DE8000F501200000E0F6E020E615C000E62585A
:101DF800D8A00AD0000E626E000E616E1D0E796EBC
:101E0800C40E786E020E0F6E0F501200000E0F6E89
:101E1800E80E595C030E5A58D8A00AD0000E5A6E24
:101E2800000E596E1F0E756E6E0E746E030E0F6ED9
:101E38000F501200000E0F6E020E595C000E5A5819
:101E4800D8A00AD0000E5A6E000E596E1E0E756E7E
:101E5800140E746E010E0F6E0F501200D38CD38ABD
:101E6800D3889B8C000E106E000E0F6E1050800AE7
:101E78007F0FF40ED8B40F5CD8B003D00F4A102AE5
:101E8800F5D712000F501102F3CF13F0F4CF14F06E
:101E98000F501202F350142610501102F35014265A
:101EA80013C00FF014C010F01200050E156E000ECE
:101EB800176E000E166E000E53EC08F0010E156E2C
:101EC800000E176E000E166E010E53EC08F012008D
:101ED800060E156E000E176E000E166E000E53ECF1
:101EE80008F0000E156E000E176E000E166E010E2D
:101EF80053EC08F01200010E156E000E176E000E5E
:101F0800166E000E53EC08F0050E156E000E176ED7
:101F1800000E166E010E53EC08F01200000E156E3E
:101F2800000E176E000E166E000E53EC08F0060E2B
:101F3800156E000E176E000E166E010E53EC08F0AB
:101F48001200000E0F6E840E615C030E6258D8A05A
:101F580008D0000E626E000E616E200E796EF40ECF
:101F6800786E000E1200000E0F6E840E595C030E80
:101F78005A58D8A008D0000E5A6E000E596E210E7D
:101F8800756E080E746E000E1200136E13506FEC0F
:101F980010F0EBEC10F0C2EC10F00009D8A4FBD75D
:101FA800CEEC10F00FC011F010C012F01200030EAA
:101FB800106E200E0F6E7AEC0EF0030E106E200ECF
:101FC8000F6E5DEC0EF0849282908490829A1200DB
:101FD800E3EC10F0BF0E1C6EE70E1B6E0BEC01F06D
:101FE80083808382838483868398B4EC0CF0120008
:101FF800BF0E1C6EE00E1B6E0BEC01F0E6EC10F051
:1020080083908382838483968388B4EC0CF01200D7
:102018002B6EBE0E1C6E9B0E1B6E2B50C9EC0FF068
:1020280011C01DF012C01EF00BEC01F01200F20EF0
:102038006616ABAC03D06690ABB06680ABB4668472
:10204800ABB26686AECF0FF00F501200FC9EBF0EEB
:102058001C6ECE0E1B6E0BEC01F083908382839472
:1020680083868398B4EC0CF01200BF0E1C6ED70E5A
:102078001B6E0BEC01F083908382839483868388A4
:10208800B4EC0CF01200BF0E1C6EC40E1B6E0BECF1
:1020980001F083908382839483968398B4EC0CF048
:1020A80012000F6E0F50FB0BCA6E000ECC6E9E9284
:1020B8000FAE02D09D8201D09D92CA841200D08EAC
:1020C800D288A284D29ED286D284D282D290A1947F
:1020D800A084F28E1200106EC2CF0FF0C30E0F163E
:1020E800D89010303C0B0F10C26E12001D0E796E86
:1020F800EC0E786E000E626E000E616E050E120018
:102108001E0E756E3C0E746E000E5A6E000E596EE1
:10211800050E1200D0B2D0A405D0D0B0D0B602D0EF
:10212800010E01D0000E1200D0A2D0A405D0D0A07C
:10213800D0A602D0010E01D0000E1200E803E80379
:10214800E803E803E6163C1EBC02EC1D03030F6E11
:102158000C0EBD129494CA940FC0CBFFCA8412000F
:1021680094909492949494969498949A1200D0A0EF
:10217800D0A202D0010E01D0000E1200C2A202D0DD
:10218800010E01D0000E12000F6E9EA8FED70FC0E0
:10219800ADFF1200C450106EC3500F6E1200DBEC7E
:1021A8000FF01D0E1200000E966E1200949C948E75
:1021B8001200C00E936E1200EF0E926E1200D082C3
:1021C800D0801200600E956E120069501200C28213
:0221D8001200F3
:10B5A80000E0FCA8FD70FE00009001580220030195
:10B5B800000A006400E80310270D0A20636F6D6D10
:10B5C800616E64206E6F742076616C6964202D2D25
:10B5D80020627567206D61696E2E63202D2D206DA8
:10B5E80073672066726F6D2066756E6374696F6E1F
:10B5F800206E65775F73746174650D0A000D0A200B
:10B60800636F6D6D616E64206E6F742076616C6916
:10B6180064202D2D20627567206D61696E2E632070
:10B628002D2D206D73672066726F6D2066756E63B1
:10B6380074696F6E206D61696E0D0A00094A203DBC
:10B648003E204A6F672053657175656E63652028D3
:10B65800636865636B20666F722072656C696162EE
:10B668006C6520636F646520657865637574696FC0
:10B678006E290A0D000D0A0A092A2A20656E7472BD
:10B6880079206572726F72202A2A20746872657335
:10B69800686F6C64206D757374206265203C20317E
:10B6A8003032340D0A0A000D0A0A092A2A20656E6A
:10B6B800747279206572726F72202A2A20746872F7
:10B6C8006573686F6C64206D757374206265203EC5
:10B6D80020300D0A0A006175746F6D61746963200A
:10B6E8007468726573686F6C6420776174636869E5
:10B6F8006E6720666F7220696E7075742E2E2E2EFE
:10B708000D0A000D0A206162626F7274656420611F
:10B7180075746F6D61746963207468657365686FAB
:10B728006C6420646574656374696F6E0D0A000942
:10B73800202020202020736C69646520726F626F5E
:10B74800742070657270656E646963756C617220CF
:10B75800746F206C696E65210D0A002073656E7325
:10B768006F722034202863656E7465722072696771
:10B7780068742C20524C535F436E74526967687426
:10B78800434833292C0075706461746520746872AD
:10B798006573686F6C640D0A206F6C642076616C49
:10B7A800756520776173203D2025750D0A000D0A07
:10B7B8002020204B77616E746C656E20506F6C7919
:10B7C800746563686E696320556E6976657273691E
:10B7D80074790D0A002073656E736F722032202809
:10B7E80063656E746572206C6566742C20436E7494
:10B7F8004C656674434831292C0009203F206F723C
:10B808002068203D3E2068656C70207072696E74F7
:10B818002074686973206D656E750A0D0A3E000D07
:10B828000A696E76616C69642073656E736F722045
:10B83800706F736974696F6E202D2D206275670DA6
:10B848000A3E000A0D656E7465722074687265732D
:10B85800686F6C642076616C7565203120746F2088
:10B8680031303233203E00756E6B6E6F776E206319
:10B878006F6D6D616E64202D2D2062756720696E75
:10B888002070726F6772616D0D0A002073656E73A8
:10B898006F722033202863656E7465722C20524CB9
:10B8A800535F43656E746572434832292C005269B0
:10B8B800676874206D6F746F7220666F727761723B
:10B8C80064202D2D206E6F206368616E67650D0AF8
:10B8D800005269676874206D6F746F7220726576A4
:10B8E80065727365202D2D206E6F206368616E6709
:10B8F800650D0A006C656674206D6F746F72206D3B
:10B90800656469756D207370656564207265766518
:10B918007273650D0A3E000D0A546865206E6577DE
:10B92800207468726573686F6C642076616C7565E5
:10B938002069732025750D0A3E000941203D3E20EF
:10B948004175746F6D61746963207468726573689A
:10B958006F6C64207365742D75700D0A004C6566F4
:10B9680074206D6F746F7220666F727761726420D5
:10B978002D2D206E6F206368616E67650D0A004C7F
:10B98800656674206D6F746F722072657665727368
:10B9980065202D2D206E6F206368616E67650D0A26
:10B9A800002073656E736F7220352028726967688E
:10B9B800742C20524C535F52696768744348342989
:10B9C8002C006C656674206D6F746F7220666173ED
:10B9D8007420737065656420726576657273650D91
:10B9E8000A3E006C656674206D6F746F7220736C0C
:10B9F8006F7720737065656420726576657273650C
:10BA08000D0A3E0020202070726F6772616D2062FF
:10BA1800792044616E2050656972636520422E5317
:10BA2800632E0D0A00092E2E2E4A6F673220736589
:10BA38007175656E636520636F6D706C65746564A0
:10BA48002025690A0D006379636C65206F7665723D
:10BA5800666C6F77202D2D206A6F675F736571752F
:10BA6800656E63650D0A00092E2E2E4A6F67312018
:10BA780073657175656E636520636F6D706C657451
:10BA880065642025690A0D000D0A717569742073B3
:10BA9800656E736F722072656164696E67202D2D03
:10BAA800206275670D0A3E00093E203D3E20666F04
:10BAB8007277617264202861742073616D652073E8
:10BAC80070656564290D0A00093C203D3E207265B9
:10BAD8007665727365202861742073616D652073C3
:10BAE80070656564290D0A002020207665727369E7
:10BAF8006F6E20352E31204D617263682031362CEF
:10BB080020323031350D0A000954203D3E2073653E
:10BB18007420746865207468726573686F6C64203B
:10BB280076616C75650D0A002073656E736F7220FF
:10BB38003120286C6566742C20524C535F4C656626
:10BB480074434830292C000D0A0931203D3E2072EB
:10BB58006561642073656E736F72203120286C658F
:10BB68006674290D0A0072756E6E696E67206A6FB9
:10BB7800672073657175656E63653A2077616974CE
:10BB88003B0D0A005269676874206D6F746F7220EC
:10BB9800666F7277617264206D656469756D0D0AF0
:10BBA8003E005269676874206D6F746F7220726509
:10BBB8007665727365206D656469756D0D0A3E0062
:10BBC8000932203D3E20726561642073656E736F93
:10BBD80072203220286C656674290D0A000933200A
:10BBE8003D3E20726561642073656E736F72203309
:10BBF80020286C656674290D0A000934203D3E2012
:10BC0800726561642073656E736F72203420286CCE
:10BC1800656674290D0A000935203D3E207265616C
:10BC2800642073656E736F72203520286C656674A6
:10BC3800290D0A006C656674206D6F746F7220633D
:10BC48006F61737420726576657273650D0A3E00C4
:10BC58005269676874206D6F746F7220666F7277AF
:10BC680061726420666173740D0A3E0052696768E8
:10BC780074206D6F746F72207265766572736520BB
:10BC8800666173740D0A3E007269676874206D6F8F
:10BC9800746F7220666F727761726420736C6F774D
:10BCA8000D0A3E007269676874206D6F746F7220A8
:10BCB8007265766572736520736C6F770D0A3E0046
:10BCC8006C656674206D6F746F72206D656469753C
:10BCD8006D2073706565640D0A3E000D0A0A092A15
:10BCE8002A20656E747279206572726F72202A2A12
:10BCF8000D0A0A006C656674206D6F746F72206699
:10BD08006173742073706565640D0A3E006C656626
:10BD180074206D6F746F7220736C6F772073706509
:10BD280065640D0A3E000955203D3E20757020745B
:10BD38006F20746F70206D656E750A0D0A3E0020C5
:10BD48002020202020202020202020204150534344
:10BD5800313239390D0A00092E2E2E6275673A20C4
:10BD680066726F6D206A6F673228290D0A00092EE6
:10BD78002E2E6275673A2066726F6D206A6F673182
:10BD880028290D0A00202020526F626F7420446910
:10BD980061676E6F737469630D0A000955203D3E33
:10BDA800207570206F6E65206D656E750A0D0A3EF0
:10BDB800007269676874206D6F746F7220666F72A5
:10BDC8007761726420007269676874206D6F746FA0
:10BDD80072207265766572736520005269676874AF
:10BDE800206D6F746F7220636F6173740D0A3E006B
:10BDF800094D203D3E206D656469756D2073706541
:10BE080065640D0A000D0A0946203D3E20666173EF
:10BE1800742073706565640D0A000D0A094C203D95
:10BE28003E206C656674206D6F746F720A0D006C2D
:10BE3800656674206D6F746F7220666F72776172B9
:10BE48006420006C656674206D6F746F7220726573
:10BE5800766572736520006C656674206D6F746F0B
:10BE68007220636F6173740D0A3E000A09546F7083
:10BE7800204C6576656C204D656E750A0D0A0009C3
:10BE880052203D3E207269676874206D6F746F722E
:10BE98000A0D00207261772072656164696E6720FF
:10BEA80025750D0A3E000953203D3E20736C6F77BF
:10BEB8002073706565640D0A000942203D3E2062CA
:10BEC80072616B6520616C6C0A0D0072656164209B
:10BED80073656E736F7220310D0A3E00726561647E
:10BEE8002073656E736F7220320D0A3E00726561B1
:10BEF800642073656E736F7220330D0A3E0072659D
:10BF080061642073656E736F7220340D0A3E00728F
:10BF18006561642073656E736F7220350D0A3E008B
:10BF2800095269676874204D6F746F720A0D3E007C
:10BF3800092053203D3E2073656E736F720D0A0011
:10BF4800524D7370656564206275670D0A3E00097D
:10BF58004C656674204D6F746F720A0D3E0009209F
:10BF68006D203D3E206D6F746F720D0A002077685A
:10BF780061743F202D2D200D0A0A006272616B65E5
:10BF880020616C6C0D0A093E00776861743F202DB2
:10BF98002D200D0A0A3E000943203D3E20636F61B3
:10BFA80073740D0A0020776861743F200D0A0A3EF9
:10BFB8000020776861743F200D0A0A00203C7265F2
:10BFC8007365743E20003C53544B46554C3E003C30
:10BFD80057445420544F3E005C3C4C56443E003C71
:10BFE800424F523E003C504F523E0025630D0A001E
:08BFF800256300070C000000A6
:020000040030CA
:08000000FF080307FF0381FF65
:00000001FF
