:020000040000FA
:060000001AEF18F01200D7
:0A0006000400C73000009F00000056
:1000100004000000C130000099000000060000004C
:10002000BF300000A500000002000000B03000005A
:08003000800000000F00000039
:0800380058EC05F0FB0EDBCFD4
:10004000F3FFDB06F35000090AE0A6EC05F0FA0E18
:1000500011EC06F0F3E1151CF1E1010E01D0000EE8
:1000600087EF05F058EC05F03B0EE12402E3E16870
:10007000E652E16E010EDB6A020EDB6AF90EDBCF9F
:10008000F6FFFA0EDBCFF7FFFB0EDBCFF8FF080021
:10009000F550DF6EDF5002E1ABEF04F0250EDF5CC0
:1000A00002E09EEF04F0030EDB6A040EDB6A050E2D
:1000B000DB6A060EDB6A070EDB6AC0EC04F02D0E6D
:1000C000DF5C0CE02B0EDF5C09E0200EDF5C06E05D
:1000D000230EDF5C03E0300EDF5C1AE1DF50300AF4
:1000E00014E0130A0FE0030A0AE00B0A05E0060A0F
:1000F000E4E1030EDB80E1D7030EDB82DED7030EE3
:10010000DB84DBD7030EDB86D8D7030EDB88D5D79D
:100110002A0EDF5C1BE1BCEC04F00AEC05F010E0F9
:10012000030EDB8008680968130EDBCF0DF0140E98
:10013000DBCF0EF0FBEC16F0040E06C0DBFF03D0A5
:10014000130EF3EC04F0C0EC04F00BD0090EDB6AE4
:1001500061EC05F003E0D5EC05F0FAD7090EF3ECFD
:1001600004F0030EDBB0DB982E0EDF5C1BE1C0EC6D
:1001700004F02A0EDF5C0BE1BCEC04F00AEC05F0A5
:1001800003E1130E45EC05F0C0EC04F00BD0090EB2
:10019000DB6A61EC05F003E0D5EC05F0FAD7090E57
:1001A00045EC05F0680EDF5C07E1C0EC04F0680E7A
:1001B000DF5C1DE1030E18D0740EDF5C17E07A0ED1
:1001C000DF5C14E0480EDF5C06E0540EDF5C03E009
:1001D0005A0EDF5C02E1020E07D06C0EDF5C03E01A
:1001E0006A0EDF5C04E1010E98EC05F0C9DBDF501C
:1001F0006E0A01E17FD31E0A01E192D1200A01E1DA
:100200008FD13F0A01E149D11A0A01E146D10D0A15
:1002100001E143D1200A01E140D13A0A01E13DD197
:10022000200A01E13AD1260A01E135D10D0A01E1A6
:1002300032D11A0A01E1D9D0200A4AE0300A1FE07F
:10024000460A0EE0250A01E083D3D950F90FE96E82
:10025000FF0EDA20EA6E010EEE5E000EEE5AEE5A46
:10026000A6EC05F0250EE66E95DB03E1151C01E119
:1002700069D3A2EC05F001E26BD3DB2A69D3080E47
:10028000DB6A040EDB50010806E2040EDB046AECB4
:1002900005F0DB508BDB080EDB5009E0030EDB5072
:1002A000010B05E172DB01E04DD3080EDB6A64DB74
:1002B000EFCFDFFF1AEC06F003E1151C01E142D39A
:1002C000A2EC05F001E3DB2A60DB01E141D33AD384
:1002D000070EDB5002080FE1E6EC05F0030EADEC73
:1002E00005F00E0EEECFDBFF0F0EEECFDBFF100E94
:1002F000EECFDBFF20D0F70EDBCF17F0F80EDBCF11
:1003000018F0020E175E000E185AF70E17C0DBFF2A
:10031000F80E18C0DBFF17C0E9FF18C0EAFF9DEC1C
:1003200005F0166A0E0E14C0DBFF0F0E15C0DBFFC2
:10033000100E16C0DBFF0E0EDBCFE6FF0F0EDBCF7D
:10034000E6FF100EDBCFE6FF78EC16F0E552E55243
:10035000E552130E07C0DBFF140E08C0DBFF060ECC
:10036000DB5005E0130EE1EC05F001E26ADB05EC81
:1003700006F002E2130E37DBC8EC05F006E0040ECF
:10038000E1EC05F002E2050E2EDB030EDBB005D03A
:10039000FCDA01E0D7D2080EDB6A090EDB6A0E0E2A
:1003A000DBCFF6FF0F0EDBCFF7FF100EDBCFF8FF32
:1003B0000800F550DF6EDF5014E00BEC06F011E2A0
:1003C0001AEC06F003E1151C01E1BCD2BBDB01E332
:1003D000DB2A090EDB2AD9500E0FE96E000ECBDBAB
:1003E000E7D7D3DA01E1B4D2ADD2C6DA110EEECF3F
:1003F000DBFF120EEDCFDBFF110EDBCFE6FF120E9F
:10040000DBCFE6FF6AEC16F0E552E552130EF3CFB0
:10041000DBFF140EF4CFDBFF060EDB5004E0130EFF
:10042000D0DB01E20EDB05EC06F002E2130EDBDAB4
:10043000AFDB05E0040EC5DB02E2050ED4DA030EE5
:10044000DBB005D0A2DA01E07DD2080EDB6A090E2E
:10045000DB6A110EDBCFE9FF120EDBCFEAFFEFCF35
:10046000DFFFDF5014E0D7DB12E2E4DB03E1151C11
:1004700001E168D267DB01E3DB2A090EDB2A110EFA
:10048000DB2ADBCFE9FF120EE8E3DB2AE6D77DDAD1
:1004900001E15ED257D2030EDB8E070EDB0410E1C2
:1004A00095DB040E5ADB0A0EEECFDBFF0B0EEECF10
:1004B000DBFF0C0EEECFDBFF0D0EEECFDBFF6CD0C3
:1004C000070EDB5003082CE1030EDBAE0DD0B2DAD1
:1004D000020E76DAEFCF14F0156A166A176A14AEB8
:1004E00039D01568166835D0F70EDBCF15F0F80E49
:1004F000DBCF16F0020E155E000E165AF70E15C071
:10050000DBFFF80E16C0DBFF15C0E9FF16C0EAFFDF
:10051000EFCF14F00A0E14C0DBFF0B0EDB6A38D0ED
:10052000070EDB50020809E1030EDBAE04D059DBF5
:1005300016AE10D00ED055DB0DD0030EDBAE12D0B0
:1005400079DA020E3DDAF9DA166A176A15AE02D0C8
:1005500016681768E2DA0C0E16C0DBFF0D0E17C026
:10056000DBFF1AD0F70EDBCF16F0F80EDBCF17F05B
:10057000020E165E000E175AF70E16C0DBFFF80EBD
:1005800017C0DBFF16C0E9FF17C0EAFFD6DAC5DAED
:100590000C0EDB6A0D0EDB6A060EDB5005E1010E68
:1005A000F36E050EF3CFDBFF150EDB6A160EDB6A6A
:1005B000D950370F146E000EDA20156E390E14C0A4
:1005C000DBFF3A0E15C0DBFF380EDB6A080EDB6A74
:1005D0000A0EAEDADF50780A12E0200A10E0280A8C
:1005E0000CE0200A0AE03F0A06E00D0A02E0200AB9
:1005F00008E1020E05D0080E03D0080EDF26100E0B
:1006000097DA030EDBBE02D0DB92DB94DB50800B6B
:1006100024E08ADAD890030EEB50000A08E6000EB8
:10062000EE5C000EEE58000EEE58000EEE5815E28D
:1006300013DA0B680C680D680E68FBEC15F00A0EF7
:1006400002C0DBFF0B0E03C0DBFF0C0E04C0DBFFA0
:100650000D0E05C0DBFF2D0E08D0030EDBA202D06D
:100660002B0E03D0DBA408D0200EF36E170EF3CFB1
:10067000DBFF150EDB2A02D0170EDB6A050EDB50FE
:1006800003E1B7D901E189D07E0E146E300E156EEC
:10069000000E166E070EDBCF17F0186A196A1A6A79
:1006A00017C00BF018C00CF019C00DF01AC00EF0F6
:1006B000D3D97BEC17F014500224F36E15500320AD
:1006C000F46E16500420F86EF4CFF7FFF3CFF6FF68
:1006D0000800090EF5CFDBFF580EDF5C0FE1610E5D
:1006E000F36E090E7BD90AE3200E146E090EDBCFE0
:1006F000E7FF1450E75E090EE7CFDBFF070EDBCF05
:1007000014F0156A166A176A0FDA14C00BF015C0D8
:100710000CF016C00DF017C00EF0EECF06F0EECFC5
:1007200007F0EECF08F0EFCF09F07BEC17F009C02F
:10073000EDFF08C0EDFF07C0EDFF06C0EFFF390E6B
:10074000DBCFE9FFDB063A0EDBCFEAFF01E2DB0697
:10075000090EDBCFEFFF150EDB2A4BD995E1030E17
:10076000DBA61DD06F0EDF5C06E1C1D918E3150EC4
:10077000DB285BDA14D0780EDF5C09E0580EDF5C12
:1007800006E0620EDF5C03E0420EDF5C08E1020E71
:10079000F36E160EF3CFDBFF02D0150EDB6A030EED
:1007A000DB50100B0EE0040EDBCF14F0050EDB5017
:1007B000D880145406E2060EDB5003E1040EDB5031
:1007C00034DA95D90AE2050EDBCFE7FF150EDB50D0
:1007D000E75E050EE7CFDBFF02D0050EDB6A040EF5
:1007E000DBCF14F0160E45D9D880145414E2160E3F
:1007F000DBCFE6FF150EDBCFE6FF040EDBCFE6FF17
:10080000050EDB50E552E75CE552D880E754E5522F
:10081000D880E7545FD9030EDB50010B0BE1080EC3
:10082000DB5008E0B2D801E08DD0080EDB50BED816
:10083000080EDB6A170EDB5007E088D9170EF1D9D6
:1008400003E1151C01E17ED0160EDB5016E07ED9C7
:10085000300EE66E9FD802E1151C74E077D9DFCF29
:10086000E6FFB9EC15F0E552E552E552F4CF15F08C
:100870000001F31C02E1151C65E0050EDBCF14F04E
:10088000160EDB50D880145409E2050EDBCFE7FFCB
:10089000160EDB50E75E050EE7CFDBFF300EE66E8F
:1008A000050ECBD94FE1390EDB2ADBCFE9FF3A0E3B
:1008B00001E3DB2ADBCFEAFF090EEFCFDBFFDB50E2
:1008C0000EE044D9090EADD902E1151C3BE0390E0A
:1008D000DB2ADBCFE9FF3A0EEDE3DB2AEBD755D875
:1008E00031E1160EDBCFE6FF080EC3D8E552E72450
:1008F0005DD82ED0070EDB50030A1CE0010A14E07D
:10090000030A07E07BD9DBCFEEFF020EDBCFEDFF62
:100910001FD0F5D8196A17AE02D0186819682CD8FC
:10092000BCD819C0EEFF14D0EAD817BE186824D876
:10093000B4D80ED063D9DBCFEFFF0AD07BD905E165
:10094000151C03E1F368F46810D0FCD801E3DB2A3E
:1009500079D947EF00F0010EDBCF14F0020EDBCFA8
:1009600015F014C0F3FF15C0F4FF3B0EE15C02E28A
:10097000E16AE552E16ECBD029D9020EADEF05F068
:1009800061D90800F550DF6E1200200EE66E080EE9
:100990001DEF06F0B9EC15F0E552E552E552F3CF44
:1009A00014F0F4CF15F00001F31C1200146E156A58
:1009B000D950010F4DD91450EE261550ED221200DA
:1009C000185E000E195AF70E18C0DBFFF80E19C09A
:1009D000DBFF18C0E9FF19C0EAFF1200DBCFF4FF0C
:1009E000F350F45C1200DB50E76E040EE7CFDBFF40
:1009F00012000A0EDBCF14F00B0EDBCF15F00C0E3D
:100A0000DBCF16F00D0EDBCF17F0145015101610BB
:100A100017101200130EEECFDBFF140EEDCFDBFF2D
:100A2000130EDBCF14F0140EDBCF15F00001800E97
:100A300015141200F70EDBCF18F0F80EDBCF19F00B
:100A40001200050EDB50E66ED950130F01D9E552A6
:100A5000E750EE6EED6A12000A0EDBCF06F00B0EC9
:100A6000DBCF07F00C0EDBCF08F00D0EDBCF09F06B
:100A70001200DBCFE6FF150EDBCFE6FF050EDB50E5
:100A8000E552E724E552E7241200DB50CED8010EF0
:100A9000F36E060EF3CFDBFF1200EE50EFCFEAFF4E
:100AA000E96E16C0EEFF17C0EEFF18C0EEFF120091
:100AB000D9CFE6FFDACFE6FFE1CFD9FFE2CFDAFF09
:100AC0001200DFCFE6FFE66A08EC18F0E552E552C7
:100AD000F3501200E76E080EE7CFDBFF1200EECFF7
:100AE00014F0EECF15F0EFCF16F0176A1200050ED6
:100AF000DBCF14F0150EDB50D88014541200010E19
:100B0000DBCF16F0020EDBCF17F0186A1200E552A9
:100B1000E5CFDAFFE7CFD9FF12000A0E14C0DBFFE2
:100B20000B0E15C0DBFF1200D9500A0F28EF06F09C
:100B3000F36E070EF3CFDBFF1200EECF14F0EFCF12
:100B400015F01200010EDB2A020E1200FC0EDBCFA4
:100B5000E6FFFD0EDBCFE6FF1200145E000E155A15
:100B6000F70E14C0DBFFF80E15C0DBFF14C0E9FF61
:100B700015C0EAFF1200DA20EA6EEF2AEECFF6FF88
:100B8000000EEF22EECFF7FFEF22EECFF8FF1200BC
:100B9000040EDBCFE6FF130EDB50E552E75C9ADF75
:100BA000DB5004DF060EDB501200090EDB500A0D8D
:100BB000F350DF24D00FE76E090EE7CFDBFFC0EF65
:100BC00004F0DB50F36E050EEEEF04F0F70EDBCF12
:100BD00014F0F80EDBCF15F01200DFCFE6FFCAEFFE
:100BE00004F028DF030EECDE6FEF05F01CEC00F0E4
:100BF000E552E552E552E55200091200BDDEEE5025
:100C0000EFCFEAFFE96E010E1200130EDB50F36E18
:100C1000040EEEEF04F0040EDB50F36E090EEEEF5F
:100C200004F0DBCFE6FFCAEF04F0E76E050EE7CF76
:100C3000DBFF12008BDFEDEF05F0DBCFE6FF86DF99
:100C4000F6EF05F0D950F90FE96EFF0EBBEF05F096
:0A0C5000E96E000EDA20EA6E1200D1
:060C5A00D9CFE6FFE1CF57
:100C6000D9FF020EE126DF6A010EDB6A9EAA06D0DA
:100C70009FEC17F0E76E010EE7CFDBFFDB500FE0D4
:100C8000010EDBCFE6FF07D09EC0FBFF9DC0FAFF41
:100C900000019C51F96EF8DFE552DF6E01D0DF6A8A
:100CA000DF50146E020EE15C02E2E16AE552E16E91
:100CB0001450E552E7CFD9FF1200D9CFE6FFE1CFBC
:100CC000D9FFE652DF6AFE0EDB503F0A20E0570AEA
:100CD0001EE0200A1CE03B0A10E0200A0EE03E0A5B
:100CE00002E0200A18E10001360E9C6F0D0E9D6F88
:100CF000000E9E6F36EC13F00CD00001080E9C6FB6
:100D00000E0E9D6F000E9E6FB1EC13F002D0DDEC65
:100D100012F0DF6A0AD00001BA0E9C6F0C0E9D6FB4
:100D2000000E9E6FDF6ADDEC12F0DF50E552E552F7
:100D3000E7CFD9FF1200D9CFE6FFE1CFD9FFE652C6
:100D4000DF6AFE0EDB50750A3BE0200A39E0370A05
:100D50002FE0200A2DE0300A15E0200A13E03E0AB9
:100D600002E0200A38E100013E0E9C6F0F0E9D6FDD
:100D7000000E9E6F63EC13F0D20EE66E1C0EE66E54
:100D8000000E0ED000017E0E9C6F120E9D6F000EA5
:100D90009E6F63EC13F0C20EE66E1C0EE66E000E44
:100DA000E66E28EC15F0E552E552E552DF6A26D0F2
:100DB000110EDF6EB40EE66E1C0EE66E000E18D03D
:100DC0000001BA0E9C6F0C0E9D6F000E9E6FDF6AC5
:100DD000DDEC12F013D00001BA0E9C6F0C0E9D6F6B
:100DE000000E9E6FDF6AA80EE66E1C0EE66E000E09
:100DF000E66E28EC15F0E552E552E552DF50E5527B
:100E0000E552E7CFD9FF1200D9CFE6FFE1CFD9FFF6
:100E1000E652DF6AFE0EDB50750A75E0200A73E0C9
:100E2000010A4EE0200A4CE0410A3CE0010A2DE0B4
:100E3000070A1EE0010A0FE0030A70E1970EE66E52
:100E40001C0EE66E000EE66E28EC15F0E552E5523B
:100E5000E552130E33D0860EE66E1C0EE66E000EC3
:100E6000E66E28EC15F0E552E552E552140E26D058
:100E7000750EE66E1C0EE66E000EE66E28EC15F0A2
:100E8000E552E552E552150E19D0640EE66E1C0EC1
:100E9000E66E000EE66E28EC15F0E552E552E552DE
:100EA000160E0CD0530EE66E1C0EE66E000EE66EAD
:100EB00028EC15F0E552E552E552170EDF6E39D0F9
:100EC000A3C0E6FFA4C0E6FF2B0EE66E1C0EE66E86
:100ED000000EE66E28EC15F0146E050EE15E14505F
:100EE000090EE66E1C0EE66E000EE66E28EC15F09E
:100EF000E552E552E5520001F20E9C6F150E9D6F12
:100F0000000E9E6F16D00001BA0E9C6F0C0E9D6FE6
:100F1000000E9E6FDF6ADDEC12F00BD0FB0EE66E6A
:100F20001B0EE66E000EE66E28EC15F0E552E5525B
:100F3000E552DF50E552E552E7CFD9FF1200D9CF95
:100F4000E6FFE1CFD9FFE652DF6AFE0EDB50750AFD
:100F500001E1A7D0200A01E1A4D06B0A01E195D0FC
:100F6000020A51E07F0A3EE0200A3CE0100A2AE033
:100F7000200A28E03E0A16E0200A14E02B0A03E0CB
:100F8000200A01E098D0E20EE66E1B0EE66E000E1F
:100F9000E66E28EC15F0E552E552E55200019A6B39
:100FA000010E2FD0C70EE66E1B0EE66E000EE66E2B
:100FB00028EC15F0E552E552E5520001010E9A6F5A
:100FC000020E1FD0AE0EE66E1B0EE66E000EE66E33
:100FD00028EC15F0E552E552E5520001020E9A6F39
:100FE000030E0FD09A0EE66E1B0EE66E000EE66E36
:100FF00028EC15F0E552E552E5520001030E9A6F18
:10100000040EDF6E66D0860EE66E1B0EE66E000ED8
:10101000E66E28EC15F0E552E552E55200019A51D2
:10102000030A1EE0010A14E0030A0AE0010A25E1AE
:10103000090EDF6E7E0EE66E1B0EE66E000E17D0FA
:101040000A0EDF6E740EE66E1B0EE66E000E0FD0FB
:101050000B0EDF6E6C0EE66E1B0EE66E000E07D0FA
:101060000C0EDF6E630EE66E1B0EE66E000EE66E75
:1010700028EC15F0E552E552E5520001DE0E9C6FBA
:10108000100E9D6F000E9E6F24D0410EE66E1B0E5B
:10109000E66E000EE66E28EC15F0E552E552E552DC
:1010A00018D00001360E9C6F0D0E9D6F000E9E6FC6
:1010B00036EC13F00ED0DF6A360EE66E1B0EE66ECF
:1010C000000EE66E28EC15F0E552E552E55263ECB1
:1010D00013F0DF50E552E552E7CFD9FF1200D9CF28
:1010E000E6FFE1CFD9FFE652DF6AFE0EDB50750A5C
:1010F00001E1A7D0200A01E1A4D0690A01E195D05D
:10110000020A51E07D0A3EE0200A3CE0100A2AE093
:10111000200A28E03E0A16E0200A14E02B0A03E029
:10112000200A01E098D0150EE66E1B0EE66E000E4A
:10113000E66E28EC15F0E552E552E55200019A6B97
:10114000090E2FD0F20EE66E1A0EE66E000EE66E57
:1011500028EC15F0E552E552E5520001010E9A6FB8
:101160000A0E1FD0D10EE66E1A0EE66E000EE66E67
:1011700028EC15F0E552E552E5520001020E9A6F97
:101180000B0E0FD0B50EE66E1A0EE66E000EE66E72
:1011900028EC15F0E552E552E5520001030E9A6F76
:1011A0000C0EDF6E66D0A10EE66E1A0EE66E000E15
:1011B000E66E28EC15F0E552E552E55200019A5131
:1011C000030A1EE0010A14E0030A0AE0010A25E10D
:1011D000010EDF6E7E0EE66E1B0EE66E000E17D061
:1011E000020EDF6E740EE66E1B0EE66E000E0FD062
:1011F000030EDF6E6C0EE66E1B0EE66E000E07D061
:10120000040EDF6E630EE66E1B0EE66E000EE66EDB
:1012100028EC15F0E552E552E55200013E0E9C6FB8
:101220000F0E9D6F000E9E6F24D07F0EE66E1A0E7D
:10123000E66E000EE66E28EC15F0E552E552E5523A
:1012400018D00001360E9C6F0D0E9D6F000E9E6F24
:1012500036EC13F00ED0DF6A360EE66E1B0EE66E2D
:10126000000EE66E28EC15F0E552E552E55263EC0F
:1012700013F0DF50E552E552E7CFD9FF1200D9CF86
:10128000E6FFE1CFD9FFE652DF6AFE0EDB50750ABA
:1012900001E1B5D0200A01E1B2D06B0A01E1A3D08F
:1012A000020A51E07F0A3EE0200A3CE0100A2AE0F0
:1012B000200A28E03E0A16E0200A14E02B0A03E088
:1012C000200A01E0A6D0630EE66E1A0EE66E000E4E
:1012D000E66E28EC15F0E552E552E55200019B6BF5
:1012E000050E2FD0450EE66E1A0EE66E000EE66E67
:1012F00028EC15F0E552E552E5520001010E9B6F16
:10130000060E1FD0290EE66E1A0EE66E000EE66E71
:1013100028EC15F0E552E552E5520001020E9B6FF4
:10132000070E0FD0140EE66E1A0EE66E000EE66E75
:1013300028EC15F0E552E552E5520001030E9B6FD3
:10134000080EDF6E73D0FF0EE66E190EE66E000E0D
:10135000E66E28EC15F0E552E552E55200019B518E
:10136000030A1EE0010A14E0030A0AE0010A26E16A
:101370000D0EDF6E7E0EE66E1B0EE66E000E17D0B3
:101380000E0EDF6E740EE66E1B0EE66E000E0FD0B4
:101390000F0EDF6E6C0EE66E1B0EE66E000E07D0B3
:1013A000100EDF6E630EE66E1B0EE66E000EE66E2E
:1013B00028EC15F0E552E552E5520DD0F00EE66E40
:1013C000190EE66E000EE66E28EC15F0E552E552B9
:1013D000E5520D0EDF6E0001380E9C6F140E9D6FEE
:1013E000000E9E6F23D0CD0EE66E190EE66E000E37
:1013F000E66E28EC15F0E552E552E55217D00001F3
:10140000360E9C6F0D0E9D6F000E9E6F36EC13F026
:101410000DD0BF0EE66E190EE66E000EE66E28ECDD
:1014200015F0E552E552E55263EC13F0DF50E5525A
:10143000E552E7CFD9FF1200D9CFE6FFE1CFD9FFC0
:10144000E652DF6AFE0EDB50750A01E1B5D0200AD4
:1014500001E1B2D0690A01E1A3D0020A51E07D0A9C
:101460003EE0200A3CE0100A2AE0200A28E03E0A7A
:1014700016E0200A14E02B0A03E0200A01E0A6D0BF
:10148000A30EE66E190EE66E000EE66E28EC15F061
:10149000E552E552E55200019B6B0D0E2FD0850EF3
:1014A000E66E190EE66E000EE66E28EC15F0E552BB
:1014B000E552E5520001010E9B6F0E0E1FD0690E22
:1014C000E66E190EE66E000EE66E28EC15F0E5529B
:1014D000E552E5520001020E9B6F070E0FD0140E6D
:1014E000E66E1A0EE66E000EE66E28EC15F0E5527A
:1014F000E552E5520001030E9B6F100EDF6E73D0B4
:10150000540EE66E190EE66E000EE66E28EC15F02F
:10151000E552E552E55200019B51030A1EE0010A23
:1015200014E0030A0AE0010A26E1050EDF6E7E0ED2
:10153000E66E1B0EE66E000E17D0060EDF6E740E02
:10154000E66E1B0EE66E000E0FD0070EDF6E6C0E01
:10155000E66E1B0EE66E000E07D0080EDF6E630E01
:10156000E66E1B0EE66E000EE66E28EC15F0E552F8
:10157000E552E5520DD0F00EE66E190EE66E000E45
:10158000E66E28EC15F0E552E552E552050EDF6EE9
:1015900000017E0E9C6F120E9D6F000E9E6F23D079
:1015A000310EE66E190EE66E000EE66E28EC15F0B2
:1015B000E552E552E55217D00001360E9C6F0D0E34
:1015C0009D6F000E9E6F36EC13F00DD0BF0EE66ED1
:1015D000190EE66E000EE66E28EC15F0E552E552A7
:1015E000E55263EC13F0DF50E552E552E7CFD9FF47
:1015F0001200D9CFE6FFE1CFD9FF300EF36EFE0E19
:10160000DBCFF4FFF350F45C22E3FE0EDB5039082D
:101610001EE3FE0EDBCFE6FFE66A2E0EE66E190E27
:10162000E66E000EE66E28EC15F0146E050EE15E17
:101630001450FE0EDB50D00F0001A36FA46B00010D
:101640008C0E9C6F160E9D6F000E9E6F1AD0150E9D
:10165000E66E190EE66E000EE66E28EC15F0E55209
:10166000E552E5529FEC17F09FEC17F0F10EE66E95
:10167000180EE66E000EE66E28EC15F0E552E55207
:10168000E552000EE552E7CFD9FF1200D9CFE6FFB1
:10169000E1CFD9FF0001000EA35D040EA45901E3C0
:1016A00088D0300EF36EFE0EDBCFF4FFF350F45C07
:1016B0002CE3FE0EDB50390828E3FE0EDBCFE6FFFD
:1016C000E66A2E0EE66E190EE66E000EE66E28EC49
:1016D00015F0146E050EE15E1450A3C014F0A4C002
:1016E00015F00A0E1502F3CF15F01402F45015266A
:1016F000FE0EDB500001F324A36F000E1520A46F33
:10170000300EA35F000EA45B89D0000ED880A355D5
:10171000000EA4551EE2A3C0E6FFA4C0E6FFCE0E55
:10172000E66E180EE66E000EE66E28EC15F0146EEE
:10173000050EE15E14509FEC17F09FEC17F00001CE
:10174000080E9C6F0E0E9D6F000E9E6FB1EC13F095
:1017500065D09F0EE66E180EE66E000EE66E28EC63
:1017600015F0E552E552E5529FEC17F09FEC17F0AB
:10177000A3C0E6FFA4C0E6FF2B0EE66E1C0EE66ECD
:10178000000EE66E28EC15F0146E050EE15E1450A6
:10179000090EE66E1C0EE66E000EE66E28EC15F0E5
:1017A000E552E552E5520001FE0EA36F010EA46F53
:1017B0002ED06D0EE66E180EE66E000EE66E28EC6C
:1017C00015F0E552E552E5529FEC17F09FEC17F04B
:1017D0000001FE0EA36F010EA46FA3C0E6FFE66E2C
:1017E0002B0EE66E1C0EE66E000EE66E28EC15F073
:1017F000146E050EE15E1450090EE66E1C0EE66EC8
:10180000000EE66E28EC15F0E552E552E5520001B7
:10181000F20E9C6F150E9D6F000E9E6F000EE5522E
:06182000E7CFD9FF120022
:0A1826000D6320636F6D6D616E6449
:10183000206E6F742076616C6964202D2D20627596
:10184000670D63000700070C00756E6B6E6F776E97
:1018500020636F6D6D616E64202D2D206275672091
:10186000696E2070726F6772616D0D0A000D0A0A51
:10187000092A2A20656E747279206572726F72204F
:101880002A2A207468726573686F6C64206D7573A2
:1018900074206265203C20313032340D0A0A000D7C
:1018A0000A0A092A2A20656E747279206572726F9D
:1018B00072202A2A207468726573686F6C64206DC8
:1018C000757374206265203E20300D0A0A000D0AEF
:1018D000546865206E6577207468726573686F6CF4
:1018E000642076616C75652069732025750D0A3E4C
:1018F000000A0D656E746572207468726573686F96
:101900006C642076616C7565203120746F203130F5
:101910003233203E000D0A0A092A2A20656E7472AD
:1019200079206572726F72202A2A0D0A0A002563D7
:10193000005269676874206D6F746F7220726576EB
:1019400065727365202D2D206E6F206368616E6750
:10195000650D0A007269676874206D6F746F72207C
:10196000666F727761726420007269676874206DB7
:101970006F746F72207265766572736520736C6F19
:10198000770D0A3E005269676874206D6F746F723C
:101990002072657665727365206D656469756D0D7D
:1019A0000A3E005269676874206D6F746F7220720E
:1019B00065766572736520666173740D0A3E00205A
:1019C000776861743F202D2D200D0A0A0052696747
:1019D0006874206D6F746F7220666F7277617264C5
:1019E000202D2D206E6F206368616E67650D0A00E3
:1019F000524D7370656564206275670D0A3E007212
:101A000069676874206D6F746F7220726576657295
:101A1000736520005269676874206D6F746F72205F
:101A2000636F6173740D0A3E007269676874206D9C
:101A30006F746F7220666F727761726420736C6F5F
:101A4000770D0A3E005269676874206D6F746F727B
:101A500020666F7277617264206D656469756D0DC3
:101A60000A3E005269676874206D6F746F72206659
:101A70006F727761726420666173740D0A3E004C68
:101A8000656674206D6F746F72207265766572730F
:101A900065202D2D206E6F206368616E67650D0ACD
:101AA000006C656674206D6F746F7220666F72775C
:101AB00061726420006C656674206D6F746F7220B3
:101AC000636F61737420726576657273650D0A3E8B
:101AD000006C656674206D6F746F7220736C6F7725
:101AE00020737065656420726576657273650D0A92
:101AF0003E006C656674206D6F746F72206D656456
:101B000069756D20737065656420726576657273A2
:101B1000650D0A3E006C656674206D6F746F7220EF
:101B20006661737420737065656420726576657292
:101B300073650D0A3E0020776861743F200D0A0A24
:101B4000004C656674206D6F746F7220666F7277DB
:101B5000617264202D2D206E6F206368616E676551
:101B60000D0A00636F6173740D0A3E00736C6F772A
:101B70000D0A3E006D656469756D0D0A3E00666173
:101B800073740D0A3E006C656674206D6F746F721D
:101B9000207265766572736520006C656674206DD1
:101BA0006F746F7220636F6173740D0A3E006C6511
:101BB0006674206D6F746F7220736C6F7720737012
:101BC0006565640D0A3E006C656674206D6F746F08
:101BD00072206D656469756D2073706565640D0AAA
:101BE0003E006C656674206D6F746F722066617361
:101BF000742073706565640D0A3E00776861743FF8
:101C0000202D2D200D0A0A3E00656E746572207429
:101C100068726573686F6C642076616C75652031DD
:101C200020746F2031303233203E0075706461744F
:101C300065207468726573686F6C640D0A206F6C40
:101C4000642076616C756520776173203D20257571
:101C50000D0A00726561642073656E736F722035C2
:101C60000D0A3E00726561642073656E736F7220A9
:101C7000340D0A3E00726561642073656E736F7285
:101C800020330D0A3E00726561642073656E736FC8
:101C90007220320D0A3E00726561642073656E73B6
:101CA0006F7220310D0A3E0020776861743F200D6D
:101CB0000A0A3E006272616B6520616C6C0D0A0954
:101CC0003E00095269676874204D6F746F720A0D87
:101CD0003E00094C656674204D6F746F720A0D3EAC
:101CE000000954203D3E207365742074686520749B
:101CF00068726573686F6C642076616C75650D0A37
:101D0000000935203D3E20726561642073656E7365
:101D10006F72203520286C656674290D0A0009341D
:101D2000203D3E20726561642073656E736F722082
:101D30003420286C656674290D0A000933203D3E65
:101D400020726561642073656E736F722033202882
:101D50006C656674290D0A000932203D3E207265CB
:101D600061642073656E736F72203220286C656623
:101D700074290D0A000D0A0931203D3E207265616B
:101D8000642073656E736F72203120286C656674F1
:101D9000290D0A000955203D3E207570206F6E65A3
:101DA000206D656E750A0D0A3E000943203D3E20F8
:101DB000636F6173740A0D00093E203D3E20666F1B
:101DC0007277617264202861742073616D6520737D
:101DD00070656564290D0A00093C203D3E2072654E
:101DE0007665727365202861742073616D65207358
:101DF00070656564290D0A000953203D3E20736C0F
:101E00006F772073706565640A0D00094D203D3EB3
:101E1000206D656469756D2073706565640A0D00D9
:101E20000D0A0946203D3E2066617374207370657B
:101E300065640A0D000955203D3E20757020746FC1
:101E400020746F70206D656E750A0D0A3E000942A0
:101E5000203D3E206272616B6520616C6C0A0D0052
:101E60000952203D3E207269676874206D6F746F5F
:101E7000720A0D000D0A094C203D3E206C65667407
:101E8000206D6F746F720A0D0009203F206F722061
:101E900068203D3E2068656C70207072696E742009
:101EA00074686973206D656E750A0D0A0009205308
:101EB000203D3E2073656E736F720A0D0009206D20
:101EC000203D3E206D6F746F720A0D000A09546F39
:101ED00070204C6576656C204D656E750A0D0A00A4
:101EE00020202076657273696F6E20312E3030307D
:101EF00020417072696C20382C20323031300A0D4C
:101F00000020202070726F6772616D20627920441A
:101F1000616E2050656972636520422E53632E0AFC
:101F20000D002020202020202020202020202041C3
:101F3000505343313239390A0D000A0D2020204B0D
:101F400077616E746C656E20506F6C797465636830
:101F50006E696320556E69766572736974790A0DCE
:101F600000207261772072656164696E6720257553
:101F70000D0A3E000D0A696E76616C696420736516
:101F80006E736F7220706F736974696F6E202D2D80
:101F9000206275670D0A3E002073656E736F7220B4
:101FA00035202872696768742C20524C535F52693F
:101FB000676874434834292C002073656E736F7210
:101FC0002034202863656E746572207269676874B6
:101FD0002C20524C535F436E7452696768744348B7
:101FE00033292C002073656E736F722033202863B1
:101FF000656E7465722C20524C535F43656E746538
:1020000072434832292C002073656E736F72203240
:10201000202863656E746572206C6566742C20439D
:102020006E744C656674434831292C002073656ECC
:10203000736F72203120286C6566742C20524C53CB
:0B2040005F4C656674434830292C009B
:04204C0054EC17F049
:1020500041D8100EE66EE66A3C0EE66E74EC15F0A2
:10206000E552E552E55239D83FD841D843D845D852
:10207000836A0A0EE66E0C0EE66EA70EE66E33EC71
:1020800016F0E552E552E552829A8490829084924D
:10209000060EE66EBEEC17F0E552C70EE66ED9EC02
:1020A00017F0E552C70EE66E28EC17F0E552000E69
:1020B000E66EE66ACCEC16F0E552E552000EE66EEE
:1020C000E66A9DEC16F0E552E5520001A36B020EA4
:1020D000A46F1200949C948E120094909492949405
:1020E00094969498949A1200EF0E926E1200C00E7D
:1020F000936E1200600E956E1200966A1200D9CF90
:10210000E6FFE1CFD9FF030EE126010EF36E020ECA
:10211000F3CFDBFFFB0EDBCF16F0FC0EDBCF17F0AF
:10212000FD0EDBCFE9FFEA6AE9BEEA68D890E9363E
:10213000EA36810EE926000EEA221650EE24146ECD
:102140001750EE2014C0DEFFDD6EDECF14F0DDCFC1
:1021500015F00001800E15140EE0020EDB6A08680F
:102160000968DECF0DF0DDCF0EF0FBEC16F006C0F7
:10217000DEFF07C0DDFFDECF14F0DDCF15F0153434
:1021800009E214502008030E155404E2200EDE6EFE
:10219000030EDD6EFE0EDB5015E1DECFE6FFDDCF78
:1021A000E6FF9DEC16F0E552E552020EDB5002E12F
:1021B000829001D082808250010B02E0849216D07E
:1021C000848214D0DECFE6FFDDCFE6FFCCEC16F044
:1021D000E552E552020EDB5002E1829A01D0828A7A
:1021E0008250200B02E0849001D08480030EE15CD9
:1021F00002E2E16AE552E16EE552E7CFD9FF120053
:10220000200EE66E030EE66ECCEC16F0E552E552BB
:10221000200EE66E030EE66E9DEC16F0E552E552DA
:10222000849282908490829A1200D9CFE6FFE1CF07
:10223000D9FFFE0EDBCFE6FFF1EC17F0E55254ECD0
:1022400018F04FEC18F00009FCE136EC18F0E552FC
:10225000E7CFD9FF1200870EE66EE7DFE552F3CF36
:1022600014F0F4CF15F00001F350A35DF450A4591D
:1022700002E3000E01D0010E00018091E8B08081E0
:102280008F0EE66ED2DFE552F3CF14F0F4CF15F0E7
:102290000001F350A35DF450A45902E3000E01D0F5
:1022A000010E00018093E8B08083970EE66EBDDFDB
:1022B000E552F3CF14F0F4CF15F00001F350A35D15
:1022C000F450A45902E3000E01D0010E00018095E4
:1022D000E8B080859F0EE66EA8DFE552F3CF14F0DC
:1022E000F4CF15F00001F350A35DF450A45902E3BC
:1022F000000E01D0010E00018097E8B08087A70E84
:10230000E66E93DFE552F3CF14F0F4CF15F0000141
:10231000F350A35DF450A45902E3000E01D0010E66
:1023200000018099E8B08089120000018051010B02
:1023300002E0839001D083808051020B02E08392FF
:1023400001D083828051040B02E0839401D0838406
:102350008051080B02E0839601D083868051100BD8
:0A23600002E0839812008388120047
:06236A00D9CFE6FFE1CF30
:10237000D9FFFE0EDB5001E181D0FE0EDB50110AC9
:102380006FE0010A62E01F0A5BE0010A53E0030A02
:102390004CE0010A43E0070A3CE0010A35E0030A89
:1023A0002EE0010A52E00F0A25E0010A1EE0030AAE
:1023B00017E0010A33E0070A0EE0010A07E0030A0A
:1023C00052E1000EE66EE66A060E2CD0000EE66EB6
:1023D000E66A050E27D0000EE66EE66A040E22D0ED
:1023E000000EE66EE66A060E34D0000EE66EE66A71
:1023F000050E2FD0000EE66EE66A040E2AD0000EFF
:10240000E66EE66AE66A0FD0000EE66EE66A010E38
:1024100009D0000EE66EE66A020E04D0000EE66EEB
:10242000E66A030EE66EE66A17D0000EE66EE66A0E
:10243000E66A10D0000EE66EE66A010EE66E0BD07C
:10244000000EE66EE66A020E04D0000EE66EE66A44
:10245000030EE66E010EE66E7FEC10F0E5520BD037
:1024600000EC11F00BD0490EE66E180EE66E000E71
:10247000E66E28EC15F0E552E552E552E552E7CF5D
:10248000D9FF1200000EE66EE66A030EE66EE66AFB
:102490007FEC10F0E552E552E552E552000EE66E93
:1024A000E66A030EE66E010EE66E7FEC10F0E55272
:1024B000E552E552E5521200000EE66EE66A010EA4
:1024C000E66EE66A7FEC10F0E552E552E552E55221
:1024D000000EE66EE66A050EE66E010EE66E7FEC15
:1024E00010F0E552E552E552E5521200000EE66E9C
:1024F000E66A030EE66EE66A7FEC10F0E552E552FE
:10250000E552E552000EE66EE66A060EE66E010E34
:10251000E66E7FEC10F0E552E552E552E55212000E
:10252000000EE66EE66A060EE66EE66A7FEC10F0D6
:10253000E552E552E552E552000EE66EE66A060EF9
:10254000E66E010EE66E7FEC10F0E552E552E552C4
:10255000E5521200000EE66EE66A050EE66EE66AC9
:102560007FEC10F0E552E552E552E552000EE66EC2
:10257000E66A010EE66EE66E7FEC10F0E552E5527B
:10258000E552E5521200000EE66EE66A060EE66EB1
:10259000E66A7FEC10F0E552E552E552E552000E96
:1025A000E66EE66A030EE66E010EE66E7FEC10F054
:0A25B000E552E552E552E552120033
:0625BA003A0EE66E1F0E52
:1025C000E66E000EE66E28EC15F0E552E552E55297
:1025D000220EE66E1F0EE66E000EE66E28EC15F07B
:1025E000E552E552E552010EE66E1F0EE66E000E54
:1025F000E66E28EC15F0E552E552E552E00EE66E87
:102600001E0EE66E000EE66E28EC15F0E552E55261
:10261000E552CC0EE66E1E0EE66E000EE66E28EC5F
:1026200015F0E552E552E552BD0EE66E1E0EE66E61
:10263000000EE66E28EC15F0E552E552E552AD0EBF
:10264000E66E1E0EE66E000EE66E28EC15F0E55204
:10265000E552E552890EE66E1E0EE66E000EE66E3F
:1026600028EC15F0E552E552E5521200740EE66EC4
:102670001E0EE66E000EE66E28EC15F0E552E552F1
:10268000E552600EE66E1E0EE66E000EE66E28EC5B
:1026900015F0E552E552E5524E0EE66E1E0EE66E60
:1026A000000EE66E28EC15F0E552E552E552350EC7
:1026B000E66E1E0EE66E000EE66E28EC15F0E55294
:1026C000E552E5521200200EE66E1E0EE66E000E7A
:1026D000E66E28EC15F0E552E552E5520B0EE66E7B
:1026E0001E0EE66E000EE66E28EC15F0E552E55281
:1026F000E552F80EE66E1D0EE66E000EE66E28EC54
:1027000015F0E552E552E552D80EE66E1D0EE66E66
:10271000000EE66E28EC15F0E552E552E552B80ED3
:10272000E66E1D0EE66E000EE66E28EC15F0E55224
:10273000E552E552AA0EE66E1D0EE66E000EE66E3E
:1027400028EC15F0E552E552E552940EE66E1D0EAA
:10275000E66E000EE66E28EC15F0E552E552E55205
:102760001200750EE66E1D0EE66E000EE66E28EC8B
:1027700015F0E552E552E552580EE66E1D0EE66E76
:10278000000EE66E28EC15F0E552E552E5523B0EE0
:10279000E66E1D0EE66E000EE66E28EC15F0E552B4
:1027A000E552E5521E0EE66E1D0EE66E000EE66E5A
:1027B00028EC15F0E552E552E552010EE66E1D0ECD
:1027C000E66E000EE66E28EC15F0E552E552E55295
:1027D000E10EE66E1C0EE66E000EE66E28EC15F0BD
:1027E000E552E552E552940EE66E1D0EE66E000EC1
:0E27F000E66E28EC15F0E552E552E5521200B7
:0227FE00D9CF31
:10280000E6FFE1CFD9FFFE0EDB50170A3CE0010ADC
:102810002DE0030A1EE0010A0FE0070A43E12C0E37
:10282000E66E200EE66E000EE66E28EC15F0E55220
:10283000E552E552870E33D0070EE66E200EE66EA7
:10284000000EE66E28EC15F0E552E552E5528F0ECB
:1028500026D0E40EE66E1F0EE66E000EE66E28EC45
:1028600015F0E552E552E552970E19D0B90EE66E15
:102870001F0EE66E000EE66E28EC15F0E552E552EE
:10288000E5529F0E0CD0980EE66E1F0EE66E000EFF
:10289000E66E28EC15F0E552E552E552A70EE66E1D
:1028A00010D80AD0740EE66E1F0EE66E000EE66EAD
:1028B00028EC15F0E552E552E552E552E7CFD9FF95
:1028C0001200D9CFE6FFE1CFD9FFFE0EDBCFE6FF46
:1028D00015EC11F0E552F3CF14F0F4CF15F0F3CF6F
:1028E000E6FFF4CFE6FF610EE66E1F0EE66E000E09
:1028F000E66E28EC15F0166E050EE15E1650E552F8
:06290000E7CFD9FF120031
:0A290600D9CFE6FFE1CFD9FFE6527A
:10291000DF6A26EC10F0460EE66E180EE66E000E2C
:10292000E66E28EC15F0E552E552E552DDEC12F0CA
:10293000440EE66E180EE66E000EE66E28EC15F0FC
:10294000E552E552E5522BEC11F095EC11F02DEC2F
:1029500006F0DF6EDF50F7E0DFCF14F0120EE76E07
:102960001418E8AE02D0E73402D0E750145C05E258
:10297000DFCFE6FFB5EC11F0E5D7DFCF14F0180E8E
:10298000E76E1418E8AE02D0E73402D0E750145CCA
:1029900005E2DFCFE6FFFFEC13F0D4D7260EE66E9C
:1029A000180EE66E000EE66E28EC15F0E552E552C4
:0229B000C9D785
:0E29B200060EF66E000EF76E000EF86E0001B7
:1029C0000900F550946F0900F550956F03E1946785
:1029D00001D03DD00900F5508F6F0900F550906F80
:1029E0000900F550916F09000900F550E96E0900E2
:1029F000F550EA6E090009000900F550926F0900D0
:102A0000F550936F09000900F6CF96F0F7CF97F0D5
:102A1000F8CF98F08FC0F6FF90C0F7FF91C0F8FF95
:102A20000001925302E1935307E00900F550EE6E66
:102A30009207F8E29307F9D796C0F6FF97C0F7FF21
:102A400098C0F8FF00019407000E955BBFD71200F5
:102A5000D9CFE6FFDACFE6FFE1CFD9FFE2CFDAFF49
:102A6000E652E652E652E652D950FB0F146EFF0EC4
:102A7000DA20156E14C0DEFFDD6EDECFE6FFDDCF9F
:102A8000E6FFFB0EDBCFE6FFFC0EDBCFE6FFFD0E25
:102A9000DBCFE6FFA5C0E6FFA6C0E6FF32EC00F004
:102AA000146E070EE15C02E2E16AE552E16E145039
:102AB000020EF3CFDBFF030EF4CFDBFF020EDBCF02
:102AC00014F0030EDBCF15F014C0F3FF15C0F4FFB4
:102AD000040EE15C02E2E16AE552E16EE552E5CF07
:082AE000DAFFE7CFD9FF120075
:082AE800D9CFE6FFDACFE6FFCB
:102AF000E1CFD9FFE2CFDAFFAC6AAB6AFD0EDBB003
:102B0000AC88DBA202D0AC8CAB8CDBB4AC8EDBA689
:102B100002D0AB8801D0AB8ADBB8AC849E98DBBA1C
:102B2000AB86DBAC02D09D8A01D09D9A9E9ADBAE2B
:102B300002D09D8801D09D98FB0EDB50AF6EFB0E3E
:102B4000FC0EDBCF15F015C014F0156A1450B06EF2
:102B5000AC8AAB8E949C948EAC50100B04E0AC50BD
:102B6000800B01E1948CE552E5CFDAFFE7CFD9FF86
:022B7000120051
:0E2B7200D9CFE6FFDACFE6FFE1CFD9FFE2CF01
:102B8000DAFFFB0EDBCF14F0FC0EDBCF15F00001FB
:102B9000800E15141AE1FB0EDBCFE9FFFC0EDBCF34
:102BA000EAFFEECFF3FFEDCFF4FFEE2A000EEF22A7
:102BB000F3CFE9FFF4CFEAFFFD0EDBCFEFFFEF50DD
:102BC000156AF36E15C0F4FF10D0FB0EDB50FE0843
:102BD00006E1FD0EDBCFE6FF28EC18F005D0FD0E78
:102BE000DBCFE6FF56EC18F0E552E552E5CFDAFF11
:062BF000E7CFD9FF12003F
:0A2BF60006500B02F3CF02F0F4CFFB
:102C000003F00C02F3500326000EF420046E06506D
:102C10000D02F3500426000EF420056E06500E023D
:102C2000F350052607500B02F3500326F4500422FC
:102C3000000E052207500C02F3500426F450052222
:102C400007500D02F350052608500B02F3500426DE
:102C5000F450052208500C02F350052609500B02CF
:062C6000F35005261200EE
:0A2C6600D9CFE6FFDACFE6FFE1CF99
:102C7000D9FFE2CFDAFFC26AC06AFC0EDB407F0BED
:102C80003C0BC26EFB0EDBCFE6FFFC0EDB38F00B1D
:102C9000300BE552E710C16EFD0EDB50040DF35012
:102CA000380B156EFD0EDB380F0B070B146EFD0E87
:102CB000DB50800B14101510C06EFC0EDBAE03D081
:102CC0009E9C9D8CF28CC280E552E5CFDAFFE7CF67
:042CD000D9FF120016
:0C2CD400FE0EE3CFE9FFFF0EE3CFEAFFA6
:102CE000F36AF46AEE5203E0F34AF42AFBD71200C7
:102CF000FF0EE3CFF8FFE552FF0EE3CFF7FFE552FB
:102D0000FF0EE3CFF6FFE552E66AE66AE66A0900DF
:102D1000F55209E0FD0EE32A05E1FE0EE32A02E189
:102D2000FF0EE32AF4D7FD0EE3CF07F0FE0EE3CF4C
:0A2D300008F0FF0EE3CF09F01200D7
:062D3A00D9CFE6FFDACF5D
:102D4000E6FFE1CFD9FFE2CFDAFFE652E652FC0E12
:102D5000DBCF14F0FD0EDBCF15F0060ED890143645
:102D60001536E804FBE114C0DEFF15C0DDFF010EDF
:102D7000DB50BB6EDF50E840E8403F0B300B146E79
:102D8000CF0EBA141410BA6EE552E552E552E5CFF3
:082D9000DAFFE7CFD9FF1200C2
:082D9800D9CFE6FFDACFE6FF18
:102DA000E1CFD9FFE2CFDAFFE652E652FC0EDBCFED
:102DB00014F0FD0EDBCF15F0060ED8901436153644
:102DC000E804FBE114C0DEFF15C0DDFF010EDB509F
:102DD000BE6EDF50E840E8403F0B300B146ECF0E64
:102DE000BD141410BD6EE552E552E552E5CFDAFF91
:062DF000E7CFD9FF12003D
:0A2DF60009C013F008C012F00850E5
:102E00000D02F4CF07F0F3CF06F009500E02F4CF15
:102E100009F0F3CF08F00D02F3500726F450082212
:102E2000E86A092212500E02F3500726F4500822D5
:102E3000E86A09220EAE21EF17F01250085E135017
:102E4000095A13AE000C0D50085E0E50095A000CC2
:102E5000D9CFE6FFDACFE6FFE1CFD9FFE2CFDAFF45
:102E6000E652E6520C0EBA6E050EF66EF76A300E9A
:102E7000F86E0800F550010B03E0010EDB6802D08C
:102E8000010EDB6ADB5002E0949201D09396CA9463
:102E9000FD0EDB50CB6ECA84E552E552E552E5CF1C
:082EA000DAFFE7CFD9FF1200B1
:082EA800D9CFE6FFE1CFD9FF0D
:102EB000020EE126D38CD38AD3889B8CDE6ADD6A2E
:102EC000DECF14F0DDCF15F0D890155004E6F40EE7
:102ED000145C010E155805E2DF2A010EF1E3DB2A2E
:102EE000EFD7020EE15C02E2E16AE552E16EE552E3
:062EF000E7CFD9FF12003C
:0A2EF600056A046A036A026A200EEE
:102F0000E76ED8900636073608360936023603369D
:102F1000043605360B50025C0C5003580D50045813
:102F20000E50055809E30B50025E0C50035A0D5029
:0E2F3000045A0E50055A062AE72EE4D7120066
:022F3E00D9CFE9
:102F4000E6FFDACFE6FFE1CFD9FFE2CFDAFFE652C4
:102F5000F20E0001A717ABAC03D0A791ABB0A781CD
:102F6000ABB4A785ABB2A787AE50DF6EDF50E5529A
:0C2F7000E552E5CFDAFFE7CFD9FF1200F1
:042F7C00D9CFE6FFC4
:102F8000DACFE6FFE1CFD9FFE2CFDAFFFD0EDB506B
:102F9000FB0BCA6ECC6A9E92FD0EDBAE02D09D8208
:102FA00001D09D92CA84E552E5CFDAFFE7CFD9FF81
:022FB00012000D
:0E2FB200D9CFE6FFDACFE6FFE1CFD9FFE2CFBD
:102FC000DAFF0C0EBD129494CA94FD0EDB50CB6E4A
:102FD000CA84E552E5CFDAFFE7CFD9FF1200949417
:022FE0001200DD
:0E2FE200D9CFE6FFDACFE6FFE1CFD9FFE2CF8D
:102FF000DAFFC30EC214146EFD0EDB407F0B3C0BD8
:103000001410C26EE552E5CFDAFFE7CFD9FF120008
:10301000F36AF46AFF0EE124E96EFF0EE220EA6E25
:10302000ED6607D02F0EEF6404D03A0EEF6001D0AA
:04303000F32A12006D
:0C3034001EEE00F02EEE00F0F86A019C89
:10304000D9EC14F057EC18F083EC14F0FBD7120015
:10305000FF0EE350ACBA04D0AF6AAB8EAC8A949C3E
:0C306000ACA2FED7AD6EF36EF46A120055
:04306C00C450176EC7
:0E307000166AC3501610F36E17C0F4FF12005C
:02307E003031EF
:0F30800032333435363738396162636465660040
:0E30900000EE00F00F0EEE6AEA62FDD71200AD
:02309E00C2501E
:0830A000020B01E0010E120019
:0430A800C2821200CE
:0230AC00120010
:0230AE0012000E
:0F30B00000E0FCA8FD70FE000090015802200314
:0130BF00FE12
:0130C000FF10
:0630C100000303BA0C003D
:0430C7000000000005
:020000040030CA
:0100010008F6
:010003001EDE
:0100050003F7
:010006008178
:00000001FF
