:020000040000FA
:0600000007EF1FF01200E3
:020006001200E6
:06000800E1EF1EF0120002
:02000E000600EA
:10001000993E0000C200000001000000FA3E00000E
:10002000B400000005000000F63E0000B90000002A
:1000300004000000DB3E0000800000001B00000008
:10004000D93E0000BF00000002000000CA3E0000D0
:080050009B0000000F000000FE
:08005800D9CFE6FFE1CFD9FF8B
:10006000020EE126DF6A010EDB6A000196510CE008
:10007000E66A07D095C0FBFF94C0FAFF00019351D8
:10008000F96EF8DFE5521BD09EAA06D078EC1EF080
:10009000E76E010EE7CFDBFF010EDB500FE0010E34
:1000A000DBCFE6FF07D095C0FBFF94C0FAFF00014D
:1000B0009351F96EF8DFE552DF6E01D0DF6ADF5051
:1000C000146E020EE15C02E2E16AE552E16E145048
:1000D000E552E7CFD9FF1200D9CFE6FFE1CFD9FF34
:1000E000E652DF6AFE0EDB503F0A20E0570A1EE0B0
:1000F000200A1CE03B0A10E0200A0EE03E0A02E063
:10010000200A18E10001540E936F010E946F000E47
:10011000956FF5EC17F00CD000015A0E936F020E9C
:10012000946F000E956F7BEC18F002D09CEC17F0EA
:10013000DF6A0AD00001D80E936F000E946F000E94
:10014000956FDF6A9CEC17F0DF50E552E552E7CF80
:10015000D9FF1200D9CFE6FFE1CFD9FFE652DF6A1F
:10016000FE0EDB50750A55E0200A53E03F0A3BE0E3
:10017000200A39E0280A2FE0200A2DE0300A15E095
:10018000200A13E03E0A02E0200A4EE100013C0E84
:10019000936F040E946F000E956F2DEC18F0880E7F
:1001A000E66E260EE66E000E0ED000017C0E936FFA
:1001B000070E946F000E956F2DEC18F0780EE66E1A
:1001C000260EE66E000EE66E01EC1CF0E552E552DE
:1001D000E552DF6A3CD0110EDF6E6A0EE66E260E27
:1001E000E66E000E2ED00001AA0E936F140E946FCF
:1001F000000E956F4C0EE66E260EE66E000EE66E55
:1002000001EC1CF0E552E552E5520001010E966F3B
:100210001ED00001D80E936F000E946F000E956FE4
:10022000DF6A9CEC17F013D00001D80E936F000E1C
:10023000946F000E956FDF6A400EE66E260EE66E36
:10024000000EE66E01EC1CF0E552E552E552DF507F
:10025000E552E552E7CFD9FF1200D9CFE6FFE1CF53
:10026000D9FF020EE126DF6AFE0EDB50750A01E1BE
:10027000C2D0200A01E1BFD0340A01E176D0200AC1
:1002800074E0150A4FE0200A4DE0410A3DE0010A02
:100290002EE0070A1FE0010A10E0030A01E0B6D0D1
:1002A0002F0EE66E260EE66E000EE66E01EC1CF0DA
:1002B000E552E552E552130E33D01E0EE66E260EC1
:1002C000E66E000EE66E01EC1CF0E552E552E552DA
:1002D000140E26D00D0EE66E260EE66E000EE66EAD
:1002E00001EC1CF0E552E552E552150E19D0FC0E5A
:1002F000E66E250EE66E000EE66E01EC1CF0E55291
:10030000E552E552160E0CD0EB0EE66E250EE66EAB
:10031000000EE66E01EC1CF0E552E552E552170EB8
:10032000DF6E7FD0BDC0E6FFBEC0E6FFC30EE66E47
:10033000250EE66E000EE66E01EC1CF0146E050E46
:10034000E15E1450A10EE66E250EE66E000EE66E1E
:1003500001EC1CF0E552E552E5520001F00E936FFE
:100360000A0E946F000E956F5CD0740EE66E250E2B
:10037000E66E000EE66E01EC1CF0E552E552E55229
:10038000010EDB6ADBCF14F0040EE76E1418E8AE42
:1003900002D0E73402D0E750145C23E2010EDBCF39
:1003A000E9FFEA6AE9BEEA68D890E936EA36830EE0
:1003B000E926000EEA22E80EEE6E030EED6E010E47
:1003C000DBCFE9FFEA6AE9BEEA68D890E936EA36A7
:1003D0008B0EE926000EEA22EE6AED6A010EDB2A98
:1003E000D1D70001240E936F0D0E946F000E956F00
:1003F000010E966F16D00001D80E936F000E946F09
:10040000000E956FDF6A9CEC17F00BD0660EE66E5F
:10041000250EE66E000EE66E01EC1CF0E552E5528C
:10042000E552DF50146E020EE15C02E2E16AE55231
:10043000E16E1450E552E7CFD9FF1200D9CFE6FFA5
:10044000E1CFD9FFE652DF6AFE0EDB50750A01E10B
:10045000A7D0200A01E1A4D06B0A01E195D0020ADD
:1004600051E07F0A3EE0200A3CE0100A2AE0200A20
:1004700028E03E0A16E0200A14E02B0A03E0200AD6
:1004800001E098D04D0EE66E250EE66E000EE66E8B
:1004900001EC1CF0E552E552E5520001816B010EC2
:1004A0002FD0320EE66E250EE66E000EE66E01ECE3
:1004B0001CF0E552E552E5520001010E816F020E7B
:1004C0001FD0190EE66E250EE66E000EE66E01ECEC
:1004D0001CF0E552E552E5520001020E816F030E59
:1004E0000FD0050EE66E250EE66E000EE66E01ECF0
:1004F0001CF0E552E552E5520001030E816F040E37
:10050000DF6E66D0F10EE66E240EE66E000EE66E2D
:1005100001EC1CF0E552E552E55200018151030A5D
:100520001EE0010A14E0030A0AE0010A25E1090EAF
:10053000DF6EE90EE66E240EE66E000E17D00A0E90
:10054000DF6EDF0EE66E240EE66E000E0FD00B0E91
:10055000DF6ED70EE66E240EE66E000E07D00C0E90
:10056000DF6ECE0EE66E240EE66E000EE66E01EC39
:100570001CF0E552E552E5520001DC0E936F050ECA
:10058000946F000E956F24D0AC0EE66E240EE66ECE
:10059000000EE66E01EC1CF0E552E552E55218D073
:1005A0000001540E936F010E946F000E956FF5ECE1
:1005B00017F00ED0DF6AA10EE66E240EE66E000E76
:1005C000E66E01EC1CF0E552E552E5522DEC18F018
:1005D000DF50E552E552E7CFD9FF1200D9CFE6FF51
:1005E000E1CFD9FFE652DF6AFE0EDB50750A01E16A
:1005F000A7D0200A01E1A4D0690A01E195D0020A3E
:1006000051E07D0A3EE0200A3CE0100A2AE0200A80
:1006100028E03E0A16E0200A14E02B0A03E0200A34
:1006200001E098D0800EE66E240EE66E000EE66EB7
:1006300001EC1CF0E552E552E5520001816B090E18
:100640002FD05D0EE66E240EE66E000EE66E01EC17
:100650001CF0E552E552E5520001010E816F0A0ED1
:100660001FD03C0EE66E240EE66E000EE66E01EC28
:100670001CF0E552E552E5520001020E816F0B0EAF
:100680000FD0200EE66E240EE66E000EE66E01EC34
:100690001CF0E552E552E5520001030E816F0C0E8D
:1006A000DF6E66D00C0EE66E240EE66E000EE66E71
:1006B00001EC1CF0E552E552E55200018151030ABC
:1006C0001EE0010A14E0030A0AE0010A25E1010E16
:1006D000DF6EE90EE66E240EE66E000E17D0020EF7
:1006E000DF6EDF0EE66E240EE66E000E0FD0030EF8
:1006F000DF6ED70EE66E240EE66E000E07D0040EF7
:10070000DF6ECE0EE66E240EE66E000EE66E01EC97
:100710001CF0E552E552E55200013C0E936F040EC9
:10072000946F000E956F24D0EA0EE66E230EE66EEF
:10073000000EE66E01EC1CF0E552E552E55218D0D1
:100740000001540E936F010E946F000E956FF5EC3F
:1007500017F00ED0DF6AA10EE66E240EE66E000ED4
:10076000E66E01EC1CF0E552E552E5522DEC18F076
:10077000DF50E552E552E7CFD9FF1200D9CFE6FFAF
:10078000E1CFD9FFE652DF6AFE0EDB50750A01E1C8
:10079000B5D0200A01E1B2D06B0A01E1A3D0020A70
:1007A00051E07F0A3EE0200A3CE0100A2AE0200ADD
:1007B00028E03E0A16E0200A14E02B0A03E0200A93
:1007C00001E0A6D0CE0EE66E230EE66E000EE66EBB
:1007D00001EC1CF0E552E552E5520001826B050E7A
:1007E0002FD0B00EE66E230EE66E000EE66E01EC24
:1007F0001CF0E552E552E5520001010E826F060E33
:100800001FD0940EE66E230EE66E000EE66E01EC2F
:100810001CF0E552E552E5520001020E826F070E10
:100820000FD07F0EE66E230EE66E000EE66E01EC34
:100830001CF0E552E552E5520001030E826F080EEE
:10084000DF6E73D06A0EE66E230EE66E000EE66E65
:1008500001EC1CF0E552E552E55200018251030A19
:100860001EE0010A14E0030A0AE0010A26E10D0E67
:10087000DF6EE90EE66E240EE66E000E17D00E0E49
:10088000DF6EDF0EE66E240EE66E000E0FD00F0E4A
:10089000DF6ED70EE66E240EE66E000E07D0100E49
:1008A000DF6ECE0EE66E240EE66E000EE66E01ECF6
:1008B0001CF0E552E552E5520DD05B0EE66E230EBC
:1008C000E66E000EE66E01EC1CF0E552E552E552D4
:1008D0000D0EDF6E0001360E936F090E946F000E41
:1008E000956F23D0380EE66E230EE66E000EE66E90
:1008F00001EC1CF0E552E552E55217D00001540E10
:10090000936F010E946F000E956FF5EC17F00DD0FC
:100910002A0EE66E230EE66E000EE66E01EC1CF06B
:10092000E552E552E5522DEC18F0DF50E552E55264
:10093000E7CFD9FF1200D9CFE6FFE1CFD9FFE652CA
:10094000DF6AFE0EDB50750A01E1B5D0200A01E135
:10095000B2D0690A01E1A3D0020A51E07D0A3EE06B
:10096000200A3CE0100A2AE0200A28E03E0A16E0AD
:10097000200A14E02B0A03E0200A01E0A6D00E0EA4
:10098000E66E230EE66E000EE66E01EC1CF0E552FC
:10099000E552E5520001826B0D0E2FD0F00EE66E8F
:1009A000220EE66E000EE66E01EC1CF0E552E552FA
:1009B000E5520001010E826F0E0E1FD0D40EE66EBE
:1009C000220EE66E000EE66E01EC1CF0E552E552DA
:1009D000E5520001020E826F070E0FD07F0EE66E09
:1009E000230EE66E000EE66E01EC1CF0E552E552B9
:1009F000E5520001030E826F100EDF6E73D0BF0E42
:100A0000E66E220EE66E000EE66E01EC1CF0E5527C
:100A1000E552E55200018251030A1EE0010A14E08A
:100A2000030A0AE0010A26E1050EDF6EE90EE66E12
:100A3000240EE66E000E17D0060EDF6EDF0EE66E99
:100A4000240EE66E000E0FD0070EDF6ED70EE66E98
:100A5000240EE66E000E07D0080EDF6ECE0EE66E98
:100A6000240EE66E000EE66E01EC1CF0E552E55237
:100A7000E5520DD05B0EE66E230EE66E000EE66EBE
:100A800001EC1CF0E552E552E552050EDF6E000167
:100A90007C0E936F070E946F000E956F23D09C0E03
:100AA000E66E220EE66E000EE66E01EC1CF0E552DC
:100AB000E552E55217D00001540E936F010E946F6A
:100AC000000E956FF5EC17F00DD02A0EE66E230E92
:100AD000E66E000EE66E01EC1CF0E552E552E552C2
:100AE0002DEC18F0DF50E552E552E7CFD9FF1200A8
:100AF000D9CFE6FFE1CFD9FF300EF36EFE0EDBCF8C
:100B0000F4FFF350F45C22E3FE0EDB5039081EE3E1
:100B1000FE0EDBCFE6FFE66A990EE66E220EE66E6B
:100B2000000EE66E01EC1CF0146E050EE15E145032
:100B3000FE0EDB50D00F0001BD6FBE6B00018A0EB0
:100B4000936F0B0E946F000E956F1AD0800EE66EA9
:100B5000220EE66E000EE66E01EC1CF0E552E55248
:100B6000E55278EC1EF078EC1EF05C0EE66E220E7C
:100B7000E66E000EE66E01EC1CF0E552E552E55221
:100B8000000EE552E7CFD9FF1200D9CFE6FFE1CF43
:100B9000D9FF0001000EBD5D040EBE5901E388D0EF
:100BA000300EF36EFE0EDBCFF4FFF350F45C2CE35B
:100BB000FE0EDB50390828E3FE0EDBCFE6FFE66AC7
:100BC000990EE66E220EE66E000EE66E01EC1CF04B
:100BD000146E050EE15E1450BDC014F0BEC015F0D9
:100BE0000A0E1502F3CF15F01402F4501526FE0E6E
:100BF000DB500001F324BD6F000E1520BE6F300ED8
:100C0000BD5F000EBE5B89D0000ED880BD55000EC2
:100C1000BE551EE2BDC0E6FFBEC0E6FF390EE66E61
:100C2000220EE66E000EE66E01EC1CF0146E050E50
:100C3000E15E145078EC1EF078EC1EF000015A0EC4
:100C4000936F020E946F000E956F7BEC18F065D0D9
:100C50000A0EE66E220EE66E000EE66E01EC1CF049
:100C6000E552E552E55278EC1EF078EC1EF0BDC07E
:100C7000E6FFBEC0E6FFC30EE66E250EE66E000E72
:100C8000E66E01EC1CF0146E050EE15E1450A10E30
:100C9000E66E250EE66E000EE66E01EC1CF0E552E7
:100CA000E552E5520001FE0EBD6F010EBE6F2ED063
:100CB000D80EE66E210EE66E000EE66E01EC1CF01C
:100CC000E552E552E55278EC1EF078EC1EF000019A
:100CD000FE0EBD6F010EBE6FBDC0E6FFE66EC30E19
:100CE000E66E250EE66E000EE66E01EC1CF0146E4C
:100CF000050EE15E1450A10EE66E250EE66E000EA6
:100D0000E66E01EC1CF0E552E552E5520001F00EF2
:100D1000936F0A0E946F000E956F000EE552E7CFA9
:100D2000D9FF1200D9CFE6FFE1CFD9FF050EE66E5D
:100D30008DEC1AF0E552F3CF14F0F4CF15F000016A
:100D40009851F418E8AE02D0153404D01450975DD1
:100D50001550985906E26E0E936F0D0E946F000EAB
:100D6000956F6CDB000EE552E7CFD9FF1200D9CFAB
:100D7000E6FFE1CFD9FF070EE126DE6ADD6A020E4B
:100D8000DB6A030EDB6A050EE66E8DEC1AF0E552A7
:100D9000020EF3CFDBFF030EF4CFDBFF040EE66E93
:100DA0008DEC1AF0E552F3CFDEFFF4CFDDFF020E3B
:100DB000DBCF14F0030EDBCF15F0DECF16F0DDCF66
:100DC00017F017501518E8AE02D0153404D014509F
:100DD000165C155017582FE2020EDBCF16F0030EEB
:100DE000DBCF17F0DE50165C146EDD501758156E11
:100DF000040E14C0DBFF050E15C0DBFF040EDBCFB5
:100E000014F0050EDBCF15F0000115508A19E8AE7D
:100E100002D08A3504D08951145C8A5115583BE2BE
:100E2000040EDBCF89F0050EDBCF8AF0DECF91F028
:100E3000DDCF92F030D0DECF16F0DDCF17F0020E0E
:100E4000DB50165C146E030EDB501758156E040E43
:100E500014C0DBFF050E15C0DBFF040EDBCF14F062
:100E6000050EDBCF15F0000115508A19E8AE02D04F
:100E70008A3504D08951145C8A5115580CE2040E4D
:100E8000DBCF89F0050EDBCF8AF0020EDBCF91F0CD
:100E9000030EDBCF92F0040EE66E8DEC1AF0E552F5
:100EA000F3CF14F0F4CF15F000019851F418E8AE28
:100EB00002D0153404D01450975D1550985906E2AD
:100EC000E80E936F0E0E946F000E956FB7DA000E5A
:100ED000146E070EE15C02E2E16AE552E16E145025
:100EE000E552E7CFD9FF1200D9CFE6FFE1CFD9FF16
:100EF000070EE126DE6ADD6A020EDB6A030EDB6A9C
:100F0000040EE66E8DEC1AF0E552020EF3CFDBFF15
:100F1000030EF4CFDBFFE66E8DEC1AF0E552F3CF53
:100F2000DEFFF4CFDDFF020EDBCF14F0030EDBCFCC
:100F300015F0DECF16F0DDCF17F017501518E8AE1C
:100F400002D0153404D01450165C155017582FE2F7
:100F5000020EDBCF16F0030EDBCF17F0DE50165C6F
:100F6000146EDD501758156E040E14C0DBFF050E0D
:100F700015C0DBFF040EDBCF14F0050EDBCF15F040
:100F8000000115508819E8AE02D0883504D0875189
:100F9000145C885115583BE2040EDBCF87F0050E38
:100FA000DBCF88F0DECF8FF0DDCF90F030D0DECF1A
:100FB00016F0DDCF17F0020EDB50165C146E030E38
:100FC000DB501758156E040E14C0DBFF050E15C05C
:100FD000DBFF040EDBCF14F0050EDBCF15F00001B4
:100FE00015508819E8AE02D0883504D08751145CBA
:100FF000885115580CE2040EDBCF87F0050EDBCFCD
:1010000088F0020EDBCF8FF0030EDBCF90F0030EE3
:10101000E66E8DEC1AF0E552F3CF14F0F4CF15F034
:1010200000019851F418E8AE02D0153404D01450E1
:10103000975D1550985906E2600E936F100E946FED
:10104000000E956FFBD9000E146E070EE15C02E2F4
:10105000E16AE552E16E1450E552E7CFD9FF120084
:10106000D9CFE6FFE1CFD9FF070EE126DE6ADD6AC0
:10107000020EDB6A030EDB6AE66E8DEC1AF0E552B7
:10108000020EF3CFDBFF030EF4CFDBFF020EE66EA2
:101090008DEC1AF0E552F3CFDEFFF4CFDDFF020E48
:1010A000DBCF14F0030EDBCF15F0DECF16F0DDCF73
:1010B00017F017501518E8AE02D0153404D01450AC
:1010C000165C155017582FE2020EDBCF16F0030EF8
:1010D000DBCF17F0DE50165C146EDD501758156E1E
:1010E000040E14C0DBFF050E15C0DBFF040EDBCFC2
:1010F00014F0050EDBCF15F0000115508619E8AE8F
:1011000002D0863504D08551145C865115583BE2D7
:10111000040EDBCF85F0050EDBCF86F0DECF8DF041
:10112000DDCF8EF030D0DECF16F0DDCF17F0020E1F
:10113000DB50165C146E030EDB501758156E040E50
:1011400014C0DBFF050E15C0DBFF040EDBCF14F06F
:10115000050EDBCF15F0000115508619E8AE02D060
:10116000863504D08551145C865115580CE2040E66
:10117000DBCF85F0050EDBCF86F0020EDBCF8DF0E6
:10118000030EDBCF8EF0020EE66E8DEC1AF0E55208
:10119000F3CF14F0F4CF15F000019851F418E8AE35
:1011A00002D0153404D01450975D1550985906E2BA
:1011B000D80E936F110E946F000E956F3FD9000EED
:1011C000146E070EE15C02E2E16AE552E16E145032
:1011D000E552E7CFD9FF1200D9CFE6FFE1CFD9FF23
:1011E000080EE126DE6ADD6A020EDB6A030EDB6AA8
:1011F000020EE66E8DEC1AF0E552020EF3CFDBFF25
:10120000030EF4CFDBFF010EE66E8DEC1AF0E55213
:10121000F3CFDEFFF4CFDDFF020EDBCF14F0030EC1
:10122000DBCF15F0DECF16F0DDCF17F01750151815
:10123000E8AE02D0153404D01450165C155017587F
:101240002FE2020EDBCF16F0030EDBCF17F0DE50DD
:10125000165C146EDD501758156E040E14C0DBFFBB
:10126000050E15C0DBFF040EDBCF14F0050EDBCF3F
:1012700015F0000115508419E8AE02D0843504D071
:101280008351145C845115583BE2040EDBCF83F08C
:10129000050EDBCF84F0DECF8BF0DDCF8CF030D0CD
:1012A000DECF16F0DDCF17F0020EDB50165C146EA9
:1012B000030EDB501758156E040E14C0DBFF050E2D
:1012C00015C0DBFF040EDBCF14F0050EDBCF15F0ED
:1012D000000115508419E8AE02D0843504D0835142
:1012E000145C845115580CE2040EDBCF83F0050E1C
:1012F000DBCF84F0020EDBCF8BF0030EDBCF8CF064
:10130000010EE66E8DEC1AF0E552F3CF14F0F4CF37
:1013100015F000019851F418E8AE02D0153404D04D
:101320001450975D1550985901E37AD0010EF36E71
:10133000060EF3CFDBFFDBCF14F0040EE76E1418BC
:10134000E8AE02D0E73402D0E750145C30E2060E7B
:10135000DBCFE9FFEA6AE9BEEA68D890E936EA3607
:101360008B0EE926000EEA22EECF14F0EFCF15F037
:1013700015508C19E8AE02D08C3504D08B51145C1A
:101380008C51155811E2060EDBCFE9FFEA6AE9BE7F
:10139000EA68D890E936EA368B0EE926000EEA2292
:1013A000EECF8BF0EDCF8CF0060EDB2AC4D7BDC09C
:1013B000E6FFBEC0E6FFC30EE66E250EE66E000E2B
:1013C000E66E01EC1CF0146E050EE15E14508BC04D
:1013D000BDF08CC0BEF00001140EBD5F000EBE5B00
:1013E000BDC0E6FFBEC0E6FF390EE66E220EE66E19
:1013F000000EE66E01EC1CF0146E050EE15E14505A
:1014000078EC1EF078EC1EF000015A0E936F020E7D
:10141000946F000E956F7BEC18F00001966B01D075
:101420000DD8000E146E080EE15C02E2E16AE5528E
:10143000E16E1450E552E7CFD9FF1200D9CFE6FF95
:10144000E1CFD9FFE6529EAA2BD078EC1EF0DF6EDA
:1014500078EC1EF078EC1EF0DFCF14F0156A14BEA5
:10146000156814C0E6FF15C0E6FFD30EE66E210E28
:10147000E66E000EE66E01EC1CF0166E050EE15EE7
:101480001650A70EE66E210EE66E000EE66E01EC1B
:101490001CF0E552E552E5527BEC18F00001966B2A
:1014A000E552E552E7CFD9FF1200D9CFE6FFE1CFF1
:1014B000D9FFE652CEEC1AF0DF6EDF50010A03E0EE
:1014C000010A2BE015D00001992B000E9A2399C038
:1014D000E6FF9AC0E6FF870EE66E210EE66E000E6E
:1014E000E66E01EC1CF0146E050EE15E145015D092
:1014F0000001966B540E936F010E946F000E956F62
:10150000710EE66E210EE66E000EE66E01EC1CF02A
:10151000E552E552E552F5EC17F0000EE552E552C2
:06152000E7CFD9FF120025
:0A152600CFEC0FF0FB0EDBCFF3FF5C
:10153000DB06F35000090AE01DEC10F0FA0E88EC0F
:1015400010F0F3E1151CF1E1010E01D0000EFEEFE9
:101550000FF0CFEC0FF03B0EE12402E3E168E6521E
:10156000E16E010EDB6A020EDB6AF90EDBCFF6FFDD
:10157000FA0EDBCFF7FFFB0EDBCFF8FF0800F550CC
:10158000DF6EDF5002E122EF0FF0250EDF5C02E09C
:1015900015EF0FF0030EDB6A040EDB6A050EDB6A43
:1015A000060EDB6A070EDB6A37EC0FF02D0EDF5CF0
:1015B0000CE02B0EDF5C09E0200EDF5C06E0230E62
:1015C000DF5C03E0300EDF5C1AE1DF50300A14E02C
:1015D000130A0FE0030A0AE00B0A05E0060AE4E139
:1015E000030EDB80E1D7030EDB82DED7030EDB8444
:1015F000DBD7030EDB86D8D7030EDB88D5D72A0EC0
:10160000DF5C1BE133EC0FF081EC0FF010E0030E18
:10161000DB8008680968130EDBCF0DF0140EDBCFFA
:101620000EF0D4EC1DF0040E06C0DBFF03D0130E49
:101630006AEC0FF037EC0FF00BD0090EDB6AD8EC38
:101640000FF003E04CEC10F0FAD7090E6AEC0FF043
:10165000030EDBB0DB982E0EDF5C1BE137EC0FF0E6
:101660002A0EDF5C0BE133EC0FF081EC0FF003E1AD
:10167000130EBCEC0FF037EC0FF00BD0090EDB6A49
:10168000D8EC0FF003E04CEC10F0FAD7090EBCECEC
:101690000FF0680EDF5C07E137EC0FF0680EDF5CDF
:1016A0001DE1030E18D0740EDF5C17E07A0EDF5CCC
:1016B00014E0480EDF5C06E0540EDF5C03E05A0ED7
:1016C000DF5C02E1020E07D06C0EDF5C03E06A0E05
:1016D000DF5C04E1010E0FEC10F0C9DBDF506E0A95
:1016E00001E17FD31E0A01E192D1200A01E18FD1ED
:1016F0003F0A01E149D11A0A01E146D10D0A01E18F
:1017000043D1200A01E140D13A0A01E13DD1200A4A
:1017100001E13AD1260A01E135D10D0A01E132D1C8
:101720001A0A01E1D9D0200A4AE0300A1FE0460A2D
:101730000EE0250A01E083D3D950F90FE96EFF0EC0
:10174000DA20EA6E010EEE5E000EEE5AEE5A1DEC45
:1017500010F0250EE66E95DB03E1151C01E169D35F
:1017600019EC10F001E26BD3DB2A69D3080EDB6AB7
:10177000040EDB50010806E2040EDB04E1EC0FF07E
:10178000DB508BDB080EDB5009E0030EDB50010B56
:1017900005E172DB01E04DD3080EDB6A64DBEFCFBD
:1017A000DFFF91EC10F003E1151C01E142D319ECCD
:1017B00010F001E3DB2A60DB01E141D33AD3070EED
:1017C000DB5002080FE15DEC10F0030E24EC10F08A
:1017D0000E0EEECFDBFF0F0EEECFDBFF100EEECFC7
:1017E000DBFF20D0F70EDBCF17F0F80EDBCF18F0C1
:1017F000020E175E000E185AF70E17C0DBFFF80E28
:1018000018C0DBFF17C0E9FF18C0EAFF14EC10F0A6
:10181000166A0E0E14C0DBFF0F0E15C0DBFF100E94
:1018200016C0DBFF0E0EDBCFE6FF0F0EDBCFE6FFB1
:10183000100EDBCFE6FF51EC1DF0E552E552E5520C
:10184000130E07C0DBFF140E08C0DBFF060EDB50D3
:1018500005E0130E58EC10F001E26ADB7CEC10F0AE
:1018600002E2130E37DB3FEC10F006E0040E58ECFA
:1018700010F002E2050E2EDB030EDBB005D0FCDA21
:1018800001E0D7D2080EDB6A090EDB6A0E0EDBCF51
:10189000F6FF0F0EDBCFF7FF100EDBCFF8FF0800CF
:1018A000F550DF6EDF5014E082EC10F011E291ECA5
:1018B00010F003E1151C01E1BCD2BBDB01E3DB2A24
:1018C000090EDB2AD9500E0FE96E000ECBDBE7D7ED
:1018D000D3DA01E1B4D2ADD2C6DA110EEECFDBFF1E
:1018E000120EEDCFDBFF110EDBCFE6FF120EDBCFCA
:1018F000E6FF43EC1DF0E552E552130EF3CFDBFF9C
:10190000140EF4CFDBFF060EDB5004E0130ED0DB29
:1019100001E20EDB7CEC10F002E2130EDBDAAFDB4F
:1019200005E0040EC5DB02E2050ED4DA030EDBB0DF
:1019300005D0A2DA01E07DD2080EDB6A090EDB6A6F
:10194000110EDBCFE9FF120EDBCFEAFFEFCFDFFF97
:10195000DF5014E0D7DB12E2E4DB03E1151C01E108
:1019600068D267DB01E3DB2A090EDB2A110EDB2AD2
:10197000DBCFE9FF120EE8E3DB2AE6D77DDA01E1EF
:101980005ED257D2030EDB8E070EDB0410E195DB2F
:10199000040E5ADB0A0EEECFDBFF0B0EEECFDBFFA1
:1019A0000C0EEECFDBFF0D0EEECFDBFF6CD0070E83
:1019B000DB5003082CE1030EDBAE0DD0B2DA020ED1
:1019C00076DAEFCF14F0156A166A176A14AE39D0BA
:1019D0001568166835D0F70EDBCF15F0F80EDBCFA3
:1019E00016F0020E155E000E165AF70E15C0DBFF3C
:1019F000F80E16C0DBFF15C0E9FF16C0EAFFEFCFF7
:101A000014F00A0E14C0DBFF0B0EDB6A38D0070E91
:101A1000DB50020809E1030EDBAE04D059DB16AE41
:101A200010D00ED055DB0DD0030EDBAE12D079DA1C
:101A3000020E3DDAF9DA166A176A15AE02D0166898
:101A40001768E2DA0C0E16C0DBFF0D0E17C0DBFFC5
:101A50001AD0F70EDBCF16F0F80EDBCF17F0020E20
:101A6000165E000E175AF70E16C0DBFFF80E17C0F1
:101A7000DBFF16C0E9FF17C0EAFFD6DAC5DA0C0EA5
:101A8000DB6A0D0EDB6A060EDB5005E1010EF36E1C
:101A9000050EF3CFDBFF150EDB6A160EDB6AD9509D
:101AA000370F146E000EDA20156E390E14C0DBFFEE
:101AB0003A0E15C0DBFF380EDB6A080EDB6A0A0E31
:101AC000AEDADF50780A12E0200A10E0280A0CE0B3
:101AD000200A0AE03F0A06E00D0A02E0200A08E1B7
:101AE000020E05D0080E03D0080EDF26100E97DA7E
:101AF000030EDBBE02D0DB92DB94DB50800B24E0D4
:101B00008ADAD890030EEB50000A08E6000EEE5C6D
:101B1000000EEE58000EEE58000EEE5815E213DAE5
:101B20000B680C680D680E68D4EC1CF00A0E02C03D
:101B3000DBFF0B0E03C0DBFF0C0E04C0DBFF0D0E42
:101B400005C0DBFF2D0E08D0030EDBA202D02B0E4A
:101B500003D0DBA408D0200EF36E170EF3CFDBFF0B
:101B6000150EDB2A02D0170EDB6A050EDB5003E1EF
:101B7000B7D901E189D0880E146E3E0E156E000EA5
:101B8000166E070EDBCF17F0186A196A1A6A17C0AB
:101B90000BF018C00CF019C00DF01AC00EF0D3D91C
:101BA00054EC1EF014500224F36E15500320F46E12
:101BB00016500420F86EF4CFF7FFF3CFF6FF0800BD
:101BC000090EF5CFDBFF580EDF5C0FE1610EF36EFF
:101BD000090E7BD90AE3200E146E090EDBCFE7FF56
:101BE0001450E75E090EE7CFDBFF070EDBCF14F0E2
:101BF000156A166A176A0FDA14C00BF015C00CF0DC
:101C000016C00DF017C00EF0EECF06F0EECF07F0C5
:101C1000EECF08F0EFCF09F054EC1EF009C0EDFF55
:101C200008C0EDFF07C0EDFF06C0EFFF390EDBCFA8
:101C3000E9FFDB063A0EDBCFEAFF01E2DB06090E25
:101C4000DBCFEFFF150EDB2A4BD995E1030EDBA6A8
:101C50001DD06F0EDF5C06E1C1D918E3150EDB283D
:101C60005BDA14D0780EDF5C09E0580EDF5C06E02A
:101C7000620EDF5C03E0420EDF5C08E1020EF36EF1
:101C8000160EF3CFDBFF02D0150EDB6A030EDB501E
:101C9000100B0EE0040EDBCF14F0050EDB50D880E5
:101CA000145406E2060EDB5003E1040EDB5034DA76
:101CB00095D90AE2050EDBCFE7FF150EDB50E75E94
:101CC000050EE7CFDBFF02D0050EDB6A040EDBCF8B
:101CD00014F0160E45D9D880145414E2160EDBCF3A
:101CE000E6FF150EDBCFE6FF040EDBCFE6FF050EA9
:101CF000DB50E552E75CE552D880E754E552D880E6
:101D0000E7545FD9030EDB50010B0BE1080EDB50EB
:101D100008E0B2D801E08DD0080EDB50BED8080E26
:101D2000DB6A170EDB5007E088D9170EF1D903E103
:101D3000151C01E17ED0160EDB5016E07ED9300E68
:101D4000E66E9FD802E1151C74E077D9DFCFE6FF7D
:101D500092EC1CF0E552E552E552F4CF15F000018B
:101D6000F31C02E1151C65E0050EDBCF14F0160E26
:101D7000DB50D880145409E2050EDBCFE7FF160EC6
:101D8000DB50E75E050EE7CFDBFF300EE66E050E9B
:101D9000CBD94FE1390EDB2ADBCFE9FF3A0E01E365
:101DA000DB2ADBCFEAFF090EEFCFDBFFDB500EE0D3
:101DB00044D9090EADD902E1151C3BE0390EDB2AEE
:101DC000DBCFE9FF3A0EEDE3DB2AEBD755D831E163
:101DD000160EDBCFE6FF080EC3D8E552E7245DD828
:101DE0002ED0070EDB50030A1CE0010A14E0030AA0
:101DF00007E07BD9DBCFEEFF020EDBCFEDFF1FD07C
:101E0000F5D8196A17AE02D0186819682CD8BCD852
:101E100019C0EEFF14D0EAD817BE186824D8B4D879
:101E20000ED063D9DBCFEFFF0AD07BD905E1151CBB
:101E300003E1F368F46810D0FCD801E3DB2A79D918
:101E4000BEEF0AF0010EDBCF14F0020EDBCF15F06F
:101E500014C0F3FF15C0F4FF3B0EE15C02E2E16A3F
:101E6000E552E16ECBD029D9020E24EF10F061D9F2
:101E70000800F550DF6E1200200EE66E080E94EF9B
:101E800010F092EC1CF0E552E552E552F3CF14F05D
:101E9000F4CF15F00001F31C1200146E156AD9502E
:101EA000010F4DD91450EE261550ED221200185E88
:101EB000000E195AF70E18C0DBFFF80E19C0DBFF31
:101EC00018C0E9FF19C0EAFF1200DBCFF4FFF3509E
:101ED000F45C1200DB50E76E040EE7CFDBFF12006C
:101EE0000A0EDBCF14F00B0EDBCF15F00C0EDBCFA0
:101EF00016F00D0EDBCF17F014501510161017103A
:101F00001200130EEECFDBFF140EEDCFDBFF130E2E
:101F1000DBCF14F0140EDBCF15F00001800E15148A
:101F20001200F70EDBCF18F0F80EDBCF19F012001D
:101F3000050EDB50E66ED950130F01D9E552E7507C
:101F4000EE6EED6A12000A0EDBCF06F00B0EDBCF51
:101F500007F00C0EDBCF08F00D0EDBCF09F01200FE
:101F6000DBCFE6FF150EDBCFE6FF050EDB50E552BB
:101F7000E724E552E7241200DB50CED8010EF36EC1
:101F8000060EF3CFDBFF1200EE50EFCFEAFFE96E53
:101F900016C0EEFF17C0EEFF18C0EEFF1200D9CF3B
:101FA000E6FFDACFE6FFE1CFD9FFE2CFDAFF12009A
:101FB000DFCFE6FFE66AF5EC1EF0E552E552F3509E
:101FC0001200E76E080EE7CFDBFF1200EECF14F031
:101FD000EECF15F0EFCF16F0176A1200050EDBCF2B
:101FE00014F0150EDB50D88014541200010EDBCF14
:101FF00016F0020EDBCF17F0186A1200E552E5CF9B
:10200000DAFFE7CFD9FF12000A0E14C0DBFF0B0E78
:1020100015C0DBFF1200D9500A0F9FEF10F0F36ECE
:10202000070EF3CFDBFF1200EECF14F0EFCF15F069
:102030001200010EDB2A020E1200FC0EDBCFE6FFBF
:10204000FD0EDBCFE6FF1200145E000E155AF70EF0
:1020500014C0DBFFF80E15C0DBFF14C0E9FF15C08C
:10206000EAFF1200DA20EA6EEF2AEECFF6FF000E4A
:10207000EF22EECFF7FFEF22EECFF8FF1200040EB3
:10208000DBCFE6FF130EDB50E552E75C9ADFDB5057
:1020900004DF060EDB501200090EDB500A0DF35070
:1020A000DF24D00FE76E090EE7CFDBFF37EF0FF02D
:1020B000DB50F36E050E65EF0FF0F70EDBCF14F07B
:1020C000F80EDBCF15F01200DFCFE6FF41EF0FF087
:1020D00028DF030EECDEE6EF0FF093EC0AF0E5529A
:1020E000E552E552E55200091200BDDEEE50EFCF99
:1020F000EAFFE96E010E1200130EDB50F36E040EC0
:1021000065EF0FF0040EDB50F36E090E65EF0FF074
:10211000DBCFE6FF41EF0FF0E76E050EE7CFDBFF09
:1021200012008BDF64EF10F0DBCFE6FF86DF6DEF90
:1021300010F0D950F90FE96EFF0E32EF10F0E96E92
:08214000000EDA20EA6E120025
:082148000D6320636F6D6D61F2
:102150006E64206E6F742076616C6964202D2D2072
:10216000627567206D61696E2E63200D6300070C38
:1021700000092E2E2E6275673A2066726F6D206AF6
:102180006F6728290D0A00092E2E2E4A6F672073CB
:10219000657175656E636520636F6D706C657465E0
:1021A000642025690A0D000D0A206162626F727455
:1021B0006564206175746F6D61746963207468650E
:1021C0007365686F6C6420646574656374696F6EB1
:1021D0000D0A0025630D0A000D0A0A092A2A206546
:1021E0006E747279206572726F72202A2A20746868
:1021F000726573686F6C64206D75737420626520FE
:102200003C20313032340D0A0A000D0A0A092A2A0C
:1022100020656E747279206572726F72202A2A208E
:102220007468726573686F6C64206D757374206276
:1022300065203E20300D0A0A000D0A546865206EA4
:102240006577207468726573686F6C642076616C62
:1022500075652069732025750D0A3E000A0D656EAF
:10226000746572207468726573686F6C642076613F
:102270006C7565203120746F2031303233203E0080
:102280000D0A0A092A2A20656E7472792065727215
:102290006F72202A2A0D0A0A0025630052696768B6
:1022A00074206D6F746F722072657665727365202D
:1022B0002D2D206E6F206368616E67650D0A0072B8
:1022C00069676874206D6F746F7220666F727761D2
:1022D000726420007269676874206D6F746F722079
:1022E0007265766572736520736C6F770D0A3E00B8
:1022F0005269676874206D6F746F722072657665BD
:10230000727365206D656469756D0D0A3E005269D2
:10231000676874206D6F746F722072657665727372
:102320006520666173740D0A3E0020776861743F12
:10233000202D2D200D0A0A005269676874206D6FE8
:10234000746F7220666F7277617264202D2D206E1B
:102350006F206368616E67650D0A00524D7370658A
:102360006564206275670D0A3E00726967687420B3
:102370006D6F746F7220726576657273652000529E
:1023800069676874206D6F746F7220636F61737416
:102390000D0A3E007269676874206D6F746F722059
:1023A000666F727761726420736C6F770D0A3E00FE
:1023B0005269676874206D6F746F7220666F7277F0
:1023C000617264206D656469756D0D0A3E00526925
:1023D000676874206D6F746F7220666F72776172B8
:1023E0006420666173740D0A3E004C656674206D4E
:1023F0006F746F722072657665727365202D2D2063
:102400006E6F206368616E67650D0A006C656674A7
:10241000206D6F746F7220666F7277617264200036
:102420006C656674206D6F746F7220636F61737476
:1024300020726576657273650D0A3E006C65667480
:10244000206D6F746F7220736C6F77207370656589
:102450006420726576657273650D0A3E006C656670
:1024600074206D6F746F72206D656469756D207373
:102470007065656420726576657273650D0A3E004D
:102480006C656674206D6F746F7220666173742062
:10249000737065656420726576657273650D0A3EBA
:1024A0000020776861743F200D0A0A004C6566744D
:1024B000206D6F746F7220666F7277617264202D69
:1024C0002D206E6F206368616E67650D0A00636F73
:1024D0006173740D0A3E00736C6F770D0A3E006DD8
:1024E000656469756D0D0A3E00666173740D0A3E80
:1024F000006C656674206D6F746F7220726576650E
:1025000072736520006C656674206D6F746F722045
:10251000636F6173740D0A3E006C656674206D6FA5
:10252000746F7220736C6F772073706565640D0A29
:102530003E006C656674206D6F746F72206D65640B
:1025400069756D2073706565640D0A3E006C656683
:1025500074206D6F746F7220666173742073706580
:1025600065640D0A3E00776861743F202D2D200DB3
:102570000A0A3E006175746F6D6174696320746846
:10258000726573686F6C64207761746368696E67E5
:1025900020666F7220696E7075742E2E2E2E0D0AB5
:1025A00000656E746572207468726573686F6C6420
:1025B0002076616C7565203120746F2031303233A4
:1025C000203E00757064617465207468726573687C
:1025D0006F6C640D0A206F6C642076616C756520E9
:1025E000776173203D2025750D0A007265616420B6
:1025F00073656E736F7220350D0A3E0072656164FB
:102600002073656E736F7220340D0A3E007265612F
:10261000642073656E736F7220330D0A3E0072651D
:1026200061642073656E736F7220320D0A3E007212
:102630006561642073656E736F7220310D0A3E0010
:1026400020776861743F200D0A0A3E0072756E6E35
:10265000696E67206A6F672073657175656E636563
:102660003A20776169743B0D0A006272616B6520E4
:10267000616C6C0D0A093E00095269676874204D4F
:102680006F746F720A0D3E00094C656674204D6FC1
:10269000746F720A0D3E005C3C4C56443E00203C78
:1026A00072657365743E20003C53544B46554C3E56
:1026B000003C57445420544F3E003C424F523E0091
:1026C0003C504F523E0009202020202020736C698E
:1026D000646520726F626F742070657270656E64DD
:1026E0006963756C617220746F206C696E65210D71
:1026F0000A000941203D3E204175746F6D61746987
:1027000063207468726573686F6C64207365742DE0
:1027100075700D0A000954203D3E207365742074C5
:102720006865207468726573686F6C642076616C8C
:1027300075650D0A000935203D3E207265616420F3
:1027400073656E736F72203520286C656674290D71
:102750000A000934203D3E20726561642073656E75
:10276000736F72203420286C656674290D0A000985
:1027700033203D3E20726561642073656E736F7215
:10278000203320286C656674290D0A000932203D2B
:102790003E20726561642073656E736F7220322013
:1027A000286C656674290D0A000D0A0931203D3E2A
:1027B00020726561642073656E736F72203120280A
:1027C0006C656674290D0A000955203D3E20757020
:1027D000206F6E65206D656E750A0D0A3E00094317
:1027E000203D3E20636F6173740A0D00093E203D59
:1027F0003E20666F72776172642028617420736175
:102800006D65207370656564290D0A00093C203DE3
:102810003E2072657665727365202861742073614D
:102820006D65207370656564290D0A000953203DAC
:102830003E20736C6F772073706565640A0D000924
:102840004D203D3E206D656469756D207370656532
:10285000640A0D000D0A0946203D3E20666173742E
:102860002073706565640A0D000955203D3E207592
:102870007020746F20746F70206D656E750A0D0A7C
:102880003E00094A203D3E204A6F6720536571751E
:10289000656E63652028636865636B20666F7220D0
:1028A00072656C6961626C6520636F646520657830
:1028B00065637574696F6E290A0D000942203D3EFB
:1028C000206272616B6520616C6C0A0D00095220F8
:1028D0003D3E207269676874206D6F746F720A0DD7
:1028E000000D0A094C203D3E206C656674206D6F1A
:1028F000746F720A0D0009203F206F722068203D1E
:102900003E2068656C70207072696E74207468690E
:1029100073206D656E750A0D0A00092053203D3E37
:102920002073656E736F720A0D0009206D203D3EA5
:10293000206D6F746F720A0D000A09546F70204C7D
:102940006576656C204D656E750A0D0A00202020A5
:1029500076657273696F6E20322E30303020417090
:1029600072696C2032382C20323031300A0D002050
:10297000202070726F6772616D2062792044616EF1
:102980002050656972636520422E53632E0A0D0044
:1029900020202020202020202020202020415053B3
:1029A00043313239390A0D000A0D2020204B77615E
:1029B0006E746C656E20506F6C79746563686E69B7
:1029C0006320556E69766572736974790A0D000D1E
:1029D0000A717569742073656E736F722072656118
:1029E00064696E67202D2D206275670D0A3E0020F8
:1029F0007261772072656164696E672025750D0AC2
:102A00003E000D0A696E76616C69642073656E73B1
:102A10006F7220706F736974696F6E202D2D206244
:102A200075670D0A3E002073656E736F7220352046
:102A30002872696768742C20524C535F526967682A
:102A400074434834292C002073656E736F722034F0
:102A5000202863656E7465722072696768742C2023
:102A6000524C535F436E745269676874434833290C
:102A70002C002073656E736F722033202863656E9F
:102A80007465722C20524C535F43656E74657243BB
:102A90004832292C002073656E736F722032202813
:102AA00063656E746572206C6566742C20436E7469
:102AB0004C656674434831292C002073656E736F32
:102AC00072203120286C6566742C20524C535F4C68
:102AD000656674434830292C006379636C65206F08
:102AE000766572666C6F77202D2D206A6F675F7335
:102AF000657175656E63650D0A00756E6B6E6F7737
:102B00006E20636F6D6D616E64202D2D2062756780
:0E2B100020696E2070726F6772616D0D0A0091
:022B1E00D08E57
:102B2000F29EF29C2DEC1EF059D8100EE66EE66A6D
:102B30003C0EE66E4DEC1CF0E552E552E55251D8E4
:102B400057D859D85BD85DD8836A2FEC1FF000099D
:102B500002E08FD911D054EC1FF0000902E097D9A0
:102B60000BD023EC1FF0000902E0A1D905D0FCAE88
:102B700002D0ABD901D0B8D9C5D90A0EE66E0C0E79
:102B8000E66EA70EE66E0CEC1DF0E552E552E5523E
:102B9000829A849082908492060EE66E97EC1EF0E4
:102BA000E552C70EE66EB2EC1EF0E552C70EE66EB9
:102BB00001EC1EF0E552000EE66EE66AA5EC1DF093
:102BC000E552E552000EE66EE66A76EC1DF0E5523F
:102BD000E5520001BD6B020EBE6F1200949C948EF4
:102BE000120094909492949494969498949A1200CB
:102BF000EF0E926E1200C00E936E1200600E956E74
:102C00001200966A1200D9CFE6FFE1CFD9FF030E7A
:102C1000E126010EF36E020EF3CFDBFFFB0EDBCFDE
:102C200016F0FC0EDBCF17F0FD0EDBCFE9FFEA6AF2
:102C3000E9BEEA68D890E936EA369C0EE926000E2D
:102C4000EA221650EE24146E1750EE2014C0DEFF58
:102C5000DD6EDECF14F0DDCF15F00001800E15140F
:102C60000EE0020EDB6A08680968DECF0DF0DDCFEA
:102C70000EF0D4EC1DF006C0DEFF07C0DDFFDECF96
:102C800014F0DDCF15F0153409E214502008030EBE
:102C9000155404E2200EDE6E030EDD6EFE0EDB50D8
:102CA00015E1DECFE6FFDDCFE6FF76EC1DF0E55265
:102CB000E552020EDB5002E1829001D08280825008
:102CC000010B02E0849216D0848214D0DECFE6FF9E
:102CD000DDCFE6FFA5EC1DF0E552E552020EDB501C
:102CE00002E1829A01D0828A8250200B02E0849015
:102CF00001D08480030EE15C02E2E16AE552E16EFC
:102D0000E552E7CFD9FF1200200EE66E030EE66E05
:102D1000A5EC1DF0E552E552200EE66E030EE66EC0
:102D200076EC1DF0E552E552849282908490829A6E
:102D30001200D9CFE6FFE1CFD9FFFE0EDBCFE6FFD1
:102D4000CAEC1EF0E55262EC1FF05AEC1FF00009CD
:102D5000FCE13BEC1FF0E552E7CFD9FF1200870EF4
:102D6000E66EE7DFE552F3CF14F0F4CF15F0000183
:102D7000F350BD5DF450BE5902E3000E01D0010EC8
:102D800000019B91E8B09B818F0EE66ED2DFE55289
:102D9000F3CF14F0F4CF15F00001F350BD5DF45003
:102DA000BE5902E3000E01D0010E00019B93E8B072
:102DB0009B83970EE66EBDDFE552F3CF14F0F4CFA0
:102DC00015F00001F350BD5DF450BE5902E3000E52
:102DD00001D0010E00019B95E8B09B859F0EE66E29
:102DE000A8DFE552F3CF14F0F4CF15F00001F35053
:102DF000BD5DF450BE5902E3000E01D0010E00018A
:102E00009B97E8B09B87A70EE66E93DFE552F3CF62
:102E100014F0F4CF15F00001F350BD5DF450BE592D
:102E200002E3000E01D0010E00019B99E8B09B89DE
:102E3000120000019B51010B02E0839001D08380BE
:102E40009B51020B02E0839201D083829B51040BC1
:102E500002E0839401D083849B51080B02E08396A7
:102E600001D083869B51100B02E083981200838867
:102E700012005FEC1FF0C00EE66E260EE66E000E2E
:102E8000E66E01EC1CF0E552E552E55212005FECF3
:102E90001FF0BA0EE66E260EE66E000EE66E01EC30
:102EA0001CF0E552E552E5520400FED71200B10EC7
:102EB000E66E260EE66E000EE66E01EC1CF0E552A4
:102EC000E552E5520400FED71200FC9EA80EE66E05
:102ED000260EE66E000EE66E01EC1CF0E552E552A1
:102EE000E5520400FED712009E0EE66E260EE66E38
:102EF000000EE66E01EC1CF0E552E552E5520400CE
:102F0000FED71200D08ED288A284D29ED286D284DE
:102F1000D282D290A194A084F28E1200970EE66E17
:102F2000260EE66E000EE66E01EC1CF0E552E55250
:082F3000E5520400FED7120077
:082F3800A80EE66E290EE66EFC
:102F4000000EE66E01EC1CF0E552E552E552900EE3
:102F5000E66E290EE66E000EE66E01EC1CF0E55200
:102F6000E552E5526F0EE66E290EE66E000EE66E35
:102F700001EC1CF0E552E552E5524D0EE66E290ECD
:102F8000E66E000EE66E01EC1CF0E552E552E552ED
:102F9000390EE66E290EE66E000EE66E01EC1CF0B0
:102FA000E552E552E5522A0EE66E290EE66E000E57
:102FB000E66E01EC1CF0E552E552E5521A0EE66EA3
:102FC000290EE66E000EE66E01EC1CF0E552E552AD
:102FD000E552F60EE66E280EE66E000EE66E01EC89
:102FE0001CF0E552E552E5521200E10EE66E280EA5
:102FF000E66E000EE66E01EC1CF0E552E552E5527D
:10300000CD0EE66E280EE66E000EE66E01EC1CF0AC
:10301000E552E552E552BB0EE66E280EE66E000E56
:10302000E66E01EC1CF0E552E552E552820EE66ECA
:10303000280EE66E000EE66E01EC1CF0E552E5523D
:10304000E552690EE66E280EE66E000EE66E01ECA5
:103050001CF0E552E552E5521200540EE66E280EC1
:10306000E66E000EE66E01EC1CF0E552E552E5520C
:103070003F0EE66E280EE66E000EE66E01EC1CF0CA
:10308000E552E552E5522C0EE66E280EE66E000E75
:10309000E66E01EC1CF0E552E552E5520C0EE66ED0
:1030A000280EE66E000EE66E01EC1CF0E552E552CD
:1030B000E552EC0EE66E270EE66E000EE66E01ECB3
:1030C0001CF0E552E552E552DE0EE66E270EE66E86
:1030D000000EE66E01EC1CF0E552E552E552C80E1A
:1030E000E66E270EE66E000EE66E01EC1CF0E55271
:1030F000E552E5521200A90EE66E270EE66E000EAE
:10310000E66E01EC1CF0E552E552E5528C0EE66EDF
:10311000270EE66E000EE66E01EC1CF0E552E5525D
:10312000E5526F0EE66E270EE66E000EE66E01ECBF
:103130001CF0E552E552E552520EE66E270EE66EA1
:10314000000EE66E01EC1CF0E552E552E552350E3C
:10315000E66E270EE66E000EE66E01EC1CF0E55200
:10316000E552E552150EE66E270EE66E000EE66E8F
:1031700001EC1CF0E552E552E552F20EE66E260E29
:10318000E66E000EE66E01EC1CF0E552E552E552EB
:10319000C60EE66E260EE66E000EE66E01EC1CF024
:1031A000E552E552E552C80EE66E270EE66E000EB9
:0E31B000E66E01EC1CF0E552E552E55212000D
:0231BE00D9CF67
:1031C000E6FFE1CFD9FFFE0EDB5001E181D0FE0E1C
:1031D000DB50110A6FE0010A62E01F0A5BE0010A9E
:1031E00053E0030A4CE0010A43E0070A3CE0010A0D
:1031F00035E0030A2EE0010A52E00F0A25E0010A39
:103200001EE0030A17E0010A33E0070A0EE0010A94
:1032100007E0030A52E1000EE66EE66A060E2CD0C5
:10322000000EE66EE66A050E27D0000EE66EE66A30
:10323000040E22D0000EE66EE66A060E34D0000EB2
:10324000E66EE66A050E2FD0000EE66EE66A040E04
:103250002AD0000EE66EE66AE66A0FD0000EE66E31
:10326000E66A010E09D0000EE66EE66A020E04D090
:10327000000EE66EE66A030EE66EE66A17D0000EF2
:10328000E66EE66AE66A10D0000EE66EE66A010EA9
:10329000E66E0BD0000EE66EE66A020E04D0000E5B
:1032A000E66EE66A030EE66E010EE66E03EC16F0BD
:1032B000E5520BD084EC16F00BD0FA0EE66E2A0E17
:1032C000E66E000EE66E01EC1CF0E552E552E552AA
:1032D000E552E7CFD9FF120084EF16F0000EE66E3C
:1032E000E66A030EE66EE66A03EC16F0E552E55276
:1032F000E552E552000EE66EE66A030EE66E010E3A
:10330000E66E03EC16F0E552E552E552E552120086
:10331000000EE66EE66A010EE66EE66A03EC16F053
:10332000E552E552E552E552000EE66EE66A050EFC
:10333000E66E010EE66E03EC16F0E552E552E5523C
:10334000E5521200000EE66EE66A030EE66EE66ACD
:1033500003EC16F0E552E552E552E552000EE66E3A
:10336000E66A060EE66E010EE66E03EC16F0E55216
:10337000E552E552E5521200000EE66EE66A060ED0
:10338000E66EE66A03EC16F0E552E552E552E552C8
:10339000000EE66EE66A060EE66E010EE66E03ECC1
:1033A00016F0E552E552E552E5521200000EE66EC7
:1033B000E66A050EE66EE66A03EC16F0E552E552A3
:1033C000E552E552000EE66EE66A010EE66EE66E26
:1033D00003EC16F0E552E552E552E5521200000EFC
:1033E000E66EE66A060EE66EE66A03EC16F0E55255
:1033F000E552E552E552000EE66EE66A030EE66E11
:10340000010EE66E03EC16F0E552E552E552E55288
:023410001200A8
:0E341200D9CFE6FFE1CFD9FFFE0EDB50170A3F
:103420003CE0010A2DE0030A1EE0010A0FE0070A52
:1034300043E1BA0EE66E2A0EE66E000EE66E01EC71
:103440001CF0E552E552E552870E33D0950EE66E3C
:103450002A0EE66E000EE66E01EC1CF0E552E55217
:10346000E5528F0E26D0720EE66E2A0EE66E000E24
:10347000E66E01EC1CF0E552E552E552970E19D0CC
:10348000470EE66E2A0EE66E000EE66E01EC1CF0AC
:10349000E552E552E5529F0E0CD0260EE66E2A0E3E
:1034A000E66E000EE66E01EC1CF0E552E552E552C8
:1034B000A70EE66E10D80AD0020EE66E2A0EE66E51
:1034C000000EE66E01EC1CF0E552E552E552E552C5
:1034D000E7CFD9FF1200D9CFE6FFE1CFD9FFFE0E2B
:1034E000DBCFE6FF99EC16F0E552F3CF14F0F4CF02
:1034F00015F0F3CFE6FFF4CFE6FFEF0EE66E290EF0
:10350000E66E000EE66E01EC1CF0166E050EE15E36
:103510001650E552E7CFD9FF1200D9CFE6FFE1CF31
:10352000D9FF020EE126FE0EDB50050A10E0010A6B
:103530000CE0070A08E0010A04E0030A12E1870E22
:1035400007D08F0E05D0970E03D09F0E01D0A70E87
:10355000E66E99EC16F0E552F3CFDEFFF4CFDDFF17
:103560000BD0CF0EE66E290EE66E000EE66E01EC75
:103570001CF0E552E552E552DECF14F0DDCF15F038
:1035800014C0F3FF15C0F4FF020EE15C02E2E16A31
:0C359000E552E16EE552E7CFD9FF1200D2
:04359C00D9CFE6FF9E
:1035A000E1CFD9FFE652DF6A0001FE0EB75DFF0EE4
:1035B000B85904E2B72B000EB82315D0B76BB86B1F
:1035C000D90EE66E2A0EE66E000EE66E01EC1CF0D9
:1035D000E552E552E55207D0B6C0FBFFB5C0FAFF91
:1035E0000001B451F96EF8DFDF6EDF50E552E552AD
:1035F000E7CFD9FF1200D9CFE6FFE1CFD9FFE652DE
:10360000DF6A0001020EB75D000EB8590AE3B76B1E
:10361000B86B2E0EB46F360EB56F000EB66F88EC19
:1036200019F0000EE552E552E7CFD9FF1200D9CFCD
:10363000E6FFE1CFD9FFE652DF6A0001E80EB75D91
:10364000030EB8590AE3B76BB86B660EB46F360E4B
:10365000B56F000EB66FD6EC19F0000EE552E552CC
:10366000E7CFD9FF1200D9CFE6FFE1CFD9FFE6526D
:10367000DF6A0001840EB75D030EB85908E3B76B2B
:10368000B86B9A0EB46F360EB56F000EB66F000EA3
:10369000E552E552E7CFD9FF12000001F60EB46FF4
:0E36A000350EB56F000EB66FB76BB86B010C30
:0236AE00D9CF72
:1036B000E6FFE1CFD9FFE652DF6A8FEC15F06E0E20
:1036C000E66E210EE66E000EE66E01EC1CF0E55291
:1036D000E552E5529CEC17F0AFEC16F019EC17F040
:1036E0000400F2EC1EF0000902E08EEC17F02CEC66
:1036F00000F0DF6EDF5001E12FD0DFCF14F0120EAB
:10370000E76E1418E8AE02D0E73402D0E750145C3C
:1037100006E2DFCFE6FFDFEC18F0E5521DD0DFCF89
:1037200014F0180EE76E1418E8AE02D0E73402D099
:10373000E750145C06E2DFCFE6FF09EC1AF0E55231
:103740000BD0480EE66E210EE66E000EE66E01EC22
:103750001CF0E552E552E552BFD7E552E552E7CFFE
:04376000D9FF12007B
:0C3764000E0EF66E000EF76E000EF86EF2
:1037700000010900F550AF6F0900F550B06F03E18B
:10378000AF6701D03DD00900F550AA6F0900F55090
:10379000AB6F0900F550AC6F09000900F550E96EF8
:1037A0000900F550EA6E090009000900F550AD6FF7
:1037B0000900F550AE6F09000900F6CFB1F0F7CF60
:1037C000B2F0F8CFB3F0AAC0F6FFABC0F7FFACC0C1
:1037D000F8FF0001AD5302E1AE5307E00900F550D8
:1037E000EE6EAD07F8E2AE07F9D7B1C0F6FFB2C092
:1037F000F7FFB3C0F8FF0001AF07000EB05BBFD703
:023800001200B4
:0E380200D9CFE6FFDACFE6FFE1CFD9FFE2CF64
:10381000DAFFE652E652E652E652D950FB0F146E3A
:10382000FF0EDA20156E14C0DEFFDD6EDECFE6FF80
:10383000DDCFE6FFFB0EDBCFE6FFFC0EDBCFE6FFC6
:10384000FD0EDBCFE6FFBFC0E6FFC0C0E6FFA9EC80
:103850000AF0146E070EE15C02E2E16AE552E16EE5
:103860001450020EF3CFDBFF030EF4CFDBFF020E8A
:10387000DBCF14F0030EDBCF15F014C0F3FF15C03F
:10388000F4FF040EE15C02E2E16AE552E16EE5520A
:0A389000E5CFDAFFE7CFD9FF120001
:06389A00D9CFE6FFDACFF2
:1038A000E6FFE1CFD9FFE2CFDAFFAC6AAB6AFD0EEB
:1038B000DBB0AC88DBA202D0AC8CAB8CDBB4AC8EC2
:1038C000DBA602D0AB8801D0AB8ADBB8AC849E9873
:1038D000DBBAAB86DBAC02D09D8A01D09D9A9E9A62
:1038E000DBAE02D09D8801D09D98FB0EDB50AF6E01
:1038F000FB0EFC0EDBCF15F015C014F0156A14504A
:10390000B06EAC8AAB8E949C948EAC50100B04E0DD
:10391000AC50800B01E1948CE552E5CFDAFFE7CFA4
:04392000D9FF1200B9
:0C392400D9CFE6FFDACFE6FFE1CFD9FFF4
:10393000E2CFDAFFFB0EDBCF14F0FC0EDBCF15F08D
:103940000001800E15141AE1FB0EDBCFE9FFFC0E1F
:10395000DBCFEAFFEECFF3FFEDCFF4FFEE2A000E50
:10396000EF22F3CFE9FFF4CFEAFFFD0EDBCFEFFF4D
:10397000EF50156AF36E15C0F4FF10D0FB0EDB504C
:10398000FE0806E1FD0EDBCFE6FF15EC1FF005D0CB
:10399000FD0EDBCFE6FF03EC00F0E552E552E5CF8C
:0839A000DAFFE7CFD9FF1200A6
:0839A80006500B02F3CF02F000
:1039B000F4CF03F00C02F3500326000EF420046E43
:1039C00006500D02F3500426000EF420056E06503A
:1039D0000E02F350052607500B02F3500326F45055
:1039E0000422000E052207500C02F3500426F45066
:1039F000052207500D02F350052608500B02F35024
:103A00000426F450052208500C02F35005260950F4
:083A10000B02F3500526120021
:083A1800D9CFE6FFDACFE6FF8B
:103A2000E1CFD9FFE2CFDAFFC26AC06AFC0EDB4009
:103A30007F0B3C0BC26EFB0EDBCFE6FFFC0EDB38D0
:103A4000F00B300BE552E710C16EFD0EDB50040D9C
:103A5000F350380B156EFD0EDB380F0B070B146E91
:103A6000FD0EDB50800B14101510C06EFC0EDBAE8B
:103A700003D09E9C9D8CF28CC280E552E5CFDAFF8C
:063A8000E7CFD9FF1200A0
:0A3A8600FE0EE3CFE9FFFF0EE3CFD1
:103A9000EAFFF36AF46AEE5203E0F34AF42AFBD732
:103AA0001200FF0EE3CFF8FFE552FF0EE3CFF7FF62
:103AB000E552FF0EE3CFF6FFE552E66AE66AE66AF4
:103AC0000900F55209E0FD0EE32A05E1FE0EE32AA6
:103AD00002E1FF0EE32AF4D7FD0EE3CF07F0FE0E5E
:0C3AE000E3CF08F0FF0EE3CF09F0120066
:043AEC00D9CFE6FF49
:103AF000DACFE6FFE1CFD9FFE2CFDAFFE652E652B6
:103B0000FC0EDBCF14F0FD0EDBCF15F0060ED890C7
:103B100014361536E804FBE114C0DEFF15C0DDFFE6
:103B2000010EDB50BB6EDF50E840E8403F0B300B2E
:103B3000146ECF0EBA141410BA6EE552E552E55267
:0A3B4000E5CFDAFFE7CFD9FF12004E
:063B4A00D9CFE6FFDACF3F
:103B5000E6FFE1CFD9FFE2CFDAFFE652E652FC0EF4
:103B6000DBCF14F0FD0EDBCF15F0060ED890143627
:103B70001536E804FBE114C0DEFF15C0DDFF010EC1
:103B8000DB50BE6EDF50E840E8403F0B300B146E58
:103B9000CF0EBD141410BD6EE552E552E552E5CFCF
:083BA000DAFFE7CFD9FF1200A4
:083BA80009C013F008C012F07F
:103BB00008500D02F4CF07F0F3CF06F009500E02C3
:103BC000F4CF09F0F3CF08F00D02F3500726F450BC
:103BD0000822E86A092212500E02F3500726F45018
:103BE0000822E86A09220EAEFAEF1DF01250085EB4
:103BF0001350095A13AE000C0D50085E0E50095AAE
:023C0000000CB6
:0E3C0200D9CFE6FFDACFE6FFE1CFD9FFE2CF60
:103C1000DAFFE652E6520C0EBA6E050EF66EF76A41
:103C2000300EF86E0800F550010B03E0010EDB6862
:103C300002D0010EDB6ADB5002E0949201D0939631
:103C4000CA94FD0EDB50CB6ECA84E552E552E552B4
:0A3C5000E5CFDAFFE7CFD9FF12003D
:063C5A00D9CFE6FFE1CF27
:103C6000D9FF020EE126D38CD38AD3889B8CDE6ADF
:103C7000DD6ADECF14F0DDCF15F0D890155004E6E4
:103C8000F40E145C010E155805E2DF2A010EF1E373
:103C9000DB2AEFD7020EE15C02E2E16AE552E16E57
:083CA000E552E7CFD9FF120045
:083CA800056A046A036A026A5E
:103CB000200EE76ED89006360736083609360236EB
:103CC0000336043605360B50025C0C5003580D5079
:103CD00004580E50055809E30B50025E0C50035A6D
:103CE0000D50045A0E50055A062AE72EE4D712004A
:103CF000D9CFE6FFDACFE6FFE1CFD9FFE2CFDAFF97
:103D0000E652F20E0001C117ABAC03D0C191ABB0CB
:103D1000C181ABB4C185ABB2C187AE50DF6EDF509D
:0E3D2000E552E552E5CFDAFFE7CFD9FF1200FA
:023D2E00D9CFEB
:103D3000E6FFDACFE6FFE1CFD9FFE2CFDAFFFD0EF3
:103D4000DB50FB0BCA6ECC6A9E92FD0EDBAE02D03E
:103D50009D8201D09D92CA84E552E5CFDAFFE7CF7C
:043D6000D9FF120075
:0C3D6400D9CFE6FFDACFE6FFE1CFD9FFB0
:103D7000E2CFDAFF0C0EBD129494CA94FD0EDB5014
:103D8000CB6ECA84E552E5CFDAFFE7CFD9FF120048
:043D900094941200F5
:0C3D9400D9CFE6FFDACFE6FFE1CFD9FF80
:103DA000E2CFDAFFC30EC214146EFD0EDB407F0BB0
:103DB0003C0B1410C26EE552E5CFDAFFE7CFD9FF16
:023DC0001200EF
:0E3DC200DACFE4FFE652A19492689368946809
:103DD00095680001010EC26FA094D298E552E5CF1C
:0A3DE000DAFF11000001C2511200C9
:063DEA00F36AF46AFF0E0B
:103DF000E124E96EFF0EE220EA6EED6607D02F0E99
:0E3E0000EF6404D03A0EEF6001D0F32A1200F6
:023E0E001EEEA6
:103E100000F02EEE00F0F86A019CB2EC1BF064ECAE
:0A3E20001FF057EC1BF0FBD7120057
:063E2A00FF0EE350ACBAEC
:103E300004D0AF6AAB8EAC8A949CACA2FED7AD6EB8
:063E4000F36EF46A1200AB
:0A3E4600D0A209D0D0A406D0D0A06D
:0E3E500003D0D0B6000C010C000C000C000CCE
:023E5E00D0B2E0
:103E600009D0D0A406D0D0B003D0D0A6000C010C4D
:063E7000000C000C000C28
:0A3E7600C450176E166AC3501610F0
:083E8000F36E17C0F4FF1200FD
:083E8800303132333435363796
:093E900038396162636465660063
:013E99000028
:063E9A0000EE00F00F0E27
:083EA000EE6AEA62FDD7120090
:083EA800D0B003D0D0A2000C41
:043EB000010C000CF5
:0A3EB400C250020B01E0010E1200E3
:023EBE00D082B0
:043EC000D08012009C
:043EC400C2821200A4
:023EC8001200E6
:063ECA0000E0FCA8FD7001
:093ED000FE0000900158022003DD
:023ED900FEFFEA
:053EDB00000303E803F1
:103EE000E803E803E8030000000000000000D80039
:063EF0000000BC0200000E
:043EF60000000000C8
:053EFA00F63500000098
:020000040030CA
:0100010008F6
:0100020003FA
:0100030007F5
:0100050003F7
:010006008178
:00000001FF
