:020000040000FA
:0600000045EF1EF01200A6
:0A0006000500363D0000B4000000C4
:1000100005000000323D0000B900000004000000AF
:10002000173D0000800000001B000000153D00008F
:10003000BF00000002000000063D00009B00000021
:040040000F000000AD
:0C004400D9CFE6FFE1CFD9FF020EE12684
:10005000DF6A010EDB6A000196510CE0E66A07D008
:1000600095C0FBFF94C0FAFF00019351F96EF8DFD1
:10007000E5521BD09EAA06D0CAEC1DF0E76E010E19
:10008000E7CFDBFF010EDB500FE0010EDBCFE6FF19
:1000900007D095C0FBFF94C0FAFF00019351F96EA1
:1000A000F8DFE552DF6E01D0DF6ADF50146E020E1A
:1000B000E15C02E2E16AE552E16E1450E552E7CFFD
:1000C000D9FF1200D9CFE6FFE1CFD9FFE652DF6AB0
:1000D000FE0EDB503F0A20E0570A1EE0200A1CE01B
:1000E0003B0A10E0200A0EE03E0A02E0200A18E176
:1000F0000001400E936F010E946F000E956F56EC49
:1001000017F00CD00001460E936F020E946F000E94
:10011000956FDCEC17F002D0FDEC16F0DF6A0AD028
:100120000001C40E936F000E946F000E956FDF6A8E
:10013000FDEC16F0DF50E552E552E7CFD9FF120093
:10014000D9CFE6FFE1CFD9FFE652DF6AFE0EDB50E2
:10015000750A55E0200A53E03F0A3BE0200A39E0E7
:10016000280A2FE0200A2DE0300A15E0200A13E0CB
:100170003E0A02E0200A4EE10001280E936F040EB1
:10018000946F000E956F8EEC17F0740EE66E260ECF
:10019000E66E000E0ED00001680E936F070E946F8E
:1001A000000E956F8EEC17F0640EE66E260EE66E6E
:1001B000000EE66E07EC1BF0E552E552E552DF6AF1
:1001C0003CD0110EDF6E560EE66E260EE66E000E69
:1001D0002ED00001960E936F140E946F000E956F43
:1001E000380EE66E260EE66E000EE66E07EC1BF08D
:1001F000E552E552E5520001010E966F1ED0000156
:10020000C40E936F000E946F000E956FDF6AFDECC5
:1002100016F013D00001C40E936F000E946F000E01
:10022000956FDF6A2C0EE66E260EE66E000EE66E09
:1002300007EC1BF0E552E552E552DF50E552E5527E
:10024000E7CFD9FF1200D9CFE6FFE1CFD9FF020EE9
:10025000E126DF6AFE0EDB50750A01E1C2D0200AFA
:1002600001E1BFD0340A01E176D0200A74E0150A1A
:100270004FE0200A4DE0410A3DE0010A2EE0070A66
:100280001FE0010A10E0030A01E0B6D01B0EE66E83
:10029000260EE66E000EE66E07EC1BF0E552E55208
:1002A000E552130E33D00A0EE66E260EE66E000EF1
:1002B000E66E07EC1BF0E552E552E552140E26D02F
:1002C000F90EE66E250EE66E000EE66E07EC1BF0EC
:1002D000E552E552E552150E19D0E80EE66E250EF0
:1002E000E66E000EE66E07EC1BF0E552E552E552B5
:1002F000160E0CD0D70EE66E250EE66E000EE66EDC
:1003000007EC1BF0E552E552E552170EDF6E7FD089
:10031000BDC0E6FFBEC0E6FFAF0EE66E250EE66E80
:10032000000EE66E07EC1BF0146E050EE15E145035
:100330008D0EE66E250EE66E000EE66E07EC1BF0E7
:10034000E552E552E5520001DC0E936F0A0E946F00
:10035000000E956F5CD0600EE66E250EE66E000E08
:10036000E66E07EC1BF0E552E552E552010EDB6A42
:10037000DBCF14F0040EE76E1418E8AE02D0E734B9
:1003800002D0E750145C23E2010EDBCFE9FFEA6AFA
:10039000E9BEEA68D890E936EA36830EE926000E0F
:1003A000EA22E80EEE6E030EED6E010EDBCFE9FFE2
:1003B000EA6AE9BEEA68D890E936EA368B0EE926A1
:1003C000000EEA22EE6AED6A010EDB2AD1D70001A7
:1003D000100E936F0D0E946F000E956F010E966FB9
:1003E00016D00001C40E936F000E946F000E956F2F
:1003F000DF6AFDEC16F00BD0520EE66E250EE66EAF
:10040000000EE66E07EC1BF0E552E552E552DF50B8
:10041000146E020EE15C02E2E16AE552E16E1450F4
:10042000E552E7CFD9FF1200D9CFE6FFE1CFD9FFE0
:10043000E652DF6AFE0EDB50750A01E1A7D0200A02
:1004400001E1A4D06B0A01E195D0020A51E07F0AD4
:100450003EE0200A3CE0100A2AE0200A28E03E0A9A
:1004600016E0200A14E02B0A03E0200A01E098D0ED
:10047000390EE66E250EE66E000EE66E07EC1BF0FA
:10048000E552E552E5520001816B010E2FD01E0EA0
:10049000E66E250EE66E000EE66E07EC1BF0E552EA
:1004A000E552E5520001010E816F020E1FD0050ECC
:1004B000E66E250EE66E000EE66E07EC1BF0E552CA
:1004C000E552E5520001020E816F030E0FD0F10ECE
:1004D000E66E240EE66E000EE66E07EC1BF0E552AB
:1004E000E552E5520001030E816F040EDF6E66D007
:1004F000DD0EE66E240EE66E000EE66E07EC1BF0D7
:10050000E552E552E55200018151030A1EE0010A5D
:1005100014E0030A0AE0010A25E1090EDF6ED50E98
:10052000E66E240EE66E000E17D00A0EDF6ECB0EBE
:10053000E66E240EE66E000E0FD00B0EDF6EC30EBD
:10054000E66E240EE66E000E07D00C0EDF6EBA0EBD
:10055000E66E240EE66E000EE66E07EC1BF0E5522A
:10056000E552E5520001C80E936F050E946F000E20
:10057000956F24D0980EE66E240EE66E000EE66EA1
:1005800007EC1BF0E552E552E55218D00001400E91
:10059000936F010E946F000E956F56EC17F00ED00E
:1005A000DF6A8D0EE66E240EE66E000EE66E07EC38
:1005B0001BF0E552E552E5528EEC17F0DF50E552A4
:1005C000E552E7CFD9FF1200D9CFE6FFE1CFD9FF3F
:1005D000E652DF6AFE0EDB50750A01E1A7D0200A61
:1005E00001E1A4D0690A01E195D0020A51E07D0A37
:1005F0003EE0200A3CE0100A2AE0200A28E03E0AF9
:1006000016E0200A14E02B0A03E0200A01E098D04B
:100610006C0EE66E240EE66E000EE66E07EC1BF026
:10062000E552E552E5520001816B090E2FD0490ECB
:10063000E66E240EE66E000EE66E07EC1BF0E55249
:10064000E552E5520001010E816F0A0E1FD0280EFF
:10065000E66E240EE66E000EE66E07EC1BF0E55229
:10066000E552E5520001020E816F0B0E0FD00C0E09
:10067000E66E240EE66E000EE66E07EC1BF0E55209
:10068000E552E5520001030E816F0C0EDF6E66D05D
:10069000F80EE66E230EE66E000EE66E07EC1BF01B
:1006A000E552E552E55200018151030A1EE0010ABC
:1006B00014E0030A0AE0010A25E1010EDF6ED50EFF
:1006C000E66E240EE66E000E17D0020EDF6ECB0E25
:1006D000E66E240EE66E000E0FD0030EDF6EC30E24
:1006E000E66E240EE66E000E07D0040EDF6EBA0E24
:1006F000E66E240EE66E000EE66E07EC1BF0E55289
:10070000E552E5520001280E936F040E946F000E1F
:10071000956F24D0D60EE66E230EE66E000EE66EC2
:1007200007EC1BF0E552E552E55218D00001400EEF
:10073000936F010E946F000E956F56EC17F00ED06C
:10074000DF6A8D0EE66E240EE66E000EE66E07EC96
:100750001BF0E552E552E5528EEC17F0DF50E55202
:10076000E552E7CFD9FF1200D9CFE6FFE1CFD9FF9D
:10077000E652DF6AFE0EDB50750A01E1B5D0200AB1
:1007800001E1B2D06B0A01E1A3D0020A51E07F0A75
:100790003EE0200A3CE0100A2AE0200A28E03E0A57
:1007A00016E0200A14E02B0A03E0200A01E0A6D09C
:1007B000BA0EE66E230EE66E000EE66E07EC1BF038
:1007C000E552E552E5520001826B050E2FD09C0EDA
:1007D000E66E230EE66E000EE66E07EC1BF0E552A9
:1007E000E552E5520001010E826F060E1FD0800E09
:1007F000E66E230EE66E000EE66E07EC1BF0E55289
:10080000E552E5520001020E826F070E0FD06B0E0B
:10081000E66E230EE66E000EE66E07EC1BF0E55268
:10082000E552E5520001030E826F080EDF6E73D0B1
:10083000560EE66E230EE66E000EE66E07EC1BF01B
:10084000E552E552E55200018251030A1EE0010A19
:1008500014E0030A0AE0010A26E10D0EDF6ED50E50
:10086000E66E240EE66E000E17D00E0EDF6ECB0E77
:10087000E66E240EE66E000E0FD00F0EDF6EC30E76
:10088000E66E240EE66E000E07D0100EDF6EBA0E76
:10089000E66E240EE66E000EE66E07EC1BF0E552E7
:1008A000E552E5520DD0470EE66E230EE66E000EC1
:1008B000E66E07EC1BF0E552E552E5520D0EDF6ED9
:1008C0000001220E936F090E946F000E956F23D0D6
:1008D000240EE66E230EE66E000EE66E07EC1BF0AD
:1008E000E552E552E55217D00001400E936F010E1C
:1008F000946F000E956F56EC17F00DD0160EE66E45
:10090000230EE66E000EE66E07EC1BF0E552E55294
:10091000E5528EEC17F0DF50E552E552E7CFD9FFF4
:100920001200D9CFE6FFE1CFD9FFE652DF6AFE0E13
:10093000DB50750A01E1B5D0200A01E1B2D0690AA5
:1009400001E1A3D0020A51E07D0A3EE0200A3CE02A
:10095000100A2AE0200A28E03E0A16E0200A14E0E5
:100960002B0A03E0200A01E0A6D0FA0EE66E220E62
:10097000E66E000EE66E07EC1BF0E552E552E5521E
:100980000001826B0D0E2FD0DC0EE66E220EE66E9D
:10099000000EE66E07EC1BF0E552E552E552000151
:1009A000010E826F0E0E1FD0C00EE66E220EE66E96
:1009B000000EE66E07EC1BF0E552E552E552000131
:1009C000020E826F070E0FD06B0EE66E230EE66EE0
:1009D000000EE66E07EC1BF0E552E552E552000111
:1009E000030E826F100EDF6E73D0AB0EE66E220E1A
:1009F000E66E000EE66E07EC1BF0E552E552E5529E
:100A000000018251030A1EE0010A14E0030A0AE011
:100A1000010A26E1050EDF6ED50EE66E240EE66EA7
:100A2000000E17D0060EDF6ECB0EE66E240EE66EBD
:100A3000000E0FD0070EDF6EC30EE66E240EE66EBC
:100A4000000E07D0080EDF6EBA0EE66E240EE66EBC
:100A5000000EE66E07EC1BF0E552E552E5520DD0B4
:100A6000470EE66E230EE66E000EE66E07EC1BF0F8
:100A7000E552E552E552050EDF6E0001680E936FF8
:100A8000070E946F000E956F23D0880EE66E220E2F
:100A9000E66E000EE66E07EC1BF0E552E552E552FD
:100AA00017D00001400E936F010E946F000E956FEA
:100AB00056EC17F00DD0160EE66E230EE66E000E05
:100AC000E66E07EC1BF0E552E552E5528EEC17F0AE
:100AD000DF50E552E552E7CFD9FF1200D9CFE6FF4C
:100AE000E1CFD9FF300EF36EFE0EDBCFF4FFF350F3
:100AF000F45C22E3FE0EDB5039081EE3FE0EDBCF72
:100B0000E6FFE66A850EE66E220EE66E000EE66EE3
:100B100007EC1BF0146E050EE15E1450FE0EDB5068
:100B2000D00F0001BD6FBE6B0001760E936F0B0EF0
:100B3000946F000E956F1AD06C0EE66E220EE66E64
:100B4000000EE66E07EC1BF0E552E552E552CAECEA
:100B50001DF0CAEC1DF0480EE66E220EE66E000E89
:100B6000E66E07EC1BF0E552E552E552000EE55249
:100B7000E7CFD9FF1200D9CFE6FFE1CFD9FF0001BF
:100B8000000EBD5D040EBE5901E388D0300EF36E39
:100B9000FE0EDBCFF4FFF350F45C2CE3FE0EDB50D3
:100BA000390828E3FE0EDBCFE6FFE66A850EE66E27
:100BB000220EE66E000EE66E07EC1BF0146E050EBC
:100BC000E15E1450BDC014F0BEC015F00A0E15024F
:100BD000F3CF15F01402F4501526FE0EDB50000181
:100BE000F324BD6F000E1520BE6F300EBD5F000EEA
:100BF000BE5B89D0000ED880BD55000EBE551EE2EA
:100C0000BDC0E6FFBEC0E6FF250EE66E220EE66E14
:100C1000000EE66E07EC1BF0146E050EE15E14503C
:100C2000CAEC1DF0CAEC1DF00001460E936F020ED7
:100C3000946F000E956FDCEC17F065D0F60EE66E43
:100C4000210EE66E000EE66E07EC1BF0E552E55253
:100C5000E552CAEC1DF0CAEC1DF0BDC0E6FFBEC0F7
:100C6000E6FFAF0EE66E250EE66E000EE66E07ECB2
:100C70001BF0146E050EE15E14508D0EE66E250E0F
:100C8000E66E000EE66E07EC1BF0E552E552E5520B
:100C90000001FE0EBD6F010EBE6F2ED0C40EE66EBB
:100CA000210EE66E000EE66E07EC1BF0E552E552F3
:100CB000E552CAEC1DF0CAEC1DF00001FE0EBD6F3E
:100CC000010EBE6FBDC0E6FFE66EAF0EE66E250EEE
:100CD000E66E000EE66E07EC1BF0146E050EE15E8C
:100CE00014508D0EE66E250EE66E000EE66E07ECD5
:100CF0001BF0E552E552E5520001DC0E936F0A0E3F
:100D0000946F000E956F000EE552E7CFD9FF1200E9
:100D1000D9CFE6FFE1CFD9FF050EE66EEEEC19F074
:100D2000E552F3CF14F0F4CF15F000019851F41808
:100D3000E8AE02D0153404D01450975D1550985980
:100D400006E25A0E936F0D0E946F000E956F6CDBDA
:100D5000000EE552E7CFD9FF1200D9CFE6FFE1CF71
:100D6000D9FF070EE126DE6ADD6A020EDB6A030E9A
:100D7000DB6A050EE66EEEEC19F0E552020EF3CFDB
:100D8000DBFF030EF4CFDBFF040EE66EEEEC19F092
:100D9000E552F3CFDEFFF4CFDDFF020EDBCF14F020
:100DA000030EDBCF15F0DECF16F0DDCF17F01750B6
:100DB0001518E8AE02D0153404D01450165C155046
:100DC00017582FE2020EDBCF16F0030EDBCF17F021
:100DD000DE50165C146EDD501758156E040E14C0EC
:100DE000DBFF050E15C0DBFF040EDBCF14F0050E94
:100DF000DBCF15F0000115508A19E8AE02D08A3514
:100E000004D08951145C8A5115583BE2040EDBCFA3
:100E100089F0050EDBCF8AF0DECF91F0DDCF92F0C6
:100E200030D0DECF16F0DDCF17F0020EDB50165CAF
:100E3000146E030EDB501758156E040E14C0DBFF42
:100E4000050E15C0DBFF040EDBCF14F0050EDBCF63
:100E500015F0000115508A19E8AE02D08A3504D089
:100E60008951145C8A5115580CE2040EDBCF89F0CD
:100E7000050EDBCF8AF0020EDBCF91F0030EDBCF45
:100E800092F0040EE66EEEEC19F0E552F3CF14F09A
:100E9000F4CF15F000019851F418E8AE02D01534E3
:100EA00004D01450975D1550985906E2D40E936FF4
:100EB0000E0E946F000E956FB7DA000E146E070ECB
:100EC000E15C02E2E16AE552E16E1450E552E7CFDF
:100ED000D9FF1200D9CFE6FFE1CFD9FF070EE126F7
:100EE000DE6ADD6A020EDB6A030EDB6A040EE66E62
:100EF000EEEC19F0E552020EF3CFDBFF030EF4CF58
:100F0000DBFFE66EEEEC19F0E552F3CFDEFFF4CF37
:100F1000DDFF020EDBCF14F0030EDBCF15F0DECFCA
:100F200016F0DDCF17F017501518E8AE02D01534C3
:100F300004D01450165C155017582FE2020EDBCF68
:100F400016F0030EDBCF17F0DE50165C146EDD508A
:100F50001758156E040E14C0DBFF050E15C0DBFF1D
:100F6000040EDBCF14F0050EDBCF15F00001155099
:100F70008819E8AE02D0883504D08751145C8851B6
:100F800015583BE2040EDBCF87F0050EDBCF88F06F
:100F9000DECF8FF0DDCF90F030D0DECF16F0DDCF9A
:100FA00017F0020EDB50165C146E030EDB50175860
:100FB000156E040E14C0DBFF050E15C0DBFF040E1A
:100FC000DBCF14F0050EDBCF15F0000115508819AA
:100FD000E8AE02D0883504D08751145C885115588A
:100FE0000CE2040EDBCF87F0050EDBCF88F0020E9B
:100FF000DBCF8FF0030EDBCF90F0030EE66EEEEC4E
:1010000019F0E552F3CF14F0F4CF15F00001985128
:10101000F418E8AE02D0153404D01450975D155082
:10102000985906E24C0E936F100E946F000E956F58
:10103000FBD9000E146E070EE15C02E2E16AE55294
:10104000E16E1450E552E7CFD9FF1200D9CFE6FF89
:10105000E1CFD9FF070EE126DE6ADD6A020EDB6A08
:10106000030EDB6AE66EEEEC19F0E552020EF3CFEA
:10107000DBFF030EF4CFDBFF020EE66EEEEC19F0A1
:10108000E552F3CFDEFFF4CFDDFF020EDBCF14F02D
:10109000030EDBCF15F0DECF16F0DDCF17F01750C3
:1010A0001518E8AE02D0153404D01450165C155053
:1010B00017582FE2020EDBCF16F0030EDBCF17F02E
:1010C000DE50165C146EDD501758156E040E14C0F9
:1010D000DBFF050E15C0DBFF040EDBCF14F0050EA1
:1010E000DBCF15F0000115508619E8AE02D0863529
:1010F00004D08551145C865115583BE2040EDBCFB9
:1011000085F0050EDBCF86F0DECF8DF0DDCF8EF0E3
:1011100030D0DECF16F0DDCF17F0020EDB50165CBC
:10112000146E030EDB501758156E040E14C0DBFF4F
:10113000050E15C0DBFF040EDBCF14F0050EDBCF70
:1011400015F0000115508619E8AE02D0863504D09E
:101150008551145C865115580CE2040EDBCF85F0E6
:10116000050EDBCF86F0020EDBCF8DF0030EDBCF5A
:101170008EF0020EE66EEEEC19F0E552F3CF14F0AD
:10118000F4CF15F000019851F418E8AE02D01534F0
:1011900004D01450975D1550985906E2C40E936F11
:1011A000110E946F000E956F3FD9000E146E070E4E
:1011B000E15C02E2E16AE552E16E1450E552E7CFEC
:1011C000D9FF1200D9CFE6FFE1CFD9FF080EE12603
:1011D000DE6ADD6A020EDB6A030EDB6A020EE66E71
:1011E000EEEC19F0E552020EF3CFDBFF030EF4CF65
:1011F000DBFF010EE66EEEEC19F0E552F3CFDEFFF9
:10120000F4CFDDFF020EDBCF14F0030EDBCF15F0C1
:10121000DECF16F0DDCF17F017501518E8AE02D06C
:10122000153404D01450165C155017582FE2020ED6
:10123000DBCF16F0030EDBCF17F0DE50165C146E1A
:10124000DD501758156E040E14C0DBFF050E15C0D7
:10125000DBFF040EDBCF14F0050EDBCF15F0000131
:1012600015508419E8AE02D0843504D08351145C43
:10127000845115583BE2040EDBCF83F0050EDBCF23
:1012800084F0DECF8BF0DDCF8CF030D0DECF16F0E7
:10129000DDCF17F0020EDB50165C146E030EDB5030
:1012A0001758156E040E14C0DBFF050E15C0DBFFCA
:1012B000040EDBCF14F0050EDBCF15F00001155046
:1012C0008419E8AE02D0843504D08351145C845173
:1012D00015580CE2040EDBCF83F0050EDBCF84F053
:1012E000020EDBCF8BF0030EDBCF8CF0010EE66E2F
:1012F000EEEC19F0E552F3CF14F0F4CF15F0000145
:101300009851F418E8AE02D0153404D01450975D0B
:101310001550985901E37AD0010EF36E060EF3CF03
:10132000DBFFDBCF14F0040EE76E1418E8AE02D03A
:10133000E73402D0E750145C30E2060EDBCFE9FF61
:10134000EA6AE9BEEA68D890E936EA368B0EE92601
:10135000000EEA22EECF14F0EFCF15F015508C19E5
:10136000E8AE02D08C3504D08B51145C8C511558EA
:1013700011E2060EDBCFE9FFEA6AE9BEEA68D8901F
:10138000E936EA368B0EE926000EEA22EECF8BF024
:10139000EDCF8CF0060EDB2AC4D7BDC0E6FFBEC081
:1013A000E6FFAF0EE66E250EE66E000EE66E07EC6B
:1013B0001BF0146E050EE15E14508BC0BDF08CC0A6
:1013C000BEF00001140EBD5F000EBE5BBDC0E6FFA7
:1013D000BEC0E6FF250EE66E220EE66E000EE66E3D
:1013E00007EC1BF0146E050EE15E1450CAEC1DF004
:1013F000CAEC1DF00001460E936F020E946F000EB2
:10140000956FDCEC17F00001966B01D00DD8000E43
:10141000146E080EE15C02E2E16AE552E16E1450DE
:10142000E552E7CFD9FF1200D9CFE6FFE1CFD9FFD0
:10143000E6529EAA2BD0CAEC1DF0DF6ECAEC1DF05E
:10144000CAEC1DF0DFCF14F0156A14BE156814C085
:10145000E6FF15C0E6FFBF0EE66E210EE66E000E3B
:10146000E66E07EC1BF0166E050EE15E1650930E4D
:10147000E66E210EE66E000EE66E07EC1BF0E552FE
:10148000E552E552DCEC17F00001966BE552E552AF
:10149000E7CFD9FF1200D9CFE6FFE1CFD9FFE6525F
:1014A0002FEC1AF0DF6EDF50010A03E0010A2BE097
:1014B00015D00001992B000E9A2399C0E6FF9AC01F
:1014C000E6FF730EE66E210EE66E000EE66E07EC8A
:1014D0001BF0146E050EE15E145015D00001966BE2
:1014E000400E936F010E946F000E956F5D0EE66EC9
:1014F000210EE66E000EE66E07EC1BF0E552E5529B
:10150000E55256EC17F0000EE552E552E7CFD9FF51
:021510001200C7
:0E151200C5EC0FF0FB0EDBCFF3FFDB06F35052
:1015200000090AE013EC10F0FA0E7EEC10F0F3E183
:10153000151CF1E1010E01D0000EF4EF0FF0C5EC27
:101540000FF03B0EE12402E3E168E652E16E010E8A
:10155000DB6A020EDB6AF90EDBCFF6FFFA0EDBCF99
:10156000F7FFFB0EDBCFF8FF0800F550DF6EDF5012
:1015700002E118EF0FF0250EDF5C02E00BEF0FF039
:10158000030EDB6A040EDB6A050EDB6A060EDB6AFD
:10159000070EDB6A2DEC0FF02D0EDF5C0CE02B0E3E
:1015A000DF5C09E0200EDF5C06E0230EDF5C03E079
:1015B000300EDF5C1AE1DF50300A14E0130A0FE04E
:1015C000030A0AE00B0A05E0060AE4E1030EDB80E9
:1015D000E1D7030EDB82DED7030EDB84DBD7030EFD
:1015E000DB86D8D7030EDB88D5D72A0EDF5C1BE15C
:1015F00029EC0FF077EC0FF010E0030EDB800868A9
:101600000968130EDBCF0DF0140EDBCF0EF026ECC5
:101610001DF0040E06C0DBFF03D0130E60EC0FF0CC
:101620002DEC0FF00BD0090EDB6ACEEC0FF003E0CF
:1016300042EC10F0FAD7090E60EC0FF0030EDBB0AD
:10164000DB982E0EDF5C1BE12DEC0FF02A0EDF5C29
:101650000BE129EC0FF077EC0FF003E1130EB2EC85
:101660000FF02DEC0FF00BD0090EDB6ACEEC0FF073
:1016700003E042EC10F0FAD7090EB2EC0FF0680E5E
:10168000DF5C07E12DEC0FF0680EDF5C1DE1030E5F
:1016900018D0740EDF5C17E07A0EDF5C14E0480EA1
:1016A000DF5C06E0540EDF5C03E05A0EDF5C02E113
:1016B000020E07D06C0EDF5C03E06A0EDF5C04E113
:1016C000010E05EC10F0C9DBDF506E0A01E17FD39B
:1016D0001E0A01E192D1200A01E18FD13F0A01E106
:1016E00049D11A0A01E146D10D0A01E143D1200A8C
:1016F00001E140D13A0A01E13DD1200A01E13AD1AC
:10170000260A01E135D10D0A01E132D11A0A01E1BF
:10171000D9D0200A4AE0300A1FE0460A0EE0250A26
:1017200001E083D3D950F90FE96EFF0EDA20EA6E9B
:10173000010EEE5E000EEE5AEE5A13EC10F0250E7E
:10174000E66E95DB03E1151C01E169D30FEC10F0A7
:1017500001E26BD3DB2A69D3080EDB6A040EDB508F
:10176000010806E2040EDB04D7EC0FF0DB508BDB44
:10177000080EDB5009E0030EDB50010B05E172DBC4
:1017800001E04DD3080EDB6A64DBEFCFDFFF87ECAF
:1017900010F003E1151C01E142D30FEC10F001E35E
:1017A000DB2A60DB01E141D33AD3070EDB500208AC
:1017B0000FE153EC10F0030E1AEC10F00E0EEECF0A
:1017C000DBFF0F0EEECFDBFF100EEECFDBFF20D0E6
:1017D000F70EDBCF17F0F80EDBCF18F0020E175E16
:1017E000000E185AF70E17C0DBFFF80E18C0DBFF0B
:1017F00017C0E9FF18C0EAFF0AEC10F0166A0E0ED7
:1018000014C0DBFF0F0E15C0DBFF100E16C0DBFF90
:101810000E0EDBCFE6FF0F0EDBCFE6FF100EDBCFA9
:10182000E6FFA3EC1CF0E552E552E552130E07C0AB
:10183000DBFF140E08C0DBFF060EDB5005E0130EC5
:101840004EEC10F001E26ADB72EC10F002E2130ED3
:1018500037DB35EC10F006E0040E4EEC10F002E23F
:10186000050E2EDB030EDBB005D0FCDA01E0D7D28B
:10187000080EDB6A090EDB6A0E0EDBCFF6FF0F0ED9
:10188000DBCFF7FF100EDBCFF8FF0800F550DF6E5F
:10189000DF5014E078EC10F011E287EC10F003E177
:1018A000151C01E1BCD2BBDB01E3DB2A090EDB2AFC
:1018B000D9500E0FE96E000ECBDBE7D7D3DA01E18A
:1018C000B4D2ADD2C6DA110EEECFDBFF120EEDCFE1
:1018D000DBFF110EDBCFE6FF120EDBCFE6FF95EC50
:1018E0001CF0E552E552130EF3CFDBFF140EF4CFDC
:1018F000DBFF060EDB5004E0130ED0DB01E20EDB53
:1019000072EC10F002E2130EDBDAAFDB05E0040E3E
:10191000C5DB02E2050ED4DA030EDBB005D0A2DA95
:1019200001E07DD2080EDB6A090EDB6A110EDBCF07
:10193000E9FF120EDBCFEAFFEFCFDFFFDF5014E04D
:10194000D7DB12E2E4DB03E1151C01E168D267DBBF
:1019500001E3DB2A090EDB2A110EDB2ADBCFE9FFCC
:10196000120EE8E3DB2AE6D77DDA01E15ED257D238
:10197000030EDB8E070EDB0410E195DB040E5ADB51
:101980000A0EEECFDBFF0B0EEECFDBFF0C0EEECF21
:10199000DBFF0D0EEECFDBFF6CD0070EDB50030834
:1019A0002CE1030EDBAE0DD0B2DA020E76DAEFCF09
:1019B00014F0156A166A176A14AE39D015681668DD
:1019C00035D0F70EDBCF15F0F80EDBCF16F0020E98
:1019D000155E000E165AF70E15C0DBFFF80E16C086
:1019E000DBFF15C0E9FF16C0EAFFEFCF14F00A0EC7
:1019F00014C0DBFF0B0EDB6A38D0070EDB50020889
:101A000009E1030EDBAE04D059DB16AE10D00ED0C8
:101A100055DB0DD0030EDBAE12D079DA020E3DDAC3
:101A2000F9DA166A176A15AE02D016681768E2DA94
:101A30000C0E16C0DBFF0D0E17C0DBFF1AD0F70E21
:101A4000DBCF16F0F80EDBCF17F0020E165E000E9D
:101A5000175AF70E16C0DBFFF80E17C0DBFF16C0D3
:101A6000E9FF17C0EAFFD6DAC5DA0C0EDB6A0D0E05
:101A7000DB6A060EDB5005E1010EF36E050EF3CFB7
:101A8000DBFF150EDB6A160EDB6AD950370F146EBA
:101A9000000EDA20156E390E14C0DBFF3A0E15C0A9
:101AA000DBFF380EDB6A080EDB6A0A0EAEDADF50A7
:101AB000780A12E0200A10E0280A0CE0200A0AE066
:101AC0003F0A06E00D0A02E0200A08E1020E05D0F6
:101AD000080E03D0080EDF26100E97DA030EDBBEC9
:101AE00002D0DB92DB94DB50800B24E08ADAD890C2
:101AF000030EEB50000A08E6000EEE5C000EEE58F6
:101B0000000EEE58000EEE5815E213DA0B680C6862
:101B10000D680E6826EC1CF00A0E02C0DBFF0B0EEF
:101B200003C0DBFF0C0E04C0DBFF0D0E05C0DBFFA6
:101B30002D0E08D0030EDBA202D02B0E03D0DBA4A7
:101B400008D0200EF36E170EF3CFDBFF150EDB2A45
:101B500002D0170EDB6A050EDB5003E1B7D901E1B5
:101B600089D0D40E146E3C0E156E000E166E070E44
:101B7000DBCF17F0186A196A1A6A17C00BF018C081
:101B80000CF019C00DF01AC00EF0D3D9A6EC1DF060
:101B900014500224F36E15500320F46E16500420E6
:101BA000F86EF4CFF7FFF3CFF6FF0800090EF5CF7C
:101BB000DBFF580EDF5C0FE1610EF36E090E7BD97F
:101BC0000AE3200E146E090EDBCFE7FF1450E75E28
:101BD000090EE7CFDBFF070EDBCF14F0156A166A9C
:101BE000176A0FDA14C00BF015C00CF016C00DF018
:101BF00017C00EF0EECF06F0EECF07F0EECF08F0F4
:101C0000EFCF09F0A6EC1DF009C0EDFF08C0EDFF15
:101C100007C0EDFF06C0EFFF390EDBCFE9FFDB06A3
:101C20003A0EDBCFEAFF01E2DB06090EDBCFEFFF66
:101C3000150EDB2A4BD995E1030EDBA61DD06F0EE6
:101C4000DF5C06E1C1D918E3150EDB285BDA14D09E
:101C5000780EDF5C09E0580EDF5C06E0620EDF5CA8
:101C600003E0420EDF5C08E1020EF36E160EF3CFC6
:101C7000DBFF02D0150EDB6A030EDB50100B0EE00B
:101C8000040EDBCF14F0050EDB50D880145406E2AE
:101C9000060EDB5003E1040EDB5034DA95D90AE27C
:101CA000050EDBCFE7FF150EDB50E75E050EE7CF35
:101CB000DBFF02D0050EDB6A040EDBCF14F0160E3C
:101CC00045D9D880145414E2160EDBCFE6FF150E6A
:101CD000DBCFE6FF040EDBCFE6FF050EDB50E5525F
:101CE000E75CE552D880E754E552D880E7545FD9E5
:101CF000030EDB50010B0BE1080EDB5008E0B2D8FD
:101D000001E08DD0080EDB50BED8080EDB6A170E3E
:101D1000DB5007E088D9170EF1D903E1151C01E16A
:101D20007ED0160EDB5016E07ED9300EE66E9FD8C0
:101D300002E1151C74E077D9DFCFE6FFE4EC1BF07D
:101D4000E552E552E552F4CF15F00001F31C02E133
:101D5000151C65E0050EDBCF14F0160EDB50D880A5
:101D6000145409E2050EDBCFE7FF160EDB50E75EE9
:101D7000050EE7CFDBFF300EE66E050ECBD94FE147
:101D8000390EDB2ADBCFE9FF3A0E01E3DB2ADBCF9A
:101D9000EAFF090EEFCFDBFFDB500EE044D9090E5E
:101DA000ADD902E1151C3BE0390EDB2ADBCFE9FFA0
:101DB0003A0EEDE3DB2AEBD755D831E1160EDBCF37
:101DC000E6FF080EC3D8E552E7245DD82ED0070EF3
:101DD000DB50030A1CE0010A14E0030A07E07BD988
:101DE000DBCFEEFF020EDBCFEDFF1FD0F5D8196A77
:101DF00017AE02D0186819682CD8BCD819C0EEFFED
:101E000014D0EAD817BE186824D8B4D80ED063D935
:101E1000DBCFEFFF0AD07BD905E1151C03E1F368A6
:101E2000F46810D0FCD801E3DB2A79D9B4EF0AF0CA
:101E3000010EDBCF14F0020EDBCF15F014C0F3FF60
:101E400015C0F4FF3B0EE15C02E2E16AE552E16E8F
:101E5000CBD029D9020E1AEF10F061D90800F55045
:101E6000DF6E1200200EE66E080E8AEF10F0E4EC32
:101E70001BF0E552E552E552F3CF14F0F4CF15F024
:101E80000001F31C1200146E156AD950010F4DD9D0
:101E90001450EE261550ED221200185E000E195A4D
:101EA000F70E18C0DBFFF80E19C0DBFF18C0E9FF02
:101EB00019C0EAFF1200DBCFF4FFF350F45C12000C
:101EC000DB50E76E040EE7CFDBFF12000A0EDBCF1C
:101ED00014F00B0EDBCF15F00C0EDBCF16F00D0E51
:101EE000DBCF17F014501510161017101200130E38
:101EF000EECFDBFF140EEDCFDBFF130EDBCF14F0C4
:101F0000140EDBCF15F00001800E15141200F70E31
:101F1000DBCF18F0F80EDBCF19F01200050EDB5006
:101F2000E66ED950130F01D9E552E750EE6EED6A17
:101F300012000A0EDBCF06F00B0EDBCF07F00C0E03
:101F4000DBCF08F00D0EDBCF09F01200DBCFE6FF90
:101F5000150EDBCFE6FF050EDB50E552E724E55218
:101F6000E7241200DB50CED8010EF36E060EF3CF3D
:101F7000DBFF1200EE50EFCFEAFFE96E16C0EEFF76
:101F800017C0EEFF18C0EEFF1200D9CFE6FFDACF80
:101F9000E6FFE1CFD9FFE2CFDAFF1200DFCFE6FFA5
:101FA000E66A33EC1EF0E552E552F3501200E76E9C
:101FB000080EE7CFDBFF1200EECF14F0EECF15F0E6
:101FC000EFCF16F0176A1200050EDBCF14F0150ED6
:101FD000DB50D88014541200010EDBCF16F0020E35
:101FE000DBCF17F0186A1200E552E5CFDAFFE7CF32
:101FF000D9FF12000A0E14C0DBFF0B0E15C0DBFF69
:102000001200D9500A0F95EF10F0F36E070EF3CFC0
:10201000DBFF1200EECF14F0EFCF15F01200010E2F
:10202000DB2A020E1200FC0EDBCFE6FFFD0EDBCF3B
:10203000E6FF1200145E000E155AF70E14C0DBFF07
:10204000F80E15C0DBFF14C0E9FF15C0EAFF12004F
:10205000DA20EA6EEF2AEECFF6FF000EEF22EECF87
:10206000F7FFEF22EECFF8FF1200040EDBCFE6FF02
:10207000130EDB50E552E75C9ADFDB5004DF060EFF
:10208000DB501200090EDB500A0DF350DF24D00F95
:10209000E76E090EE7CFDBFF2DEF0FF0DB50F36E9D
:1020A000050E5BEF0FF0F70EDBCF14F0F80EDBCF71
:1020B00015F01200DFCFE6FF37EF0FF028DF030E39
:1020C000ECDEDCEF0FF089EC0AF0E552E552E55268
:1020D000E55200091200BDDEEE50EFCFEAFFE96ED7
:1020E000010E1200130EDB50F36E040E5BEF0FF0C7
:1020F000040EDB50F36E090E5BEF0FF0DBCFE6FF53
:1021000037EF0FF0E76E050EE7CFDBFF12008BDF36
:102110005AEF10F0DBCFE6FF86DF63EF10F0D95007
:10212000F90FE96EFF0E28EF10F0E96E000EDA20CD
:04213000EA6E120041
:0C2134000D6320636F6D6D616E64206EA2
:102140006F742076616C6964202D2D206275672084
:102150006D61696E2E63200D6300070C00092E2E41
:102160002E6275673A2066726F6D206A6F67282944
:102170000D0A00092E2E2E4A6F6720736571756552
:102180006E636520636F6D706C657465642025698E
:102190000A0D000D0A206162626F7274656420612D
:1021A00075746F6D61746963207468657365686FB9
:1021B0006C6420646574656374696F6E0D0A002534
:1021C000630D0A000D0A0A092A2A20656E747279C5
:1021D000206572726F72202A2A2074687265736893
:1021E0006F6C64206D757374206265203C20313003
:1021F00032340D0A0A000D0A0A092A2A20656E7473
:102200007279206572726F72202A2A207468726552
:1022100073686F6C64206D757374206265203E2056
:10222000300D0A0A000D0A546865206E6577207427
:1022300068726573686F6C642076616C756520697F
:10224000732025750D0A3E000A0D656E74657220B7
:102250007468726573686F6C642076616C75652054
:102260003120746F2031303233203E000D0A0A09CC
:102270002A2A20656E747279206572726F72202A24
:102280002A0D0A0A002563005269676874206D6F81
:10229000746F722072657665727365202D2D206EC5
:1022A0006F206368616E67650D0A00726967687404
:1022B000206D6F746F7220666F7277617264200098
:1022C0007269676874206D6F746F722072657665CD
:1022D00072736520736C6F770D0A3E0052696768F0
:1022E00074206D6F746F72207265766572736520ED
:1022F0006D656469756D0D0A3E00526967687420EA
:102300006D6F746F72207265766572736520666199
:1023100073740D0A3E0020776861743F202D2D20D4
:102320000D0A0A005269676874206D6F746F72201D
:10233000666F7277617264202D2D206E6F20636846
:10234000616E67650D0A00524D73706565642062A9
:1023500075670D0A3E007269676874206D6F746F4F
:1023600072207265766572736520005269676874C1
:10237000206D6F746F7220636F6173740D0A3E007D
:102380007269676874206D6F746F7220666F727700
:1023900061726420736C6F770D0A3E005269676842
:1023A00074206D6F746F7220666F72776172642033
:1023B0006D656469756D0D0A3E0052696768742029
:1023C0006D6F746F7220666F7277617264206661E0
:1023D00073740D0A3E004C656674206D6F746F72E5
:1023E0002072657665727365202D2D206E6F2063D7
:1023F00068616E67650D0A006C656674206D6F74A8
:102400006F7220666F727761726420006C6566740B
:10241000206D6F746F7220636F61737420726576C4
:10242000657273650D0A3E006C656674206D6F748D
:102430006F7220736C6F77207370656564207265AE
:1024400076657273650D0A3E006C656674206D6F6B
:10245000746F72206D656469756D20737065656455
:1024600020726576657273650D0A3E006C65667450
:10247000206D6F746F722066617374207370656570
:102480006420726576657273650D0A3E0020776878
:1024900061743F200D0A0A004C656674206D6F74EC
:1024A0006F7220666F7277617264202D2D206E6FBF
:1024B000206368616E67650D0A00636F6173740D58
:1024C0000A3E00736C6F770D0A3E006D6564697596
:1024D0006D0D0A3E00666173740D0A3E006C656600
:1024E00074206D6F746F72207265766572736520EB
:1024F000006C656674206D6F746F7220636F61731A
:10250000740D0A3E006C656674206D6F746F7220E6
:10251000736C6F772073706565640D0A3E006C659F
:102520006674206D6F746F72206D656469756D20BF
:1025300073706565640D0A3E006C656674206D6F8E
:10254000746F7220666173742073706565640D0A20
:102550003E00776861743F202D2D200D0A0A3E0051
:102560006175746F6D6174696320746872657368F6
:102570006F6C64207761746368696E6720666F7240
:1025800020696E7075742E2E2E2E0D0A00656E74E5
:102590006572207468726573686F6C642076616C14
:1025A0007565203120746F2031303233203E007544
:1025B0007064617465207468726573686F6C640D13
:1025C0000A206F6C642076616C75652077617320DA
:1025D0003D2025750D0A00726561642073656E7378
:1025E0006F7220350D0A3E00726561642073656E5E
:1025F000736F7220340D0A3E00726561642073654A
:102600006E736F7220330D0A3E0072656164207331
:10261000656E736F7220320D0A3E00726561642030
:1026200073656E736F7220310D0A3E00207768610A
:10263000743F200D0A0A3E0072756E6E696E672047
:102640006A6F672073657175656E63653A2077619F
:1026500069743B0D0A006272616B6520616C6C0DE0
:102660000A093E00095269676874204D6F746F72E1
:102670000A0D3E00094C656674204D6F746F720A36
:102680000D3E0009202020202020736C6964652005
:10269000726F626F742070657270656E64696375C5
:1026A0006C617220746F206C696E65210D0A0009DF
:1026B00041203D3E204175746F6D617469632074E3
:1026C00068726573686F6C64207365742D75700D26
:1026D0000A000954203D3E2073657420746865200B
:1026E0007468726573686F6C642076616C75650DD3
:1026F0000A000935203D3E20726561642073656ED5
:10270000736F72203520286C656674290D0A0009E4
:1027100034203D3E20726561642073656E736F7274
:10272000203420286C656674290D0A000933203D89
:102730003E20726561642073656E736F7220332072
:10274000286C656674290D0A000932203D3E20720E
:102750006561642073656E736F72203220286C652A
:102760006674290D0A000D0A0931203D3E2072656C
:1027700061642073656E736F72203120286C65660A
:1027800074290D0A000955203D3E207570206F6E9A
:1027900065206D656E750A0D0A3E000943203D3EB9
:1027A00020636F6173740A0D00093E203D3E206670
:1027B0006F7277617264202861742073616D652087
:1027C0007370656564290D0A00093C203D3E207246
:1027D000657665727365202861742073616D65206C
:1027E0007370656564290D0A000953203D3E20730E
:1027F0006C6F772073706565640A0D00094D203D8C
:102800003E206D656469756D2073706565640A0DA1
:10281000000D0A0946203D3E2066617374207370E6
:102820006565640A0D000955203D3E2075702074D1
:102830006F20746F70206D656E750A0D0A3E000979
:102840004A203D3E204A6F672053657175656E636F
:10285000652028636865636B20666F722072656C03
:102860006961626C6520636F646520657865637576
:1028700074696F6E290A0D000942203D3E20627284
:10288000616B6520616C6C0A0D000952203D3E2091
:102890007269676874206D6F746F720A0D000D0A9B
:1028A000094C203D3E206C656674206D6F746F721C
:1028B0000A0D0009203F206F722068203D3E2068ED
:1028C000656C70207072696E742074686973206D15
:1028D000656E750A0D0A00092053203D3E20736580
:1028E0006E736F720A0D0009206D203D3E206D6FE2
:1028F000746F720A0D000A09546F70204C6576657A
:102900006C204D656E750A0D0A00202020766572D8
:1029100073696F6E20322E30303020417072696CD6
:102920002032382C20323031300A0D002020207027
:10293000726F6772616D2062792044616E2050650C
:102940006972636520422E53632E0A0D00202020F9
:1029500020202020202020202020415053433132AD
:1029600039390A0D000A0D2020204B77616E746CF6
:10297000656E20506F6C79746563686E696320556D
:102980006E69766572736974790A0D000D0A717546
:1029900069742073656E736F722072656164696E0D
:1029A00067202D2D206275670D0A3E002072617729
:1029B0002072656164696E672025750D0A3E000D01
:1029C0000A696E76616C69642073656E736F72203C
:1029D000706F736974696F6E202D2D206275670D9D
:1029E0000A3E002073656E736F722035202872696D
:1029F0006768742C20524C535F526967687443486F
:102A000034292C002073656E736F72203420286384
:102A1000656E7465722072696768742C20524C531D
:102A20005F436E745269676874434833292C0020F1
:102A300073656E736F722033202863656E746572E0
:102A40002C20524C535F43656E74657243483229A3
:102A50002C002073656E736F722032202863656EC0
:102A6000746572206C6566742C20436E744C6566C8
:102A700074434831292C002073656E736F722031C6
:102A800020286C6566742C20524C535F4C6566742C
:102A9000434830292C006379636C65206F7665723A
:102AA000666C6F77202D2D206A6F675F7365717577
:102AB000656E63650D0A00756E6B6E6F776E2063D1
:102AC0006F6D6D616E64202D2D2062756720696EBB
:0B2AD0002070726F6772616D0D0A00CC
:042ADC007FEC1DF07E
:102AE00041D8CF0EE66EE66A3C0EE66E9FEC1BF018
:102AF000E552E552E55239D83FD841D843D845D8B8
:102B0000836A0A0EE66E0C0EE66EA70EE66E5EECAB
:102B10001CF0E552E552E552829A849082908492AC
:102B2000060EE66EE9EC1DF0E552C70EE66E04EC0B
:102B30001EF0E552C70EE66E53EC1DF0E552000E96
:102B4000E66EE66AF7EC1CF0E552E552000EE66E22
:102B5000E66AC8EC1CF0E552E5520001BD6B020EBE
:102B6000BE6F1200949C948E120094909492949450
:102B700094969498949A1200EF0E926E1200C00EE2
:102B8000936E1200600E956E1200966A1200D9CFF5
:102B9000E6FFE1CFD9FF030EE126010EF36E020E30
:102BA000F3CFDBFFFB0EDBCF16F0FC0EDBCF17F015
:102BB000FD0EDBCFE9FFEA6AE9BEEA68D890E936A4
:102BC000EA369C0EE926000EEA221650EE24146E18
:102BD0001750EE2014C0DEFFDD6EDECF14F0DDCF27
:102BE00015F00001800E15140EE0020EDB6A086875
:102BF0000968DECF0DF0DDCF0EF026EC1DF006C02B
:102C0000DEFF07C0DDFFDECF14F0DDCF15F0153499
:102C100009E214502008030E155404E2200EDE6E63
:102C2000030EDD6EFE0EDB5015E1DECFE6FFDDCFDD
:102C3000E6FFC8EC1CF0E552E552020EDB5002E163
:102C4000829001D082808250010B02E0849216D0E3
:102C5000848214D0DECFE6FFDDCFE6FFF7EC1CF078
:102C6000E552E552020EDB5002E1829A01D0828ADF
:102C70008250200B02E0849001D08480030EE15C3E
:102C800002E2E16AE552E16EE552E7CFD9FF1200B8
:102C9000200EE66E030EE66EF7EC1CF0E552E552F0
:102CA000200EE66E030EE66EC8EC1CF0E552E5520F
:102CB000849282908490829A1200D9CFE6FFE1CF6D
:102CC000D9FFFE0EDBCFE6FF1CEC1EF0E5527FECD9
:102CD0001EF07AEC1EF00009FCE161EC1EF0E552FA
:102CE000E7CFD9FF1200870EE66EE7DFE552F3CF9C
:102CF00014F0F4CF15F00001F350BD5DF450BE594F
:102D000002E3000E01D0010E00019B91E8B09B810F
:102D10008F0EE66ED2DFE552F3CF14F0F4CF15F04C
:102D20000001F350BD5DF450BE5902E3000E01D026
:102D3000010E00019B93E8B09B83970EE66EBDDF0A
:102D4000E552F3CF14F0F4CF15F00001F350BD5D60
:102D5000F450BE5902E3000E01D0010E00019B9514
:102D6000E8B09B859F0EE66EA8DFE552F3CF14F026
:102D7000F4CF15F00001F350BD5DF450BE5902E3ED
:102D8000000E01D0010E00019B97E8B09B87A70EB3
:102D9000E66E93DFE552F3CF14F0F4CF15F00001A7
:102DA000F350BD5DF450BE5902E3000E01D0010E98
:102DB00000019B99E8B09B89120000019B51010B17
:102DC00002E0839001D083809B51020B02E083924A
:102DD00001D083829B51040B02E0839401D0838451
:102DE0009B51080B02E0839601D083869B51100B08
:0A2DF00002E08398120083881200AD
:062DFA00650EE66E290ED5
:102E0000E66E000EE66E07EC1BF0E552E552E55269
:102E10004D0EE66E290EE66E000EE66E07EC1BF018
:102E2000E552E552E5522C0EE66E290EE66E000ED6
:102E3000E66E07EC1BF0E552E552E5520A0EE66E2F
:102E4000290EE66E000EE66E07EC1BF0E552E55229
:102E5000E552F60EE66E280EE66E000EE66E07EC04
:102E60001BF0E552E552E552E70EE66E280EE66EDF
:102E7000000EE66E07EC1BF0E552E552E552D70E68
:102E8000E66E280EE66E000EE66E07EC1BF0E552CD
:102E9000E552E552B30EE66E280EE66E000EE66EC3
:102EA00007EC1BF0E552E552E55212009E0EE66E6D
:102EB000280EE66E000EE66E07EC1BF0E552E552BA
:102EC000E5528A0EE66E280EE66E000EE66E07EC00
:102ED0001BF0E552E552E552780EE66E280EE66EDE
:102EE000000EE66E07EC1BF0E552E552E5523F0E90
:102EF000E66E280EE66E000EE66E07EC1BF0E5525D
:102F0000E552E552260EE66E280EE66E000EE66EDF
:102F100007EC1BF0E552E552E5521200110EE66E89
:102F2000280EE66E000EE66E07EC1BF0E552E55249
:102F3000E552FC0EE66E270EE66E000EE66E07EC1E
:102F40001BF0E552E552E552E90EE66E270EE66EFD
:102F5000000EE66E07EC1BF0E552E552E552C90E95
:102F6000E66E270EE66E000EE66E07EC1BF0E552ED
:102F7000E552E552A90EE66E270EE66E000EE66EED
:102F800007EC1BF0E552E552E5529B0EE66E270E6C
:102F9000E66E000EE66E07EC1BF0E552E552E552D8
:102FA000850EE66E270EE66E000EE66E07EC1BF051
:102FB000E552E552E5521200660EE66E270EE66E09
:102FC000000EE66E07EC1BF0E552E552E552490EA5
:102FD000E66E270EE66E000EE66E07EC1BF0E5527D
:102FE000E552E5522C0EE66E270EE66E000EE66EFA
:102FF00007EC1BF0E552E552E5520F0EE66E270E88
:10300000E66E000EE66E07EC1BF0E552E552E55267
:10301000F20EE66E260EE66E000EE66E07EC1BF074
:10302000E552E552E552D20EE66E260EE66E000E31
:10303000E66E07EC1BF0E552E552E552AF0EE66E88
:10304000260EE66E000EE66E07EC1BF0E552E5522A
:10305000E552830EE66E260EE66E000EE66E07EC77
:103060001BF0E552E552E552850EE66E270EE66E40
:10307000000EE66E07EC1BF0E552E552E552120039
:10308000D9CFE6FFE1CFD9FFFE0EDB5001E181D0C1
:10309000FE0EDB50110A6FE0010A62E01F0A5BE0DE
:1030A000010A53E0030A4CE0010A43E0070A3CE04E
:1030B000010A35E0030A2EE0010A52E00F0A25E07A
:1030C000010A1EE0030A17E0010A33E0070A0EE0D6
:1030D000010A07E0030A52E1000EE66EE66A060EF8
:1030E0002CD0000EE66EE66A050E27D0000EE66EC6
:1030F000E66A040E22D0000EE66EE66A060E34D0B2
:10310000000EE66EE66A050E2FD0000EE66EE66A49
:10311000040E2AD0000EE66EE66AE66A0FD0000EB4
:10312000E66EE66A010E09D0000EE66EE66A020E51
:1031300004D0000EE66EE66A030EE66EE66A17D06D
:10314000000EE66EE66AE66A10D0000EE66EE66AEB
:10315000010EE66E0BD0000EE66EE66A020E04D09B
:10316000000EE66EE66A030EE66E010EE66EC7EC32
:1031700015F0E5520BD048EC16F00BD0B70EE66E0A
:103180002A0EE66E000EE66E07EC1BF0E552E552E5
:10319000E552E552E7CFD9FF120048EF16F0000ED6
:1031A000E66EE66A030EE66EE66AC7EC15F0E552D7
:1031B000E552E552E552000EE66EE66A030EE66E53
:1031C000010EE66EC7EC15F0E552E552E552E55208
:1031D0001200000EE66EE66A010EE66EE66AC7ECC5
:1031E00015F0E552E552E552E552000EE66EE66A4C
:1031F000050EE66E010EE66EC7EC15F0E552E552DF
:10320000E552E5521200000EE66EE66A030EE66E27
:10321000E66AC7EC15F0E552E552E552E552000EBC
:10322000E66EE66A060EE66E010EE66EC7EC15F077
:10323000E552E552E552E5521200000EE66EE66AEE
:10324000060EE66EE66AC7EC15F0E552E552E55269
:10325000E552000EE66EE66A060EE66E010EE66EBA
:10326000C7EC15F0E552E552E552E5521200000EAA
:10327000E66EE66A050EE66EE66AC7EC15F0E55204
:10328000E552E552E552000EE66EE66A010EE66E84
:10329000E66EC7EC15F0E552E552E552E552120034
:1032A000000EE66EE66A060EE66EE66AC7EC15F0FC
:1032B000E552E552E552E552000EE66EE66A030E6F
:1032C000E66E010EE66EC7EC15F0E552E552E552EA
:0432D000E5521200B1
:0C32D400D9CFE6FFE1CFD9FFFE0EDB50A2
:1032E000170A3CE0010A2DE0030A1EE0010A0FE084
:1032F000070A43E1770EE66E2A0EE66E000EE66ED2
:1033000007EC1BF0E552E552E552870E33D0520E22
:10331000E66E2A0EE66E000EE66E07EC1BF0E55236
:10332000E552E5528F0E26D02F0EE66E2A0EE66E7F
:10333000000EE66E07EC1BF0E552E552E552970EE3
:1033400019D0040EE66E2A0EE66E000EE66E07EC4D
:103350001BF0E552E552E5529F0E0CD0E30EE66EEF
:10336000290EE66E000EE66E07EC1BF0E552E55204
:10337000E552A70EE66E10D80AD0BF0EE66E290EF3
:10338000E66E000EE66E07EC1BF0E552E552E552E4
:10339000E552E7CFD9FF1200D9CFE6FFE1CFD9FF41
:1033A000FE0EDBCFE6FF5DEC16F0E552F3CF14F036
:1033B000F4CF15F0F3CFE6FFF4CFE6FFAC0EE66EE8
:1033C000290EE66E000EE66E07EC1BF0166E050E7B
:1033D000E15E1650E552E7CFD9FF1200D9CFE6FFE4
:1033E000E1CFD9FF020EE126FE0EDB50050A10E008
:1033F000010A0CE0070A08E0010A04E0030A12E1EE
:10340000870E07D08F0E05D0970E03D09F0E01D0E8
:10341000A70EE66E5DEC16F0E552F3CFDEFFF4CFBB
:10342000DDFF0BD08C0EE66E290EE66E000EE66E0A
:1034300007EC1BF0E552E552E552DECF14F0DDCF8C
:1034400015F014C0F3FF15C0F4FF020EE15C02E2B8
:0E345000E16AE552E16EE552E7CFD9FF1200C6
:02345E00D9CFC4
:10346000E6FFE1CFD9FFE652DF6A0001FE0EB75D4D
:10347000FF0EB85904E2B72B000EB82315D0B76B76
:10348000B86B960EE66E2A0EE66E000EE66E07EC40
:103490001BF0E552E552E55207D0B6C0FBFFB5C0C0
:1034A000FAFF0001B451F96EF8DFDF6EDF50E5522C
:1034B000E552E7CFD9FF1200D9CFE6FFE1CFD9FF20
:1034C000E652DF6A0001020EB75D000EB8590AE34A
:1034D000B76BB86BF00EB46F340EB56F000EB66FED
:1034E000E9EC18F0000EE552E552E7CFD9FF1200E3
:1034F000D9CFE6FFE1CFD9FFE652DF6A0001E80E3F
:10350000B75D030EB8590AE3B76BB86B280EB46FFA
:10351000350EB56F000EB66F37EC19F0000EE552A0
:10352000E552E7CFD9FF1200D9CFE6FFE1CFD9FFAF
:10353000E652DF6A0001840EB75D030EB85908E356
:10354000B76BB86B5C0EB46F350EB56F000EB66F0F
:10355000000EE552E552E7CFD9FF12000001B80E88
:10356000B46F340EB56F000EB66FB76BB86B010C4D
:10357000060EF66E000EF76E000EF86E00010900E2
:10358000F550AF6F0900F550B06F03E1AF6701D0A0
:103590003DD00900F550AA6F0900F550AB6F090046
:1035A000F550AC6F09000900F550E96E0900F550BF
:1035B000EA6E090009000900F550AD6F0900F550E9
:1035C000AE6F09000900F6CFB1F0F7CFB2F0F8CF37
:1035D000B3F0AAC0F6FFABC0F7FFACC0F8FF000124
:1035E000AD5302E1AE5307E00900F550EE6EAD07B2
:1035F000F8E2AE07F9D7B1C0F6FFB2C0F7FFB3C02B
:0E360000F8FF0001AF07000EB05BBFD712004D
:02360E00D9CF12
:10361000E6FFDACFE6FFE1CFD9FFE2CFDAFFE652ED
:10362000E652E652E652D950FB0F146EFF0EDA2036
:10363000156E14C0DEFFDD6EDECFE6FFDDCFE6FFE8
:10364000FB0EDBCFE6FFFC0EDBCFE6FFFD0EDBCF94
:10365000E6FFBFC0E6FFC0C0E6FF9FEC0AF0146EB5
:10366000070EE15C02E2E16AE552E16E1450020EDF
:10367000F3CFDBFF030EF4CFDBFF020EDBCF14F042
:10368000030EDBCF15F014C0F3FF15C0F4FF040EDA
:10369000E15C02E2E16AE552E16EE552E5CFDAFF74
:0636A000E7CFD9FF120084
:0A36A600D9CFE6FFE1CFD9FFE652CD
:1036B000DF6A6EEC15F05A0EE66E210EE66E000E15
:1036C000E66E07EC1BF0E552E552E552FDEC16F014
:1036D00073EC16F0DDEC16F022EC00F0DF6EDF503C
:1036E000F7E0DFCF14F0120EE76E1418E8AE02D048
:1036F000E73402D0E750145C05E2DFCFE6FF40EC90
:1037000018F01BD0DFCF14F0180EE76E1418E8AED7
:1037100002D0E73402D0E750145C05E2DFCFE6FFC9
:103720006AEC19F00AD0340EE66E210EE66E000E39
:0E373000E66E07EC1BF0E552E552E552C9D7F4
:02373E00D9CFE1
:10374000E6FFDACFE6FFE1CFD9FFE2CFDAFFAC6ADE
:10375000AB6AFD0EDBB0AC88DBA202D0AC8CAB8CCC
:10376000DBB4AC8EDBA602D0AB8801D0AB8ADBB871
:10377000AC849E98DBBAAB86DBAC02D09D8A01D0CC
:103780009D9A9E9ADBAE02D09D8801D09D98FB0E3B
:10379000DB50AF6EFB0EFC0EDBCF15F015C014F046
:1037A000156A1450B06EAC8AAB8E949C948EAC505B
:1037B000100B04E0AC50800B01E1948CE552E5CF96
:0837C000DAFFE7CFD9FF120088
:0837C800D9CFE6FFDACFE6FFDE
:1037D000E1CFD9FFE2CFDAFFFB0EDBCF14F0FC0E16
:1037E000DBCF15F00001800E15141AE1FB0EDBCFC4
:1037F000E9FFFC0EDBCFEAFFEECFF3FFEDCFF4FFE6
:10380000EE2A000EEF22F3CFE9FFF4CFEAFFFD0E20
:10381000DBCFEFFFEF50156AF36E15C0F4FF10D049
:10382000FB0EDB50FE0806E1FD0EDBCFE6FF53EC9E
:103830001EF005D0FD0EDBCFE6FF81EC1EF0E55259
:0C384000E552E5CFDAFFE7CFD9FF120018
:04384C0006500B0215
:10385000F3CF02F0F4CF03F00C02F3500326000E76
:10386000F420046E06500D02F3500426000EF420DE
:10387000056E06500E02F350052607500B02F3505A
:103880000326F4500422000E052207500C02F350C8
:103890000426F450052207500D02F3500526085067
:1038A0000B02F3500426F450052208500C02F3508A
:0C38B000052609500B02F35005261200FB
:0438BC00D9CFE6FF7B
:1038C000DACFE6FFE1CFD9FFE2CFDAFFC26AC06A02
:1038D000FC0EDB407F0B3C0BC26EFB0EDBCFE6FF2A
:1038E000FC0EDB38F00B300BE552E710C16EFD0E1D
:1038F000DB50040DF350380B156EFD0EDB380F0B4B
:10390000070B146EFD0EDB50800B14101510C06EEB
:10391000FC0EDBAE03D09E9C9D8CF28CC280E552E7
:0A392000E5CFDAFFE7CFD9FF120070
:06392A00FE0EE3CFE9FFF1
:10393000FF0EE3CFEAFFF36AF46AEE5203E0F34AC4
:10394000F42AFBD71200FF0EE3CFF8FFE552FF0E7B
:10395000E3CFF7FFE552FF0EE3CFF6FFE552E66A4D
:10396000E66AE66A0900F55209E0FD0EE32A05E180
:10397000FE0EE32A02E1FF0EE32AF4D7FD0EE3CFA9
:1039800007F0FE0EE3CF08F0FF0EE3CF09F01200C0
:10399000D9CFE6FFDACFE6FFE1CFD9FFE2CFDAFFFA
:1039A000E652E652FC0EDBCF14F0FD0EDBCF15F035
:1039B000060ED89014361536E804FBE114C0DEFF7D
:1039C00015C0DDFF010EDB50BB6EDF50E840E84064
:1039D0003F0B300B146ECF0EBA141410BA6EE552B2
:0E39E000E552E552E5CFDAFFE7CFD9FF12003E
:0239EE00D9CF2F
:1039F000E6FFDACFE6FFE1CFD9FFE2CFDAFFE6520A
:103A0000E652FC0EDBCF14F0FD0EDBCF15F0060EF8
:103A1000D89014361536E804FBE114C0DEFF15C05B
:103A2000DDFF010EDB50BE6EDF50E840E8403F0B8B
:103A3000300B146ECF0EBD141410BD6EE552E5525E
:0C3A4000E552E5CFDAFFE7CFD9FF120016
:043A4C0009C013F0AA
:103A500008C012F008500D02F4CF07F0F3CF06F0C3
:103A600009500E02F4CF09F0F3CF08F00D02F35025
:103A70000726F4500822E86A092212500E02F35079
:103A80000726F4500822E86A09220EAE4CEF1DF01A
:103A90001250085E1350095A13AE000C0D50085E08
:063AA0000E50095A000C53
:0A3AA600D9CFE6FFDACFE6FFE1CF4B
:103AB000D9FFE2CFDAFFE652E6520C0EBA6E050EDF
:103AC000F66EF76A300EF86E0800F550010B03E051
:103AD000010EDB6802D0010EDB6ADB5002E094923B
:103AE00001D09396CA94FD0EDB50CB6ECA84E5528A
:0E3AF000E552E552E5CFDAFFE7CFD9FF12002D
:023AFE00D9CF1E
:103B0000E6FFE1CFD9FF020EE126D38CD38AD3881A
:103B10009B8CDE6ADD6ADECF14F0DDCF15F0D89025
:103B2000155004E6F40E145C010E155805E2DF2A68
:103B3000010EF1E3DB2AEFD7020EE15C02E2E16A5B
:0C3B4000E552E16EE552E7CFD9FF12001C
:043B4C00056A046A98
:103B5000036A026A200EE76ED890063607360836EA
:103B6000093602360336043605360B50025C0C501B
:103B700003580D5004580E50055809E30B50025ECF
:103B80000C50035A0D50045A0E50055A062AE72EBF
:043B9000E4D7120064
:0C3B9400D9CFE6FFDACFE6FFE1CFD9FF82
:103BA000E2CFDAFFE652F20E0001C117ABAC03D050
:103BB000C191ABB0C181ABB4C185ABB2C187AE50CE
:103BC000DF6EDF50E552E552E5CFDAFFE7CFD9FFF0
:023BD0001200E1
:0E3BD200D9CFE6FFDACFE6FFE1CFD9FFE2CF91
:103BE000DAFFFD0EDB50FB0BCA6ECC6A9E92FD0E17
:103BF000DBAE02D09D8201D09D92CA84E552E5CF12
:083C0000DAFFE7CFD9FF120043
:083C0800D9CFE6FFDACFE6FF99
:103C1000E1CFD9FFE2CFDAFF0C0EBD129494CA9423
:103C2000FD0EDB50CB6ECA84E552E5CFDAFFE7CF5D
:083C3000D9FF12009494120068
:083C3800D9CFE6FFDACFE6FF69
:103C4000E1CFD9FFE2CFDAFFC30EC214146EFD0E2E
:103C5000DB407F0B3C0B1410C26EE552E5CFDAFF60
:063C6000E7CFD9FF1200BE
:0A3C6600F36AF46AFF0EE124E96E30
:103C7000FF0EE220EA6EED6607D02F0EEF6404D04F
:0A3C80003A0EEF6001D0F32A1200A3
:063C8A001EEE00F02EEE1C
:103C900000F0F86A019CB8EC1AF082EC1EF053ECCC
:063CA0001BF0FBD712002F
:0A3CA600FF0EE350ACBA04D0AF6A81
:103CB000AB8EAC8A949CACA2FED7AD6EF36EF46A68
:023CC0001200F0
:0E3CC200C450176E166AC3501610F36E17C06A
:043CD000F4FF1200EB
:0C3CD40030313233343536373839616214
:053CE00063646566004D
:0A3CE60000EE00F00F0EEE6AEA6235
:043CF000FDD71200EA
:0A3CF400C250020B01E0010E1200A5
:023CFE00C28280
:023D00001200AF
:023D02001200AD
:023D04001200AB
:0A3D060000E0FCA8FD70FE00009034
:053D1000015802200330
:023D1500FEFFAF
:093D1700000303E803E803E803DC
:103D2000E8030000000000000000C4000000BC0226
:023D3000000091
:043D3200000000008D
:053D3600B8340000009C
:020000040030CA
:0100010008F6
:010003001EDE
:0100050003F7
:010006008178
:00000001FF
