:020000040000FA
:06000000A5EF17F012004D
:0A0006000400DD2F00009F00000041
:1000100004000000D72F0000990000000600000037
:10002000D52F0000A500000002000000C62F000030
:08003000800000000F00000039
:0800380058EC05F0FB0EDBCFD4
:10004000F3FFDB06F35000090AE0A6EC05F0FA0E18
:1000500011EC06F0F3E1151CF1E1010E01D0000EE8
:1000600087EF05F058EC05F03B0EE12402E3E16870
:10007000E652E16E010EDB6A020EDB6AF90EDBCF9F
:10008000F6FFFA0EDBCFF7FFFB0EDBCFF8FF080021
:10009000F550DF6EDF5002E1ABEF04F0250EDF5CC0
:1000A00002E09EEF04F0030EDB6A040EDB6A050E2D
:1000B000DB6A060EDB6A070EDB6AC0EC04F02D0E6D
:1000C000DF5C0CE02B0EDF5C09E0200EDF5C06E05D
:1000D000230EDF5C03E0300EDF5C1AE1DF50300AF4
:1000E00014E0130A0FE0030A0AE00B0A05E0060A0F
:1000F000E4E1030EDB80E1D7030EDB82DED7030EE3
:10010000DB84DBD7030EDB86D8D7030EDB88D5D79D
:100110002A0EDF5C1BE1BCEC04F00AEC05F010E0F9
:10012000030EDB8008680968130EDBCF0DF0140E98
:10013000DBCF0EF0E1EC14F0040E06C0DBFF03D0C1
:10014000130EF3EC04F0C0EC04F00BD0090EDB6AE4
:1001500061EC05F003E0D5EC05F0FAD7090EF3ECFD
:1001600004F0030EDBB0DB982E0EDF5C1BE1C0EC6D
:1001700004F02A0EDF5C0BE1BCEC04F00AEC05F0A5
:1001800003E1130E45EC05F0C0EC04F00BD0090EB2
:10019000DB6A61EC05F003E0D5EC05F0FAD7090E57
:1001A00045EC05F0680EDF5C07E1C0EC04F0680E7A
:1001B000DF5C1DE1030E18D0740EDF5C17E07A0ED1
:1001C000DF5C14E0480EDF5C06E0540EDF5C03E009
:1001D0005A0EDF5C02E1020E07D06C0EDF5C03E01A
:1001E0006A0EDF5C04E1010E98EC05F0C9DBDF501C
:1001F0006E0A01E17FD31E0A01E192D1200A01E1DA
:100200008FD13F0A01E149D11A0A01E146D10D0A15
:1002100001E143D1200A01E140D13A0A01E13DD197
:10022000200A01E13AD1260A01E135D10D0A01E1A6
:1002300032D11A0A01E1D9D0200A4AE0300A1FE07F
:10024000460A0EE0250A01E083D3D950F90FE96E82
:10025000FF0EDA20EA6E010EEE5E000EEE5AEE5A46
:10026000A6EC05F0250EE66E95DB03E1151C01E119
:1002700069D3A2EC05F001E26BD3DB2A69D3080E47
:10028000DB6A040EDB50010806E2040EDB046AECB4
:1002900005F0DB508BDB080EDB5009E0030EDB5072
:1002A000010B05E172DB01E04DD3080EDB6A64DB74
:1002B000EFCFDFFF1AEC06F003E1151C01E142D39A
:1002C000A2EC05F001E3DB2A60DB01E141D33AD384
:1002D000070EDB5002080FE1E6EC05F0030EADEC73
:1002E00005F00E0EEECFDBFF0F0EEECFDBFF100E94
:1002F000EECFDBFF20D0F70EDBCF17F0F80EDBCF11
:1003000018F0020E175E000E185AF70E17C0DBFF2A
:10031000F80E18C0DBFF17C0E9FF18C0EAFF9DEC1C
:1003200005F0166A0E0E14C0DBFF0F0E15C0DBFFC2
:10033000100E16C0DBFF0E0EDBCFE6FF0F0EDBCF7D
:10034000E6FF100EDBCFE6FF30EC16F0E552E5528B
:10035000E552130E07C0DBFF140E08C0DBFF060ECC
:10036000DB5005E0130EE1EC05F001E26ADB05EC81
:1003700006F002E2130E37DBC8EC05F006E0040ECF
:10038000E1EC05F002E2050E2EDB030EDBB005D03A
:10039000FCDA01E0D7D2080EDB6A090EDB6A0E0E2A
:1003A000DBCFF6FF0F0EDBCFF7FF100EDBCFF8FF32
:1003B0000800F550DF6EDF5014E00BEC06F011E2A0
:1003C0001AEC06F003E1151C01E1BCD2BBDB01E332
:1003D000DB2A090EDB2AD9500E0FE96E000ECBDBAB
:1003E000E7D7D3DA01E1B4D2ADD2C6DA110EEECF3F
:1003F000DBFF120EEDCFDBFF110EDBCFE6FF120E9F
:10040000DBCFE6FF22EC16F0E552E552130EF3CFF8
:10041000DBFF140EF4CFDBFF060EDB5004E0130EFF
:10042000D0DB01E20EDB05EC06F002E2130EDBDAB4
:10043000AFDB05E0040EC5DB02E2050ED4DA030EE5
:10044000DBB005D0A2DA01E07DD2080EDB6A090E2E
:10045000DB6A110EDBCFE9FF120EDBCFEAFFEFCF35
:10046000DFFFDF5014E0D7DB12E2E4DB03E1151C11
:1004700001E168D267DB01E3DB2A090EDB2A110EFA
:10048000DB2ADBCFE9FF120EE8E3DB2AE6D77DDAD1
:1004900001E15ED257D2030EDB8E070EDB0410E1C2
:1004A00095DB040E5ADB0A0EEECFDBFF0B0EEECF10
:1004B000DBFF0C0EEECFDBFF0D0EEECFDBFF6CD0C3
:1004C000070EDB5003082CE1030EDBAE0DD0B2DAD1
:1004D000020E76DAEFCF14F0156A166A176A14AEB8
:1004E00039D01568166835D0F70EDBCF15F0F80E49
:1004F000DBCF16F0020E155E000E165AF70E15C071
:10050000DBFFF80E16C0DBFF15C0E9FF16C0EAFFDF
:10051000EFCF14F00A0E14C0DBFF0B0EDB6A38D0ED
:10052000070EDB50020809E1030EDBAE04D059DBF5
:1005300016AE10D00ED055DB0DD0030EDBAE12D0B0
:1005400079DA020E3DDAF9DA166A176A15AE02D0C8
:1005500016681768E2DA0C0E16C0DBFF0D0E17C026
:10056000DBFF1AD0F70EDBCF16F0F80EDBCF17F05B
:10057000020E165E000E175AF70E16C0DBFFF80EBD
:1005800017C0DBFF16C0E9FF17C0EAFFD6DAC5DAED
:100590000C0EDB6A0D0EDB6A060EDB5005E1010E68
:1005A000F36E050EF3CFDBFF150EDB6A160EDB6A6A
:1005B000D950370F146E000EDA20156E390E14C0A4
:1005C000DBFF3A0E15C0DBFF380EDB6A080EDB6A74
:1005D0000A0EAEDADF50780A12E0200A10E0280A8C
:1005E0000CE0200A0AE03F0A06E00D0A02E0200AB9
:1005F00008E1020E05D0080E03D0080EDF26100E0B
:1006000097DA030EDBBE02D0DB92DB94DB50800B6B
:1006100024E08ADAD890030EEB50000A08E6000EB8
:10062000EE5C000EEE58000EEE58000EEE5815E28D
:1006300013DA0B680C680D680E68B3EC15F00A0E3F
:1006400002C0DBFF0B0E03C0DBFF0C0E04C0DBFFA0
:100650000D0E05C0DBFF2D0E08D0030EDBA202D06D
:100660002B0E03D0DBA408D0200EF36E170EF3CFB1
:10067000DBFF150EDB2A02D0170EDB6A050EDB50FE
:1006800003E1B7D901E189D0940E146E2F0E156ED7
:10069000000E166E070EDBCF17F0186A196A1A6A79
:1006A00017C00BF018C00CF019C00DF01AC00EF0F6
:1006B000D3D906EC17F014500224F36E1550032022
:1006C000F46E16500420F86EF4CFF7FFF3CFF6FF68
:1006D0000800090EF5CFDBFF580EDF5C0FE1610E5D
:1006E000F36E090E7BD90AE3200E146E090EDBCFE0
:1006F000E7FF1450E75E090EE7CFDBFF070EDBCF05
:1007000014F0156A166A176A0FDA14C00BF015C0D8
:100710000CF016C00DF017C00EF0EECF06F0EECFC5
:1007200007F0EECF08F0EFCF09F006EC17F009C0A4
:10073000EDFF08C0EDFF07C0EDFF06C0EFFF390E6B
:10074000DBCFE9FFDB063A0EDBCFEAFF01E2DB0697
:10075000090EDBCFEFFF150EDB2A4BD995E1030E17
:10076000DBA61DD06F0EDF5C06E1C1D918E3150EC4
:10077000DB285BDA14D0780EDF5C09E0580EDF5C12
:1007800006E0620EDF5C03E0420EDF5C08E1020E71
:10079000F36E160EF3CFDBFF02D0150EDB6A030EED
:1007A000DB50100B0EE0040EDBCF14F0050EDB5017
:1007B000D880145406E2060EDB5003E1040EDB5031
:1007C00034DA95D90AE2050EDBCFE7FF150EDB50D0
:1007D000E75E050EE7CFDBFF02D0050EDB6A040EF5
:1007E000DBCF14F0160E45D9D880145414E2160E3F
:1007F000DBCFE6FF150EDBCFE6FF040EDBCFE6FF17
:10080000050EDB50E552E75CE552D880E754E5522F
:10081000D880E7545FD9030EDB50010B0BE1080EC3
:10082000DB5008E0B2D801E08DD0080EDB50BED816
:10083000080EDB6A170EDB5007E088D9170EF1D9D6
:1008400003E1151C01E17ED0160EDB5016E07ED9C7
:10085000300EE66E9FD802E1151C74E077D9DFCF29
:10086000E6FF71EC15F0E552E552E552F4CF15F0D4
:100870000001F31C02E1151C65E0050EDBCF14F04E
:10088000160EDB50D880145409E2050EDBCFE7FFCB
:10089000160EDB50E75E050EE7CFDBFF300EE66E8F
:1008A000050ECBD94FE1390EDB2ADBCFE9FF3A0E3B
:1008B00001E3DB2ADBCFEAFF090EEFCFDBFFDB50E2
:1008C0000EE044D9090EADD902E1151C3BE0390E0A
:1008D000DB2ADBCFE9FF3A0EEDE3DB2AEBD755D875
:1008E00031E1160EDBCFE6FF080EC3D8E552E72450
:1008F0005DD82ED0070EDB50030A1CE0010A14E07D
:10090000030A07E07BD9DBCFEEFF020EDBCFEDFF62
:100910001FD0F5D8196A17AE02D0186819682CD8FC
:10092000BCD819C0EEFF14D0EAD817BE186824D876
:10093000B4D80ED063D9DBCFEFFF0AD07BD905E165
:10094000151C03E1F368F46810D0FCD801E3DB2A3E
:1009500079D947EF00F0010EDBCF14F0020EDBCFA8
:1009600015F014C0F3FF15C0F4FF3B0EE15C02E28A
:10097000E16AE552E16ECBD029D9020EADEF05F068
:1009800061D90800F550DF6E1200200EE66E080EE9
:100990001DEF06F071EC15F0E552E552E552F3CF8C
:1009A00014F0F4CF15F00001F31C1200146E156A58
:1009B000D950010F4DD91450EE261550ED221200DA
:1009C000185E000E195AF70E18C0DBFFF80E19C09A
:1009D000DBFF18C0E9FF19C0EAFF1200DBCFF4FF0C
:1009E000F350F45C1200DB50E76E040EE7CFDBFF40
:1009F00012000A0EDBCF14F00B0EDBCF15F00C0E3D
:100A0000DBCF16F00D0EDBCF17F0145015101610BB
:100A100017101200130EEECFDBFF140EEDCFDBFF2D
:100A2000130EDBCF14F0140EDBCF15F00001800E97
:100A300015141200F70EDBCF18F0F80EDBCF19F00B
:100A40001200050EDB50E66ED950130F01D9E552A6
:100A5000E750EE6EED6A12000A0EDBCF06F00B0EC9
:100A6000DBCF07F00C0EDBCF08F00D0EDBCF09F06B
:100A70001200DBCFE6FF150EDBCFE6FF050EDB50E5
:100A8000E552E724E552E7241200DB50CED8010EF0
:100A9000F36E060EF3CFDBFF1200EE50EFCFEAFF4E
:100AA000E96E16C0EEFF17C0EEFF18C0EEFF120091
:100AB000D9CFE6FFDACFE6FFE1CFD9FFE2CFDAFF09
:100AC0001200DFCFE6FFE66A93EC17F0E552E5523D
:100AD000F3501200E76E080EE7CFDBFF1200EECFF7
:100AE00014F0EECF15F0EFCF16F0176A1200050ED6
:100AF000DBCF14F0150EDB50D88014541200010E19
:100B0000DBCF16F0020EDBCF17F0186A1200E552A9
:100B1000E5CFDAFFE7CFD9FF12000A0E14C0DBFFE2
:100B20000B0E15C0DBFF1200D9500A0F28EF06F09C
:100B3000F36E070EF3CFDBFF1200EECF14F0EFCF12
:100B400015F01200010EDB2A020E1200FC0EDBCFA4
:100B5000E6FFFD0EDBCFE6FF1200145E000E155A15
:100B6000F70E14C0DBFFF80E15C0DBFF14C0E9FF61
:100B700015C0EAFF1200DA20EA6EEF2AEECFF6FF88
:100B8000000EEF22EECFF7FFEF22EECFF8FF1200BC
:100B9000040EDBCFE6FF130EDB50E552E75C9ADF75
:100BA000DB5004DF060EDB501200090EDB500A0D8D
:100BB000F350DF24D00FE76E090EE7CFDBFFC0EF65
:100BC00004F0DB50F36E050EEEEF04F0F70EDBCF12
:100BD00014F0F80EDBCF15F01200DFCFE6FFCAEFFE
:100BE00004F028DF030EECDE6FEF05F01CEC00F0E4
:100BF000E552E552E552E55200091200BDDEEE5025
:100C0000EFCFEAFFE96E010E1200130EDB50F36E18
:100C1000040EEEEF04F0040EDB50F36E090EEEEF5F
:100C200004F0DBCFE6FFCAEF04F0E76E050EE7CF76
:100C3000DBFF12008BDFEDEF05F0DBCFE6FF86DF99
:100C4000F6EF05F0D950F90FE96EFF0EBBEF05F096
:0A0C5000E96E000EDA20EA6E1200D1
:060C5A00D9CFE6FFE1CF57
:100C6000D9FF020EE126DF6A010EDB6A9EAA06D0DA
:100C70002AEC17F0E76E010EE7CFDBFFDB500FE049
:100C8000010EDBCFE6FF07D09EC0FBFF9DC0FAFF41
:100C900000019C51F96EF8DFE552DF6E01D0DF6A8A
:100CA000DF50146E020EE15C02E2E16AE552E16E91
:100CB0001450E552E7CFD9FF1200D9CFE6FFE1CFBC
:100CC000D9FFE652DF6AFE0EDB503F0A20E0570AEA
:100CD0001EE0200A1CE03B0A10E0200A0EE03E0A5B
:100CE00002E0200A18E10001360E9C6F0D0E9D6F88
:100CF000000E9E6F7AEC11F00CD00001080E9C6F74
:100D00000E0E9D6F000E9E6FF5EC11F002D000EC00
:100D100011F0DF6A0AD00001BA0E9C6F0C0E9D6FB5
:100D2000000E9E6FDF6A00EC11F0DF50E552E552D5
:100D3000E7CFD9FF1200D9CFE6FFE1CFD9FFE652C6
:100D4000DF6AFE0EDB50750A3BE0200A39E0370A05
:100D50002FE0200A2DE0300A15E0200A13E03E0AB9
:100D600002E0200A38E10001040E9C6F0F0E9D6F17
:100D7000000E9E6FA7EC11F0120EE66E1B0EE66ED3
:100D8000000E0ED00001440E9C6F120E9D6F000EDF
:100D90009E6FA7EC11F0020EE66E1B0EE66E000EC3
:100DA000E66E95EC14F0E552E552E552DF6A26D086
:100DB000110EDF6EF40EE66E1A0EE66E000E18D0FF
:100DC0000001BA0E9C6F0C0E9D6F000E9E6FDF6AC5
:100DD00000EC11F013D00001BA0E9C6F0C0E9D6F49
:100DE000000E9E6FDF6AE80EE66E1A0EE66E000ECB
:100DF000E66E95EC14F0E552E552E552DF50E5520F
:100E0000E552E7CFD9FF1200D9CFE6FFE1CFD9FFF6
:100E1000E652DF6AFE0EDB50750A58E0200A56E003
:100E2000010A4EE0200A4CE0410A3CE0010A2DE0B4
:100E3000070A1EE0010A0FE0030A53E1D70EE66E2F
:100E40001A0EE66E000EE66E95EC14F0E552E552D1
:100E5000E552130E33D0C60EE66E1A0EE66E000E85
:100E6000E66E95EC14F0E552E552E552140E26D0EC
:100E7000B50EE66E1A0EE66E000EE66E95EC14F0F8
:100E8000E552E552E552150E19D0A40EE66E1A0E83
:100E9000E66E000EE66E95EC14F0E552E552E55272
:100EA000160E0CD0930EE66E1A0EE66E000EE66E6F
:100EB00095EC14F0E552E552E552170EDF6E1CD0AA
:100EC0007BDBF3CFA3F0F4CFA4F016D00001BA0E71
:100ED0009C6F0C0E9D6F000E9E6FDF6A00EC11F090
:100EE0000BD0850EE66E1A0EE66E000EE66E95ECE1
:100EF00014F0E552E552E552DF50E552E552E7CFF6
:100F0000D9FF1200D9CFE6FFE1CFD9FFE652DF6A61
:100F1000FE0EDB50750A01E1A7D0200A01E1A4D042
:100F20006B0A01E195D0020A51E07F0A3EE0200AF7
:100F30003CE0100A2AE0200A28E03E0A16E0200AD7
:100F400014E02B0A03E0200A01E098D06C0EE66E54
:100F50001A0EE66E000EE66E95EC14F0E552E552C0
:100F6000E55200019A6B010E2FD0510EE66E1A0E5B
:100F7000E66E000EE66E95EC14F0E552E552E55291
:100F80000001010E9A6F020E1FD0380EE66E1A0E87
:100F9000E66E000EE66E95EC14F0E552E552E55271
:100FA0000001020E9A6F030E0FD0240EE66E1A0E89
:100FB000E66E000EE66E95EC14F0E552E552E55251
:100FC0000001030E9A6F040EDF6E66D0100EE66EFF
:100FD0001A0EE66E000EE66E95EC14F0E552E55240
:100FE000E55200019A51030A1EE0010A14E0030AC7
:100FF0000AE0010A25E1090EDF6E080EE66E1A0E00
:10100000E66E000E17D00A0EDF6EFE0EE66E190EAB
:10101000E66E000E0FD00B0EDF6EF60EE66E190EAA
:10102000E66E000E07D00C0EDF6EED0EE66E190EAA
:10103000E66E000EE66E95EC14F0E552E552E552D0
:101040000001A40E9C6F100E9D6F000E9E6F24D0A9
:10105000CB0EE66E190EE66E000EE66E95EC14F001
:10106000E552E552E55218D00001360E9C6F0D0E88
:101070009D6F000E9E6F7AEC11F00ED0DF6AC00EED
:10108000E66E190EE66E000EE66E95EC14F0E55273
:10109000E552E552A7EC11F0DF50E552E552E7CFFB
:1010A000D9FF1200D9CFE6FFE1CFD9FFE652DF6AC0
:1010B000FE0EDB50750A01E1A7D0200A01E1A4D0A1
:1010C000690A01E195D0020A51E07D0A3EE0200A5A
:1010D0003CE0100A2AE0200A28E03E0A16E0200A36
:1010E00014E02B0A03E0200A01E098D09F0EE66E80
:1010F000190EE66E000EE66E95EC14F0E552E55220
:10110000E55200019A6B090E2FD07C0EE66E190E87
:10111000E66E000EE66E95EC14F0E552E552E552EF
:101120000001010E9A6F0A0E1FD05B0EE66E190EBB
:10113000E66E000EE66E95EC14F0E552E552E552CF
:101140000001020E9A6F0B0E0FD03F0EE66E190EC5
:10115000E66E000EE66E95EC14F0E552E552E552AF
:101160000001030E9A6F0C0EDF6E66D02B0EE66E3A
:10117000190EE66E000EE66E95EC14F0E552E5529F
:10118000E55200019A51030A1EE0010A14E0030A25
:101190000AE0010A25E1010EDF6E080EE66E1A0E66
:1011A000E66E000E17D0020EDF6EFE0EE66E190E12
:1011B000E66E000E0FD0030EDF6EF60EE66E190E11
:1011C000E66E000E07D0040EDF6EED0EE66E190E11
:1011D000E66E000EE66E95EC14F0E552E552E5522F
:1011E0000001040E9C6F0F0E9D6F000E9E6F24D0A9
:1011F000090EE66E190EE66E000EE66E95EC14F022
:10120000E552E552E55218D00001360E9C6F0D0EE6
:101210009D6F000E9E6F7AEC11F00ED0DF6AC00E4B
:10122000E66E190EE66E000EE66E95EC14F0E552D1
:10123000E552E552A7EC11F0DF50E552E552E7CF59
:10124000D9FF1200D9CFE6FFE1CFD9FFE652DF6A1E
:10125000FE0EDB50750A01E1B5D0200A01E1B2D0E3
:101260006B0A01E1A3D0020A51E07F0A3EE0200AA6
:101270003CE0100A2AE0200A28E03E0A16E0200A94
:1012800014E02B0A03E0200A01E0A6D0ED0EE66E82
:10129000180EE66E000EE66E95EC14F0E552E5527F
:1012A000E55200019B6B050E2FD0CF0EE66E180E97
:1012B000E66E000EE66E95EC14F0E552E552E5524E
:1012C0000001010E9B6F060E1FD0B30EE66E180EC6
:1012D000E66E000EE66E95EC14F0E552E552E5522E
:1012E0000001020E9B6F070E0FD09E0EE66E180EC9
:1012F000E66E000EE66E95EC14F0E552E552E5520E
:101300000001030E9B6F080EDF6E73D0890EE66E30
:10131000180EE66E000EE66E95EC14F0E552E552FE
:10132000E55200019B51030A1EE0010A14E0030A82
:101330000AE0010A26E10D0EDF6E080EE66E1A0EB7
:10134000E66E000E17D00E0EDF6EFE0EE66E190E64
:10135000E66E000E0FD00F0EDF6EF60EE66E190E63
:10136000E66E000E07D0100EDF6EED0EE66E190E63
:10137000E66E000EE66E95EC14F0E552E552E5528D
:101380000DD07A0EE66E180EE66E000EE66E95EC47
:1013900014F0E552E552E5520D0EDF6E0001FE0E2F
:1013A0009C6F130E9D6F000E9E6F23D0570EE66E3E
:1013B000180EE66E000EE66E95EC14F0E552E5525E
:1013C000E55217D00001360E9C6F0D0E9D6F000E7A
:1013D0009E6F7AEC11F00DD0490EE66E180EE66E97
:1013E000000EE66E95EC14F0E552E552E552A7ECDE
:1013F00011F0DF50E552E552E7CFD9FF1200D9CF07
:10140000E6FFE1CFD9FFE652DF6AFE0EDB50750A38
:1014100001E1B5D0200A01E1B2D0690A01E1A3D00F
:10142000020A51E07D0A3EE0200A3CE0100A2AE070
:10143000200A28E03E0A16E0200A14E02B0A03E006
:10144000200A01E0A6D02D0EE66E180EE66E000E04
:10145000E66E95EC14F0E552E552E55200019B6B07
:101460000D0E2FD00F0EE66E180EE66E000EE66E15
:1014700095EC14F0E552E552E5520001010E9B6F28
:101480000E0E1FD0F30EE66E170EE66E000EE66E21
:1014900095EC14F0E552E552E5520001020E9B6F07
:1014A000070E0FD09E0EE66E180EE66E000EE66E6C
:1014B00095EC14F0E552E552E5520001030E9B6FE6
:1014C000100EDF6E73D0DE0EE66E170EE66E000EA7
:1014D000E66E95EC14F0E552E552E55200019B51A1
:1014E000030A1EE0010A14E0030A0AE0010A26E1E9
:1014F000050EDF6E080EE66E1A0EE66E000E17D0B1
:10150000060EDF6EFE0EE66E190EE66E000E0FD0B2
:10151000070EDF6EF60EE66E190EE66E000E07D0B1
:10152000080EDF6EED0EE66E190EE66E000EE66E2C
:1015300095EC14F0E552E552E5520DD07A0EE66EC8
:10154000180EE66E000EE66E95EC14F0E552E552CC
:10155000E552050EDF6E0001440E9C6F120E9D6F6A
:10156000000E9E6F23D0BB0EE66E170EE66E000EC9
:10157000E66E95EC14F0E552E552E55217D0000105
:10158000360E9C6F0D0E9D6F000E9E6F7AEC11F063
:101590000DD0490EE66E180EE66E000EE66E95EC66
:1015A00014F0E552E552E552A7EC11F0DF50E55298
:1015B000E552E7CFD9FF1200D9CFE6FFE1CFD9FF3F
:1015C000040EE126DF6A010EDB6A020EDB6A030EFF
:1015D000DB6AA3C0E6FFA4C0E6FF970EE66E170E17
:1015E000E66E000EE66E95EC14F0146E050EE15EEC
:1015F0001450D950020FE96EDACFEAFFEE50ED1029
:101600000BE0D950020FE96EDACFEAFFFF0ED88067
:10161000EE54030EED544EE2750EE66E170EE66EB6
:10162000000EE66E95EC14F0E552E552E552020E1E
:10163000DB6A030EDB6A9EAAFED72AEC17F0DF6E88
:10164000300EDF5C30E3DF5039082DE3DFCFE6FFFB
:10165000E66A720EE66E170EE66E000EE66E95EC0A
:1016600014F0146E050EE15E1450DF50166E176A0A
:101670000A0E086E096A020EDBCF0DF0030EDBCFF7
:101680000EF00EEC15F006501624146E07501720BD
:10169000156E300E145E000E155A020E14C0DBFFDC
:1016A000030E15C0DBFF300EDF5CA3E3DF5039080B
:1016B000C2E29FD7020EDBCFE6FF030EDBCFE6FFD1
:1016C0004F0EE66E170EE66E000EE66E95EC14F009
:1016D000146E050EE15E14502AEC17F02AEC17F098
:1016E000020EDBCF14F0030EDBCF15F014C0F3FFB6
:1016F00015C0F4FF040EE15C02E2E16AE552E16E1E
:08170000E552E7CFD9FF12000A
:081708000D6320636F6D6D613C
:101710006E64206E6F742076616C6964202D2D20BC
:101720006275670D63000700070C00756E6B6E6FC6
:10173000776E20636F6D6D616E64202D2D20627554
:101740006720696E2070726F6772616D0D0A000DFF
:101750000A546865206E6577207468726573686FD7
:101760006C642076616C75652069732025750D0A9F
:101770003E00256300656E7465722074687265733F
:10178000686F6C642076616C7565203120746F2001
:1017900031303233203E00757064617465207468A6
:1017A000726573686F6C640D0A206F6C64207661DB
:1017B0006C7565203D2025750D0A005269676874B7
:1017C000206D6F746F722072657665727365202D5F
:1017D0002D206E6F206368616E67650D0A00726967
:1017E000676874206D6F746F7220666F72776172B4
:1017F0006420007269676874206D6F746F72207264
:1018000065766572736520736C6F770D0A3E0052C2
:1018100069676874206D6F746F7220726576657287
:101820007365206D656469756D0D0A3E00526967C8
:101830006874206D6F746F7220726576657273655F
:1018400020666173740D0A3E0020776861743F2042
:101850002D2D200D0A0A005269676874206D6F747F
:101860006F7220666F7277617264202D2D206E6F0B
:10187000206368616E67650D0A00524D737065657F
:1018800064206275670D0A3E007269676874206D96
:101890006F746F722072657665727365200052698D
:1018A000676874206D6F746F7220636F6173740D5D
:1018B0000A3E007269676874206D6F746F722066EB
:1018C0006F727761726420736C6F770D0A3E0052FD
:1018D00069676874206D6F746F7220666F727761CC
:1018E0007264206D656469756D0D0A3E005269670A
:1018F0006874206D6F746F7220666F7277617264A6
:1019000020666173740D0A3E004C656674206D6F2D
:10191000746F722072657665727365202D2D206E4E
:101920006F206368616E67650D0A006C65667420E0
:101930006D6F746F7220666F727761726420006CD5
:10194000656674206D6F746F7220636F61737420AD
:10195000726576657273650D0A3E006C656674206B
:101960006D6F746F7220736C6F7720737065656430
:1019700020726576657273650D0A3E006C6566744B
:10198000206D6F746F72206D656469756D20737062
:1019900065656420726576657273650D0A3E006C3C
:1019A000656674206D6F746F722066617374207346
:1019B0007065656420726576657273650D0A3E0018
:1019C00020776861743F200D0A0A004C6566742018
:1019D0006D6F746F7220666F7277617264202D2D47
:1019E000206E6F206368616E67650D0A00636F612A
:1019F00073740D0A3E00736C6F770D0A3E006D65BF
:101A00006469756D0D0A3E00666173740D0A3E00CF
:101A10006C656674206D6F746F7220726576657286
:101A2000736520006C656674206D6F746F7220633F
:101A30006F6173740D0A3E006C656674206D6F747F
:101A40006F7220736C6F772073706565640D0A3E4A
:101A5000006C656674206D6F746F72206D656469CB
:101A6000756D2073706565640D0A3E006C65667463
:101A7000206D6F746F72206661737420737065657A
:101A8000640D0A3E00776861743F202D2D200D0AF9
:101A90000A3E00726561642073656E736F72203553
:101AA0000D0A3E00726561642073656E736F72206B
:101AB000340D0A3E00726561642073656E736F7247
:101AC00020330D0A3E00726561642073656E736F8A
:101AD0007220320D0A3E00726561642073656E7378
:101AE0006F7220310D0A3E0020776861743F200D2F
:101AF0000A0A3E006272616B6520616C6C0D0A0916
:101B00003E00095269676874204D6F746F720A0D48
:101B10003E00094C656674204D6F746F720A0D3E6D
:101B2000000954203D3E207365742074686520745C
:101B300068726573686F6C642076616C7565000906
:101B400035203D3E20726561642073656E736F724F
:101B5000203520286C656674290D0A000934203D63
:101B60003E20726561642073656E736F722034204D
:101B7000286C656674290D0A000933203D3E2072E9
:101B80006561642073656E736F72203320286C6505
:101B90006674290D0A000932203D3E207265616499
:101BA0002073656E736F72203220286C656674290D
:101BB0000D0A000D0A0931203D3E20726561642046
:101BC00073656E736F72203120286C656674290D01
:101BD0000A000955203D3E207570206F6E65206D0E
:101BE000656E750A0D0A3E000943203D3E20636F75
:101BF0006173740A0D00093E203D3E20666F7277C6
:101C0000617264202861742073616D652073706552
:101C10006564290D0A00093C203D3E207265766509
:101C2000727365202861742073616D65207370651F
:101C30006564290D0A000953203D3E20736C6F77BF
:101C40002073706565640A0D00094D203D3E206DCE
:101C5000656469756D2073706565640A0D000D0A11
:101C60000946203D3E20666173742073706565648B
:101C70000A0D000955203D3E20757020746F2074B8
:101C80006F70206D656E750A0D0A3E000942203D99
:101C90003E206272616B6520616C6C0A0D00095216
:101CA000203D3E207269676874206D6F746F720A00
:101CB0000D000D0A094C203D3E206C656674206DB8
:101CC0006F746F720A0D0009202020616E6420730A
:101CD000657474696E67204C454427730D0A0A3E8B
:101CE00000092020206C696B652072656164696E53
:101CF000672073656E736F72730A0D00096D6F72E2
:101D0000652063686F6963657320696E206E65780E
:101D1000742076657273696F6E2E2E2E0A0D00097F
:101D2000203F206F722068203D3E2068656C702047
:101D30007072696E742074686973206D656E750ABF
:101D40000D0A00092053203D3E2073656E736F72AB
:101D50000A0D0009206D203D3E206D6F746F720AE0
:101D60000D000A09546F70204C6576656C204D6536
:101D70006E750A0D0A0020202076657273696F6EF9
:101D800020302E323030204D617263682032362C84
:101D900020323031300A0D0020202070726F6772BF
:101DA000616D2062792044616E20506569726365BF
:101DB00020422E53632E0A0D0020202020202020B8
:101DC00020202020202041505343313239390A0D40
:101DD000000A0D2020204B77616E746C656E2050D8
:101DE0006F6C79746563686E696320556E6976659A
:101DF00072736974790A0D002072617720726561CF
:101E000064696E672025750D0A3E000D0A696E76BD
:101E1000616C69642073656E736F7220706F736993
:101E200074696F6E202D2D206275670D0A3E0020AB
:101E300073656E736F722035202872696768742C21
:101E400020524C535F5269676874434834292C0010
:101E50002073656E736F722034202863656E74651D
:101E6000722072696768742C20524C535F436E7401
:101E70005269676874434833292C002073656E7378
:101E80006F722033202863656E7465722C20524C6B
:101E9000535F43656E746572434832292C0020738A
:101EA000656E736F722032202863656E74657220D0
:101EB0006C6566742C20436E744C656674434831BF
:101EC000292C002073656E736F72203120286C6599
:101ED00066742C20524C535F4C656674434830291D
:021EE0002C00D4
:0E1EE200DFEC16F041D8100EE66EE66A3C0EFC
:101EF000E66E2CEC15F0E552E552E55239D83FD8A4
:101F000041D843D845D8836A0A0EE66E0C0EE66EB9
:101F1000A70EE66EEBEC15F0E552E552E552829A1B
:101F2000849082908492060EE66E49EC17F0E5529A
:101F3000C70EE66E64EC17F0E552C70EE66EB3EC22
:101F400016F0E552000EE66EE66A84EC16F0E552F5
:101F5000E552000EE66EE66A55EC16F0E552E552E3
:101F60000001A36B020EA46F1200949C948E1200C9
:101F700094909492949494969498949A1200EF0E5C
:101F8000926E1200C00E936E1200600E956E1200DB
:101F9000966A1200D9CFE6FFE1CFD9FF030EE12602
:101FA000010EF36E020EF3CFDBFFFB0EDBCF16F05C
:101FB000FC0EDBCF17F0FD0EDBCFE9FFEA6AE9BECE
:101FC000EA68D890E936EA36810EE926000EEA2260
:101FD0001650EE24146E1750EE2014C0DEFFDD6E96
:101FE000DECF14F0DDCF15F00001800E15140EE0E9
:101FF000020EDB6A08680968DECF0DF0DDCF0EF057
:10200000E1EC14F006C0DEFF07C0DDFFDECF14F008
:10201000DDCF15F0153409E214502008030E1554D5
:1020200004E2200EDE6E030EDD6EFE0EDB5015E1C7
:10203000DECFE6FFDDCFE6FF55EC16F0E552E552C8
:10204000020EDB5002E1829001D082808250010BAF
:1020500002E0849216D0848214D0DECFE6FFDDCF7A
:10206000E6FF84EC16F0E552E552020EDB5002E189
:10207000829A01D0828A8250200B02E0849001D0A3
:102080008480030EE15C02E2E16AE552E16EE55212
:10209000E7CFD9FF1200200EE66E030EE66E84EC49
:1020A00016F0E552E552200EE66E030EE66E55EC94
:1020B00016F0E552E552849282908490829A120042
:1020C000D9CFE6FFE1CFD9FFFE0EDBCFE6FF7CECF8
:1020D00017F0E552DFEC17F0DAEC17F00009FCE13D
:1020E000C1EC17F0E552E7CFD9FF1200870EE66E7C
:1020F000E7DFE552F3CF14F0F4CF15F00001F35011
:10210000A35DF450A45902E3000E01D0010E0001BA
:102110008091E8B080818F0EE66ED2DFE552F3CF7A
:1021200014F0F4CF15F00001F350A35DF450A4595E
:1021300002E3000E01D0010E00018093E8B080831D
:10214000970EE66EBDDFE552F3CF14F0F4CF15F035
:102150000001F350A35DF450A45902E3000E01D036
:10216000010E00018095E8B080859F0EE66EA8DF25
:10217000E552F3CF14F0F4CF15F00001F350A35D56
:10218000F450A45902E3000E01D0010E0001809723
:10219000E8B08087A70EE66E93DFE552F3CF14F028
:1021A000F4CF15F00001F350A35DF450A45902E3FD
:1021B000000E01D0010E00018099E8B08089120064
:1021C00000018051010B02E0839001D08380805197
:1021D000020B02E0839201D083828051040B02E063
:1021E000839401D083848051080B02E0839601D050
:1021F00083868051100B02E08398120083881200BE
:10220000D10EE66E1D0EE66E000EE66E95EC14F035
:10221000E552E552E552B90EE66E1D0EE66E000E71
:10222000E66E95EC14F0E552E552E552980EE66E36
:102230001D0EE66E000EE66E95EC14F0E552E552CA
:10224000E552760EE66E1D0EE66E000EE66E95EC1D
:1022500014F0E552E552E552620EE66E1D0EE66E92
:10226000000EE66E95EC14F0E552E552E552530E81
:10227000E66E1D0EE66E000EE66E95EC14F0E5526D
:10228000E552E552430EE66E1D0EE66E000EE66E5A
:1022900095EC14F0E552E552E5521F0EE66E1D0E68
:1022A000E66E000EE66E95EC14F0E552E552E5524E
:1022B000FC0EE66E1C0EE66E000EE66E95EC14F05B
:1022C000E552E552E552E10EE66E1C0EE66E000E9A
:1022D000E66E95EC14F0E552E552E552C70EE66E57
:1022E0001C0EE66E000EE66E95EC14F0E552E5521B
:1022F000E5521200B20EE66E1C0EE66E000EE66EA1
:1023000095EC14F0E552E552E5529E0EE66E1C0E79
:10231000E66E000EE66E95EC14F0E552E552E552DD
:102320008C0EE66E1C0EE66E000EE66E95EC14F05A
:10233000E552E552E552730EE66E1C0EE66E000E97
:10234000E66E95EC14F0E552E552E55212005E0E91
:10235000E66E1C0EE66E000EE66E95EC14F0E5528D
:10236000E552E552490EE66E1C0EE66E000EE66E74
:1023700095EC14F0E552E552E552360EE66E1C0E71
:10238000E66E000EE66E95EC14F0E552E552E5526D
:10239000160EE66E1C0EE66E000EE66E95EC14F060
:1023A000E552E552E552F60EE66E1B0EE66E000EA5
:1023B000E66E95EC14F0E552E552E552E80EE66E55
:1023C0001B0EE66E000EE66E95EC14F0E552E5523B
:1023D000E552D20EE66E1B0EE66E000EE66E95EC32
:1023E00014F0E552E552E5521200B30EE66E1B0EF4
:1023F000E66E000EE66E95EC14F0E552E552E552FD
:10240000960EE66E1B0EE66E000EE66E95EC14F070
:10241000E552E552E552790EE66E1B0EE66E000EB1
:10242000E66E95EC14F0E552E552E5525C0EE66E70
:102430001B0EE66E000EE66E95EC14F0E552E552CA
:10244000E5523F0EE66E1B0EE66E000EE66E95EC54
:1024500014F0E552E552E552210EE66E1B0EE66ED3
:10246000000EE66E95EC14F0E552E552E552D20E00
:10247000E66E1B0EE66E000EE66E95EC14F0E5526D
:06248000E552E5521200D6
:0A248600D9CFE6FFE1CFD9FFFE0E2B
:10249000DB5001E181D0FE0EDB50110A6FE0010A32
:1024A00062E01F0A5BE0010A53E0030A4CE0010A04
:1024B00043E0070A3CE0010A35E0030A2EE0010A86
:1024C00052E00F0A25E0010A1EE0030A17E0010AA4
:1024D00033E0070A0EE0010A07E0030A52E1000EAA
:1024E000E66EE66A060E2CD0000EE66EE66A050E73
:1024F00027D0000EE66EE66A040E22D0000EE66ECD
:10250000E66A060E34D0000EE66EE66A050E2FD09F
:10251000000EE66EE66A040E2AD0000EE66EE66A4B
:10252000E66A0FD0000EE66EE66A010E09D0000ED4
:10253000E66EE66A020E04D0000EE66EE66A030E50
:10254000E66EE66A17D0000EE66EE66AE66A10D01E
:10255000000EE66EE66A010EE66E0BD0000EE66E29
:10256000E66A020E04D0000EE66EE66A030EE66E20
:10257000010EE66ECAEC0FF0E5520BD04BEC10F0FA
:102580000BD02B0EE66E170EE66E000EE66E95EC87
:1025900014F0E552E552E552E552E7CFD9FF1200BB
:1025A000000EE66EE66A030EE66EE66ACAEC0FF00F
:1025B000E552E552E552E552000EE66EE66A030E7C
:1025C000E66E010EE66ECAEC0FF0E552E552E552FA
:1025D000E5521200000EE66EE66A010EE66EE66A4D
:1025E000CAEC0FF0E552E552E552E552000EE66EF8
:1025F000E66A050EE66E010EE66ECAEC0FF0E552D5
:10260000E552E552E5521200000EE66EE66A030E50
:10261000E66EE66ACAEC0FF0E552E552E552E55285
:10262000000EE66EE66A060EE66E010EE66ECAEC77
:102630000FF0E552E552E552E5521200000EE66E4B
:10264000E66A060EE66EE66ACAEC0FF0E552E5525F
:10265000E552E552000EE66EE66A060EE66E010EE3
:10266000E66ECAEC0FF0E552E552E552E552120073
:10267000000EE66EE66A050EE66EE66ACAEC0FF03C
:10268000E552E552E552E552000EE66EE66A010EAD
:10269000E66EE66ECAEC0FF0E552E552E552E55201
:1026A0001200000EE66EE66A060EE66EE66ACAECF8
:1026B0000FF0E552E552E552E552000EE66EE66A8D
:1026C000030EE66E010EE66ECAEC0FF0E552E5521F
:0626D000E552E552120084
:0A26D600D9CFE6FFE1CFD9FFFE0ED9
:1026E000DB50170A3CE0010A2DE0030A1EE0010A54
:1026F0000FE0070A43E1C30EE66E1E0EE66E000E03
:10270000E66E95EC14F0E552E552E552870E33D0B3
:102710009E0EE66E1E0EE66E000EE66E95EC14F052
:10272000E552E552E5528F0E26D07B0EE66E1E0E68
:10273000E66E000EE66E95EC14F0E552E552E552B9
:10274000970E19D0500EE66E1E0EE66E000EE66E67
:1027500095EC14F0E552E552E5529F0E0CD02F0E89
:10276000E66E1E0EE66E000EE66E95EC14F0E55277
:10277000E552E552A70EE66E10D80AD00B0EE66EB3
:102780001E0EE66E000EE66E95EC14F0E552E55274
:10279000E552E552E7CFD9FF1200D9CFE6FFE1CFEE
:1027A000D9FFFE0EDBCFE6FF60EC10F0E552F3CF71
:1027B00014F0F4CF15F0F3CFE6FFF4CFE6FFF80EF8
:1027C000E66E1D0EE66E000EE66E95EC14F0166ECB
:0E27D000050EE15E1650E552E7CFD9FF12006C
:0227DE00D9CF51
:1027E000E6FFE1CFD9FFE652DF6A71EC0FF0280E69
:1027F000E66E170EE66E000EE66E95EC14F0E552EE
:10280000E552E55200EC11F0260EE66E170EE66E6C
:10281000000EE66E95EC14F0E552E552E55276ECCA
:1028200010F02DEC06F0DF6EDF502DE0DFCF14F05E
:10283000120EE76E1418E8AE02D0E73402D0E7506B
:10284000145C05E2DFCFE6FF43EC12F01BD0DFCFD4
:1028500014F0180EE76E1418E8AE02D0E73402D078
:10286000E750145C05E2DFCFE6FF6BEC13F00AD013
:10287000080EE66E170EE66E000EE66E95EC14F08E
:0C288000E552E552E552E0EC10F0C9D73B
:04288C00060EF66ED0
:10289000000EF76E000EF86E00010900F550946FFF
:1028A0000900F550956F03E1946701D03DD0090010
:1028B000F5508F6F0900F550906F0900F550916F3A
:1028C00009000900F550E96E0900F550EA6E0900AB
:1028D00009000900F550926F0900F550936F090047
:1028E0000900F6CF96F0F7CF97F0F8CF98F08FC0A9
:1028F000F6FF90C0F7FF91C0F8FF0001925302E18C
:10290000935307E00900F550EE6E9207F8E2930743
:10291000F9D796C0F6FF97C0F7FF98C0F8FF0001FF
:0A2920009407000E955BBFD712006C
:06292A00D9CFE6FFDACF71
:10293000E6FFE1CFD9FFE2CFDAFFE652E652E652F8
:10294000E652D950FB0F146EFF0EDA20156E14C03C
:10295000DEFFDD6EDECFE6FFDDCFE6FFFB0EDBCF79
:10296000E6FFFC0EDBCFE6FFFD0EDBCFE6FFA5C0EA
:10297000E6FFA6C0E6FF32EC00F0146E070EE15C45
:1029800002E2E16AE552E16E1450020EF3CFDBFF82
:10299000030EF4CFDBFF020EDBCF14F0030EDBCF10
:1029A00015F014C0F3FF15C0F4FF040EE15C02E261
:1029B000E16AE552E16EE552E5CFDAFFE7CFD9FFF4
:0229C000120003
:0E29C20009C013F008C012F008500D02F4CF47
:1029D00007F0F3CF06F009500E02F4CF09F0F3CF61
:1029E00008F00D02F3500726F4500822E86A092285
:1029F00012500E02F3500726F4500822E86A09220A
:102A00000EAE07EF15F01250085E1350095A13AEC0
:102A1000000C0D50085E0E50095A000C08C012F050
:102A200008500D02F4CF07F0F3CF06F009500E0264
:102A3000F4CF09F0F3CF08F00D02F3500726F4505D
:102A40000822E86A092212500E02F3500726F450B9
:082A50000822E86A0922000CCB
:082A5800D9CFE6FFDACFE6FF5B
:102A6000E1CFD9FFE2CFDAFFAC6AAB6AFD0EDBB093
:102A7000AC88DBA202D0AC8CAB8CDBB4AC8EDBA61A
:102A800002D0AB8801D0AB8ADBB8AC849E98DBBAAD
:102A9000AB86DBAC02D09D8A01D09D9A9E9ADBAEBC
:102AA00002D09D8801D09D98FB0EDB50AF6EFB0ECF
:102AB000FC0EDBCF15F015C014F0156A1450B06E83
:102AC000AC8AAB8E949C948EAC50100B04E0AC504E
:102AD000800B01E1948CE552E5CFDAFFE7CFD9FF17
:022AE0001200E2
:0E2AE200D9CFE6FFDACFE6FFE1CFD9FFE2CF92
:102AF000DAFFFB0EDBCF14F0FC0EDBCF15F000018C
:102B0000800E15141AE1FB0EDBCFE9FFFC0EDBCFC4
:102B1000EAFFEECFF3FFEDCFF4FFEE2A000EEF2237
:102B2000F3CFE9FFF4CFEAFFFD0EDBCFEFFFEF506D
:102B3000156AF36E15C0F4FF10D0FB0EDB50FE08D3
:102B400006E1FD0EDBCFE6FFB3EC17F005D0FD0E7E
:102B5000DBCFE6FFE1EC17F0E552E552E5CFDAFF17
:062B6000E7CFD9FF1200CF
:0A2B660006500B02F3CF02F0F4CF8B
:102B700003F00C02F3500326000EF420046E0650FE
:102B80000D02F3500426000EF420056E06500E02CE
:102B9000F350052607500B02F3500326F45004228D
:102BA000000E052207500C02F3500426F4500522B3
:102BB00007500D02F350052608500B02F35004266F
:102BC000F450052208500C02F350052609500B0260
:062BD000F350052612007F
:0A2BD600D9CFE6FFDACFE6FFE1CF2A
:102BE000D9FFE2CFDAFFC26AC06AFC0EDB407F0B7E
:102BF0003C0BC26EFB0EDBCFE6FFFC0EDB38F00BAE
:102C0000300BE552E710C16EFD0EDB50040DF350A2
:102C1000380B156EFD0EDB380F0B070B146EFD0E17
:102C2000DB50800B14101510C06EFC0EDBAE03D011
:102C30009E9C9D8CF28CC280E552E5CFDAFFE7CFF7
:042C4000D9FF1200A6
:0C2C4400FE0EE3CFE9FFFF0EE3CFEAFF36
:102C5000F36AF46AEE5203E0F34AF42AFBD7120057
:102C6000FF0EE3CFF8FFE552FF0EE3CFF7FFE5528B
:102C7000FF0EE3CFF6FFE552E66AE66AE66A090070
:102C8000F55209E0FD0EE32A05E1FE0EE32A02E11A
:102C9000FF0EE32AF4D7FD0EE3CF07F0FE0EE3CFDD
:0A2CA00008F0FF0EE3CF09F0120068
:062CAA00D9CFE6FFDACFEE
:102CB000E6FFE1CFD9FFE2CFDAFFE652E652FC0EA3
:102CC000DBCF14F0FD0EDBCF15F0060ED8901436D6
:102CD0001536E804FBE114C0DEFF15C0DDFF010E70
:102CE000DB50BB6EDF50E840E8403F0B300B146E0A
:102CF000CF0EBA141410BA6EE552E552E552E5CF84
:082D0000DAFFE7CFD9FF120052
:082D0800D9CFE6FFDACFE6FFA8
:102D1000E1CFD9FFE2CFDAFFE652E652FC0EDBCF7D
:102D200014F0FD0EDBCF15F0060ED89014361536D4
:102D3000E804FBE114C0DEFF15C0DDFF010EDB502F
:102D4000BE6EDF50E840E8403F0B300B146ECF0EF4
:102D5000BD141410BD6EE552E552E552E5CFDAFF21
:062D6000E7CFD9FF1200CD
:0A2D6600D9CFE6FFDACFE6FFE1CF98
:102D7000D9FFE2CFDAFFE652E6520C0EBA6E050E2C
:102D8000F66EF76A300EF86E0800F550010B03E09E
:102D9000010EDB6802D0010EDB6ADB5002E0949288
:102DA00001D09396CA94FD0EDB50CB6ECA84E552D7
:0E2DB000E552E552E5CFDAFFE7CFD9FF12007A
:022DBE00D9CF6B
:102DC000E6FFE1CFD9FF020EE126D38CD38AD38868
:102DD0009B8CDE6ADD6ADECF14F0DDCF15F0D89073
:102DE000155004E6F40E145C010E155805E2DF2AB6
:102DF000010EF1E3DB2AEFD7020EE15C02E2E16AA9
:0C2E0000E552E16EE552E7CFD9FF120069
:042E0C00056A046AE5
:102E1000036A026A200EE76ED89006360736083637
:102E2000093602360336043605360B50025C0C5068
:102E300003580D5004580E50055809E30B50025E1C
:102E40000C50035A0D50045A0E50055A062AE72E0C
:042E5000E4D71200B1
:0C2E5400D9CFE6FFDACFE6FFE1CFD9FFCF
:102E6000E2CFDAFFE652F20E0001A717ABAC03D0B7
:102E7000A791ABB0A781ABB4A785ABB2A787AE5083
:102E8000DF6EDF50E552E552E5CFDAFFE7CFD9FF3D
:022E900012002E
:0E2E9200D9CFE6FFDACFE6FFE1CFD9FFE2CFDE
:102EA000DAFFFD0EDB50FB0BCA6ECC6A9E92FD0E64
:102EB000DBAE02D09D8201D09D92CA84E552E5CF5F
:082EC000DAFFE7CFD9FF120091
:082EC800D9CFE6FFDACFE6FFE7
:102ED000E1CFD9FFE2CFDAFF0C0EBD129494CA9471
:102EE000FD0EDB50CB6ECA84E552E5CFDAFFE7CFAB
:082EF000D9FF120094941200B6
:082EF800D9CFE6FFDACFE6FFB7
:102F0000E1CFD9FFE2CFDAFFC30EC214146EFD0E7B
:102F1000DB407F0B3C0B1410C26EE552E5CFDAFFAD
:062F2000E7CFD9FF12000B
:0A2F2600F36AF46AFF0EE124E96E7D
:102F3000FF0EE220EA6EED6607D02F0EEF6404D09C
:0A2F40003A0EEF6001D0F32A1200F0
:062F4A001EEE00F02EEE69
:102F500000F0F86A019C46EC14F0E2EC17F0EFEC9C
:062F600013F0FBD7120084
:0A2F6600FF0EE350ACBA04D0AF6ACE
:102F7000AB8EAC8A949CACA2FED7AD6EF36EF46AB5
:022F800012003D
:0E2F8200C450176E166AC3501610F36E17C0B7
:042F9000F4FF120038
:0C2F940030313233343536373839616261
:052FA00063646566009A
:0A2FA60000EE00F00F0EEE6AEA6282
:042FB000FDD7120037
:0A2FB400C250020B01E0010E1200F2
:022FBE00C282CD
:022FC0001200FD
:022FC2001200FB
:022FC4001200F9
:0A2FC60000E0FCA8FD70FE00009082
:052FD00001580220037E
:022FD500FEFFFD
:062FD700000303BA0C0028
:032FDD00000000F1
:012FE00000F0
:020000040030CA
:0100010008F6
:010003001EDE
:0100050003F7
:010006008178
:00000001FF
