:100000000C9435000C9452000C9452000C94520045
:100010000C9452000C9452000C9452000C94520018
:100020000C9452000C94730A0C9452000C945200DD
:100030000C9452000C9476060C9452000C945200CE
:100040000C9452000C9452000C9491090C944E0A9A
:100050000C9452000C9452000C9452000C945200D8
:100060000C9452000C945200630B11241FBECFEF6E
:10007000D8E0DEBFCDBF11E0A0E0B1E0EAE4F5E2F8
:1000800002C005900D92AA34B107D9F722E0AAE484
:10009000B1E001C01D92A939B207E1F70E944C02FC
:1000A0000C9498120C9400008091BE019091BF01B5
:1000B000892B09F454C08091BC01882321F08091E0
:1000C000BA01811105C060E070E080E090E045C0B9
:1000D00061E08BE892E00E94290B9C01205D374093
:1000E0008091B8019091B901F901E81BF90B3093A7
:1000F000B9012093B8014091BD01429FC001439FC7
:10010000900D11246091BC0170E00E94C3109B010E
:100110004091BB014E9FC0014F9F900D11246091F3
:10012000BA0170E00E94C3108091140190E0620F48
:10013000731F861797070CF4BC0122273327281B4F
:10014000390B261737070CF49B01BC0137FF03C09E
:10015000820F931F02C0621B730B0C940909089550
:100160000E940C099091B70189130BC00E94EE0602
:100170000E940C099091B7018913F2CF0E9454009C
:10018000EFCFE92FF0E0ED53FE4F80819F5F943673
:1001900018F49093B70108951092B701089566E09E
:1001A00082E391E00E944B0A60E070E080E090E022
:1001B0000E9409091092BF011092BE010895882380
:1001C00061F08091BE019091BF01892B59F461E0EB
:1001D0008BE892E00E94220B05C061E08BE892E080
:1001E0000E94100B6AE08BE892E00C944B0A80E0CE
:1001F0000C94DF0081E00C94DF00CF93DF93CDB748
:10020000DEB72C970FB6F894DEBF0FBECDBF80913E
:10021000BE019091BF01892B39F08091B801909176
:10022000B9018053984F05C061E0CE0101960E944C
:10023000290B9C878B8762E0CE010B960E944B0AAC
:100240002C960FB6F894DEBF0FBECDBFDF91CF91D5
:100250000895CF93DF9300D0CDB7DEB70E94660339
:100260009A83898362E0CE0101960E944B0A0F9027
:100270000F90DF91CF910895CF93DF9300D0CDB74A
:10028000DEB70E94BC039A83898362E0CE010196A7
:100290000E944B0A0F900F90DF91CF9108950E941A
:1002A000B0008F3721F090E0880F991F02C08FEFC8
:1002B00090E00C94D7080E94B0008F3721F090E0B6
:1002C000880F991F02C08FEF90E00C94FB080E94EA
:1002D000B0008F3739F090E0919581959109880FA2
:1002E000991F02C081E09FEF0C94D7080E94B000D4
:1002F0008F3739F090E0919581959109880F991F7A
:1003000002C081E09FEF0C94FB080F931F93CF93E3
:10031000DF930E94B000D82F07E212E0C0E0CD17B3
:1003200039F00E94B000F80181938F01CF5FF7CFC1
:10033000EC2FF0E0E95DFD4F108287E292E0DF9163
:10034000CF911F910F910C94D406CF93DF930E940D
:10035000B000D82FC0E0CD1731F00E94B0000E944D
:100360009407CF5FF8CFDF91CF910895CF930E948C
:10037000B000C82F0E94B000682F8C2FCF910C9432
:100380004D080E940D0B64EC7FEF8CE390E00E941F
:1003900009090E94F30A6A3F71058105910520F45D
:1003A00081E00E94170BF5CF6CE370E084EC9FEFC7
:1003B0000E9409090E94F30A6E3E72408105910570
:1003C00020F481E00E94170BF5CF64EC7FEF8CE303
:1003D00090E00E9409090E94F30A683E734081057B
:1003E000910520F481E00E94170BF5CF60E070E0EA
:1003F00080E090E00E94090961E088E491E00C94BB
:100400004B0AEF92FF920F931F93CF93DF9300D08D
:1004100000D01F92CDB7DEB78E010F5F1F4F7E0158
:1004200086E0E80EF11C0E94B000F80181938F0174
:10043000EE15FF05C1F789818F3711F0880F01C0D4
:100440008FEF809314018A818093BD018B8180930B
:10045000BC018C818093BB018D818093BA0181E0C6
:1004600090E09093BF018093BE010F900F900F908A
:100470000F900F90DF91CF911F910F91FF90EF9010
:10048000089560E070E080E090E00E940909109219
:10049000BF011092BE01089580ED97E00E945F0BAE
:1004A00081E00E94F8060E94040860E072EC81E09E
:1004B00090E00E94E50964E683EC91E00E948E09D9
:1004C0000E94B000C82F863B09F455C008F5803B58
:1004D00009F443C060F48138D1F118F4882381F322
:1004E00062C08638B9F1873809F440C05CC0833BEC
:1004F000B9F130F4813B09F056C00E943C01E0CFD5
:10050000843B89F1853B09F04EC00E941D0BD8CF7A
:100510008B3BE9F158F4883BA1F180F1893BA1F1D3
:100520008A3B09F040C00E94C101CACF823CA9F1B8
:1005300038F48C3B79F1813CB1F50E944F01C0CF7A
:10054000853C71F1863C79F50E947601B9CF0E9415
:10055000CF00B6CF0E94F700B3CF0E942901B0CFE1
:100560000E948501ADCF81E00E94170B81E090E0F1
:100570000E94FA00A5CF0E94FD00A2CF0E940408AD
:100580009FCF0E94A5019CCF0E94B60199CF0E94E7
:10059000010296CF0E94410293CF0E94670190CF43
:1005A0000E945B018DCF0E94040889E391E00E94C4
:1005B000130861E080E00E944D088C2F0E942A08F9
:1005C00081E491E00E94D4067BCFECE7F0E08081EB
:1005D0008F7D80830895811103C00E94E5020895F4
:1005E00080917C00806280937C00089580917C00E3
:1005F00085FB882780F908950E94F602882321F060
:100600008091790090E00895809178009091790030
:1006100008958032A0F497E890937A0090917C003E
:10062000662311F0906C02C09F779064907E982BA7
:1006300090937C0080917A00806480937A00089582
:10064000A0E0B0E0E6E2F3E00C944411EB0160E0DE
:100650000E94090380917A0086FDFCCF8E01C12C97
:10066000D12C760180917A00806480937A00809109
:100670007A0086FDFCCF0E94FC02C80ED91EE11C48
:10068000F11C015011090115110561F7CE01969574
:100690008795C034D10538F48C0D9D1DBE010E9494
:1006A000AF10CB010EC0A7019601280F391F411DC5
:1006B000511DCA01B9019E0140E050E00E94D710CF
:1006C000C901CDB7DEB7E8E00C94601164E170E0D9
:1006D00087E00E9420030895CF92DF92EF92FF926D
:1006E000A0910001B09101019C010E9418116B01C1
:1006F0007C010E94F602882359F0C701B6016158B7
:100700007F4F8F4F9F4F2FEF30E040E050E00AC007
:10071000C701B60161507E4F8F4F9F4F2FEF33E0DF
:1007200040E050E00E94D710C901FF90EF90DF90A9
:10073000CF9008950E9420030E946C0308951F9398
:10074000CF93DF930E94F602182F0E94E5026AE021
:1007500070E086E00E949A03EC01812F0E94EB0278
:10076000CE01880F991F8C0F9D1F01969695879536
:10077000DF91CF911F9108950E949F03089590915A
:100780004F01E0914A01F0914B01992311F08491BE
:1007900001C080812FEB280F2A3110F4805E08956C
:1007A000803249F49F012F5F3F4F30934B012093DC
:1007B0004A01EF2B31F708951F93CF93DF930E94E7
:1007C000BF03C0E0D0E01AE090ED980F9A30B8F483
:1007D0009E01129FE001139FD00D1124C80FD11D5F
:1007E00087FDDA95E09780914A0190914B0101963F
:1007F00090934B0180934A010E94BF03E5CFCE0145
:10080000DF91CF911F91089510926F0083E2809342
:10081000800081E1809381001092820080E197E264
:10082000909389008093880010928B0010928A0028
:10083000229A789408958F929F92AF92BF92DF92FE
:10084000EF92FF920F931F93CF93DF935C018B0185
:10085000D42E80914C01811105C081E080934C0120
:100860000E94040410920B01B7FE05C0E894B7F88B
:100870002AE0F22E02C0FF24F394E09081002E2D96
:10088000287FE22E48ECF49EC00111248A159B05B6
:10089000E0F4E50151E1A51657E2B50610F0C0E11C
:1008A000D7E2BE017695679580E090E06058794682
:1008B00087469F4F4E01A12CB12CA50194010E94A7
:1008C000D71059018E2D816024C0C8E2FC9EC02D36
:1008D0001124D0E0CA15DB0508F4E501BE017695C8
:1008E00067959E0140E050E08AE0F81207C080E082
:1008F00090E0605E734481449F4F06C080E090E0CA
:1009000060537D4E8C4E9F4F0E94D71059018E2D03
:100910008260882E2AE0F21207C0CE0105966AE0B6
:1009200070E00E94AF10EB01C83E43E0D40759F0DD
:100930009801DE010E94181128EE33E040E050E0FB
:100940000E94F910890110926F0080928100B0928C
:100950008900A092880020918800309189004D2D57
:10096000403108F04FE080E190E0841B9109A9013B
:1009700002C0569547958A95E2F750938B004093B5
:100980008A00109352010093510186B38FEF86BB0A
:1009900081E080936F00DF91CF911F910F91FF90C5
:1009A000EF90DF90BF90AF909F908F900895CF937E
:1009B000DF93EB018F3F11F0411105C040E0BE0114
:1009C00088EE93E043C0813130F050EF580F50363D
:1009D00018F05FE501C050E0852F6CE00E94A31085
:1009E000682F74EF760390011124250F311D2C30F0
:1009F000310540F4F901EE0FFF1FEB5EFE4F208141
:100A0000318102C020E030E0873081F0082E02C042
:100A1000220F331F0A94E2F7823028F0C9010596AD
:100A20006AE070E00CC0C90190580CC0C90136E002
:100A3000880F991F3A95E1F7029665E070E00E94F1
:100A4000AF10CB01403108F04FE0BE010E941B0403
:100A5000DF91CF910895A2E0B0E0E1E3F5E00C94DE
:100A60003C1190900A0180914E01882321F0609101
:100A70004D01611117C077247394B0ECAB2EBDE526
:100A8000BB2E1AE0612E04E0802E80EDC82E87E098
:100A9000D82E94E0E92EF12C04EF11E02FE0422E45
:100AA000512C15C070E040E088EE93E00E941B04DA
:100AB00010924D0117C18636D4F5813609F4A9C0CC
:100AC0007CF58C3309F460C08E3381F493940E94DA
:100AD000BF0320914A0130914B012F5F3F4F30936C
:100AE0004B0120934A01853631F752C0813209F01B
:100AF0008BC080920A01D0920901C0920801F09245
:100B00000701E09206011093050100930401509241
:100B100003014092020110924E01A4E09A2ED7CF19
:100B20008336A1F10CF478C010E082E077C08D36F6
:100B3000C1F194F4873691F174F18C3609F064C0F8
:100B40000E94DC03BC019093070180930601809111
:100B500008019091090151C08237C9F14CF48F36D8
:100B600009F052C00E94DC03982E80930A01AFCF97
:100B7000843781F1863709F047C00E94DC039093E7
:100B8000030180930201A3CF9A94A1CF10E020C06B
:100B900010E084E043C010E085E040C010E087E052
:100BA0003DC00E94BF038C3619F410924E0104C060
:100BB00070924E0110924D0120914A0130914B01EB
:100BC0002F5F3F4F30934B0120934A0180CF11E0BC
:100BD00080E024C00E94DC03BC01C5010E94AF106C
:100BE000669EC001679E900D112490930901809329
:100BF000080160910601709107010E94AF10709387
:100C000005016093040163CF10924B0110924A01D9
:100C100069C010E089E002C010E08BE0082F9CE082
:100C2000999E000D11240E94BF03982F977F933245
:100C300061F420914A0130914B012F5F3F4F309377
:100C40004B0120934A010F5FEECF8D3271F420915A
:100C50004A0130914B012F5F3F4F30934B0120935E
:100C60004A0101500E94BF03F0CF609104017091CE
:100C700005018153883050F4E0900801F09009019B
:100C80000E94DC03BC01C7010E94AF107B01F694F7
:100C9000E79469837A830E94BF0369817A818E32E7
:100CA00069F420914A0130914B012F5F3F4F3093FF
:100CB0004B0120934A016E0D7F1DE9CF80914E01BB
:100CC000882339F09B013695279520934D01621BAF
:100CD000710940910201112311F08FEF01C0802FA3
:100CE0000E94D7042296E0E10C9458111F920F92B3
:100CF0000FB60F9211242F933F934F935F936F93EF
:100D00007F938F939F93AF93BF93EF93FF938091C4
:100D10005101909152019C012150310930935201AF
:100D200020935101892B11F510926F0078948091D6
:100D30008100887F81608093810080E197E29093B9
:100D400089008093880010928B0010928A0081E0C5
:100D500080930B0180914A0190914B01892B31F0D6
:100D600080915001811102C00E942B05FF91EF91EB
:100D7000BF91AF919F918F917F916F915F914F91B3
:100D80003F912F910F900FBE0F901F9018951092CA
:100D90006F0090934B0180934A0110924F01109283
:100DA0004D010E942B0508950E94C7060895809169
:100DB0000B01882331F080914A0190914B01892BDE
:100DC00049F481E020914A0130914B01232B29F411
:100DD00080E008950E942B05F4CF08950E94D70665
:100DE000089580935001811102C00E94D706089592
:100DF0000E94F106089581E090E06F9364E06A95A7
:100E0000F1F76F910197C9F708950F931F93CF934F
:100E1000DF931AB157985A98289AC0E0D0E00E9400
:100E2000FB065C9A0E94FB0609B15C980E94FB06D7
:100E30005C9A0E94FB065C98249607FF10C0AE01E6
:100E400060E070E08091530190915401A0915501B0
:100E5000B0915601481759076A077B0700F31AB982
:100E6000DF91CF911F910F91089595B1282F217097
:100E700030E0220F331F482F467068E0469FA001E4
:100E80001124242B9D7C292B25B99BB18870829538
:100E9000807F9F77892B8BB95C9A0E94FB065C98B8
:100EA0000E94FB060895A0E0B0E0E9E5F7E00C94AD
:100EB0004511C82FD62EE42E8091C001811105C0A6
:100EC00081E08093C0010E949C070E94050714B135
:100ED000D5B1FAB00BB12898DD2011F05A9A01C0B3
:100EE0005A9894B1926394B9579A81E0E81629F020
:100EF0008C2F82958F700E9435078C2F8F700E94E7
:100F00003507FAB80BB914B9D5B9CDB7DEB7E7E0F4
:100F10000C94611142E060E00E945307089542E0A2
:100F200061E00E94530708950E948F07089541E0F1
:100F300060E00E945307089580E197E2A0E0B0E0EE
:100F40008093530190935401A0935501B09356019F
:100F5000529A209A549A8EE190E00E94BB0A83E054
:100F60000E94970786E090E00E94BB0A83E00E94FF
:100F7000970782E090E00E94BB0A83E00E949707F7
:100F800082E090E00E94BB0A82E00E94970782E024
:100F900090E00E94BB0A88E20E948A0788E00E94D3
:100FA0008A0781E00E948A0786E00E948A078CE017
:100FB0000E948A07089581E00E948A078091590162
:100FC00090915A01892BF9F060E0A0E2262F30E0E1
:100FD00070910C0180910D0190E00197789FA00124
:100FE000799F500D1124241735074CF4E0915901D5
:100FF000F0915A01E20FF31FA0836F5FE7CF1092C9
:1010000057011092580108950E94DB070895CF936D
:10101000DF93EC018991882319F00E948F07FACFA2
:10102000DF91CF9108950E94070808958A3010F447
:10103000805D01C0895C0E948F070895CF93C82FFF
:1010400082958F700E9416088C2F8F700E94160850
:10105000CF9108950E941E080895A5E0B0E0E3E353
:10106000F8E00C944911182F80E8898380EC8A837A
:1010700084E98B8384ED8C83FE01E60FF11D818171
:10108000810F6D830E948A07109357016D816093D1
:1010900058012596E3E00C9465110E942D080895EF
:1010A000883058F491E001C0990F8A95EAF7892FAA
:1010B000AAE2B0E0EBE2F0E021C08E3060F498EFFD
:1010C000980F81E001C0880F9A95EAF7A4E2B0E09A
:1010D000E5E2F0E013C0853160F492EF980F81E013
:1010E00001C0880F9A95EAF7A7E2B0E0E8E2F0E0E5
:1010F00005C080E0A0E0B0E0E0E0F0E06F3F19F470
:101100009081982709C0662319F09081982B04C01C
:101110002081982F9095922390839C91982B9C935B
:10112000089583EF8093B00084BD82E08093B10086
:1011300085BD1092B4001092B30018BC17BC60E0DB
:1011400086E00E94500860E085E00E94500860E060
:101150008BE00E94500860E083E00E9450080895F0
:101160008091C101811105C081E08093C1010E947D
:1011700091080895CF93DF93EC010E94B008D7FF48
:1011800005C0D195C195D10981E001C080E0CF3F74
:10119000D10519F014F0CFEFD0E0882319F018BC76
:1011A000C7BD02C0C8BD17BCDF91CF9108950E9492
:1011B000BA080895CF93DF93EC010E94B008D7FFDF
:1011C00005C0D195C195D10981E001C080E0CF3F34
:1011D000D10519F014F0CFEFD0E0882329F0109258
:1011E000B400C093B30004C0C093B4001092B30025
:1011F000DF91CF9108950E94DA080895CF93DF938D
:10120000EB010E94BA08CE010E94DA08DF91CF916B
:1012100008950E94FE08089580915D010895282F89
:1012200030E09AE0899FF0011124E55AFE4F808555
:101230009185009721F052814481541780F08AE013
:10124000829FF001839FF00D1124E55AFE4F928199
:10125000848198130EC0858181110AC0089542814E
:10126000DC01A40FB11D6C9382818F5F8283E7CF75
:1012700012820895CF93DF939091C1009F7790934E
:10128000C100C82FD0E09AE0899FF0011124E55AEF
:10129000FE4F20853185232B41F02281948129172F
:1012A00020F49091C00097FD11C08AE08C9FF0015E
:1012B0008D9FF00D1124E55AFE4F808181110BC0E6
:1012C0008091C10080688093C10005C06091C60014
:1012D0000E940F09EACFDF91CF9108959091C1004C
:1012E0009F779093C1009AE0899FF0011124E55AFD
:1012F000FE4F71876087128244832583808181112C
:1013000005C08091C10080688093C1000895462F78
:1013100021E0BC0180E00E946E0908950E948709C7
:1013200008951F920F920FB60F9211242F933F939F
:101330004F935F936F937F938F939F93AF93BF93DD
:10134000EF93FF936091C60080E00E940F09FF9128
:10135000EF91BF91AF919F918F917F916F915F912D
:101360004F913F912F910F900FBE0F901F901895A6
:101370009AE0899FF0011124E55AFE4F86819781FA
:10138000892B59F091818381981738F480818111DC
:1013900004C08091C100806203C08091C1008F7D34
:1013A0008093C10008959AE0899FF0011124E55AC5
:1013B000FE4F9081911102C098E901C098E190938D
:1013C000C1000E94B80978940895CF92DF92EF92FD
:1013D000FF926B017C0180E00E94D309A8EFBFEF70
:1013E000A70196010E943511735D8E4C9E4FE4E07B
:1013F000220F331F441F551FEA95D1F70E94D710C3
:101400003093C5002093C400FF90EF90DF90CF9001
:1014100008959AE0899FF0011124E55AFE4F268134
:1014200037812115310541F041819381491720F41D
:101430009091C00095FD03C00E94B8090895918164
:10144000D901A90FB11D9C919093C60091819F5F16
:101450009183F2CFE1ECF0E080818F7D808380E0AA
:101460000E94090A80E00E943A090895909362015F
:101470008093610110925C0160935E0180E00E94A4
:10148000B80990915C0180915E01981719F00E9453
:101490002A0AF7CF08950E94360A08951F920F92E4
:1014A0000FB60F9211242F933F934F935F936F9337
:1014B0007F938F939F93AF93BF93EF93FF9380E0BE
:1014C0000E94090AFF91EF91BF91AF919F918F9177
:1014D0007F916F915F914F913F912F910F900FBE30
:1014E0000F901F9018952F928F939F932FB68091F6
:1014F0006C0190916D01019680936C0190936D0148
:1015000090E080916E01891F80936E019091660139
:101510009C5F909366018091650180519742C0F075
:1015200090936601809365018091670190916801B5
:101530000196809367019093680190E08091690122
:10154000891F8093690180916A01891F80936A01D4
:101550002FBE9F918F912F90189528EE33E0019721
:1015600048F0F9016F9364E06A95F1F76F91319754
:10157000C9F7F5CF08950E94AD0A0895E0E7F0E0BD
:1015800080818E7F8083A0EBB0E08C9183608C9310
:10159000A1EBB0E08C91807F8C938C9182608C93D6
:1015A000B89A808181608083789408958091C20187
:1015B000811105C081E08093C2010E94BE0A089596
:1015C0000E94D60AE0E7F0E080818E7F8083609100
:1015D0006701709168018091690190916A01208191
:1015E0002160208308950E94E00A08950E94D60A8F
:1015F000E0E7F0E080818E7F808310926701109297
:1016000068011092690110926A01109266011092AD
:10161000650180818160808308950E94F60A0895A3
:10162000462FBC018FE691E00E94E10D0895682FDE
:101630008FE691E00E943F0F08958FE691E00E94AF
:10164000030C0895462FBC018FE691E00E94630FC2
:101650000895462F20E0BC018FE691E00E94101013
:1016600008950F93CF93DF9300D000D01F92CDB792
:10167000DEB79C0185E0EDE2F1E0DE01119601901C
:101680000D928A95E1F7662311F00FEF01C003E197
:1016900045E0BE016F5F7F4F8FE691E00E94370CFF
:1016A0008FE691E00E94DA0B0E94F60A0F900F90ED
:1016B0000F900F900F90DF91CF910F91089560E000
:1016C0000E94310B08958FE691E00E9485100895E5
:1016D0006F9364E06A95F1F76F910197C9F70895E8
:1016E000FC011182108213821282158214821682EA
:1016F000683068F489E290E0918380838BE290E027
:10170000938382838AE290E0958384831FC06E3046
:1017100070F483E290E09183808385E290E093838C
:10172000828384E290E09583848368500FC06531A2
:1017300098F486E290E09183808388E290E093833E
:10174000828387E290E0958384836E5081E001C0BC
:10175000880F6A95EAF786830895A7E0B0E0E3EB87
:10176000FBE00C9448118C01FC0111821082138261
:1017700012821582148217821682613118F080E17C
:10178000808702C0FC016087F801208B642FCE01A6
:1017900001960E94700B8F81F80181878B819C815B
:1017A000938782878D819E81958784872796E4E041
:1017B0000C946411FC01A485B585109779F08C9187
:1017C0009185892B8C93A285B3859C918185809589
:1017D00089238C9388EC90E00E94680B0895FC01AB
:1017E000A485B585109771F08C919185892B8C9388
:1017F000A285B3858C919185892B8C9388EC90E0A0
:101800000E94680B0895FC0120E08085281770F580
:10181000A081B181109741F086859785A20FB11DF7
:10182000A20FB11D8D939C93A481B581109741F0B7
:1018300086859785A20FB11DA20FB11D8D939C9334
:10184000A281B381109731F0A20FB11DA20FB11D7B
:101850001D921C92A681B781109731F0A20FB11D85
:10186000A20FB11D1D921C922F5FCFCF0895A7E04C
:10187000B0E0EDE3FCE00C943D117C014B01642FE2
:101880003901402F20E00E94AD0B87010F5B1F4FF5
:10189000F80110826701F2E4CF0ED11CF60110822C
:1018A0005701F3E4AF0EB11CF5011082F701778602
:1018B0006686512CF7018085581650F5652C712CE1
:1018C000F401E60DF71D6081CE0101960E94700BB8
:1018D0002F81F701E60DF71D218B89819A81F30194
:1018E000EE0FFF1FEE0DFF1D92A381A38332910522
:1018F00011F4F80108C08632910511F4F60103C015
:10190000899721F4F5018081822B80835394D2CF73
:101910002796EFE00C945911A0E0B0E0E2E9FCE07A
:101920000C943F11EC015B016C0181E4C80ED11CE9
:10193000F60180807E01F2E4EF0EF11CF701708069
:101940008E010D5B1F4FF801908080E0988589170C
:1019500048F4F501E80FF11DE80FF11D1182108226
:101960008F5FF4CF84B1F6019081892B84B987B160
:10197000F7019081892B87B98AB1F8019081892B71
:101980008AB985B1F6019081892B85B988B1F701B3
:101990009081892B88B98BB1F8019081892B8BB903
:1019A0008AE090E00E94680B94B1F60180818095F6
:1019B000892384B997B1F70180818095892387B9FC
:1019C0009AB1F8018081809589238AB995B1F60191
:1019D00080818095892385B998B1F70180818095B0
:1019E000892388B99BB1F8018081809589238BB9BF
:1019F000E090B000D090B1008091B00083608093FF
:101A0000B00082E08093B1004091B20080E090E0AD
:101A10002E853F858217930720F5C090B2002C2DAC
:101A2000241B820F911D03B1081132C0F6B0F710CC
:101A30002FC029B129112CC010C0212F30E0A901DD
:101A4000440F551FF501E40FF51F60817181672B6D
:101A500021F11F5F2885121780F37F2C802E4C2DDB
:101A6000D7CFE092B000D092B10020E0888528174F
:101A700030F5F501E20FF11DE20FF11D808191813A
:101A8000892B21F48E859F85918380832F5FEECFF4
:101A900003B1F6B099B010E0DDCFDE01A40FB51FA1
:101AA00091960D90BC91A02D4C91DE01A20FB31F19
:101AB00051962C91422369F691838083CACFCDB78A
:101AC000DEB7EDE00C945B11EF92FF920F931F9342
:101AD000CF93DF93FC019B01F0907C0000917A0092
:101AE00047B118B180917A0086FDFCCF80E09085E7
:101AF000891748F4D901A80FB11DA80FB11D1D9277
:101B00001C928F5FF4CF97B182A18095892387B90A
:101B100098B182A18095892388B987E880937A005B
:101B2000E12C81A1E81610F0E12C29C050E080855D
:101B3000581718F5A52FB0E0EF01CA0FDB1F8989F0
:101B4000806480937C0080917A00806480937A0026
:101B500080917A0086FDFCCF6091780070917900C9
:101B6000AA0FBB1FA20FB31F8D919C911197860FD7
:101B7000971F8D939C935F5FDACFE394D2CF8085DC
:101B8000E816A0F4E901CE0DD11DCE0DD11D61A145
:101B900070E0CB0195958795A881B9818A0F9B1F2D
:101BA0000E94AF1079836883E394E9CFF0927C00C0
:101BB00000937A0018B947B9CDB7DEB7E6E00C94C8
:101BC0006211A0E2B0E0E7EEFDE00C9445118C015B
:101BD0007B01D42E8FEF840F823018F4C8010E944D
:101BE000EF0BD80150968C91B701811110C0C8013C
:101BF0000E948C0CC8010E94DA0BB2E0DB123AC0E2
:101C0000BE016F5F7F4FC8010E948C0C0FC0C801DE
:101C10000E94640DC8010E94DA0BE2E0DE122AC0C5
:101C2000BE016F5F7F4FC8010E94640D40E0F80164
:101C300080854817F8F4842F90E0880F991FF701EA
:101C4000E80FF91F21E030E02C0F3D1F820F931F9A
:101C5000D8011E962D913C911F97DC018D919C918E
:101C6000281B390B80819181820F931F9183808380
:101C70004F5FDDCFA096E7E00C9461112F923F9269
:101C80005F926F927F928F929F92AF92BF92CF920C
:101C9000DF92EF92FF920F931F93CF93DF93CDB715
:101CA000DEB7C056D1090FB6F894DEBF0FBECDBF68
:101CB0008C014B015A01522EDA018D919C91892B96
:101CC00031F0F40180819181892BF1F424C0D80195
:101CD00018968C9190E0880F991F0E947711F5015A
:101CE00091838083009709F4B1C0FC0120E030E0CB
:101CF000D80118968C9190E02817390714F71192A3
:101D000011922F5F3F4FF4CFE12CF12C6E01B1E225
:101D1000CB0ED11C21C0F801808590E0880F991F5F
:101D20000E947711D4018D939C93009709F48EC083
:101D3000FC0120E030E0D80118968C9190E0281743
:101D4000390714F7D8011E968D919C911F978193A6
:101D500091932F5F3F4FEFCF452DBE016F5B7F4FBC
:101D6000C8010E94E10DF8016084712CFE01EF5B57
:101D7000FF4FC6019E012F5F3F4F190120E030E069
:101D8000261537054CF5E114F10489F0DC016D915D
:101D90007C91408151816417750748F0D1016D91A4
:101DA0007C91408151814617570748F00DC0408112
:101DB0005181DC014D935C93E114F10479F740818A
:101DC0005181D1014D935C932F5F3F4FB2E02B0EB9
:101DD000311C32960296D4CFEFEFEE1AFE0AFAE0EB
:101DE000EF16F10409F0B8CF9E012F5F3F4F790144
:101DF000360180E090E0F801208530E082179307FB
:101E00002CF5D7012D913D917D01B3016C197D0910
:101E1000D501ED91FC91E60FF71F408151814217EA
:101E2000530710F431832083F301219131913F0155
:101E3000D401ED91FC91E60FF71F408151812417E9
:101E4000350710F4318320830196D5CFC05ADF4F78
:101E50000FB6F894DEBF0FBECDBFDF91CF911F91BB
:101E60000F91FF90EF90DF90CF90BF90AF909F9039
:101E70008F907F906F905F903F902F9008951F9369
:101E8000CF93DF93EC01162F8FEF860F823018F07F
:101E9000662359F014C021E0AE014E5F5F4FBE01D2
:101EA000CE010E943E0E123051F4AE014A5F5F4FE8
:101EB000BE016C5F7F4F20E0CE010E943E0EDF919D
:101EC000CF911F910895A0E0B0E0E9E6FFE00C9407
:101ED0004311EC018B01B42E842F8D7F51F48C8142
:101EE0009D81892B09F497C08E819F81892B09F4EC
:101EF00092C08FEF8B0D823050F488819981892BAD
:101F000009F489C08A819B81892B09F484C04B2DF7
:101F1000B801CE010E94E10D780100E010E0C12C73
:101F2000D12C888590E0C816D9060CF074C081E0E9
:101F3000B8120AC0EA81FB81E00FF11F0190F08125
:101F4000E02DA881B9810DC08C819D812E813F81BA
:101F5000B1100CC0F901E00FF11F0190F081E02DEC
:101F6000DC01A00FB11F8D919C9128C0FC01E00FF6
:101F7000F11F40815181E881F981E00FF11F8081DB
:101F80009181EE85FF854817590710F4CF0104C0F1
:101F90008E0F9F1F841B950BD901A00FB11F2D9190
:101FA0003C91AA81BB81A00FB11F4D915C91241778
:101FB000350720F0E40FF51FE21BF30BE81BF90BCC
:101FC000A9F0D7012D913C9140E050E0281B390B3E
:101FD00041095109A8EEB3E00E9427119F0140E09A
:101FE00050E00E94F91037FD0AC002C020E030E046
:101FF000293EB3E03B072CF028EE33E002C020E09E
:1020000030E0F701219331937F01FFEFCF1ADF0A10
:102010000E5F1F4F86CFCDB7DEB7E9E00C945F119E
:10202000A0E0B0E0E6E1F0E10C943A11EC018B01A4
:10203000822E0E94630F2884E801412C512C32012A
:1020400000E010E0C12CD12C7601312C912C58EEFF
:10205000A52E53E0B52E921421F1E991F991882033
:1020600021F0C5018E1B9F0BFC01E93CF10524F416
:10207000E333F10574F002C033243394DF01A3018C
:1020800092010E943211C60ED71EE81EF91E0E0FD5
:102090001F1F939498EE490E93E0591E611C711C0A
:1020A000DACF31101EC0492D50E04150510924EFC4
:1020B00031E0429FC001439F900D529F900D11242B
:1020C0002091B3013091B40128173907B4F088EE9C
:1020D00093E0489F9001499F300D589F300D112487
:1020E0000EC0980140E050E0C701B6010E94D71031
:1020F0003093B4012093B30102C020E030E0C90165
:10210000CDB7DEB7E2E10C945611CF93DF93EC012B
:102110008A819B81009711F00E940F128E819F810E
:10212000009711F00E940F1288819981009711F099
:102130000E940F128C819D81009711F00E940F1256
:10214000DF91CF910895991B79E004C0991F9617EC
:1021500008F0961B881F7A95C9F780950895AA1BE9
:10216000BB1B51E107C0AA1FBB1FA617B70710F082
:10217000A61BB70B881F991F5A95A9F780959095B4
:10218000BC01CD01089597FB072E16F4009407D0EB
:1021900077FD09D00E94AF1007FC05D03EF4909562
:1021A00081959F4F0895709561957F4F0895A1E2A5
:1021B0001A2EAA1BBB1BFD010DC0AA1FBB1FEE1FC1
:1021C000FF1FA217B307E407F50720F0A21BB30B0C
:1021D000E40BF50B661F771F881F991F1A9469F788
:1021E00060957095809590959B01AC01BD01CF01E4
:1021F0000895052E97FB1EF400940E94101157FDC0
:1022000007D00E94D71007FC03D04EF40C94101195
:1022100050954095309521953F4F4F4F5F4F089512
:1022200090958095709561957F4F8F4F9F4F089542
:10223000A29FB001B39FC001A39F700D811D112407
:10224000911DB29F700D811D1124911D08950E9452
:102250001811A59F900DB49F900DA49F800D911D06
:1022600011240895B7FF0C9427110E942711821B97
:10227000930B08952F923F924F925F926F927F92AD
:102280008F929F92AF92BF92CF92DF92EF92FF9286
:102290000F931F93CF93DF93CDB7DEB7CA1BDB0B32
:1022A0000FB6F894DEBF0FBECDBF09942A883988D7
:1022B00048885F846E847D848C849B84AA84B984DE
:1022C000C884DF80EE80FD800C811B81AA81B981EA
:1022D000CE0FD11D0FB6F894DEBF0FBECDBFED01FE
:1022E0000895EE0FFF1F0590F491E02D09940F93D0
:1022F0001F93CF93DF938230910510F482E090E03A
:10230000E0919702F091980220E030E0A0E0B0E088
:10231000309719F140815181028113814817590783
:10232000C8F08417950769F4109731F012960C9352
:10233000129713961C9327C000939702109398024C
:1023400022C02115310519F04217530718F49A01DC
:10235000BD01EF01DF01F801DBCF21153105F9F0F7
:10236000281B390B2430310580F48A819B8161154B
:10237000710521F0FB019383828304C0909398023E
:1023800080939702FE01329644C0FE01E20FF31FD4
:102390008193919322503109398328833AC0209147
:1023A000950230919602232B41F420911001309137
:1023B0001101309396022093950220910E013091E5
:1023C0000F012115310541F42DB73EB7409112019F
:1023D00050911301241B350BE0919502F091960268
:1023E000E217F307A0F42E1B3F0B2817390778F0EC
:1023F000AC014E5F5F4F2417350748F04E0F5F1F4B
:1024000050939602409395028193919302C0E0E02D
:10241000F0E0CF01DF91CF911F910F910895CF93FD
:10242000DF93009709F481C0FC0132971382128276
:10243000A0919702B0919802109781F42081318188
:10244000820F931F20919502309196022817390729
:1024500051F5F0939602E093950267C0ED0120E0FC
:1024600030E0CE17DF0740F44A815B819E014115C1
:102470005105F1F0EA01F5CFD383C2834081518148
:10248000840F951FC817D90759F488819981840F43
:10249000951F0296918380838A819B819383828397
:1024A0002115310529F4F0939802E09397023DC07D
:1024B000E901FB83EA8349915991C40FD51FEC17B9
:1024C000FD0761F480819181840F951F0296E901D7
:1024D00099838883828193819B838A83E0E0F0E003
:1024E00012968D919C911397009719F0FD01DC01D4
:1024F000F7CF8D919C9111979D012E5F3F4F820FD9
:10250000931F20919502309196022817390769F49C
:10251000309729F4109298021092970202C0138209
:102520001282B0939602A0939502DF91CF91089505
:1025300010E0C4E3D0E004C0FE010E9471112196B6
:0A254000C533D107C9F7F894FFCFA7
:10254A0088130F00F4010400D007040108020000F8
:10255A0099022000FF9C01B501CF01EA010702267A
:10256A0002470269028E02B502DE020A030E0F104A
:10257A001112337069312E310042616420636D6437
:0A258A00006F376C31366372630096
:00000001FF
