:020000040000FA
:060000001AEF22F01200CD
:020006001200E6
:06000800E2EF21F01200FE
:02000E000700E9
:10001000672B0000CC000000010000001745000025
:10002000B90000000700000010450000B200000009
:10003000070000000C450000C000000004000000A4
:10004000F34400008000000019000000F1440000AB
:10005000C900000002000000E24400009900000016
:040060000F0000008D
:0C006400D9CFE6FFE1CFD9FF020EE12664
:10007000DF6A010EDB6A000196510CE0E66A07D0E8
:1000800095C0FBFF94C0FAFF00019351F96EF8DFB1
:10009000E5521BD09EAA06D079EC21F0E76E010E46
:1000A000E7CFDBFF010EDB500FE0010EDBCFE6FFF9
:1000B00007D095C0FBFF94C0FAFF00019351F96E81
:1000C000F8DFE552DF6E01D0DF6ADF50146E020EFA
:1000D000E15C02E2E16AE552E16E1450E552E7CFDD
:1000E000D9FF1200D9CFE6FFE1CFD9FFE652DF6A90
:1000F000FE0EDB503F0A20E0570A1EE0200A1CE0FB
:100100003B0A10E0200A0EE03E0A02E0200A18E155
:100110000001600E936F010E946F000E956F60ECFE
:100120001AF00CD000014A0E936F020E946F000E6D
:10013000956FE6EC1AF002D0FCEC19F0DF6A0AD0F9
:100140000001E40E936F000E946F000E956FDF6A4E
:10015000FCEC19F0DF50E552E552E7CFD9FF120071
:10016000D9CFE6FFE1CFD9FFE652DF6AFE0EDB50C2
:10017000750A47E0200A45E03F0A3BE0200A39E0E3
:10018000280A2FE0200A2DE0300A15E0200A13E0AB
:100190003E0A02E0200A40E100012C0E936F040E9B
:1001A000946F000E956F98EC1AF02B0EE66E260EEB
:1001B000E66E000E0ED000016C0E936F070E946F6A
:1001C000000E956F98EC1AF01B0EE66E260EE66E8A
:1001D000000EE66EF3EC1EF0E552E552E552DF6AE2
:1001E0002ED0110EDF6E0D0EE66E260EE66E000EA0
:1001F00020D01E0EDF6EEF0EE66E250EE66E000EB0
:1002000018D00001E40E936F000E946F000E956FEE
:10021000DF6AFCEC19F013D00001E40E936F000EBE
:10022000946F000E956FDF6AE30EE66E250EE66EA4
:10023000000EE66EF3EC1EF0E552E552E552DF509B
:10024000E552E552E7CFD9FF1200D9CFE6FFE1CF63
:10025000D9FF020EE126DF6AFE0EDB50750A01E1CE
:10026000C2D0200A01E1BFD0340A01E176D0200AD1
:1002700074E0150A4FE0200A4DE0410A3DE0010A12
:100280002EE0070A1FE0010A10E0030A01E0B6D0E1
:10029000D20EE66E250EE66E000EE66EF3EC1EF054
:1002A000E552E552E552170E33D0C10EE66E250E2B
:1002B000E66E000EE66EF3EC1EF0E552E552E552F6
:1002C000180E26D0B00EE66E250EE66E000EE66E17
:1002D000F3EC1EF0E552E552E552190E19D09F0ECF
:1002E000E66E250EE66E000EE66EF3EC1EF0E552AD
:1002F000E552E5521A0E0CD08E0EE66E250EE66E15
:10030000000EE66EF3EC1EF0E552E552E5521B0ED0
:10031000DF6E7FD0C7C0E6FFC8C0E6FF660EE66EA0
:10032000250EE66E000EE66EF3EC1EF0146E050E62
:10033000E15E1450440EE66E250EE66E000EE66E8B
:10034000F3EC1EF0E552E552E5520001E00E936F2A
:100350000A0E946F000E956F5CD0170EE66E250E98
:10036000E66E000EE66EF3EC1EF0E552E552E55245
:10037000010EDB6ADBCF14F0040EE76E1418E8AE52
:1003800002D0E73402D0E750145C23E2010EDBCF49
:10039000E9FFEA6AE9BEEA68D890E936EA36830EF0
:1003A000E926000EEA22E80EEE6E030EED6E010E57
:1003B000DBCFE9FFEA6AE9BEEA68D890E936EA36B7
:1003C0008B0EE926000EEA22EE6AED6A010EDB2AA8
:1003D000D1D70001140E936F0D0E946F000E956F20
:1003E000010E966F16D00001E40E936F000E946F0D
:1003F000000E956FDF6AFCEC19F00BD0090EE66E6B
:10040000250EE66E000EE66EF3EC1EF0E552E552A8
:10041000E552DF50146E020EE15C02E2E16AE55241
:10042000E16E1450E552E7CFD9FF1200D9CFE6FFB5
:10043000E1CFD9FFE652DF6AFE0EDB50750A01E11B
:10044000A7D0200A01E1A4D06B0A01E195D0020AED
:1004500051E07F0A3EE0200A3CE0100A2AE0200A30
:1004600028E03E0A16E0200A14E02B0A03E0200AE6
:1004700001E098D0F00EE66E240EE66E000EE66EF9
:10048000F3EC1EF0E552E552E5520001816B010EDE
:100490002FD0D50EE66E240EE66E000EE66EF3EC5F
:1004A0001EF0E552E552E5520001010E816F020E89
:1004B0001FD0BC0EE66E240EE66E000EE66EF3EC68
:1004C0001EF0E552E552E5520001020E816F030E67
:1004D0000FD0A80EE66E240EE66E000EE66EF3EC6C
:1004E0001EF0E552E552E5520001030E816F040E45
:1004F000DF6E66D0940EE66E240EE66E000EE66E9B
:10050000F3EC1EF0E552E552E55200018151030A79
:100510001EE0010A14E0030A0AE0010A25E1090EBF
:10052000DF6E8C0EE66E240EE66E000E17D00A0EFD
:10053000DF6E820EE66E240EE66E000E0FD00B0EFE
:10054000DF6E7A0EE66E240EE66E000E07D00C0EFD
:10055000DF6E710EE66E240EE66E000EE66EF3ECB4
:100560001EF0E552E552E5520001CC0E936F050EE8
:10057000946F000E956F24D04F0EE66E240EE66E3B
:10058000000EE66EF3EC1EF0E552E552E55218D08F
:100590000001600E936F010E946F000E956F60EC7A
:1005A0001AF00ED0DF6A440EE66E240EE66E000EE0
:1005B000E66EF3EC1EF0E552E552E55298EC1AF0C7
:1005C000DF50E552E552E7CFD9FF1200D9CFE6FF61
:1005D000E1CFD9FFE652DF6AFE0EDB50750A01E17A
:1005E000A7D0200A01E1A4D0690A01E195D0020A4E
:1005F00051E07D0A3EE0200A3CE0100A2AE0200A91
:1006000028E03E0A16E0200A14E02B0A03E0200A44
:1006100001E098D0230EE66E240EE66E000EE66E24
:10062000F3EC1EF0E552E552E5520001816B090E34
:100630002FD0000EE66E240EE66E000EE66EF3EC92
:100640001EF0E552E552E5520001010E816F0A0EDF
:100650001FD0DF0EE66E230EE66E000EE66EF3ECA4
:100660001EF0E552E552E5520001020E816F0B0EBD
:100670000FD0C30EE66E230EE66E000EE66EF3ECB0
:100680001EF0E552E552E5520001030E816F0C0E9B
:10069000DF6E66D0AF0EE66E230EE66E000EE66EDF
:1006A000F3EC1EF0E552E552E55200018151030AD8
:1006B0001EE0010A14E0030A0AE0010A25E1010E26
:1006C000DF6E8C0EE66E240EE66E000E17D0020E64
:1006D000DF6E820EE66E240EE66E000E0FD0030E65
:1006E000DF6E7A0EE66E240EE66E000E07D0040E64
:1006F000DF6E710EE66E240EE66E000EE66EF3EC13
:100700001EF0E552E552E55200012C0E936F040EE7
:10071000946F000E956F24D08D0EE66E230EE66E5C
:10072000000EE66EF3EC1EF0E552E552E55218D0ED
:100730000001600E936F010E946F000E956F60ECD8
:100740001AF00ED0DF6A440EE66E240EE66E000E3E
:10075000E66EF3EC1EF0E552E552E55298EC1AF025
:10076000DF50E552E552E7CFD9FF1200D9CFE6FFBF
:10077000E1CFD9FFE652DF6AFE0EDB50750A01E1D8
:10078000B5D0200A01E1B2D06B0A01E1A3D0020A80
:1007900051E07F0A3EE0200A3CE0100A2AE0200AED
:1007A00028E03E0A16E0200A14E02B0A03E0200AA3
:1007B00001E0A6D0710EE66E230EE66E000EE66E28
:1007C000F3EC1EF0E552E552E5520001826B050E96
:1007D0002FD0530EE66E230EE66E000EE66EF3EC9F
:1007E0001EF0E552E552E5520001010E826F060E41
:1007F0001FD0370EE66E230EE66E000EE66EF3ECAB
:100800001EF0E552E552E5520001020E826F070E1E
:100810000FD0220EE66E230EE66E000EE66EF3ECAF
:100820001EF0E552E552E5520001030E826F080EFC
:10083000DF6E73D00D0EE66E230EE66E000EE66ED2
:10084000F3EC1EF0E552E552E55200018251030A35
:100850001EE0010A14E0030A0AE0010A26E10D0E77
:10086000DF6E8C0EE66E240EE66E000E17D00E0EB6
:10087000DF6E820EE66E240EE66E000E0FD00F0EB7
:10088000DF6E7A0EE66E240EE66E000E07D0100EB6
:10089000DF6E710EE66E240EE66E000EE66EF3EC71
:1008A0001EF0E552E552E5520DD0FE0EE66E220E28
:1008B000E66E000EE66EF3EC1EF0E552E552E552F0
:1008C0000D0EDF6E0001260E936F090E946F000E61
:1008D000956F23D0DB0EE66E220EE66E000EE66EFE
:1008E000F3EC1EF0E552E552E55217D00001600E20
:1008F000936F010E946F000E956F60EC1AF00DD09F
:10090000CD0EE66E220EE66E000EE66EF3EC1EF0E5
:10091000E552E552E55298EC1AF0DF50E552E55207
:10092000E7CFD9FF1200D9CFE6FFE1CFD9FFE652DA
:10093000DF6AFE0EDB50750A01E1B5D0200A01E145
:10094000B2D0690A01E1A3D0020A51E07D0A3EE07B
:10095000200A3CE0100A2AE0200A28E03E0A16E0BD
:10096000200A14E02B0A03E0200A01E0A6D0B10E11
:10097000E66E220EE66E000EE66EF3EC1EF0E55219
:10098000E552E5520001826B0D0E2FD0930EE66EFC
:10099000220EE66E000EE66EF3EC1EF0E552E55216
:1009A000E5520001010E826F0E0E1FD0770EE66E2B
:1009B000220EE66E000EE66EF3EC1EF0E552E552F6
:1009C000E5520001020E826F070E0FD0220EE66E76
:1009D000230EE66E000EE66EF3EC1EF0E552E552D5
:1009E000E5520001030E826F100EDF6E73D0620EAF
:1009F000E66E220EE66E000EE66EF3EC1EF0E55299
:100A0000E552E55200018251030A1EE0010A14E09A
:100A1000030A0AE0010A26E1050EDF6E8C0EE66E7F
:100A2000240EE66E000E17D0060EDF6E820EE66E06
:100A3000240EE66E000E0FD0070EDF6E7A0EE66E05
:100A4000240EE66E000E07D0080EDF6E710EE66E05
:100A5000240EE66E000EE66EF3EC1EF0E552E55253
:100A6000E5520DD0FE0EE66E220EE66E000EE66E2C
:100A7000F3EC1EF0E552E552E552050EDF6E000183
:100A80006C0E936F070E946F000E956F23D03F0E80
:100A9000E66E220EE66E000EE66EF3EC1EF0E552F8
:100AA000E552E55217D00001600E936F010E946F6E
:100AB000000E956F60EC1AF00DD0CD0EE66E220E92
:100AC000E66E000EE66EF3EC1EF0E552E552E552DE
:100AD00098EC1AF0DF50E552E552E7CFD9FF12004B
:100AE000D9CFE6FFE1CFD9FF300EF36EFE0EDBCF9C
:100AF000F4FFF350F45C22E3FE0EDB5039081EE3F2
:100B0000FE0EDBCFE6FFE66A3C0EE66E220EE66ED8
:100B1000000EE66EF3EC1EF0146E050EE15E14504E
:100B2000FE0EDB50D00F0001C76FC86B00017A0EBC
:100B3000936F0B0E946F000E956F1AD0230EE66E16
:100B4000220EE66E000EE66EF3EC1EF0E552E55264
:100B5000E55279EC21F079EC21F0FF0EE66E210EE2
:100B6000E66E000EE66EF3EC1EF0E552E552E5523D
:100B7000000EE552E7CFD9FF1200D9CFE6FFE1CF53
:100B8000D9FF0001000EC75D040EC85901E388D0EB
:100B9000300EF36EFE0EDBCFF4FFF350F45C2CE36B
:100BA000FE0EDB50390828E3FE0EDBCFE6FFE66AD7
:100BB0003C0EE66E220EE66E000EE66EF3EC1EF0C4
:100BC000146E050EE15E1450C7C014F0C8C015F0D5
:100BD0000A0E1502F3CF15F01402F4501526FE0E7E
:100BE000DB500001F324C76F000E1520C86F300ED4
:100BF000C75F000EC85B89D0000ED880C755000EB5
:100C0000C8551EE2C7C0E6FFC8C0E6FFDC0EE66EB0
:100C1000210EE66E000EE66EF3EC1EF0146E050E6D
:100C2000E15E145079EC21F079EC21F000014A0EDC
:100C3000936F020E946F000E956FE6EC1AF065D07C
:100C4000AD0EE66E210EE66E000EE66EF3EC1EF0C3
:100C5000E552E552E55279EC21F079EC21F0C7C07C
:100C6000E6FFC8C0E6FF660EE66E250EE66E000ED5
:100C7000E66EF3EC1EF0146E050EE15E1450440EA9
:100C8000E66E250EE66E000EE66EF3EC1EF0E55203
:100C9000E552E5520001FE0EC76F010EC86F2ED05F
:100CA0007B0EE66E210EE66E000EE66EF3EC1EF095
:100CB000E552E552E55279EC21F079EC21F00001A2
:100CC000FE0EC76F010EC86FC7C0E6FFE66E660E68
:100CD000E66E250EE66E000EE66EF3EC1EF0146E68
:100CE000050EE15E1450440EE66E250EE66E000E13
:100CF000E66EF3EC1EF0E552E552E5520001E00E1F
:100D0000936F0A0E946F000E956F000EE552E7CFB9
:100D1000D9FF1200D9CFE6FFE1CFD9FF050EE66E6D
:100D2000A6EC1DF0E552F3CF14F0F4CF15F000015E
:100D30009851F418E8AE02D0153404D01450975DE1
:100D40001550985906E25E0E936F0D0E946F000ECB
:100D5000956F70DB000EE552E7CFD9FF1200D9CFB7
:100D6000E6FFE1CFD9FF070EE126DE6ADD6A020E5B
:100D7000DB6A030EDB6A050EE66EA6EC1DF0E5529B
:100D8000020EF3CFDBFF030EF4CFDBFF040EE66EA3
:100D9000A6EC1DF0E552F3CFDEFFF4CFDDFF020E2F
:100DA000DBCF14F0030EDBCF15F0DECF16F0DDCF76
:100DB00017F017501518E8AE02D0153404D01450AF
:100DC000165C155017582FE2020EDBCF16F0030EFB
:100DD000DBCF17F0DE50165C146EDD501758156E21
:100DE000040E14C0DBFF050E15C0DBFF040EDBCFC5
:100DF00014F0050EDBCF15F0000115508A19E8AE8E
:100E000002D08A3504D08951145C8A5115583BE2CE
:100E1000040EDBCF89F0050EDBCF8AF0DECF91F038
:100E2000DDCF92F030D0DECF16F0DDCF17F0020E1E
:100E3000DB50165C146E030EDB501758156E040E53
:100E400014C0DBFF050E15C0DBFF040EDBCF14F072
:100E5000050EDBCF15F0000115508A19E8AE02D05F
:100E60008A3504D08951145C8A5115580CE2040E5D
:100E7000DBCF89F0050EDBCF8AF0020EDBCF91F0DD
:100E8000030EDBCF92F0040EE66EA6EC1DF0E552E9
:100E9000F3CF14F0F4CF15F000019851F418E8AE38
:100EA00002D0153404D01450975D1550985906E2BD
:100EB000D80E936F0E0E946F000E956FBBDA000E76
:100EC000146E070EE15C02E2E16AE552E16E145035
:100ED000E552E7CFD9FF1200D9CFE6FFE1CFD9FF26
:100EE000070EE126DE6ADD6A020EDB6A030EDB6AAC
:100EF000040EE66EA6EC1DF0E552020EF3CFDBFF0A
:100F0000030EF4CFDBFFE66EA6EC1DF0E552F3CF47
:100F1000DEFFF4CFDDFF020EDBCF14F0030EDBCFDC
:100F200015F0DECF16F0DDCF17F017501518E8AE2C
:100F300002D0153404D01450165C155017582FE207
:100F4000020EDBCF16F0030EDBCF17F0DE50165C7F
:100F5000146EDD501758156E040E14C0DBFF050E1D
:100F600015C0DBFF040EDBCF14F0050EDBCF15F050
:100F7000000115508819E8AE02D0883504D0875199
:100F8000145C885115583BE2040EDBCF87F0050E48
:100F9000DBCF88F0DECF8FF0DDCF90F030D0DECF2A
:100FA00016F0DDCF17F0020EDB50165C146E030E48
:100FB000DB501758156E040E14C0DBFF050E15C06C
:100FC000DBFF040EDBCF14F0050EDBCF15F00001C4
:100FD00015508819E8AE02D0883504D08751145CCA
:100FE000885115580CE2040EDBCF87F0050EDBCFDD
:100FF00088F0020EDBCF8FF0030EDBCF90F0030EF4
:10100000E66EA6EC1DF0E552F3CF14F0F4CF15F028
:1010100000019851F418E8AE02D0153404D01450F1
:10102000975D1550985906E2500E936F100E946F0D
:10103000000E956FFFD9000E146E070EE15C02E200
:10104000E16AE552E16E1450E552E7CFD9FF120094
:10105000D9CFE6FFE1CFD9FF070EE126DE6ADD6AD0
:10106000020EDB6A030EDB6AE66EA6EC1DF0E552AB
:10107000020EF3CFDBFF030EF4CFDBFF020EE66EB2
:10108000A6EC1DF0E552F3CFDEFFF4CFDDFF020E3C
:10109000DBCF14F0030EDBCF15F0DECF16F0DDCF83
:1010A00017F017501518E8AE02D0153404D01450BC
:1010B000165C155017582FE2020EDBCF16F0030E08
:1010C000DBCF17F0DE50165C146EDD501758156E2E
:1010D000040E14C0DBFF050E15C0DBFF040EDBCFD2
:1010E00014F0050EDBCF15F0000115508619E8AE9F
:1010F00002D0863504D08551145C865115583BE2E8
:10110000040EDBCF85F0050EDBCF86F0DECF8DF051
:10111000DDCF8EF030D0DECF16F0DDCF17F0020E2F
:10112000DB50165C146E030EDB501758156E040E60
:1011300014C0DBFF050E15C0DBFF040EDBCF14F07F
:10114000050EDBCF15F0000115508619E8AE02D070
:10115000863504D08551145C865115580CE2040E76
:10116000DBCF85F0050EDBCF86F0020EDBCF8DF0F6
:10117000030EDBCF8EF0020EE66EA6EC1DF0E552FC
:10118000F3CF14F0F4CF15F000019851F418E8AE45
:1011900002D0153404D01450975D1550985906E2CA
:1011A000C80E936F110E946F000E956F43D9000E09
:1011B000146E070EE15C02E2E16AE552E16E145042
:1011C000E552E7CFD9FF1200D9CFE6FFE1CFD9FF33
:1011D000080EE126DE6ADD6A020EDB6A030EDB6AB8
:1011E000020EE66EA6EC1DF0E552020EF3CFDBFF19
:1011F000030EF4CFDBFF010EE66EA6EC1DF0E55208
:10120000F3CFDEFFF4CFDDFF020EDBCF14F0030ED1
:10121000DBCF15F0DECF16F0DDCF17F01750151825
:10122000E8AE02D0153404D01450165C155017588F
:101230002FE2020EDBCF16F0030EDBCF17F0DE50ED
:10124000165C146EDD501758156E040E14C0DBFFCB
:10125000050E15C0DBFF040EDBCF14F0050EDBCF4F
:1012600015F0000115508419E8AE02D0843504D081
:101270008351145C845115580AE2040EDBCF83F0CD
:10128000050EDBCF84F0DECF8BF0DDCF8CF030D0DD
:10129000DECF16F0DDCF17F0020EDB50165C146EB9
:1012A000030EDB501758156E040E14C0DBFF050E3D
:1012B00015C0DBFF040EDBCF14F0050EDBCF15F0FD
:1012C000000115508419E8AE02D0843504D0835152
:1012D000145C845115580CE2040EDBCF83F0050E2C
:1012E000DBCF84F0020EDBCF8BF0030EDBCF8CF074
:1012F000010EE66EA6EC1DF0E552F3CF14F0F4CF2C
:1013000015F0000198511518E8AE02D0153404D03C
:101310001450975D1550985901E37DD0010EF36E7E
:10132000060EF3CFDBFF060EDBCF14F0040EE76EE4
:101330001418E8AE02D0E73402D0E750145C31E272
:10134000060EDBCFE9FFEA6AE9BEEA68D890E93623
:10135000EA368B0EE926000EEA22EECF14F0EFCF2C
:1013600015F0000115508C19E8AE02D08C3504D070
:101370008B51145C8C51155811E2060EDBCFE9FF3E
:10138000EA6AE9BEEA68D890E936EA368B0EE926C1
:10139000000EEA22EECF8BF0EDCF8CF0060EDB2AAA
:1013A000C2D7C7C0E6FFC8C0E6FF660EE66E250ED0
:1013B000E66E000EE66EF3EC1EF0146E050EE15EB6
:1013C00014508BC0C7F08CC0C8F00001140EC75F6A
:1013D000000EC85BC7C0E6FFC8C0E6FFDC0EE66EC5
:1013E000210EE66E000EE66EF3EC1EF0146E050E96
:1013F000E15E145079EC21F079EC21F000014A0E05
:10140000936F020E946F000E956F0400E6EC1AF0D5
:101410000001966B01D00ED8000E00D0146E080E9D
:10142000E15C02E2E16AE552E16E1450E552E7CF79
:10143000D9FF1200D9CFE6FFE1CFD9FFE6529EAA2D
:101440002BD079EC21F0DF6E79EC21F079EC21F0F2
:10145000DFCF14F0156A14BE156814C0E6FF15C07E
:10146000E6FF760EE66E210EE66E000EE66EF3ECFB
:101470001EF0166E050EE15E16504A0EE66E210E47
:10148000E66E000EE66EF3EC1EF0E552E552E55214
:10149000E6EC1AF00001966BE552E552E7CFD9FF72
:0214A000120038
:0E14A2008DEC0FF0FB0EDBCFF3FFDB06F350FB
:1014B00000090AE0DBEC0FF0FA0E46EC10F0F3E165
:1014C000151CF1E1010E01D0000EBCEF0FF08DEC08
:1014D0000FF03B0EE12402E3E168E652E16E010EFB
:1014E000DB6A020EDB6AF90EDBCFF6FFFA0EDBCF0A
:1014F000F7FFFB0EDBCFF8FF0800F550DF6EDF5083
:1015000002E1E0EF0EF0250EDF5C02E0D3EF0EF01B
:10151000030EDB6A040EDB6A050EDB6A060EDB6A6D
:10152000070EDB6AF5EC0EF02D0EDF5C0CE02B0EE7
:10153000DF5C09E0200EDF5C06E0230EDF5C03E0E9
:10154000300EDF5C1AE1DF50300A14E0130A0FE0BE
:10155000030A0AE00B0A05E0060AE4E1030EDB8059
:10156000E1D7030EDB82DED7030EDB84DBD7030E6D
:10157000DB86D8D7030EDB88D5D72A0EDF5C1BE1CC
:10158000F1EC0EF03FEC0FF010E0030EDB8008688A
:101590000968130EDBCF0DF0140EDBCF0EF001EC5B
:1015A00021F0040E06C0DBFF03D0130E28EC0FF071
:1015B000F5EC0EF00BD0090EDB6A96EC0FF003E0B1
:1015C0000AEC10F0FAD7090E28EC0FF0030EDBB08E
:1015D000DB982E0EDF5C1BE1F5EC0EF02A0EDF5CD3
:1015E0000BE1F1EC0EF03FEC0FF003E1130E7AEC9F
:1015F0000FF0F5EC0EF00BD0090EDB6A96EC0FF055
:1016000003E00AEC10F0FAD7090E7AEC0FF0680E3E
:10161000DF5C07E1F5EC0EF0680EDF5C1DE1030E08
:1016200018D0740EDF5C17E07A0EDF5C14E0480E11
:10163000DF5C06E0540EDF5C03E05A0EDF5C02E183
:10164000020E07D06C0EDF5C03E06A0EDF5C04E183
:10165000010ECDEC0FF0C9DBDF506E0A01E17FD344
:101660001E0A01E192D1200A01E18FD13F0A01E176
:1016700049D11A0A01E146D10D0A01E143D1200AFC
:1016800001E140D13A0A01E13DD1200A01E13AD11C
:10169000260A01E135D10D0A01E132D11A0A01E130
:1016A000D9D0200A4AE0300A1FE0460A0EE0250A97
:1016B00001E083D3D950F90FE96EFF0EDA20EA6E0C
:1016C000010EEE5E000EEE5AEE5ADBEC0FF0250E28
:1016D000E66E95DB03E1151C01E169D3D7EC0FF051
:1016E00001E26BD3DB2A69D3080EDB6A040EDB5000
:1016F000010806E2040EDB049FEC0FF0DB508BDBED
:10170000080EDB5009E0030EDB50010B05E172DB34
:1017100001E04DD3080EDB6A64DBEFCFDFFF4FEC57
:1017200010F003E1151C01E142D3D7EC0FF001E307
:10173000DB2A60DB01E141D33AD3070EDB5002081C
:101740000FE11BEC10F0030EE2EC0FF00E0EEECFEB
:10175000DBFF0F0EEECFDBFF100EEECFDBFF20D056
:10176000F70EDBCF17F0F80EDBCF18F0020E175E86
:10177000000E185AF70E17C0DBFFF80E18C0DBFF7B
:1017800017C0E9FF18C0EAFFD2EC0FF0166A0E0E80
:1017900014C0DBFF0F0E15C0DBFF100E16C0DBFF01
:1017A0000E0EDBCFE6FF0F0EDBCFE6FF100EDBCF1A
:1017B000E6FF7EEC20F0E552E552E552130E07C03D
:1017C000DBFF140E08C0DBFF060EDB5005E0130E36
:1017D00016EC10F001E26ADB3AEC10F002E2130EB4
:1017E00037DBFDEC0FF006E0040E16EC10F002E221
:1017F000050E2EDB030EDBB005D0FCDA01E0D7D2FC
:10180000080EDB6A090EDB6A0E0EDBCFF6FF0F0E49
:10181000DBCFF7FF100EDBCFF8FF0800F550DF6ECF
:10182000DF5014E040EC10F011E24FEC10F003E157
:10183000151C01E1BCD2BBDB01E3DB2A090EDB2A6C
:10184000D9500E0FE96E000ECBDBE7D7D3DA01E1FA
:10185000B4D2ADD2C6DA110EEECFDBFF120EEDCF51
:10186000DBFF110EDBCFE6FF120EDBCFE6FF70ECE5
:1018700020F0E552E552130EF3CFDBFF140EF4CF48
:10188000DBFF060EDB5004E0130ED0DB01E20EDBC3
:101890003AEC10F002E2130EDBDAAFDB05E0040EE7
:1018A000C5DB02E2050ED4DA030EDBB005D0A2DA06
:1018B00001E07DD2080EDB6A090EDB6A110EDBCF78
:1018C000E9FF120EDBCFEAFFEFCFDFFFDF5014E0BE
:1018D000D7DB12E2E4DB03E1151C01E168D267DB30
:1018E00001E3DB2A090EDB2A110EDB2ADBCFE9FF3D
:1018F000120EE8E3DB2AE6D77DDA01E15ED257D2A9
:10190000030EDB8E070EDB0410E195DB040E5ADBC1
:101910000A0EEECFDBFF0B0EEECFDBFF0C0EEECF91
:10192000DBFF0D0EEECFDBFF6CD0070EDB500308A4
:101930002CE1030EDBAE0DD0B2DA020E76DAEFCF79
:1019400014F0156A166A176A14AE39D0156816684D
:1019500035D0F70EDBCF15F0F80EDBCF16F0020E08
:10196000155E000E165AF70E15C0DBFFF80E16C0F6
:10197000DBFF15C0E9FF16C0EAFFEFCF14F00A0E37
:1019800014C0DBFF0B0EDB6A38D0070EDB500208F9
:1019900009E1030EDBAE04D059DB16AE10D00ED039
:1019A00055DB0DD0030EDBAE12D079DA020E3DDA34
:1019B000F9DA166A176A15AE02D016681768E2DA05
:1019C0000C0E16C0DBFF0D0E17C0DBFF1AD0F70E92
:1019D000DBCF16F0F80EDBCF17F0020E165E000E0E
:1019E000175AF70E16C0DBFFF80E17C0DBFF16C044
:1019F000E9FF17C0EAFFD6DAC5DA0C0EDB6A0D0E76
:101A0000DB6A060EDB5005E1010EF36E050EF3CF27
:101A1000DBFF150EDB6A160EDB6AD950370F146E2A
:101A2000000EDA20156E390E14C0DBFF3A0E15C019
:101A3000DBFF380EDB6A080EDB6A0A0EAEDADF5017
:101A4000780A12E0200A10E0280A0CE0200A0AE0D6
:101A50003F0A06E00D0A02E0200A08E1020E05D066
:101A6000080E03D0080EDF26100E97DA030EDBBE39
:101A700002D0DB92DB94DB50800B24E08ADAD89032
:101A8000030EEB50000A08E6000EEE5C000EEE5866
:101A9000000EEE58000EEE5815E213DA0B680C68D3
:101AA0000D680E6801EC20F00A0E02C0DBFF0B0E81
:101AB00003C0DBFF0C0E04C0DBFF0D0E05C0DBFF17
:101AC0002D0E08D0030EDBA202D02B0E03D0DBA418
:101AD00008D0200EF36E170EF3CFDBFF150EDB2AB6
:101AE00002D0170EDB6A050EDB5003E1B7D901E126
:101AF00089D0AE0E146E440E156E000E166E070ED3
:101B0000DBCF17F0186A196A1A6A17C00BF018C0F1
:101B10000CF019C00DF01AC00EF0D3D955EC21F01D
:101B200014500224F36E15500320F46E1650042056
:101B3000F86EF4CFF7FFF3CFF6FF0800090EF5CFEC
:101B4000DBFF580EDF5C0FE1610EF36E090E7BD9EF
:101B50000AE3200E146E090EDBCFE7FF1450E75E98
:101B6000090EE7CFDBFF070EDBCF14F0156A166A0C
:101B7000176A0FDA14C00BF015C00CF016C00DF088
:101B800017C00EF0EECF06F0EECF07F0EECF08F064
:101B9000EFCF09F055EC21F009C0EDFF08C0EDFFD3
:101BA00007C0EDFF06C0EFFF390EDBCFE9FFDB0614
:101BB0003A0EDBCFEAFF01E2DB06090EDBCFEFFFD7
:101BC000150EDB2A4BD995E1030EDBA61DD06F0E57
:101BD000DF5C06E1C1D918E3150EDB285BDA14D00F
:101BE000780EDF5C09E0580EDF5C06E0620EDF5C19
:101BF00003E0420EDF5C08E1020EF36E160EF3CF37
:101C0000DBFF02D0150EDB6A030EDB50100B0EE07B
:101C1000040EDBCF14F0050EDB50D880145406E21E
:101C2000060EDB5003E1040EDB5034DA95D90AE2EC
:101C3000050EDBCFE7FF150EDB50E75E050EE7CFA5
:101C4000DBFF02D0050EDB6A040EDBCF14F0160EAC
:101C500045D9D880145414E2160EDBCFE6FF150EDA
:101C6000DBCFE6FF040EDBCFE6FF050EDB50E552CF
:101C7000E75CE552D880E754E552D880E7545FD955
:101C8000030EDB50010B0BE1080EDB5008E0B2D86D
:101C900001E08DD0080EDB50BED8080EDB6A170EAF
:101CA000DB5007E088D9170EF1D903E1151C01E1DB
:101CB0007ED0160EDB5016E07ED9300EE66E9FD831
:101CC00002E1151C74E077D9DFCFE6FF84EC1FF04A
:101CD000E552E552E552F4CF15F00001F31C02E1A4
:101CE000151C65E0050EDBCF14F0160EDB50D88016
:101CF000145409E2050EDBCFE7FF160EDB50E75E5A
:101D0000050EE7CFDBFF300EE66E050ECBD94FE1B7
:101D1000390EDB2ADBCFE9FF3A0E01E3DB2ADBCF0A
:101D2000EAFF090EEFCFDBFFDB500EE044D9090ECE
:101D3000ADD902E1151C3BE0390EDB2ADBCFE9FF10
:101D40003A0EEDE3DB2AEBD755D831E1160EDBCFA7
:101D5000E6FF080EC3D8E552E7245DD82ED0070E63
:101D6000DB50030A1CE0010A14E0030A07E07BD9F8
:101D7000DBCFEEFF020EDBCFEDFF1FD0F5D8196AE7
:101D800017AE02D0186819682CD8BCD819C0EEFF5D
:101D900014D0EAD817BE186824D8B4D80ED063D9A6
:101DA000DBCFEFFF0AD07BD905E1151C03E1F36817
:101DB000F46810D0FCD801E3DB2A79D97CEF0AF073
:101DC000010EDBCF14F0020EDBCF15F014C0F3FFD1
:101DD00015C0F4FF3B0EE15C02E2E16AE552E16E00
:101DE000CBD029D9020EE2EF0FF061D90800F550EF
:101DF000DF6E1200200EE66E080E52EF10F084EC3B
:101E00001FF0E552E552E552F3CF14F0F4CF15F090
:101E10000001F31C1200146E156AD950010F4DD940
:101E20001450EE261550ED221200185E000E195ABD
:101E3000F70E18C0DBFFF80E19C0DBFF18C0E9FF72
:101E400019C0EAFF1200DBCFF4FFF350F45C12007C
:101E5000DB50E76E040EE7CFDBFF12000A0EDBCF8C
:101E600014F00B0EDBCF15F00C0EDBCF16F00D0EC1
:101E7000DBCF17F014501510161017101200130EA8
:101E8000EECFDBFF140EEDCFDBFF130EDBCF14F034
:101E9000140EDBCF15F00001800E15141200F70EA2
:101EA000DBCF18F0F80EDBCF19F01200050EDB5077
:101EB000E66ED950130F01D9E552E750EE6EED6A88
:101EC00012000A0EDBCF06F00B0EDBCF07F00C0E74
:101ED000DBCF08F00D0EDBCF09F01200DBCFE6FF01
:101EE000150EDBCFE6FF050EDB50E552E724E55289
:101EF000E7241200DB50CED8010EF36E060EF3CFAE
:101F0000DBFF1200EE50EFCFEAFFE96E16C0EEFFE6
:101F100017C0EEFF18C0EEFF1200D9CFE6FFDACFF0
:101F2000E6FFE1CFD9FFE2CFDAFF1200DFCFE6FF15
:101F3000E66AF8EC21F0E552E552F3501200E76E44
:101F4000080EE7CFDBFF1200EECF14F0EECF15F056
:101F5000EFCF16F0176A1200050EDBCF14F0150E46
:101F6000DB50D88014541200010EDBCF16F0020EA5
:101F7000DBCF17F0186A1200E552E5CFDAFFE7CFA2
:101F8000D9FF12000A0E14C0DBFF0B0E15C0DBFFD9
:101F90001200D9500A0F5DEF10F0F36E070EF3CF69
:101FA000DBFF1200EECF14F0EFCF15F01200010EA0
:101FB000DB2A020E1200FC0EDBCFE6FFFD0EDBCFAC
:101FC000E6FF1200145E000E155AF70E14C0DBFF78
:101FD000F80E15C0DBFF14C0E9FF15C0EAFF1200C0
:101FE000DA20EA6EEF2AEECFF6FF000EEF22EECFF8
:101FF000F7FFEF22EECFF8FF1200040EDBCFE6FF73
:10200000130EDB50E552E75C9ADFDB5004DF060E6F
:10201000DB501200090EDB500A0DF350DF24D00F05
:10202000E76E090EE7CFDBFFF5EF0EF0DB50F36E46
:10203000050E23EF0FF0F70EDBCF14F0F80EDBCF19
:1020400015F01200DFCFE6FFFFEF0EF028DF030EE2
:10205000ECDEA4EF0FF051EC0AF0E552E552E55248
:10206000E55200091200BDDEEE50EFCFEAFFE96E47
:10207000010E1200130EDB50F36E040E23EF0FF06F
:10208000040EDB50F36E090E23EF0FF0DBCFE6FFFB
:10209000FFEF0EF0E76E050EE7CFDBFF12008BDFE0
:1020A00022EF10F0DBCFE6FF86DF2BEF10F0D950E8
:1020B000F90FE96EFF0EF0EF0FF0E96E000EDA2077
:0420C000EA6E1200B2
:0C20C4000D6320636F6D6D616E64206E13
:1020D0006F742076616C6964202D2D2062756720F5
:1020E0006D61696E2E63202D2D206D7367206672E1
:1020F0006F6D2066756E6374696F6E206E65775FB5
:1021000073746174650D63000D6320636F6D6D61A1
:102110006E64206E6F742076616C6964202D2D20B2
:10212000627567206D61696E2E63202D2D206D73A1
:10213000672066726F6D2066756E6374696F6E20BE
:102140006D61696E0D6300070C000D0A206162620B
:102150006F72746564206175746F6D61746963205A
:102160007468657365686F6C642064657465637416
:10217000696F6E0D0A0025630D0A000D0A0A092A0F
:102180002A20656E747279206572726F72202A2A15
:10219000207468726573686F6C64206D7573742049
:1021A0006265203C20313032340D0A0A000D0A0AE3
:1021B000092A2A20656E747279206572726F722006
:1021C0002A2A207468726573686F6C64206D757359
:1021D00074206265203E20300D0A0A000D0A546802
:1021E00065206E6577207468726573686F6C642013
:1021F00076616C75652069732025750D0A3E000AAD
:102200000D656E746572207468726573686F6C64B6
:102210002076616C7565203120746F203130323347
:10222000203E000D0A0A092A2A20656E7472792060
:102230006572726F72202A2A0D0A0A002563005205
:1022400069676874206D6F746F722072657665724D
:102250007365202D2D206E6F206368616E67650D9C
:102260000A007269676874206D6F746F7220666F00
:10227000727761726420007269676874206D6F7490
:102280006F72207265766572736520736C6F770D5F
:102290000A3E005269676874206D6F746F72207215
:1022A000657665727365206D656469756D0D0A3EAE
:1022B000005269676874206D6F746F722072657662
:1022C0006572736520666173740D0A3E002077683D
:1022D00061743F202D2D200D0A0A00526967687431
:1022E000206D6F746F7220666F7277617264202D3B
:1022F0002D206E6F206368616E67650D0A00524D78
:102300007370656564206275670D0A3E00726967C7
:102310006874206D6F746F72207265766572736574
:1023200020005269676874206D6F746F7220636F4C
:102330006173740D0A3E007269676874206D6F7472
:102340006F7220666F727761726420736C6F770DA5
:102350000A3E005269676874206D6F746F72206660
:102360006F7277617264206D656469756D0D0A3EE8
:10237000005269676874206D6F746F7220666F72A7
:102380007761726420666173740D0A3E004C656665
:1023900074206D6F746F722072657665727365203C
:1023A0002D2D206E6F206368616E67650D0A006CCD
:1023B000656674206D6F746F7220666F72776172DC
:1023C0006420006C656674206D6F746F7220636F9B
:1023D00061737420726576657273650D0A3E006CD8
:1023E000656674206D6F746F7220736C6F772073E5
:1023F0007065656420726576657273650D0A3E00CE
:102400006C656674206D6F746F72206D656469759C
:102410006D20737065656420726576657273650DF5
:102420000A3E006C656674206D6F746F7220666181
:102430007374207370656564207265766572736568
:102440000D0A3E0020776861743F200D0A0A004C97
:10245000656674206D6F746F7220666F727761723B
:1024600064202D2D206E6F206368616E67650D0AF4
:1024700000636F6173740D0A3E00736C6F770D0A11
:102480003E006D656469756D0D0A3E00666173748A
:102490000D0A3E006C656674206D6F746F72207259
:1024A00065766572736520006C656674206D6F7467
:1024B0006F7220636F6173740D0A3E006C65667401
:1024C000206D6F746F7220736C6F77207370656509
:1024D000640D0A3E006C656674206D6F746F722027
:1024E0006D656469756D2073706565640D0A3E00E5
:1024F0006C656674206D6F746F72206661737420F2
:1025000073706565640D0A3E00776861743F202D25
:102510002D200D0A0A3E006175746F6D6174696348
:10252000207468726573686F6C6420776174636887
:10253000696E6720666F7220696E7075742E2E2E1C
:102540002E0D0A00656E746572207468726573687A
:102550006F6C642076616C7565203120746F20315A
:10256000303233203E007570646174652074687287
:102570006573686F6C640D0A206F6C642076616C03
:10258000756520776173203D2025750D0A00726501
:1025900061642073656E736F7220350D0A3E0072A0
:1025A0006561642073656E736F7220340D0A3E009E
:1025B000726561642073656E736F7220330D0A3E1D
:1025C00000726561642073656E736F7220320D0A4C
:1025D0003E00726561642073656E736F7220310D09
:1025E0000A3E0020776861743F200D0A0A3E00729F
:1025F000756E6E696E67206A6F67207365717565A9
:102600006E63653A20776169743B0D0A00627261FE
:102610006B6520616C6C0D0A093E000952696768A0
:1026200074204D6F746F720A0D3E00094C6566741C
:10263000204D6F746F720A0D3E005C3C4C56443E58
:1026400000203C72657365743E20003C53544B4639
:10265000554C3E003C57445420544F3E003C424FA2
:10266000523E003C504F523E0009202020202020A6
:10267000736C69646520726F626F7420706572702C
:10268000656E646963756C617220746F206C696E2D
:1026900065210D0A000941203D3E204175746F6D92
:1026A00061746963207468726573686F6C64207309
:1026B00065742D75700D0A000954203D3E20736528
:1026C0007420746865207468726573686F6C642028
:1026D00076616C75650D0A000935203D3E207265F6
:1026E00061642073656E736F72203520286C656697
:1026F00074290D0A000934203D3E20726561642072
:1027000073656E736F72203420286C656674290DB2
:102710000A000933203D3E20726561642073656EB6
:10272000736F72203320286C656674290D0A0009C6
:1027300032203D3E20726561642073656E736F7256
:10274000203220286C656674290D0A000D0A0931B3
:10275000203D3E20726561642073656E736F722048
:102760003120286C656674290D0A000955203D3E0C
:10277000207570206F6E65206D656E750A0D0A3EBE
:10278000000943203D3E20636F6173740A0D000908
:102790003E203D3E20666F7277617264202861742E
:1027A0002073616D65207370656564290D0A0009E9
:1027B0003C203D3E20726576657273652028617409
:1027C0002073616D65207370656564290D0A0009C9
:1027D00053203D3E20736C6F772073706565640AEB
:1027E0000D00094D203D3E206D656469756D2073B7
:1027F000706565640A0D000D0A0946203D3E20669D
:102800006173742073706565640A0D000955203D7D
:102810003E20757020746F20746F70206D656E752A
:102820000A0D0A3E00094A203D3E204A6F672053A8
:10283000657175656E63652028636865636B2066E6
:102840006F722072656C6961626C6520636F64658C
:1028500020657865637574696F6E290A0D000942F9
:10286000203D3E206272616B6520616C6C0A0D0038
:102870000952203D3E207269676874206D6F746F45
:10288000720A0D000D0A094C203D3E206C656674ED
:10289000206D6F746F720A0D0009203F206F722047
:1028A00068203D3E2068656C70207072696E7420EF
:1028B00074686973206D656E750A0D0A00092053EE
:1028C000203D3E2073656E736F720A0D0009206D06
:1028D000203D3E206D6F746F720A0D000A09546F1F
:1028E00070204C6576656C204D656E750A0D0A008A
:1028F00020202076657273696F6E20342E3030325E
:10290000204A756C792032362C20323031300A0D55
:102910000020202070726F6772616D206279204400
:10292000616E2050656972636520422E53632E0AE2
:102930000D00202020526F626F7420446961676E21
:102940006F737469630A0D0020202020202020204E
:10295000202020202041505343313239390A0D00C4
:102960000A0D2020204B77616E746C656E20506FCD
:102970006C79746563686E696320556E69766572FB
:10298000736974790A0D000D0A7175697420736595
:102990006E736F722072656164696E67202D2D20E1
:1029A0006275670D0A3E002072617720726561646E
:1029B000696E672025750D0A3E000D0A696E766105
:1029C0006C69642073656E736F7220706F736974C5
:1029D000696F6E202D2D206275670D0A3E002073F1
:1029E000656E736F722035202872696768742C20B9
:1029F000524C535F5269676874434834292C002055
:102A000073656E736F722034202863656E7465720F
:102A10002072696768742C20524C535F436E745265
:102A200069676874434833292C002073656E736F9F
:102A3000722033202863656E7465722C20524C53CB
:102A40005F43656E746572434832292C00207365BC
:102A50006E736F722032202863656E746572206C0D
:102A60006566742C20436E744C6566744348312946
:102A70002C002073656E736F72203120286C6566A0
:102A8000742C20524C535F4C656674434830292C9B
:102A900000756E6B6E6F776E20636F6D6D616E6427
:102AA000202D2D2062756720696E2070726F67720D
:102AB000616D0D0A006379636C65206F76657266DF
:102AC0006C6F77202D2D206A6F675F736571756558
:102AD0006E63650D0A00092E2E2E6275673A206618
:102AE000726F6D206A6F673128290D0A00092E2E3A
:102AF0002E4A6F67312073657175656E636520635B
:102B00006F6D706C657465642025690A0D006379CA
:102B1000636C65206F766572666C6F77202D2D2053
:102B20006A6F675F73657175656E63650D0A00098D
:102B30002E2E2E6275673A2066726F6D206A6F675F
:102B40003228290D0A00092E2E2E4A6F6732207373
:102B5000657175656E636520636F6D706C65746516
:072B6000642025690A0D0045
:012B6700006D
:082B6800D08EF29EF29C2EECCF
:102B700021F059D8100EE66EE66A3C0EE66E3FEC88
:102B80001FF0E552E552E5525ED8836A42EC22F02E
:102B9000000902E093D911D060EC22F0000902E0B4
:102BA0000ADA0BD036EC22F0000902E018DA05D080
:102BB000FCAE02D026DA01D037DA38D83ED840D879
:102BC00045D844DA0A0EE66E0C0EE66EA70EE66EE7
:102BD00039EC20F0E552E552E552829A84908290D9
:102BE0008492060EE66E98EC21F0E552C70EE66E72
:102BF000B3EC21F0E552C70EE66EC6EC1FF0E552CD
:102C0000000EE66EE66AD2EC20F0E552E552000EC8
:102C1000E66EE66AA3EC20F0E552E5520001C76BD0
:102C2000020EC86F1200949C948E1200949094929D
:102C3000949494969498949A1200EF0E926E1200C7
:102C4000C00E936E1200600E956E1200966A12000E
:102C5000D9CFE6FFE1CFD9FF030EE126010EF36ED7
:102C6000020EF3CFDBFFFB0EDBCF16F0FC0EDBCF4B
:102C700017F0FD0EDBCFE9FFEA6AE9BEEA68D890FB
:102C8000E936EA369A0EE926000EEA221650EE24BC
:102C9000146E1750EE2014C0DEFFDD6EDECF14F090
:102CA000DDCF15F00001800E15140EE0020EDB6A78
:102CB00008680968DECF0DF0DDCF0EF001EC21F0E1
:102CC00006C0DEFF07C0DDFFDECF14F0DDCF15F05C
:102CD000153409E214502008030E155404E2200EA6
:102CE000DE6E030EDD6EFE0EDB5015E1DECFE6FF7D
:102CF000DDCFE6FFA3EC20F0E552E552020EDB50FB
:102D000002E1829001D082808250010B02E0849225
:102D100016D0848214D0DECFE6FFDDCFE6FFD2EC02
:102D200020F0E552E552020EDB5002E1829A01D01A
:102D3000828A8250200B02E0849001D08480030EAE
:102D4000E15C02E2E16AE552E16EE552E7CFD9FFCC
:102D50001200200EE66E030EE66ED2EC20F0E55275
:102D6000E552200EE66E030EE66EA3EC20F0E5526F
:102D7000E552849282908490829A1200D9CFE6FF25
:102D8000E1CFD9FFFE0EDBCFE6FFCBEC21F0E55221
:102D90006EEC22F066EC22F00009FCE14EEC22F031
:102DA000E552E7CFD9FF1200870EE66EE7DFE55266
:102DB000F3CF14F0F4CF15F00001F350C75DF450D9
:102DC000C85902E3000E01D0010E00019991E8B04C
:102DD00099818F0EE66ED2DFE552F3CF14F0F4CF77
:102DE00015F00001F350C75DF450C85902E3000E1E
:102DF00001D0010E00019993E8B09983970EE66E19
:102E0000BDDFE552F3CF14F0F4CF15F00001F3501D
:102E1000C75DF450C85902E3000E01D0010E000155
:102E20009995E8B099859F0EE66EA8DFE552F3CF3D
:102E300014F0F4CF15F00001F350C75DF450C859F9
:102E400002E3000E01D0010E00019997E8B09987C6
:102E5000A70EE66E93DFE552F3CF14F0F4CF15F032
:102E60000001F350C75DF450C85902E3000E01D0D1
:102E7000010E00019999E8B0998912000001995159
:102E8000010B02E0839001D083809951020B02E094
:102E9000839201D083829951040B02E0839401D084
:102EA00083849951080B02E0839601D0838699515F
:102EB000100B02E08398120083881200D9CFE6FF3E
:102EC000E1CFD9FF080EE126DE6ADE6ADE6ADD6A3E
:102ED000DD52DD52040EDB6A050EDB6A060EDB6A8C
:102EE000070EDB6A6BEC22F0630EE66E260EE66ED2
:102EF000000EE66EF3EC1EF0E552E552E5528390CB
:102F00008382838483868388D9CFE9FFDACFEAFF7F
:102F10000A0EEE5C000EEE58000EEE58000EEE5853
:102F200040E20400D950040FE96EDACFEAFF300E18
:102F3000EE1806E1750EEE1803E1EE5001E1EE50D9
:102F400014E1040EDB6A050EDB6A060EDB6A070E6F
:102F5000DB6AD9CFE9FFDACFEAFFEE2A000EEE22D4
:102F6000EE22EE228390838211D0D950040FE96EB5
:102F7000DACFEAFF980EEE1806E13A0EEE1803E1FA
:102F8000EE5001E1EE5002E183808392D950040FAC
:102F9000E96EDACFEAFFEE2A000EEE22EE22EE22F2
:102FA000B3D7080EE15C02E2E16AE552E16EE55258
:102FB000E7CFD9FF12006BEC22F05D0EE66E260E15
:102FC000E66E000EE66EF3EC1EF0E552E552E552B9
:102FD0008380838283848386839845EF18F0540E20
:102FE000E66E260EE66E000EE66EF3EC1EF0E5527F
:102FF000E552E5528390838283948386838845EFEC
:1030000018F0FC9E4B0EE66E260EE66E000EE66E87
:10301000F3EC1EF0E552E552E552839083828394EF
:103020008386839845EF18F0410EE66E260EE66E15
:10303000000EE66EF3EC1EF0E552E552E552839089
:10304000838283948396839845EF18F0D08ED2883C
:10305000A284D29ED286D284D282D290A194A0841D
:10306000F28E12003A0EE66E260EE66E000EE66E48
:10307000F3EC1EF0E552E552E552E5DD83908382E4
:1030800083848396838845EF18F0D9CFE6FFE1CF9C
:10309000D9FF040EE126DE6ADE6ADE6ADD6ADD52F1
:1030A000DD520400D9CFE9FFDACFEAFF300EEE1887
:1030B00006E1750EEE1803E1EE5001E1EE5009E174
:1030C000DE6ADE6ADE6ADD6ADD52DD52839083826B
:1030D00010D0D9CFE9FFDACFEAFF980EEE1806E15B
:1030E0003A0EEE1803E1EE5001E1EE5002E183806A
:1030F0008392D9CFE9FFDACFEAFFEE2A000EEE2263
:10310000EE22EE22CED7040EE15C02E2E16AE55245
:0A311000E16EE552E7CFD9FF12008F
:06311A00D9CFE6FFE1CF72
:10312000D9FFFE0EDB5001E194D0FE0EDB50150AF4
:1031300001E182D0060A01E17DD0070A01E178D0E1
:10314000060A74E0030A6FE0010A62E01F0A5BE00E
:10315000010A53E0030A4CE0010A43E0070A3CE09D
:10316000010A35E0030A2EE0010A52E00F0A25E0C9
:10317000010A1EE0030A17E0010A33E0070A0EE025
:10318000010A07E0030A5AE1000EE66EE66A060E3F
:103190002CD0000EE66EE66A050E27D0000EE66E15
:1031A000E66A040E22D0000EE66EE66A060E34D001
:1031B000000EE66EE66A050E2FD0000EE66EE66A99
:1031C000040E2AD0000EE66EE66AE66A0FD0000E04
:1031D000E66EE66A010E09D0000EE66EE66A020EA1
:1031E00004D0000EE66EE66A030EE66EE66A17D0BD
:1031F000000EE66EE66AE66A10D0000EE66EE66A3B
:10320000010EE66E0BD0000EE66EE66A020E04D0EA
:10321000000EE66EE66A030EE66E010EE66E28EC20
:1032200016F0E55213D0A9EC16F013D032D811D015
:103230004AD80FD095D80DD0ACD80BD0910EE66EF1
:103240002A0EE66E000EE66EF3EC1EF0E552E55235
:10325000E552E552E7CFD9FF1200A9EF16F0000EB4
:10326000E66EE66A030EE66EE66A28EC16F0E552B4
:10327000E552E552E552000EE66EE66A030EE66E92
:10328000010EE66E28EC16F0E552E552E552E552E5
:103290001200000EE66EE66A010EE66EE66A28ECA3
:1032A00016F0E552E552E552E552000EE66EE66A8A
:1032B000050EE66E010EE66E28EC16F0E552E552BC
:1032C000E552E5521200000EE66EE66AE66AE66A2C
:1032D00028EC16F0E552E552E552E552000EE66E96
:1032E000E66A060EE66E010EE66E28EC16F0E55272
:1032F000E552E552E5521200000EE66EE66A030E54
:10330000E66EE66A28EC16F0E552E552E552E55223
:10331000000EE66EE66A060EE66E010EE66E28EC1C
:1033200016F0E552E552E552E5521200000EE66E47
:10333000E66A060EE66EE66A28EC16F0E552E552FD
:10334000E552E552000EE66EE66A060EE66E010EE6
:10335000E66E28EC16F0E552E552E552E552120011
:10336000000EE66EE66A050EE66EE66A28EC16F0DA
:10337000E552E552E552E552000EE66EE66A010EB0
:10338000E66EE66E28EC16F0E552E552E552E5529F
:103390001200000EE66EE66A060EE66EE66A28EC9D
:1033A00016F0E552E552E552E552000EE66EE66A89
:1033B000E66A010EE66E28EC16F0E552E552E5529B
:1033C000E5521200000EE66EE66A060EE66EE66A4A
:1033D00028EC16F0E552E552E552E552000EE66E95
:1033E000E66A030EE66E010EE66E28EC16F0E55274
:0833F000E552E552E55212001E
:0833F800600EE66E290EE66E80
:10340000000EE66EF3EC1EF0E552E552E552480E72
:10341000E66E290EE66E000EE66EF3EC1EF0E55247
:10342000E552E552320EE66E290EE66E000EE66EAD
:10343000F3EC1EF0E552E552E552110EE66E290E50
:10344000E66E000EE66EF3EC1EF0E552E552E55234
:10345000F00EE66E280EE66E000EE66EF3EC1EF041
:10346000E552E552E552DC0EE66E280EE66E000EE1
:10347000E66EF3EC1EF0E552E552E552CD0EE66E37
:10348000280EE66E000EE66EF3EC1EF0E552E552F5
:10349000E552BD0EE66E280EE66E000EE66EF3EC0B
:1034A0001EF0E552E552E552990EE66E280EE66EE4
:1034B000000EE66EF3EC1EF0E552E552E552120006
:1034C000840EE66E280EE66E000EE66EF3EC1EF03D
:1034D000E552E552E552700EE66E280EE66E000EDD
:1034E000E66EF3EC1EF0E552E552E5525E0EE66E36
:1034F000280EE66E000EE66EF3EC1EF0E552E55285
:10350000E552250EE66E280EE66E000EE66EF3EC32
:103510001EF0E552E552E5520C0EE66E280EE66E00
:10352000000EE66EF3EC1EF0E552E552E552120095
:10353000F70EE66E270EE66E000EE66EF3EC1EF05A
:10354000E552E552E552E20EE66E270EE66E000EFB
:10355000E66EF3EC1EF0E552E552E552CF0EE66E54
:10356000270EE66E000EE66EF3EC1EF0E552E55215
:10357000E552AF0EE66E270EE66E000EE66EF3EC39
:103580001EF0E552E552E5528F0EE66E270EE66E0E
:10359000000EE66EF3EC1EF0E552E552E552810EA8
:1035A000E66E270EE66E000EE66EF3EC1EF0E552B8
:1035B000E552E5526B0EE66E270EE66E000EE66EE5
:1035C000F3EC1EF0E552E552E55212004C0EE66EA9
:1035D000270EE66E000EE66EF3EC1EF0E552E552A5
:1035E000E5522F0EE66E270EE66E000EE66EF3EC49
:1035F0001EF0E552E552E552120EE66E270EE66E1B
:10360000000EE66EF3EC1EF0E552E552E552F50EC3
:10361000E66E260EE66E000EE66EF3EC1EF0E55248
:10362000E552E552D80EE66E260EE66E000EE66E08
:10363000F3EC1EF0E552E552E552B80EE66E260EAA
:10364000E66E000EE66EF3EC1EF0E552E552E55232
:10365000950EE66E260EE66E000EE66EF3EC1EF09C
:10366000E552E552E552690EE66E260EE66E000E54
:10367000E66EF3EC1EF0E552E552E5526B0EE66E97
:10368000270EE66E000EE66EF3EC1EF0E552E552F4
:04369000E5521200ED
:0C369400D9CFE6FFE1CFD9FF030EE126FD
:1036A000DF6A5BD8E76E010EE7CFDBFFDB50050A70
:1036B0000BE0010A07E0060A03E0020A41E033D00A
:1036C000140E2FD0150E2DD00001B72B000EB823ED
:1036D000B7C0E6FFB8C0E6FF460EE66E2B0EE66EFC
:1036E000000EE66EF3EC1EF0146E050EE15E145053
:1036F0009EAA26D079EC21F0E76E020EE7CFDBFF21
:10370000DB50750804E0020EDB50550805E1200E81
:10371000DF6E60EC1AF014D0020EDB50310810E1BD
:103720001E0EDF6E0DD01D0EDF6E2F0EE66E2B0E01
:10373000E66E000EE66EF3EC1EF0E552E552E55241
:10374000DF50146E030EE15C02E2E16AE552E16EC5
:103750001450E552E7CFD9FF1200D9CFE6FFE1CFF1
:10376000D9FFE652DF6A0001FE0EB55DFF0EB659C5
:1037700004E2B52B000EB62315D0B56BB66B0E0E5A
:10378000E66E2B0EE66E000EE66EF3EC1EF0E552D2
:10379000E552E55207D0B4C0FBFFB3C0FAFF000109
:1037A000B251F96EF8DFDF6EDF50E552E552E7CF38
:1037B000D9FF1200D9CFE6FFE1CFD9FFE652DF6A89
:1037C0000001020EB55D000EB6590AE3B56BB66B8B
:1037D000EC0EB26F370EB36F000EB46F020EDF6ED9
:1037E000DF50E552E552E7CFD9FF1200D9CFE6FF0F
:1037F000E1CFD9FFE652DF6A0001E80EB55D030EA6
:10380000B6590AE3B56BB66B240EB26F380EB36FC0
:10381000000EB46F040EDF6EDF50E552E552E7CFC5
:10382000D9FF1200D9CFE6FFE1CFD9FFE652DF6A18
:103830000001840EB55D030EB65908E3B56BB66B97
:10384000580EB26F380EB36F000EB46F000EE55213
:10385000E552E7CFD9FF12000001B40EB26F370E68
:0C386000B36F000EB46FB56BB66B050CB7
:04386C00D9CFE6FFCB
:10387000E1CFD9FF030EE126DF6A5BD8E76E010EC8
:10388000E7CFDBFFDB50050A0BE0060A07E0020A80
:1038900003E0010A41E033D0120E2FD0130E2DD0D9
:1038A0000001BE2B000EBF23BEC0E6FFBFC0E6FF77
:1038B000ED0EE66E2A0EE66E000EE66EF3EC1EF0DE
:1038C000146E050EE15E14509EAA26D079EC21F00C
:1038D000E76E020EE7CFDBFFDB50750804E0020E57
:1038E000DB50550805E1200EDF6E60EC1AF014D0B5
:1038F000020EDB50320810E11F0EDF6E0DD01D0EE0
:10390000DF6ED60EE66E2A0EE66E000EE66EF3EC65
:103910001EF0E552E552E552DF50146E030EE15CF5
:1039200002E2E16AE552E16E1450E552E7CFD9FFB9
:103930001200D9CFE6FFE1CFD9FFE652DF6A0001DE
:10394000FE0EBC5DFF0EBD5904E2BC2B000EBD2374
:1039500015D0BC6BBD6BB50EE66E2A0EE66E000E82
:10396000E66EF3EC1EF0E552E552E55207D0BBC01F
:10397000FBFFBAC0FAFF0001B951F96EF8DFDF6E44
:10398000DF50E552E552E7CFD9FF1200D9CFE6FF6D
:10399000E1CFD9FFE652DF6A0001020EBC5D000EE6
:1039A000BD590AE3BC6BBD6BC40EB96F390EBA6F5B
:1039B000000EBB6F010EDF6EDF50E552E552E7CF20
:1039C000D9FF1200D9CFE6FFE1CFD9FFE652DF6A77
:1039D0000001E80EBC5D030EBD590AE3BC6BBD6B74
:1039E000FC0EB96F390EBA6F000EBB6F030EDF6E9F
:1039F000DF50E552E552E7CFD9FF1200D9CFE6FFFD
:103A0000E1CFD9FFE652DF6A0001840EBC5D030EF0
:103A1000BD5908E3BC6BBD6B300EB96F3A0EBA6F7F
:103A2000000EBB6F000EE552E552E7CFD9FF120042
:103A300000018C0EB96F390EBA6F000EBB6FBC6BF4
:043A4000BD6B050C49
:0C3A4400D9CFE6FFE1CFD9FFFE0EDB502A
:103A50001B0A3CE0010A2DE0030A1EE0010A0FE008
:103A60000F0A43E1720EE66E2A0EE66E000EE66E57
:103A7000F3EC1EF0E552E552E552870E33D04D0EC1
:103A8000E66E2A0EE66E000EE66EF3EC1EF0E552D0
:103A9000E552E5528F0E26D02A0EE66E2A0EE66E0D
:103AA000000EE66EF3EC1EF0E552E552E552970E7D
:103AB00019D0FF0EE66E290EE66E000EE66EF3ECF0
:103AC0001EF0E552E552E5529F0E0CD0DE0EE66E7A
:103AD000290EE66E000EE66EF3EC1EF0E552E5529E
:103AE000E552A70EE66E10D80AD0BA0EE66E290E81
:103AF000E66E000EE66EF3EC1EF0E552E552E5527E
:103B0000E552E7CFD9FF1200D9CFE6FFE1CFD9FFC9
:103B1000FE0EDBCFE6FFBEEC16F0E552F3CF14F05D
:103B2000F4CF15F0F3CFE6FFF4CFE6FFA70EE66E75
:103B3000290EE66E000EE66EF3EC1EF0166E050E14
:103B4000E15E1650E552E7CFD9FF1200D9CFE6FF6C
:103B5000E1CFD9FF020EE126FE0EDB50050A10E090
:103B6000010A0CE0070A08E0010A04E0030A12E176
:103B7000870E07D08F0E05D0970E03D09F0E01D071
:103B8000A70EE66EBEEC16F0E552F3CFDEFFF4CFE3
:103B9000DDFF0BD0870EE66E290EE66E000EE66E98
:103BA000F3EC1EF0E552E552E552DECF14F0DDCF26
:103BB00015F014C0F3FF15C0F4FF020EE15C02E241
:0E3BC000E16AE552E16EE552E7CFD9FF12004F
:023BCE00D9CF4D
:103BD000E6FFE1CFD9FFE652DF6AB4EC15F0470EFD
:103BE000E66E210EE66E000EE66EF3EC1EF0E55278
:103BF000E552E552FCEC19F00001640EC46F000EB2
:103C0000C56F000EC66FD4EC16F03EEC17F0040042
:103C1000F5EC21F0000902E032EC18F007D0C6C044
:103C2000FBFFC5C0FAFF0001C451F96EF8DFDF6E7B
:103C3000DF5001E140D0DFCF14F0160EE76E14180C
:103C4000E8AE02D0E73402D0E750145C06E2DFCFE2
:103C5000E6FF8DEC18F0E5522ED0DFCF14F01C0EED
:103C6000E76E1418E8AE02D0E73402D0E750145CD7
:103C700006E2DFCFE6FF22EC1DF0E5521CD0DFCFDD
:103C800014F0210EE76E1418E8AE02D0E73402D02B
:103C9000E750145C05E2DFCFE6FF16D8E5520BD003
:103CA000080EE66E210EE66E000EE66EF3EC1EF0D8
:103CB000E552E552E552A7D7E552E552E7CFD9FFE5
:103CC0001200A9EC16F01D0CD9CFE6FFE1CFD9FF09
:103CD000FE0EDB501E0807E100016C0EC46F380EAB
:103CE000C56F000E20D0FE0EDB501F0807E100015B
:103CF000940EC46F360EC56F000E15D0FE0EDB504D
:103D00001D0807E10001640EC46F000EC56F000EB0
:103D10000AD0FE0EDB50200808E10001C20EC46F7D
:103D20003C0EC56F000EC66F0BD0C40EE66E200EA3
:103D3000E66E000EE66EF3EC1EF0E552E552E5523B
:083D4000E552E7CFD9FF1200A4
:083D48000E0EF66E000EF76E80
:103D5000000EF86E00010900F550AD6F0900F55036
:103D6000AE6F03E1AD6701D03DD00900F550A86FFB
:103D70000900F550A96F0900F550AA6F0900090064
:103D8000F550E96E0900F550EA6E090009000900D6
:103D9000F550AB6F0900F550AC6F09000900F6CF84
:103DA000AFF0F7CFB0F0F8CFB1F0A8C0F6FFA9C0E0
:103DB000F7FFAAC0F8FF0001AB5302E1AC5307E0E4
:103DC0000900F550EE6EAB07F8E2AC07F9D7AFC0CB
:103DD000F6FFB0C0F7FFB1C0F8FF0001AD07000E5D
:063DE000AE5BBFD712002C
:0A3DE600D9CFE6FFDACFE6FFE1CF08
:103DF000D9FFE2CFDAFFE652E652E652E652D95058
:103E0000FB0F146EFF0EDA20156E14C0DEFFDD6EA0
:103E1000DECFE6FFDDCFE6FFFB0EDBCFE6FFFC0EDD
:103E2000DBCFE6FFFD0EDBCFE6FFC9C0E6FFCAC071
:103E3000E6FF67EC0AF0146E070EE15C02E2E16A4D
:103E4000E552E16E1450020EF3CFDBFF030EF4CF08
:103E5000DBFF020EDBCF14F0030EDBCF15F014C036
:103E6000F3FF15C0F4FF040EE15C02E2E16AE552E3
:0E3E7000E16EE552E5CFDAFFE7CFD9FF120091
:023E7E00D9CF9A
:103E8000E6FFDACFE6FFE1CFD9FFE2CFDAFFAC6A97
:103E9000AB6AFD0EDBB0AC88DBA202D0AC8CAB8C85
:103EA000DBB4AC8EDBA602D0AB8801D0AB8ADBB82A
:103EB000AC849E98DBBAAB86DBAC02D09D8A01D085
:103EC0009D9A9E9ADBAE02D09D8801D09D98FB0EF4
:103ED000DB50AF6EFB0EFC0EDBCF15F015C014F0FF
:103EE000156A1450B06EAC8AAB8E949C948EAC5014
:103EF000100B04E0AC50800B01E1948CE552E5CF4F
:083F0000DAFFE7CFD9FF120040
:083F0800D9CFE6FFDACFE6FF96
:103F1000E1CFD9FFE2CFDAFFFB0EDBCF14F0FC0ECE
:103F2000DBCF15F00001800E15141AE1FB0EDBCF7C
:103F3000E9FFFC0EDBCFEAFFEECFF3FFEDCFF4FF9E
:103F4000EE2A000EEF22F3CFE9FFF4CFEAFFFD0ED9
:103F5000DBCFEFFFEF50156AF36E15C0F4FF10D002
:103F6000FB0EDB50FE0806E1FD0EDBCFE6FF28EC82
:103F700022F005D0FD0EDBCFE6FF03EC00F0E552AA
:0C3F8000E552E5CFDAFFE7CFD9FF1200D1
:043F8C00D9CFE6FFA4
:103F9000DACFE6FFE1CFD9FFE2CFDAFFE652E65211
:103FA000E652E652F8CF02F0F6CF03F00C0EBA6EEE
:103FB000050EF66EF76A300EF86E0800F550010B2C
:103FC00003E0010EDB6802D0010EDB6A010EDB505C
:103FD00002E0949201D09396CA94FD0EDB50CB6E12
:103FE000CA8402C0F8FF03C0F6FF040EE15C02E2DF
:103FF000E16AE552E16EE552E5CFDAFFE7CFD9FF9E
:024000001200AC
:0E40020006500B02F3CF02F0F4CF03F00C02D5
:10401000F3500326000EF420046E06500D02F350F8
:104020000426000EF420056E06500E02F3500526FD
:1040300007500B02F3500326F4500422000E052211
:1040400007500C02F3500426F450052207500D02CD
:10405000F350052608500B02F3500426F4500522B5
:1040600008500C02F350052609500B02F3500526A8
:0240700012003C
:0E407200D9CFE6FFDACFE6FFE1CFD9FFE2CFEC
:10408000DAFFC26AC06AFC0EDB407F0B3C0BC26EDB
:10409000FC0EDB38F00B300B146EFB0EDB500F0BFD
:1040A0001410C16EFD0EDB50040DF350380B156E6D
:1040B000FD0EDB380F0B070B146EFD0EDB50800B73
:1040C00014101510C06EFC0EDBAE03D09E9C9D8CB0
:1040D000F28CC280E552E5CFDAFFE7CFD9FF1200BC
:1040E000FE0EE3CFE9FFFF0EE3CFEAFFF36AF46AC7
:1040F000EE5203E0F34AF42AFBD71200FF0EE3CF9F
:10410000F8FFE552FF0EE3CFF7FFE552FF0EE3CFD6
:10411000F6FFE552E66AE66AE66A0900F55209E04A
:10412000FD0EE32A05E1FE0EE32A02E1FF0EE32A7B
:10413000F4D7FD0EE3CF07F0FE0EE3CF08F0FF0E3D
:06414000E3CF09F01200BC
:0A414600D9CFE6FFDACFE6FFE1CFA4
:10415000D9FFE2CFDAFFE652E652FC0EDBCF14F0D5
:10416000FD0EDBCF15F0060ED89014361536E80498
:10417000FBE114C0DEFF15C0DDFF010EDB50BB6E9E
:10418000DF50E840E8403F0B300B146ECF0EBA14FE
:104190001410BA6EE552E552E552E5CFDAFFE7CFEB
:0441A000D9FF120031
:0C41A400D9CFE6FFDACFE6FFE1CFD9FF6C
:1041B000E2CFDAFFE652E652FC0EDBCF14F0FD0E42
:1041C000DBCF15F0060ED89014361536E804FBE167
:1041D00014C0DEFF15C0DDFF010EDB50BE6EDF50E8
:1041E000E840E8403F0B300B146ECF0EBD141410A6
:1041F000BD6EE552E552E552E5CFDAFFE7CFD9FFD4
:024200001200AA
:0E42020009C013F008C012F008500D02F4CFEE
:1042100007F0F3CF06F009500E02F4CF09F0F3CF08
:1042200008F00D02F3500726F4500822E86A09222C
:1042300012500E02F3500726F4500822E86A0922B1
:104240000EAE27EF21F01250085E1350095A13AE3C
:0C425000000C0D50085E0E50095A000CC6
:04425C00D9CFE6FFD1
:10426000E1CFD9FF020EE126D38CD38AD3889B8C71
:10427000DE6ADD6ADECF14F0DDCF15F0D890155080
:1042800004E6F40E145C010E155805E2DF2A010E57
:10429000F1E3DB2AEFD7020EE15C02E2E16AE552CC
:0A42A000E16EE552E7CFD9FF1200EE
:0642AA00056A046A036AC4
:1042B000026A200EE76ED8900636073608360936B1
:1042C00002360336043605360B50025C0C50035898
:1042D0000D5004580E50055809E30B50025E0C5067
:1042E000035A0D50045A0E50055A062AE72EE4D7F9
:0242F0001200BA
:0E42F200D9CFE6FFDACFE6FFE1CFD9FFE2CF6A
:10430000DAFFE652F20E0001CB17ABAC03D0CB9133
:10431000ABB0CB81ABB4CB85ABB2CB87AE50DF6E4D
:10432000DF50E552E552E5CFDAFFE7CFD9FF1200C3
:10433000D9CFE6FFDACFE6FFE1CFD9FFE2CFDAFF50
:10434000FD0EDB50FB0BCA6ECC6A9E92FD0EDBAEFF
:1043500002D09D8201D09D92CA84E552E5CFDAFF5A
:06436000E7CFD9FF1200B7
:0A436600D9CFE6FFDACFE6FFE1CF82
:10437000D9FFE2CFDAFF0C0EBD129494CA94FD0E61
:10438000DB50CB6ECA84E552E5CFDAFFE7CFD9FF29
:06439000120094941200DB
:0A439600D9CFE6FFDACFE6FFE1CF52
:1043A000D9FFE2CFDAFFC30EC214146EFD0EDB405C
:1043B0007F0B3C0B1410C26EE552E5CFDAFFE7CF5E
:0443C000D9FF12000F
:0C43C400DACFE4FFE652A19492689368FF
:1043D00094689568030E966E0001010ECC6FA09450
:1043E000D298E552E5CFDAFF11000001CC5112005E
:1043F000F36AF46AFF0EE124E96EFF0EE220EA6E32
:10440000ED6607D02F0EEF6404D03A0EEF6001D0B6
:04441000F32A120079
:0C441400800EF36E00EE00F00F0E01D8D9
:104420001200EA6002D0EE6AFCD7F350E960120095
:04443000EE6AFCD75D
:0C4434001EEE00F02EEE00F0F86A019C75
:10444000A4EC1EF070EC22F0E7EC1DF0FBD712009C
:10445000FF0EE350ACBA04D0AF6AAB8EAC8A949C2A
:0C446000ACA2FED7AD6EF36EF46A120041
:04446C00D0A209D001
:10447000D0A406D0D0A003D0D0B6000C010C000C04
:04448000000C000C20
:0C448400D0B209D0D0A406D0D0B003D034
:0C449000D0A6000C010C000C000C000C6D
:04449C00C450176E83
:0E44A000166AC3501610F36E17C0F4FF120018
:0244AE003031AB
:0F44B000323334353637383961626364656600FC
:0C44C000D0B003D0D0A2000C010C000C06
:0444CC00C250020BCD
:0644D00001E0010E1200E4
:0644D600D082D08012002C
:0444DC00C282120086
:0244E0001200C8
:0E44E20000E0FCA8FD70FE00009001580220D2
:0144F00003C8
:0244F100FEFFCC
:0D44F300000303E803E803E803E80300000A
:0C450000000000000000E4000000BC020D
:04450C0000000000AB
:07451000B4370000000000B9
:074517008C390000000000D8
:020000040030CA
:0100010008F6
:0100020003FA
:0100030007F5
:0100050003F7
:010006008178
:00000001FF
